{
  "contractName": "Purchase",
  "abi": [
    {
      "inputs": [
        {
          "internalType": "uint256",
          "name": "_imageID",
          "type": "uint256"
        },
        {
          "internalType": "address",
          "name": "_purchaser",
          "type": "address"
        },
        {
          "internalType": "address payable",
          "name": "_imageOwner",
          "type": "address"
        },
        {
          "internalType": "address payable",
          "name": "_imageAuthor",
          "type": "address"
        },
        {
          "internalType": "string",
          "name": "_SHA3",
          "type": "string"
        },
        {
          "internalType": "uint256",
          "name": "_duration",
          "type": "uint256"
        }
      ],
      "stateMutability": "payable",
      "type": "constructor"
    },
    {
      "anonymous": false,
      "inputs": [
        {
          "indexed": false,
          "internalType": "uint256",
          "name": "imageID",
          "type": "uint256"
        },
        {
          "indexed": false,
          "internalType": "address",
          "name": "canceller",
          "type": "address"
        }
      ],
      "name": "purchaseDisengage",
      "type": "event"
    },
    {
      "anonymous": false,
      "inputs": [
        {
          "indexed": false,
          "internalType": "uint256",
          "name": "imageID",
          "type": "uint256"
        },
        {
          "indexed": false,
          "internalType": "address",
          "name": "purchaser",
          "type": "address"
        },
        {
          "indexed": false,
          "internalType": "address",
          "name": "imageOwner",
          "type": "address"
        },
        {
          "indexed": false,
          "internalType": "address",
          "name": "imageAuthor",
          "type": "address"
        },
        {
          "indexed": false,
          "internalType": "uint256",
          "name": "amount",
          "type": "uint256"
        }
      ],
      "name": "purchaseLaunched",
      "type": "event"
    },
    {
      "anonymous": false,
      "inputs": [
        {
          "indexed": false,
          "internalType": "uint256",
          "name": "imageID",
          "type": "uint256"
        },
        {
          "indexed": false,
          "internalType": "address",
          "name": "purchaser",
          "type": "address"
        },
        {
          "indexed": false,
          "internalType": "address",
          "name": "imageOwner",
          "type": "address"
        },
        {
          "indexed": false,
          "internalType": "address",
          "name": "imageAuthor",
          "type": "address"
        },
        {
          "indexed": false,
          "internalType": "uint256",
          "name": "amount",
          "type": "uint256"
        }
      ],
      "name": "transferComplete",
      "type": "event"
    },
    {
      "anonymous": false,
      "inputs": [
        {
          "indexed": false,
          "internalType": "uint256",
          "name": "imageID",
          "type": "uint256"
        },
        {
          "indexed": false,
          "internalType": "address",
          "name": "transferor",
          "type": "address"
        },
        {
          "indexed": false,
          "internalType": "address",
          "name": "transferee",
          "type": "address"
        },
        {
          "indexed": false,
          "internalType": "uint256",
          "name": "amount",
          "type": "uint256"
        }
      ],
      "name": "transferFailed",
      "type": "event"
    },
    {
      "inputs": [],
      "name": "checkerImageID",
      "outputs": [
        {
          "internalType": "uint256",
          "name": "",
          "type": "uint256"
        }
      ],
      "stateMutability": "view",
      "type": "function"
    },
    {
      "inputs": [],
      "name": "checkerPurchaser",
      "outputs": [
        {
          "internalType": "address",
          "name": "",
          "type": "address"
        }
      ],
      "stateMutability": "view",
      "type": "function"
    },
    {
      "inputs": [],
      "name": "checkerOwner",
      "outputs": [
        {
          "internalType": "address",
          "name": "",
          "type": "address"
        }
      ],
      "stateMutability": "view",
      "type": "function"
    },
    {
      "inputs": [],
      "name": "checkerAuthor",
      "outputs": [
        {
          "internalType": "address",
          "name": "",
          "type": "address"
        }
      ],
      "stateMutability": "view",
      "type": "function"
    },
    {
      "inputs": [],
      "name": "checkerSHA3",
      "outputs": [
        {
          "internalType": "string",
          "name": "",
          "type": "string"
        }
      ],
      "stateMutability": "view",
      "type": "function"
    },
    {
      "inputs": [],
      "name": "checkerDuration",
      "outputs": [
        {
          "internalType": "uint256",
          "name": "",
          "type": "uint256"
        }
      ],
      "stateMutability": "view",
      "type": "function"
    },
    {
      "inputs": [],
      "name": "checkerEndTime",
      "outputs": [
        {
          "internalType": "uint256",
          "name": "",
          "type": "uint256"
        }
      ],
      "stateMutability": "view",
      "type": "function"
    },
    {
      "inputs": [],
      "name": "checkerLaunchTime",
      "outputs": [
        {
          "internalType": "uint256",
          "name": "",
          "type": "uint256"
        }
      ],
      "stateMutability": "view",
      "type": "function"
    },
    {
      "inputs": [],
      "name": "checkerAmount",
      "outputs": [
        {
          "internalType": "uint256",
          "name": "",
          "type": "uint256"
        }
      ],
      "stateMutability": "view",
      "type": "function"
    },
    {
      "inputs": [],
      "name": "checkerClosed",
      "outputs": [
        {
          "internalType": "bool",
          "name": "",
          "type": "bool"
        }
      ],
      "stateMutability": "view",
      "type": "function"
    },
    {
      "inputs": [],
      "name": "checkerOwnerShare",
      "outputs": [
        {
          "internalType": "uint256",
          "name": "",
          "type": "uint256"
        }
      ],
      "stateMutability": "view",
      "type": "function"
    },
    {
      "inputs": [],
      "name": "checkerAuthorShare",
      "outputs": [
        {
          "internalType": "uint256",
          "name": "",
          "type": "uint256"
        }
      ],
      "stateMutability": "view",
      "type": "function"
    },
    {
      "inputs": [],
      "name": "checkerSender",
      "outputs": [
        {
          "internalType": "address",
          "name": "",
          "type": "address"
        }
      ],
      "stateMutability": "view",
      "type": "function"
    },
    {
      "inputs": [],
      "name": "checkerBalance",
      "outputs": [
        {
          "internalType": "uint256",
          "name": "",
          "type": "uint256"
        }
      ],
      "stateMutability": "view",
      "type": "function"
    },
    {
      "inputs": [],
      "name": "checkerOrigin",
      "outputs": [
        {
          "internalType": "address",
          "name": "",
          "type": "address"
        }
      ],
      "stateMutability": "view",
      "type": "function"
    },
    {
      "inputs": [],
      "name": "checkerTmSp",
      "outputs": [
        {
          "internalType": "uint256",
          "name": "",
          "type": "uint256"
        }
      ],
      "stateMutability": "view",
      "type": "function"
    },
    {
      "inputs": [],
      "name": "confirmPurchase",
      "outputs": [],
      "stateMutability": "payable",
      "type": "function"
    },
    {
      "inputs": [],
      "name": "declinePurchase",
      "outputs": [],
      "stateMutability": "payable",
      "type": "function"
    },
    {
      "inputs": [],
      "name": "cancelPurchase",
      "outputs": [],
      "stateMutability": "payable",
      "type": "function"
    }
  ],
  "bytecode": "0x60806040526000600960006101000a81548160ff02191690831515021790555060405162001fa838038062001fa88339818101604052810190620000449190620006e6565b600073ffffffffffffffffffffffffffffffffffffffff168573ffffffffffffffffffffffffffffffffffffffff1603620000b6576040517f08c379a0000000000000000000000000000000000000000000000000000000008152600401620000ad9062000802565b60405180910390fd5b600073ffffffffffffffffffffffffffffffffffffffff168473ffffffffffffffffffffffffffffffffffffffff160362000128576040517f08c379a00000000000000000000000000000000000000000000000000000000081526004016200011f9062000874565b60405180910390fd5b600073ffffffffffffffffffffffffffffffffffffffff168373ffffffffffffffffffffffffffffffffffffffff16036200019a576040517f08c379a00000000000000000000000000000000000000000000000000000000081526004016200019190620008e6565b60405180910390fd5b6000825103620001e1576040517f08c379a0000000000000000000000000000000000000000000000000000000008152600401620001d89062000958565b60405180910390fd5b600f81101562000228576040517f08c379a00000000000000000000000000000000000000000000000000000000081526004016200021f90620009ca565b60405180910390fd5b8560008190555084600160006101000a81548173ffffffffffffffffffffffffffffffffffffffff021916908373ffffffffffffffffffffffffffffffffffffffff16021790555083600260006101000a81548173ffffffffffffffffffffffffffffffffffffffff021916908373ffffffffffffffffffffffffffffffffffffffff16021790555082600360006101000a81548173ffffffffffffffffffffffffffffffffffffffff021916908373ffffffffffffffffffffffffffffffffffffffff16021790555080600581905550426006819055508060065462000310919062000a1b565b60078190555081600490805190602001906200032e929190620003b4565b5034600881905550600a60085462000347919062000aa7565b600a81905550600a546008546200035f919062000adf565b600b819055507f881398ee76a74d936f5b826b7cca23946040cc0fbb7df9646c3173c8e8c5eedb86868686600854604051620003a095949392919062000ba7565b60405180910390a150505050505062000c68565b828054620003c29062000c33565b90600052602060002090601f016020900481019282620003e6576000855562000432565b82601f106200040157805160ff191683800117855562000432565b8280016001018555821562000432579182015b828111156200043157825182559160200191906001019062000414565b5b50905062000441919062000445565b5090565b5b808211156200046057600081600090555060010162000446565b5090565b6000604051905090565b600080fd5b600080fd5b6000819050919050565b6200048d8162000478565b81146200049957600080fd5b50565b600081519050620004ad8162000482565b92915050565b600073ffffffffffffffffffffffffffffffffffffffff82169050919050565b6000620004e082620004b3565b9050919050565b620004f281620004d3565b8114620004fe57600080fd5b50565b6000815190506200051281620004e7565b92915050565b60006200052582620004b3565b9050919050565b620005378162000518565b81146200054357600080fd5b50565b60008151905062000557816200052c565b92915050565b600080fd5b600080fd5b6000601f19601f8301169050919050565b7f4e487b7100000000000000000000000000000000000000000000000000000000600052604160045260246000fd5b620005b28262000567565b810181811067ffffffffffffffff82111715620005d457620005d362000578565b5b80604052505050565b6000620005e962000464565b9050620005f78282620005a7565b919050565b600067ffffffffffffffff8211156200061a576200061962000578565b5b620006258262000567565b9050602081019050919050565b60005b838110156200065257808201518184015260208101905062000635565b8381111562000662576000848401525b50505050565b60006200067f6200067984620005fc565b620005dd565b9050828152602081018484840111156200069e576200069d62000562565b5b620006ab84828562000632565b509392505050565b600082601f830112620006cb57620006ca6200055d565b5b8151620006dd84826020860162000668565b91505092915050565b60008060008060008060c087890312156200070657620007056200046e565b5b60006200071689828a016200049c565b96505060206200072989828a0162000501565b95505060406200073c89828a0162000546565b94505060606200074f89828a0162000546565b935050608087015167ffffffffffffffff81111562000773576200077262000473565b5b6200078189828a01620006b3565b92505060a06200079489828a016200049c565b9150509295509295509295565b600082825260208201905092915050565b7f696e76616c696420707572636861736572206164647265737300000000000000600082015250565b6000620007ea601983620007a1565b9150620007f782620007b2565b602082019050919050565b600060208201905081810360008301526200081d81620007db565b9050919050565b7f696e76616c696420696d616765206f776e657220616464726573730000000000600082015250565b60006200085c601b83620007a1565b9150620008698262000824565b602082019050919050565b600060208201905081810360008301526200088f816200084d565b9050919050565b7f696e76616c696420696d61676520617574686f72206164647265737300000000600082015250565b6000620008ce601c83620007a1565b9150620008db8262000896565b602082019050919050565b600060208201905081810360008301526200090181620008bf565b9050919050565b7f696e76616c696420736861330000000000000000000000000000000000000000600082015250565b600062000940600c83620007a1565b91506200094d8262000908565b602082019050919050565b60006020820190508181036000830152620009738162000931565b9050919050565b7f74696d6520746f6f2073686f7274000000000000000000000000000000000000600082015250565b6000620009b2600e83620007a1565b9150620009bf826200097a565b602082019050919050565b60006020820190508181036000830152620009e581620009a3565b9050919050565b7f4e487b7100000000000000000000000000000000000000000000000000000000600052601160045260246000fd5b600062000a288262000478565b915062000a358362000478565b9250827fffffffffffffffffffffffffffffffffffffffffffffffffffffffffffffffff0382111562000a6d5762000a6c620009ec565b5b828201905092915050565b7f4e487b7100000000000000000000000000000000000000000000000000000000600052601260045260246000fd5b600062000ab48262000478565b915062000ac18362000478565b92508262000ad45762000ad362000a78565b5b828204905092915050565b600062000aec8262000478565b915062000af98362000478565b92508282101562000b0f5762000b0e620009ec565b5b828203905092915050565b62000b258162000478565b82525050565b62000b3681620004d3565b82525050565b6000819050919050565b600062000b6762000b6162000b5b84620004b3565b62000b3c565b620004b3565b9050919050565b600062000b7b8262000b46565b9050919050565b600062000b8f8262000b6e565b9050919050565b62000ba18162000b82565b82525050565b600060a08201905062000bbe600083018862000b1a565b62000bcd602083018762000b2b565b62000bdc604083018662000b96565b62000beb606083018562000b96565b62000bfa608083018462000b1a565b9695505050505050565b7f4e487b7100000000000000000000000000000000000000000000000000000000600052602260045260246000fd5b6000600282049050600182168062000c4c57607f821691505b60208210810362000c625762000c6162000c04565b5b50919050565b6113308062000c786000396000f3fe6080604052600436106101145760003560e01c806386da7955116100a0578063be31d9be11610064578063be31d9be14610331578063d69606971461035c578063e1eefd1214610366578063e485e34b14610391578063ea9f3242146103bc57610114565b806386da79551461027b57806399685f45146102a6578063a2667441146102d1578063a6fe3ae8146102fc578063ab460a261461032757610114565b806350621619116100e757806350621619146101a457806350d519d5146101cf5780636613f9b0146101fa5780636a1edb90146102255780637f4d7be51461025057610114565b8063087279cb1461011957806308a26245146101445780631e7cc2281461016f5780634773fb7c1461019a575b600080fd5b34801561012557600080fd5b5061012e6103e7565b60405161013b9190610df6565b60405180910390f35b34801561015057600080fd5b506101596103fe565b6040516101669190610e2a565b60405180910390f35b34801561017b57600080fd5b50610184610406565b6040516101919190610e2a565b60405180910390f35b6101a2610410565b005b3480156101b057600080fd5b506101b961067c565b6040516101c69190610e86565b60405180910390f35b3480156101db57600080fd5b506101e4610684565b6040516101f19190610e86565b60405180910390f35b34801561020657600080fd5b5061020f6106ae565b60405161021c9190610e2a565b60405180910390f35b34801561023157600080fd5b5061023a6106b8565b6040516102479190610e2a565b60405180910390f35b34801561025c57600080fd5b506102656106c2565b6040516102729190610e2a565b60405180910390f35b34801561028757600080fd5b506102906106cc565b60405161029d9190610e2a565b60405180910390f35b3480156102b257600080fd5b506102bb6106d6565b6040516102c89190610f3a565b60405180910390f35b3480156102dd57600080fd5b506102e6610768565b6040516102f39190610e86565b60405180910390f35b34801561030857600080fd5b50610311610770565b60405161031e9190610e86565b60405180910390f35b61032f61079a565b005b34801561033d57600080fd5b506103466109c1565b6040516103539190610e2a565b60405180910390f35b6103646109cb565b005b34801561037257600080fd5b5061037b610da0565b6040516103889190610e2a565b60405180910390f35b34801561039d57600080fd5b506103a6610da9565b6040516103b39190610e2a565b60405180910390f35b3480156103c857600080fd5b506103d1610db1565b6040516103de9190610e86565b60405180910390f35b6000600960009054906101000a900460ff16905090565b600047905090565b6000600554905090565b600754421115610455576040517f08c379a000000000000000000000000000000000000000000000000000000000815260040161044c90610fa8565b60405180910390fd5b600260009054906101000a900473ffffffffffffffffffffffffffffffffffffffff1673ffffffffffffffffffffffffffffffffffffffff163373ffffffffffffffffffffffffffffffffffffffff16146104e5576040517f08c379a00000000000000000000000000000000000000000000000000000000081526004016104dc90611014565b60405180910390fd5b60001515600960009054906101000a900460ff1615151461053b576040517f08c379a000000000000000000000000000000000000000000000000000000000815260040161053290611080565b60405180910390fd5b6001600960006101000a81548160ff021916908315150217905550600160009054906101000a900473ffffffffffffffffffffffffffffffffffffffff1673ffffffffffffffffffffffffffffffffffffffff166108fc6008549081150290604051600060405180830381858888f1935050505015610616577fb92a7474c1491f709d736b42aeaaf2e23fa8e029038e11454064047d69cff1fd600054600260009054906101000a900473ffffffffffffffffffffffffffffffffffffffff166040516106099291906110ff565b60405180910390a161067a565b7f334fb4fd766fd73b45db9b4375fcb21c6393a6395639acf9cfcd4ad4d8f831a960005430600160009054906101000a900473ffffffffffffffffffffffffffffffffffffffff166008546040516106719493929190611128565b60405180910390a15b565b600033905090565b6000600360009054906101000a900473ffffffffffffffffffffffffffffffffffffffff16905090565b6000600b54905090565b6000600754905090565b6000600654905090565b6000600854905090565b6060600480546106e59061119c565b80601f01602080910402602001604051908101604052809291908181526020018280546107119061119c565b801561075e5780601f106107335761010080835404028352916020019161075e565b820191906000526020600020905b81548152906001019060200180831161074157829003601f168201915b5050505050905090565b600032905090565b6000600160009054906101000a900473ffffffffffffffffffffffffffffffffffffffff16905090565b600160009054906101000a900473ffffffffffffffffffffffffffffffffffffffff1673ffffffffffffffffffffffffffffffffffffffff163373ffffffffffffffffffffffffffffffffffffffff161461082a576040517f08c379a000000000000000000000000000000000000000000000000000000000815260040161082190611219565b60405180910390fd5b60001515600960009054906101000a900460ff16151514610880576040517f08c379a000000000000000000000000000000000000000000000000000000000815260040161087790611080565b60405180910390fd5b6001600960006101000a81548160ff021916908315150217905550600160009054906101000a900473ffffffffffffffffffffffffffffffffffffffff1673ffffffffffffffffffffffffffffffffffffffff166108fc6008549081150290604051600060405180830381858888f193505050501561095b577fb92a7474c1491f709d736b42aeaaf2e23fa8e029038e11454064047d69cff1fd600054600160009054906101000a900473ffffffffffffffffffffffffffffffffffffffff1660405161094e929190611239565b60405180910390a16109bf565b7f334fb4fd766fd73b45db9b4375fcb21c6393a6395639acf9cfcd4ad4d8f831a960005430600160009054906101000a900473ffffffffffffffffffffffffffffffffffffffff166008546040516109b69493929190611128565b60405180910390a15b565b6000600a54905090565b600754421115610a10576040517f08c379a0000000000000000000000000000000000000000000000000000000008152600401610a0790610fa8565b60405180910390fd5b600260009054906101000a900473ffffffffffffffffffffffffffffffffffffffff1673ffffffffffffffffffffffffffffffffffffffff163273ffffffffffffffffffffffffffffffffffffffff1614610aa0576040517f08c379a0000000000000000000000000000000000000000000000000000000008152600401610a9790611014565b60405180910390fd5b60001515600960009054906101000a900460ff16151514610af6576040517f08c379a0000000000000000000000000000000000000000000000000000000008152600401610aed90611080565b60405180910390fd5b6001600960006101000a81548160ff0219169083151502179055506000600260009054906101000a900473ffffffffffffffffffffffffffffffffffffffff1673ffffffffffffffffffffffffffffffffffffffff166108fc600b549081150290604051600060405180830381858888f1935050505090506000600360009054906101000a900473ffffffffffffffffffffffffffffffffffffffff1673ffffffffffffffffffffffffffffffffffffffff166108fc600a549081150290604051600060405180830381858888f193505050509050818015610bd55750805b15610c84577f510f7b8f98708568c2f56b4cdfbb596f1f25387d3ddf4bfff080357ccf4eac38600054600160009054906101000a900473ffffffffffffffffffffffffffffffffffffffff16600260009054906101000a900473ffffffffffffffffffffffffffffffffffffffff16600360009054906101000a900473ffffffffffffffffffffffffffffffffffffffff16600854604051610c7b959493929190611262565b60405180910390a15b8115610d10577f334fb4fd766fd73b45db9b4375fcb21c6393a6395639acf9cfcd4ad4d8f831a9600054600160009054906101000a900473ffffffffffffffffffffffffffffffffffffffff16600260009054906101000a900473ffffffffffffffffffffffffffffffffffffffff16600b54604051610d0794939291906112b5565b60405180910390a15b8015610d9c577f334fb4fd766fd73b45db9b4375fcb21c6393a6395639acf9cfcd4ad4d8f831a9600054600160009054906101000a900473ffffffffffffffffffffffffffffffffffffffff16600360009054906101000a900473ffffffffffffffffffffffffffffffffffffffff16600a54604051610d9394939291906112b5565b60405180910390a15b5050565b60008054905090565b600042905090565b6000600260009054906101000a900473ffffffffffffffffffffffffffffffffffffffff16905090565b60008115159050919050565b610df081610ddb565b82525050565b6000602082019050610e0b6000830184610de7565b92915050565b6000819050919050565b610e2481610e11565b82525050565b6000602082019050610e3f6000830184610e1b565b92915050565b600073ffffffffffffffffffffffffffffffffffffffff82169050919050565b6000610e7082610e45565b9050919050565b610e8081610e65565b82525050565b6000602082019050610e9b6000830184610e77565b92915050565b600081519050919050565b600082825260208201905092915050565b60005b83811015610edb578082015181840152602081019050610ec0565b83811115610eea576000848401525b50505050565b6000601f19601f8301169050919050565b6000610f0c82610ea1565b610f168185610eac565b9350610f26818560208601610ebd565b610f2f81610ef0565b840191505092915050565b60006020820190508181036000830152610f548184610f01565b905092915050565b7f436f6e74726163742068617320636c6f73656421000000000000000000000000600082015250565b6000610f92601483610eac565b9150610f9d82610f5c565b602082019050919050565b60006020820190508181036000830152610fc181610f85565b9050919050565b7f57686f2061726520796f753f0000000000000000000000000000000000000000600082015250565b6000610ffe600c83610eac565b915061100982610fc8565b602082019050919050565b6000602082019050818103600083015261102d81610ff1565b9050919050565b7f616c726561647920646f6e650000000000000000000000000000000000000000600082015250565b600061106a600c83610eac565b915061107582611034565b602082019050919050565b600060208201905081810360008301526110998161105d565b9050919050565b6000819050919050565b60006110c56110c06110bb84610e45565b6110a0565b610e45565b9050919050565b60006110d7826110aa565b9050919050565b60006110e9826110cc565b9050919050565b6110f9816110de565b82525050565b60006040820190506111146000830185610e1b565b61112160208301846110f0565b9392505050565b600060808201905061113d6000830187610e1b565b61114a6020830186610e77565b6111576040830185610e77565b6111646060830184610e1b565b95945050505050565b7f4e487b7100000000000000000000000000000000000000000000000000000000600052602260045260246000fd5b600060028204905060018216806111b457607f821691505b6020821081036111c7576111c661116d565b5b50919050565b7f796f752063616e6e6f742063616e63656c207468697300000000000000000000600082015250565b6000611203601683610eac565b915061120e826111cd565b602082019050919050565b60006020820190508181036000830152611232816111f6565b9050919050565b600060408201905061124e6000830185610e1b565b61125b6020830184610e77565b9392505050565b600060a0820190506112776000830188610e1b565b6112846020830187610e77565b61129160408301866110f0565b61129e60608301856110f0565b6112ab6080830184610e1b565b9695505050505050565b60006080820190506112ca6000830187610e1b565b6112d76020830186610e77565b6112e460408301856110f0565b6112f16060830184610e1b565b9594505050505056fea2646970667358221220d85f361826863ee6be291db35cca3bfbcf9c97bd5ed09fe69be67afcd385235564736f6c634300080d0033",
  "immutableReferences": {},
  "source": "// SPDX-License-Identifier: SimPL-2.0\r\npragma solidity ^0.8.12;\r\n\r\nimport \"./Release.sol\";\r\n\r\ncontract Purchase {\r\n    uint imageID; \r\n    address purchaser;\r\n    address payable imageOwner;\r\n    address payable imageAuthor;\r\n    string SHA3;\r\n    uint duration;\r\n    uint launchTime;\r\n    uint endTime;\r\n    uint256 amount;\r\n    bool isClosed = false;\r\n    \r\n    uint authorShare;\r\n    uint ownerShare;\r\n\r\n    event purchaseLaunched(uint imageID,address purchaser, address imageOwner, address imageAuthor, uint amount);\r\n    event transferComplete(uint imageID,address purchaser, address imageOwner, address imageAuthor, uint amount);\r\n    event transferFailed(uint imageID,address transferor, address transferee, uint amount);\r\n    event purchaseDisengage(uint imageID, address canceller);\r\n\r\n    // function checkerRelease()     public view returns (address)       { return address(contractRelease); }\r\n    function checkerImageID()     public view returns (uint)          { return imageID; }\r\n    function checkerPurchaser()   public view returns (address)       { return purchaser; }\r\n    function checkerOwner()       public view returns (address)       { return imageOwner; }\r\n    function checkerAuthor()      public view returns (address)       { return imageAuthor; }\r\n    function checkerSHA3()        public view returns (string memory) { return SHA3; }\r\n    function checkerDuration()    public view returns (uint)          { return duration; }\r\n    function checkerEndTime()     public view returns (uint)          { return endTime; }\r\n    function checkerLaunchTime()  public view returns (uint)          { return launchTime; }\r\n    function checkerAmount()      public view returns (uint256)       { return amount; }\r\n    function checkerClosed()      public view returns (bool)          { return isClosed;}\r\n    function checkerOwnerShare()  public view returns (uint)          { return ownerShare;}\r\n    function checkerAuthorShare() public view returns (uint)          { return authorShare;}\r\n    \r\n\r\n    function checkerSender()      public view returns (address) { return msg.sender; }\r\n    function checkerBalance()     public view returns (uint256) { return address(this).balance; }\r\n    function checkerOrigin()      public view returns (address) { return tx.origin; }\r\n    function checkerTmSp()        public view returns (uint)    { return block.timestamp; }\r\n\r\n    constructor(\r\n        // address releaseAddress,\r\n        uint _imageID,\r\n        address _purchaser,\r\n        address payable _imageOwner,\r\n        address payable _imageAuthor,\r\n        string memory _SHA3,\r\n        uint _duration\r\n    ) payable {\r\n        //evm ensures address should be valid otherwise contract will not be created\r\n        //BUT I still check addresses for precaution\r\n        require(_purchaser != address(0x0), \"invalid purchaser address\");\r\n        require(_imageOwner != address(0x0), \"invalid image owner address\");\r\n        require(_imageAuthor != address(0x0), \"invalid image author address\");\r\n        require(bytes(_SHA3).length != 0, \"invalid sha3\");\r\n        require(_duration >= 15, \"time too short\");\r\n\r\n        // contractRelease = Release(releaseAddress);\r\n\r\n        // require(_imageID > 0 && _imageID <= contractRelease.imageCount(), \"invalid image ID\");\r\n        // require(_imageOwner == contractRelease.getImageOwner(_imageID), \"wrong owner\");\r\n        // require(_imageAuthor == contractRelease.getImageAuthor(_imageID), \"wrong author\");\r\n\r\n        imageID = _imageID;\r\n        purchaser = _purchaser;\r\n        imageOwner = _imageOwner;\r\n        imageAuthor = _imageAuthor;\r\n        duration = _duration;\r\n        launchTime = block.timestamp;\r\n        endTime = launchTime + _duration;\r\n        SHA3 = _SHA3;\r\n        amount = msg.value;\r\n\r\n        authorShare = amount / 10 ;\r\n        ownerShare = amount - authorShare;\r\n        emit purchaseLaunched(_imageID, _purchaser, _imageOwner, _imageAuthor, amount);\r\n    }\r\n\r\n    function confirmPurchase() public payable {\r\n        require(block.timestamp <= endTime, \"Contract has closed!\");        \r\n        require(tx.origin == imageOwner, \"Who are you?\");  \r\n        require(isClosed == false, \"already done\");\r\n        isClosed = true;\r\n\r\n        bool tsfOwnerFlag =  (payable(imageOwner)).send(ownerShare);\r\n        bool tsfAuthorFlag = (payable(imageAuthor)).send(authorShare);\r\n\r\n        if (tsfOwnerFlag && tsfAuthorFlag) {\r\n          emit transferComplete(imageID, purchaser, imageOwner, imageAuthor, amount);\r\n        } \r\n        if (tsfOwnerFlag){\r\n          emit transferFailed(imageID, purchaser, imageOwner, ownerShare); \r\n        }\r\n        if (tsfAuthorFlag){\r\n          emit transferFailed(imageID, purchaser, imageAuthor, authorShare);\r\n        }\r\n\r\n    }\r\n\r\n    function declinePurchase() public payable {\r\n      require(block.timestamp <= endTime, \"Contract has closed!\");\r\n      require(msg.sender == imageOwner, \"Who are you?\");  \r\n      require(isClosed == false, \"already done\");\r\n      // require(contractRelease.getImageOwner(imageID) == imageOwner, \"\");\r\n      \r\n      isClosed = true;\r\n\r\n      if ((payable(purchaser)).send(amount)) {\r\n        emit purchaseDisengage(imageID, imageOwner);\r\n      }else {\r\n        emit transferFailed(imageID, address(this), purchaser, amount);\r\n      }\r\n    }\r\n\r\n    function cancelPurchase() public payable {\r\n      require(msg.sender == purchaser, \"you cannot cancel this\");\r\n      require(isClosed == false, \"already done\");\r\n      // require(contractRelease.getImageOwner(imageID) == imageOwner, \"\");\r\n\r\n      isClosed = true;\r\n\r\n      if ((payable(purchaser)).send(amount)) {\r\n        emit purchaseDisengage(imageID, purchaser);\r\n      }else {\r\n        emit transferFailed(imageID, address(this), purchaser, amount);\r\n      }\r\n    }\r\n}\r\n",
  "sourcePath": "D:\\Fun\\proj12\\Dimage\\contracts\\Purchase.sol",
  "compiler": {
    "name": "solc",
    "version": "0.8.13+commit.abaa5c0e.Emscripten.clang"
  },
  "schemaVersion": "3.4.5",
  "updatedAt": "2022-04-26T10:13:57.910Z",
  "devdoc": {
    "kind": "dev",
    "methods": {},
    "version": 1
  },
  "userdoc": {
    "kind": "user",
    "methods": {},
    "version": 1
  }
}