{
  "contractName": "Purchase",
  "abi": [
    {
      "inputs": [
        {
          "internalType": "address",
          "name": "releaseAddress",
          "type": "address"
        },
        {
          "internalType": "uint256",
          "name": "_imageID",
          "type": "uint256"
        },
        {
          "internalType": "address",
          "name": "_purchaser",
          "type": "address"
        },
        {
          "internalType": "address payable",
          "name": "_imageOwner",
          "type": "address"
        },
        {
          "internalType": "address payable",
          "name": "_imageAuthor",
          "type": "address"
        },
        {
          "internalType": "uint256",
          "name": "_duration",
          "type": "uint256"
        },
        {
          "internalType": "bytes32",
          "name": "_SHA3",
          "type": "bytes32"
        }
      ],
      "stateMutability": "payable",
      "type": "constructor"
    },
    {
      "anonymous": false,
      "inputs": [
        {
          "indexed": false,
          "internalType": "uint256",
          "name": "imageID",
          "type": "uint256"
        },
        {
          "indexed": false,
          "internalType": "address",
          "name": "canceller",
          "type": "address"
        }
      ],
      "name": "purchaseDisengage",
      "type": "event"
    },
    {
      "anonymous": false,
      "inputs": [
        {
          "indexed": false,
          "internalType": "uint256",
          "name": "imageID",
          "type": "uint256"
        },
        {
          "indexed": false,
          "internalType": "address",
          "name": "purchaser",
          "type": "address"
        },
        {
          "indexed": false,
          "internalType": "address",
          "name": "imageOwner",
          "type": "address"
        },
        {
          "indexed": false,
          "internalType": "address",
          "name": "imageAuthor",
          "type": "address"
        },
        {
          "indexed": false,
          "internalType": "uint256",
          "name": "amount",
          "type": "uint256"
        }
      ],
      "name": "purchaseLaunched",
      "type": "event"
    },
    {
      "anonymous": false,
      "inputs": [
        {
          "indexed": false,
          "internalType": "uint256",
          "name": "imageID",
          "type": "uint256"
        },
        {
          "indexed": false,
          "internalType": "address",
          "name": "purchaser",
          "type": "address"
        },
        {
          "indexed": false,
          "internalType": "address",
          "name": "imageOwner",
          "type": "address"
        }
      ],
      "name": "transferComplete",
      "type": "event"
    },
    {
      "anonymous": false,
      "inputs": [
        {
          "indexed": false,
          "internalType": "uint256",
          "name": "imageID",
          "type": "uint256"
        },
        {
          "indexed": false,
          "internalType": "address",
          "name": "transferor",
          "type": "address"
        },
        {
          "indexed": false,
          "internalType": "address",
          "name": "transferee",
          "type": "address"
        }
      ],
      "name": "transferFailed",
      "type": "event"
    },
    {
      "inputs": [],
      "name": "SHA3",
      "outputs": [
        {
          "internalType": "bytes32",
          "name": "",
          "type": "bytes32"
        }
      ],
      "stateMutability": "view",
      "type": "function"
    },
    {
      "inputs": [],
      "name": "amount",
      "outputs": [
        {
          "internalType": "uint256",
          "name": "",
          "type": "uint256"
        }
      ],
      "stateMutability": "view",
      "type": "function"
    },
    {
      "inputs": [],
      "name": "authorShare",
      "outputs": [
        {
          "internalType": "uint256",
          "name": "",
          "type": "uint256"
        }
      ],
      "stateMutability": "view",
      "type": "function"
    },
    {
      "inputs": [],
      "name": "contractRelease",
      "outputs": [
        {
          "internalType": "contract Release",
          "name": "",
          "type": "address"
        }
      ],
      "stateMutability": "view",
      "type": "function"
    },
    {
      "inputs": [],
      "name": "duration",
      "outputs": [
        {
          "internalType": "uint256",
          "name": "",
          "type": "uint256"
        }
      ],
      "stateMutability": "view",
      "type": "function"
    },
    {
      "inputs": [],
      "name": "endTime",
      "outputs": [
        {
          "internalType": "uint256",
          "name": "",
          "type": "uint256"
        }
      ],
      "stateMutability": "view",
      "type": "function"
    },
    {
      "inputs": [],
      "name": "imageAuthor",
      "outputs": [
        {
          "internalType": "address payable",
          "name": "",
          "type": "address"
        }
      ],
      "stateMutability": "view",
      "type": "function"
    },
    {
      "inputs": [],
      "name": "imageID",
      "outputs": [
        {
          "internalType": "uint256",
          "name": "",
          "type": "uint256"
        }
      ],
      "stateMutability": "view",
      "type": "function"
    },
    {
      "inputs": [],
      "name": "imageOwner",
      "outputs": [
        {
          "internalType": "address payable",
          "name": "",
          "type": "address"
        }
      ],
      "stateMutability": "view",
      "type": "function"
    },
    {
      "inputs": [],
      "name": "isClosed",
      "outputs": [
        {
          "internalType": "bool",
          "name": "",
          "type": "bool"
        }
      ],
      "stateMutability": "view",
      "type": "function"
    },
    {
      "inputs": [],
      "name": "launchTime",
      "outputs": [
        {
          "internalType": "uint256",
          "name": "",
          "type": "uint256"
        }
      ],
      "stateMutability": "view",
      "type": "function"
    },
    {
      "inputs": [],
      "name": "ownerShare",
      "outputs": [
        {
          "internalType": "uint256",
          "name": "",
          "type": "uint256"
        }
      ],
      "stateMutability": "view",
      "type": "function"
    },
    {
      "inputs": [],
      "name": "purchaser",
      "outputs": [
        {
          "internalType": "address",
          "name": "",
          "type": "address"
        }
      ],
      "stateMutability": "view",
      "type": "function"
    },
    {
      "inputs": [],
      "name": "confirmPurchase",
      "outputs": [],
      "stateMutability": "payable",
      "type": "function"
    },
    {
      "inputs": [],
      "name": "declinePurchase",
      "outputs": [],
      "stateMutability": "payable",
      "type": "function"
    },
    {
      "inputs": [],
      "name": "cancelPurchase",
      "outputs": [],
      "stateMutability": "payable",
      "type": "function"
    }
  ],
  "bytecode": "0x60806040526000600a60006101000a81548160ff02191690831515021790555060405162001bb838038062001bb883398181016040528101906200004491906200074e565b60008073ffffffffffffffffffffffffffffffffffffffff168673ffffffffffffffffffffffffffffffffffffffff161415905060008073ffffffffffffffffffffffffffffffffffffffff168673ffffffffffffffffffffffffffffffffffffffff161415905060008073ffffffffffffffffffffffffffffffffffffffff168673ffffffffffffffffffffffffffffffffffffffff16141590506000600f86101590506000808b119050600080602060ff161190508c6000806101000a81548173ffffffffffffffffffffffffffffffffffffffff021916908373ffffffffffffffffffffffffffffffffffffffff160217905550818015620001da575060008054906101000a900473ffffffffffffffffffffffffffffffffffffffff1673ffffffffffffffffffffffffffffffffffffffff166392053b636040518163ffffffff1660e01b8152600401602060405180830381865afa158015620001b0573d6000803e3d6000fd5b505050506040513d601f19601f82011682018060405250810190620001d6919062000801565b8c11155b9150848015620002b3575060008054906101000a900473ffffffffffffffffffffffffffffffffffffffff1673ffffffffffffffffffffffffffffffffffffffff1663a9b114268d6040518263ffffffff1660e01b815260040162000240919062000844565b602060405180830381865afa1580156200025e573d6000803e3d6000fd5b505050506040513d601f19601f8201168201806040525081019062000284919062000861565b73ffffffffffffffffffffffffffffffffffffffff168a73ffffffffffffffffffffffffffffffffffffffff16145b94508380156200038c575060008054906101000a900473ffffffffffffffffffffffffffffffffffffffff1673ffffffffffffffffffffffffffffffffffffffff16631440bd078d6040518263ffffffff1660e01b815260040162000319919062000844565b602060405180830381865afa15801562000337573d6000803e3d6000fd5b505050506040513d601f19601f820116820180604052508101906200035d919062000861565b73ffffffffffffffffffffffffffffffffffffffff168973ffffffffffffffffffffffffffffffffffffffff16145b935080801562000438575060008054906101000a900473ffffffffffffffffffffffffffffffffffffffff1673ffffffffffffffffffffffffffffffffffffffff16627ac14a8d896040518363ffffffff1660e01b8152600401620003f3929190620008a4565b602060405180830381865afa15801562000411573d6000803e3d6000fd5b505050506040513d601f19601f820116820180604052508101906200043791906200090e565b5b9050818015620004455750845b80156200044f5750835b8015620004595750855b8015620004635750825b80156200046d5750805b620004af576040517f08c379a0000000000000000000000000000000000000000000000000000000008152600401620004a690620009a1565b60405180910390fd5b8b6001819055508a600260006101000a81548173ffffffffffffffffffffffffffffffffffffffff021916908373ffffffffffffffffffffffffffffffffffffffff16021790555089600360006101000a81548173ffffffffffffffffffffffffffffffffffffffff021916908373ffffffffffffffffffffffffffffffffffffffff16021790555088600460006101000a81548173ffffffffffffffffffffffffffffffffffffffff021916908373ffffffffffffffffffffffffffffffffffffffff160217905550876006819055504260078190555087600754620005979190620009f2565b60088190555034600981905550600a600954620005b5919062000a7e565b600b81905550600b54600954620005cd919062000ab6565b600c819055507f881398ee76a74d936f5b826b7cca23946040cc0fbb7df9646c3173c8e8c5eedb8c8c8c8c6009546040516200060e95949392919062000b6d565b60405180910390a15050505050505050505050505062000bca565b600080fd5b600073ffffffffffffffffffffffffffffffffffffffff82169050919050565b60006200065b826200062e565b9050919050565b6200066d816200064e565b81146200067957600080fd5b50565b6000815190506200068d8162000662565b92915050565b6000819050919050565b620006a88162000693565b8114620006b457600080fd5b50565b600081519050620006c8816200069d565b92915050565b6000620006db826200062e565b9050919050565b620006ed81620006ce565b8114620006f957600080fd5b50565b6000815190506200070d81620006e2565b92915050565b6000819050919050565b620007288162000713565b81146200073457600080fd5b50565b60008151905062000748816200071d565b92915050565b600080600080600080600060e0888a03121562000770576200076f62000629565b5b6000620007808a828b016200067c565b9750506020620007938a828b01620006b7565b9650506040620007a68a828b016200067c565b9550506060620007b98a828b01620006fc565b9450506080620007cc8a828b01620006fc565b93505060a0620007df8a828b01620006b7565b92505060c0620007f28a828b0162000737565b91505092959891949750929550565b6000602082840312156200081a576200081962000629565b5b60006200082a84828501620006b7565b91505092915050565b6200083e8162000693565b82525050565b60006020820190506200085b600083018462000833565b92915050565b6000602082840312156200087a576200087962000629565b5b60006200088a848285016200067c565b91505092915050565b6200089e8162000713565b82525050565b6000604082019050620008bb600083018562000833565b620008ca602083018462000893565b9392505050565b60008115159050919050565b620008e881620008d1565b8114620008f457600080fd5b50565b6000815190506200090881620008dd565b92915050565b60006020828403121562000927576200092662000629565b5b60006200093784828501620008f7565b91505092915050565b600082825260208201905092915050565b7f696e76616c696420706172616d65746572730000000000000000000000000000600082015250565b60006200098960128362000940565b9150620009968262000951565b602082019050919050565b60006020820190508181036000830152620009bc816200097a565b9050919050565b7f4e487b7100000000000000000000000000000000000000000000000000000000600052601160045260246000fd5b6000620009ff8262000693565b915062000a0c8362000693565b9250827fffffffffffffffffffffffffffffffffffffffffffffffffffffffffffffffff0382111562000a445762000a43620009c3565b5b828201905092915050565b7f4e487b7100000000000000000000000000000000000000000000000000000000600052601260045260246000fd5b600062000a8b8262000693565b915062000a988362000693565b92508262000aab5762000aaa62000a4f565b5b828204905092915050565b600062000ac38262000693565b915062000ad08362000693565b92508282101562000ae65762000ae5620009c3565b5b828203905092915050565b62000afc816200064e565b82525050565b6000819050919050565b600062000b2d62000b2762000b21846200062e565b62000b02565b6200062e565b9050919050565b600062000b418262000b0c565b9050919050565b600062000b558262000b34565b9050919050565b62000b678162000b48565b82525050565b600060a08201905062000b84600083018862000833565b62000b93602083018762000af1565b62000ba2604083018662000b5c565b62000bb1606083018562000b5c565b62000bc0608083018462000833565b9695505050505050565b610fde8062000bda6000396000f3fe6080604052600436106100f35760003560e01c8063790ca4131161008a578063ae96e12c11610059578063ae96e12c146102ba578063c2b6b58c146102e5578063d696069714610310578063e742a74d1461031a576100f3565b8063790ca4131461022f5780638f1c31511461025a578063aa8c217c14610285578063ab460a26146102b0576100f3565b80634773fb7c116100c65780634773fb7c146101a45780634d3499b5146101ae578063544082e5146101d95780635a77dc4614610204576100f3565b806307191f29146100f85780630fb5a6b4146101235780633197cbb61461014e5780633961bdfb14610179575b600080fd5b34801561010457600080fd5b5061010d610345565b60405161011a9190610cd1565b60405180910390f35b34801561012f57600080fd5b5061013861036b565b6040516101459190610d05565b60405180910390f35b34801561015a57600080fd5b50610163610371565b6040516101709190610d05565b60405180910390f35b34801561018557600080fd5b5061018e610377565b60405161019b9190610cd1565b60405180910390f35b6101ac61039d565b005b3480156101ba57600080fd5b506101c361067c565b6040516101d09190610d05565b60405180910390f35b3480156101e557600080fd5b506101ee610682565b6040516101fb9190610d05565b60405180910390f35b34801561021057600080fd5b50610219610688565b6040516102269190610d41565b60405180910390f35b34801561023b57600080fd5b506102446106ae565b6040516102519190610d05565b60405180910390f35b34801561026657600080fd5b5061026f6106b4565b60405161027c9190610d05565b60405180910390f35b34801561029157600080fd5b5061029a6106ba565b6040516102a79190610d05565b60405180910390f35b6102b86106c0565b005b3480156102c657600080fd5b506102cf61098b565b6040516102dc9190610d75565b60405180910390f35b3480156102f157600080fd5b506102fa610991565b6040516103079190610dab565b60405180910390f35b6103186109a4565b005b34801561032657600080fd5b5061032f610c6c565b60405161033c9190610e25565b60405180910390f35b600360009054906101000a900473ffffffffffffffffffffffffffffffffffffffff1681565b60065481565b60085481565b600460009054906101000a900473ffffffffffffffffffffffffffffffffffffffff1681565b600060085442111590506000600360009054906101000a900473ffffffffffffffffffffffffffffffffffffffff1673ffffffffffffffffffffffffffffffffffffffff163373ffffffffffffffffffffffffffffffffffffffff161490506000600360009054906101000a900473ffffffffffffffffffffffffffffffffffffffff1673ffffffffffffffffffffffffffffffffffffffff1660008054906101000a900473ffffffffffffffffffffffffffffffffffffffff1673ffffffffffffffffffffffffffffffffffffffff1663a9b114266001546040518263ffffffff1660e01b81526004016104929190610d05565b602060405180830381865afa1580156104af573d6000803e3d6000fd5b505050506040513d601f19601f820116820180604052508101906104d39190610e71565b73ffffffffffffffffffffffffffffffffffffffff161490508280156104f65750815b80156104ff5750805b80156105185750600a60009054906101000a900460ff16155b61052157600080fd5b6001600a60006101000a81548160ff021916908315150217905550600260009054906101000a900473ffffffffffffffffffffffffffffffffffffffff1673ffffffffffffffffffffffffffffffffffffffff166108fc6009549081150290604051600060405180830381858888f19350505050156105fc577fb92a7474c1491f709d736b42aeaaf2e23fa8e029038e11454064047d69cff1fd600154600360009054906101000a900473ffffffffffffffffffffffffffffffffffffffff166040516105ef929190610ebf565b60405180910390a1610677565b7fc53b4710517515ffe70cd71a0ffe6a9c8c36985d28acb6b472cda6fa75514a4960015430600260009054906101000a900473ffffffffffffffffffffffffffffffffffffffff1660405161065393929190610ee8565b60405180910390a16000600a60006101000a81548160ff0219169083151502179055505b505050565b60015481565b600b5481565b600260009054906101000a900473ffffffffffffffffffffffffffffffffffffffff1681565b60075481565b600c5481565b60095481565b6000600260009054906101000a900473ffffffffffffffffffffffffffffffffffffffff1673ffffffffffffffffffffffffffffffffffffffff163373ffffffffffffffffffffffffffffffffffffffff161490506000600360009054906101000a900473ffffffffffffffffffffffffffffffffffffffff1673ffffffffffffffffffffffffffffffffffffffff1660008054906101000a900473ffffffffffffffffffffffffffffffffffffffff1673ffffffffffffffffffffffffffffffffffffffff1663a9b114266001546040518263ffffffff1660e01b81526004016107ab9190610d05565b602060405180830381865afa1580156107c8573d6000803e3d6000fd5b505050506040513d601f19601f820116820180604052508101906107ec9190610e71565b73ffffffffffffffffffffffffffffffffffffffff1614905081801561080f5750805b80156108285750600a60009054906101000a900460ff16155b61083157600080fd5b6001600a60006101000a81548160ff021916908315150217905550600260009054906101000a900473ffffffffffffffffffffffffffffffffffffffff1673ffffffffffffffffffffffffffffffffffffffff166108fc6009549081150290604051600060405180830381858888f193505050501561090c577fb92a7474c1491f709d736b42aeaaf2e23fa8e029038e11454064047d69cff1fd600154600260009054906101000a900473ffffffffffffffffffffffffffffffffffffffff166040516108ff929190610f1f565b60405180910390a1610987565b7fc53b4710517515ffe70cd71a0ffe6a9c8c36985d28acb6b472cda6fa75514a4960015430600260009054906101000a900473ffffffffffffffffffffffffffffffffffffffff1660405161096393929190610ee8565b60405180910390a16000600a60006101000a81548160ff0219169083151502179055505b5050565b60055481565b600a60009054906101000a900460ff1681565b600060085442111590506000600360009054906101000a900473ffffffffffffffffffffffffffffffffffffffff1673ffffffffffffffffffffffffffffffffffffffff163273ffffffffffffffffffffffffffffffffffffffff16149050818015610a0d5750805b8015610a265750600a60009054906101000a900460ff16155b610a2f57600080fd5b6001600a60006101000a81548160ff0219169083151502179055506000600360009054906101000a900473ffffffffffffffffffffffffffffffffffffffff1673ffffffffffffffffffffffffffffffffffffffff166108fc600c549081150290604051600060405180830381858888f1935050505090506000600460009054906101000a900473ffffffffffffffffffffffffffffffffffffffff1673ffffffffffffffffffffffffffffffffffffffff166108fc600b549081150290604051600060405180830381858888f193505050509050818015610b0e5750805b15610c4a5760008054906101000a900473ffffffffffffffffffffffffffffffffffffffff1673ffffffffffffffffffffffffffffffffffffffff1663784796f7600154600260009054906101000a900473ffffffffffffffffffffffffffffffffffffffff166040518363ffffffff1660e01b8152600401610b92929190610f48565b600060405180830381600087803b158015610bac57600080fd5b505af1158015610bc0573d6000803e3d6000fd5b505050507f4f751a0f286ea331992891ca180b2885950256880401e6dbd0bf20b1d923e677600154600260009054906101000a900473ffffffffffffffffffffffffffffffffffffffff16600360009054906101000a900473ffffffffffffffffffffffffffffffffffffffff16604051610c3d93929190610f71565b60405180910390a1610c66565b6000600a60006101000a81548160ff0219169083151502179055505b50505050565b60008054906101000a900473ffffffffffffffffffffffffffffffffffffffff1681565b600073ffffffffffffffffffffffffffffffffffffffff82169050919050565b6000610cbb82610c90565b9050919050565b610ccb81610cb0565b82525050565b6000602082019050610ce66000830184610cc2565b92915050565b6000819050919050565b610cff81610cec565b82525050565b6000602082019050610d1a6000830184610cf6565b92915050565b6000610d2b82610c90565b9050919050565b610d3b81610d20565b82525050565b6000602082019050610d566000830184610d32565b92915050565b6000819050919050565b610d6f81610d5c565b82525050565b6000602082019050610d8a6000830184610d66565b92915050565b60008115159050919050565b610da581610d90565b82525050565b6000602082019050610dc06000830184610d9c565b92915050565b6000819050919050565b6000610deb610de6610de184610c90565b610dc6565b610c90565b9050919050565b6000610dfd82610dd0565b9050919050565b6000610e0f82610df2565b9050919050565b610e1f81610e04565b82525050565b6000602082019050610e3a6000830184610e16565b92915050565b600080fd5b610e4e81610d20565b8114610e5957600080fd5b50565b600081519050610e6b81610e45565b92915050565b600060208284031215610e8757610e86610e40565b5b6000610e9584828501610e5c565b91505092915050565b6000610ea982610df2565b9050919050565b610eb981610e9e565b82525050565b6000604082019050610ed46000830185610cf6565b610ee16020830184610eb0565b9392505050565b6000606082019050610efd6000830186610cf6565b610f0a6020830185610d32565b610f176040830184610d32565b949350505050565b6000604082019050610f346000830185610cf6565b610f416020830184610d32565b9392505050565b6000604082019050610f5d6000830185610cf6565b610f6a6020830184610cc2565b9392505050565b6000606082019050610f866000830186610cf6565b610f936020830185610d32565b610fa06040830184610eb0565b94935050505056fea2646970667358221220c1ea672e7cd581886ce9ff7b327f9fa0074c5efecfe65191ff0f60d60cc850dc64736f6c634300080d0033",
  "immutableReferences": {},
  "source": "// SPDX-License-Identifier: SimPL-2.0\r\npragma solidity ^0.8.12;\r\n\r\nimport \"./Release.sol\";\r\n\r\ncontract Purchase {\r\n\r\n    Release public contractRelease;\r\n    uint    public imageID; \r\n    address public purchaser;\r\n    address payable public imageOwner;\r\n    address payable public imageAuthor;\r\n    bytes32 public SHA3;\r\n    uint    public duration;\r\n    uint    public launchTime;\r\n    uint    public endTime;\r\n    uint256 public amount;\r\n    bool    public isClosed = false;\r\n    uint    public authorShare;\r\n    uint    public ownerShare;\r\n\r\n    event purchaseLaunched(uint imageID,address purchaser, address imageOwner, address imageAuthor, uint amount);\r\n    event transferComplete(uint imageID,address purchaser, address imageOwner);\r\n    event transferFailed(uint imageID,address transferor, address transferee);\r\n    event purchaseDisengage(uint imageID, address canceller);\r\n\r\n    constructor(\r\n        address releaseAddress,\r\n        uint _imageID,\r\n        address _purchaser,\r\n        address payable _imageOwner,\r\n        address payable _imageAuthor,\r\n        uint _duration,\r\n        bytes32 _SHA3\r\n    ) payable {\r\n        //evm ensures address should be valid otherwise contract will not be created\r\n        //BUT I still check addresses for precaution\r\n        bool FlagPurchaser = _purchaser != address(0x0);\r\n        bool FlagOwner = _imageOwner != address(0x0);\r\n        bool FlagAuthor = _imageAuthor != address(0x0);\r\n        bool FlagDuration = _duration >= 15;\r\n        bool FlagImageID = _imageID > 0;\r\n        bool FlagSHA3 = _SHA3.length > 0;\r\n        contractRelease=Release(releaseAddress);\r\n        // require(_purchaser != address(0x0), \"invalid purchaser address\");\r\n        // require(_imageOwner != address(0x0), \"invalid image owner address\");\r\n        // require(_imageAuthor != address(0x0), \"invalid image author address\");\r\n        // require(_purchaser != address(0x0), \"invalid purchaser address\");\r\n        // require(_imageID > 0 && _imageID <= contractRelease.imageCount(), \"invalid image ID\");\r\n        // require(_imageOwner != address(0x0) && _imageOwner == contractRelease.getImageOwner(_imageID), \"invalid owner\");\r\n        // require(_imageAuthor != address(0x0) && _imageAuthor == contractRelease.getImageAuthor(_imageID), \"invalid author\");\r\n        // require(_duration >= 15, \"time too short\");\r\n        FlagImageID = FlagImageID && ( _imageID <= contractRelease.imageCount());\r\n        FlagOwner = FlagOwner && (_imageOwner == contractRelease.getImageOwner(_imageID));\r\n        FlagAuthor = FlagAuthor && (_imageAuthor == contractRelease.getImageAuthor(_imageID));\r\n        FlagSHA3 = FlagSHA3 && contractRelease.isSHA3Match(_imageID, _SHA3);\r\n        //use one require to save gas\r\n        require(FlagImageID && FlagOwner && FlagAuthor && FlagPurchaser && FlagDuration && FlagSHA3, \"invalid parameters\");\r\n        \r\n        imageID = _imageID;\r\n        purchaser = _purchaser;\r\n        imageOwner = _imageOwner;\r\n        imageAuthor = _imageAuthor;\r\n        duration = _duration;\r\n        launchTime = block.timestamp;\r\n        endTime = launchTime + _duration;\r\n        amount = msg.value;\r\n        authorShare = amount / 10 ;\r\n        ownerShare = amount - authorShare;\r\n        emit purchaseLaunched(_imageID, _purchaser, _imageOwner, _imageAuthor, amount);\r\n    }\r\n\r\n    function confirmPurchase() public payable {\r\n        bool FlagTimestamp = block.timestamp <= endTime;\r\n        bool FlagTxOrigin = tx.origin == imageOwner;\r\n        // if (block.timestamp > endTime) return;\r\n        // if (tx.origin != imageOwner;) return;\r\n        // if (isClosed) return;\r\n\r\n        require(FlagTimestamp && FlagTxOrigin && !isClosed);\r\n        \r\n        isClosed = true;\r\n    \r\n        bool tsfOwnerFlag =  (payable(imageOwner)).send(ownerShare);\r\n        bool tsfAuthorFlag = (payable(imageAuthor)).send(authorShare);\r\n        \r\n        if (tsfOwnerFlag && tsfAuthorFlag) {\r\n          contractRelease.changeOwner(imageID, payable(purchaser));\r\n          emit transferComplete(imageID, purchaser, imageOwner);\r\n        } else{\r\n          isClosed = false;\r\n        }\r\n    }\r\n\r\n    function declinePurchase() public payable {\r\n        \r\n      bool FlagTimestamp = block.timestamp <= endTime;\r\n      bool FlagTxOrigin = msg.sender == imageOwner;\r\n      bool FlagOwner = contractRelease.getImageOwner(imageID) == imageOwner;\r\n      // require(block.timestamp <= endTime, \"Contract has closed!\");\r\n      // require(msg.sender == imageOwner, \"Who are you?\");  \r\n      // require(isClosed == false, \"already done\");\r\n      // require(contractRelease.getImageOwner(imageID) == imageOwner, \"\");\r\n      \r\n      require(FlagTimestamp && FlagTxOrigin && FlagOwner && !isClosed);\r\n\r\n      isClosed = true;\r\n\r\n      if ((payable(purchaser)).send(amount)) {\r\n        emit purchaseDisengage(imageID, imageOwner);\r\n      }else {\r\n        emit transferFailed(imageID,address(this), purchaser);\r\n        isClosed = false;\r\n      }\r\n    }\r\n\r\n    function cancelPurchase() public payable {\r\n      \r\n      bool FlagTxOrigin = msg.sender == purchaser;\r\n      bool FlagOwner = contractRelease.getImageOwner(imageID) == imageOwner;\r\n\r\n      // require(msg.sender == purchaser, \"you cannot cancel this\");\r\n      // require(isClosed == false, \"already done\");\r\n      // require(contractRelease.getImageOwner(imageID) == imageOwner, \"\");\r\n      require( FlagTxOrigin && FlagOwner && !isClosed);\r\n\r\n      isClosed = true;\r\n\r\n      if ((payable(purchaser)).send(amount)) {\r\n        emit purchaseDisengage(imageID, purchaser);\r\n      }else {\r\n        emit transferFailed(imageID, address(this), purchaser);\r\n        isClosed = false;\r\n      }\r\n    }\r\n\r\n    // function callTest() public payable {\r\n    //   contractRelease.changeOwner(imageID, payable(purchaser));\r\n    // }\r\n}\r\n",
  "sourcePath": "D:\\Fun\\proj12\\Dimage\\contracts\\Purchase.sol",
  "compiler": {
    "name": "solc",
    "version": "0.8.13+commit.abaa5c0e.Emscripten.clang"
  },
  "schemaVersion": "3.4.5",
  "updatedAt": "2022-05-01T02:56:06.610Z",
  "devdoc": {
    "kind": "dev",
    "methods": {},
    "version": 1
  },
  "userdoc": {
    "kind": "user",
    "methods": {},
    "version": 1
  }
}