{
  "contractName": "Purchase",
  "abi": [
    {
      "inputs": [
        {
          "internalType": "address",
          "name": "_purchaser",
          "type": "address"
        },
        {
          "internalType": "address payable",
          "name": "_imageOwner",
          "type": "address"
        },
        {
          "internalType": "address payable",
          "name": "_imageAuthor",
          "type": "address"
        },
        {
          "internalType": "string",
          "name": "_SHA3",
          "type": "string"
        },
        {
          "internalType": "uint256",
          "name": "_duration",
          "type": "uint256"
        }
      ],
      "stateMutability": "payable",
      "type": "constructor"
    },
    {
      "anonymous": false,
      "inputs": [
        {
          "indexed": false,
          "internalType": "address",
          "name": "purchaser",
          "type": "address"
        },
        {
          "indexed": false,
          "internalType": "address",
          "name": "imageOwner",
          "type": "address"
        },
        {
          "indexed": false,
          "internalType": "uint256",
          "name": "amount",
          "type": "uint256"
        }
      ],
      "name": "purchaseLaunched",
      "type": "event"
    },
    {
      "anonymous": false,
      "inputs": [
        {
          "indexed": false,
          "internalType": "uint256",
          "name": "amount",
          "type": "uint256"
        },
        {
          "indexed": false,
          "internalType": "address",
          "name": "buyer",
          "type": "address"
        },
        {
          "indexed": false,
          "internalType": "address",
          "name": "seller",
          "type": "address"
        }
      ],
      "name": "transefComplete",
      "type": "event"
    },
    {
      "inputs": [],
      "name": "checkerPurchaser",
      "outputs": [
        {
          "internalType": "address",
          "name": "",
          "type": "address"
        }
      ],
      "stateMutability": "view",
      "type": "function"
    },
    {
      "inputs": [],
      "name": "checkerOwner",
      "outputs": [
        {
          "internalType": "address",
          "name": "",
          "type": "address"
        }
      ],
      "stateMutability": "view",
      "type": "function"
    },
    {
      "inputs": [],
      "name": "checkerAuthor",
      "outputs": [
        {
          "internalType": "address",
          "name": "",
          "type": "address"
        }
      ],
      "stateMutability": "view",
      "type": "function"
    },
    {
      "inputs": [],
      "name": "checkerSHA3",
      "outputs": [
        {
          "internalType": "string",
          "name": "",
          "type": "string"
        }
      ],
      "stateMutability": "view",
      "type": "function"
    },
    {
      "inputs": [],
      "name": "checkerDuration",
      "outputs": [
        {
          "internalType": "uint256",
          "name": "",
          "type": "uint256"
        }
      ],
      "stateMutability": "view",
      "type": "function"
    },
    {
      "inputs": [],
      "name": "checkerEndTime",
      "outputs": [
        {
          "internalType": "uint256",
          "name": "",
          "type": "uint256"
        }
      ],
      "stateMutability": "view",
      "type": "function"
    },
    {
      "inputs": [],
      "name": "checkerLaunchTime",
      "outputs": [
        {
          "internalType": "uint256",
          "name": "",
          "type": "uint256"
        }
      ],
      "stateMutability": "view",
      "type": "function"
    },
    {
      "inputs": [],
      "name": "checkerAmount",
      "outputs": [
        {
          "internalType": "uint256",
          "name": "",
          "type": "uint256"
        }
      ],
      "stateMutability": "view",
      "type": "function"
    },
    {
      "inputs": [],
      "name": "checkerSuccess",
      "outputs": [
        {
          "internalType": "bool",
          "name": "",
          "type": "bool"
        }
      ],
      "stateMutability": "view",
      "type": "function"
    },
    {
      "inputs": [],
      "name": "checkerOwnerShare",
      "outputs": [
        {
          "internalType": "uint256",
          "name": "",
          "type": "uint256"
        }
      ],
      "stateMutability": "view",
      "type": "function"
    },
    {
      "inputs": [],
      "name": "checkerAuthorShare",
      "outputs": [
        {
          "internalType": "uint256",
          "name": "",
          "type": "uint256"
        }
      ],
      "stateMutability": "view",
      "type": "function"
    },
    {
      "inputs": [],
      "name": "checkerSender",
      "outputs": [
        {
          "internalType": "address",
          "name": "",
          "type": "address"
        }
      ],
      "stateMutability": "view",
      "type": "function"
    },
    {
      "inputs": [],
      "name": "checkerBalance",
      "outputs": [
        {
          "internalType": "uint256",
          "name": "",
          "type": "uint256"
        }
      ],
      "stateMutability": "view",
      "type": "function"
    },
    {
      "inputs": [],
      "name": "checkerOrigin",
      "outputs": [
        {
          "internalType": "address",
          "name": "",
          "type": "address"
        }
      ],
      "stateMutability": "view",
      "type": "function"
    },
    {
      "inputs": [],
      "name": "checkerTmSp",
      "outputs": [
        {
          "internalType": "uint256",
          "name": "",
          "type": "uint256"
        }
      ],
      "stateMutability": "view",
      "type": "function"
    },
    {
      "inputs": [],
      "name": "confirmPurchase",
      "outputs": [
        {
          "internalType": "string",
          "name": "",
          "type": "string"
        }
      ],
      "stateMutability": "payable",
      "type": "function"
    }
  ],
  "bytecode": "0x60806040526000600860006101000a81548160ff02191690831515021790555060405162001844380380620018448339818101604052810190620000449190620006d9565b600073ffffffffffffffffffffffffffffffffffffffff168573ffffffffffffffffffffffffffffffffffffffff1603620000b6576040517f08c379a0000000000000000000000000000000000000000000000000000000008152600401620000ad90620007e1565b60405180910390fd5b600073ffffffffffffffffffffffffffffffffffffffff168473ffffffffffffffffffffffffffffffffffffffff160362000128576040517f08c379a00000000000000000000000000000000000000000000000000000000081526004016200011f9062000853565b60405180910390fd5b600073ffffffffffffffffffffffffffffffffffffffff168373ffffffffffffffffffffffffffffffffffffffff16036200019a576040517f08c379a00000000000000000000000000000000000000000000000000000000081526004016200019190620008c5565b60405180910390fd5b6000825103620001e1576040517f08c379a0000000000000000000000000000000000000000000000000000000008152600401620001d89062000937565b60405180910390fd5b600f81101562000228576040517f08c379a00000000000000000000000000000000000000000000000000000000081526004016200021f90620009a9565b60405180910390fd5b846000806101000a81548173ffffffffffffffffffffffffffffffffffffffff021916908373ffffffffffffffffffffffffffffffffffffffff16021790555083600160006101000a81548173ffffffffffffffffffffffffffffffffffffffff021916908373ffffffffffffffffffffffffffffffffffffffff16021790555082600260006101000a81548173ffffffffffffffffffffffffffffffffffffffff021916908373ffffffffffffffffffffffffffffffffffffffff160217905550806004819055504260058190555080600554620003089190620009fa565b600681905550816003908051906020019062000326929190620003a7565b5034600781905550600a6007546200033f919062000a86565b60098190555060095460075462000357919062000abe565b600a819055507fae4b64ec133b9d32a15524fb71ed9b08d147f6af4cfd3887fd7131157145c1e58585600754604051620003949392919062000b86565b60405180910390a1505050505062000c27565b828054620003b59062000bf2565b90600052602060002090601f016020900481019282620003d9576000855562000425565b82601f10620003f457805160ff191683800117855562000425565b8280016001018555821562000425579182015b828111156200042457825182559160200191906001019062000407565b5b50905062000434919062000438565b5090565b5b808211156200045357600081600090555060010162000439565b5090565b6000604051905090565b600080fd5b600080fd5b600073ffffffffffffffffffffffffffffffffffffffff82169050919050565b600062000498826200046b565b9050919050565b620004aa816200048b565b8114620004b657600080fd5b50565b600081519050620004ca816200049f565b92915050565b6000620004dd826200046b565b9050919050565b620004ef81620004d0565b8114620004fb57600080fd5b50565b6000815190506200050f81620004e4565b92915050565b600080fd5b600080fd5b6000601f19601f8301169050919050565b7f4e487b7100000000000000000000000000000000000000000000000000000000600052604160045260246000fd5b6200056a826200051f565b810181811067ffffffffffffffff821117156200058c576200058b62000530565b5b80604052505050565b6000620005a162000457565b9050620005af82826200055f565b919050565b600067ffffffffffffffff821115620005d257620005d162000530565b5b620005dd826200051f565b9050602081019050919050565b60005b838110156200060a578082015181840152602081019050620005ed565b838111156200061a576000848401525b50505050565b6000620006376200063184620005b4565b62000595565b9050828152602081018484840111156200065657620006556200051a565b5b62000663848285620005ea565b509392505050565b600082601f83011262000683576200068262000515565b5b81516200069584826020860162000620565b91505092915050565b6000819050919050565b620006b3816200069e565b8114620006bf57600080fd5b50565b600081519050620006d381620006a8565b92915050565b600080600080600060a08688031215620006f857620006f762000461565b5b60006200070888828901620004b9565b95505060206200071b88828901620004fe565b94505060406200072e88828901620004fe565b935050606086015167ffffffffffffffff81111562000752576200075162000466565b5b62000760888289016200066b565b92505060806200077388828901620006c2565b9150509295509295909350565b600082825260208201905092915050565b7f696e76616c696420707572636861736572206164647265737300000000000000600082015250565b6000620007c960198362000780565b9150620007d68262000791565b602082019050919050565b60006020820190508181036000830152620007fc81620007ba565b9050919050565b7f696e76616c696420696d616765206f776e657220616464726573730000000000600082015250565b60006200083b601b8362000780565b9150620008488262000803565b602082019050919050565b600060208201905081810360008301526200086e816200082c565b9050919050565b7f696e76616c696420696d61676520617574686f72206164647265737300000000600082015250565b6000620008ad601c8362000780565b9150620008ba8262000875565b602082019050919050565b60006020820190508181036000830152620008e0816200089e565b9050919050565b7f696e76616c696420736861330000000000000000000000000000000000000000600082015250565b60006200091f600c8362000780565b91506200092c82620008e7565b602082019050919050565b60006020820190508181036000830152620009528162000910565b9050919050565b7f74696d6520746f6f2073686f7274000000000000000000000000000000000000600082015250565b600062000991600e8362000780565b91506200099e8262000959565b602082019050919050565b60006020820190508181036000830152620009c48162000982565b9050919050565b7f4e487b7100000000000000000000000000000000000000000000000000000000600052601160045260246000fd5b600062000a07826200069e565b915062000a14836200069e565b9250827fffffffffffffffffffffffffffffffffffffffffffffffffffffffffffffffff0382111562000a4c5762000a4b620009cb565b5b828201905092915050565b7f4e487b7100000000000000000000000000000000000000000000000000000000600052601260045260246000fd5b600062000a93826200069e565b915062000aa0836200069e565b92508262000ab35762000ab262000a57565b5b828204905092915050565b600062000acb826200069e565b915062000ad8836200069e565b92508282101562000aee5762000aed620009cb565b5b828203905092915050565b62000b04816200048b565b82525050565b6000819050919050565b600062000b3562000b2f62000b29846200046b565b62000b0a565b6200046b565b9050919050565b600062000b498262000b14565b9050919050565b600062000b5d8262000b3c565b9050919050565b62000b6f8162000b50565b82525050565b62000b80816200069e565b82525050565b600060608201905062000b9d600083018662000af9565b62000bac602083018562000b64565b62000bbb604083018462000b75565b949350505050565b7f4e487b7100000000000000000000000000000000000000000000000000000000600052602260045260246000fd5b6000600282049050600182168062000c0b57607f821691505b60208210810362000c215762000c2062000bc3565b5b50919050565b610c0d8062000c376000396000f3fe6080604052600436106100f35760003560e01c806386da79551161008a578063be31d9be11610059578063be31d9be146102fc578063d696069714610327578063e485e34b14610345578063ea9f324214610370576100f3565b806386da79551461025057806399685f451461027b578063a2667441146102a6578063a6fe3ae8146102d1576100f3565b806350d519d5116100c657806350d519d5146101a45780636613f9b0146101cf5780636a1edb90146101fa5780637f4d7be514610225576100f3565b806308a26245146100f85780631e7cc228146101235780633e5c1c2a1461014e5780635062161914610179575b600080fd5b34801561010457600080fd5b5061010d61039b565b60405161011a9190610835565b60405180910390f35b34801561012f57600080fd5b506101386103a3565b6040516101459190610835565b60405180910390f35b34801561015a57600080fd5b506101636103ad565b604051610170919061086b565b60405180910390f35b34801561018557600080fd5b5061018e6103c4565b60405161019b91906108c7565b60405180910390f35b3480156101b057600080fd5b506101b96103cc565b6040516101c691906108c7565b60405180910390f35b3480156101db57600080fd5b506101e46103f6565b6040516101f19190610835565b60405180910390f35b34801561020657600080fd5b5061020f610400565b60405161021c9190610835565b60405180910390f35b34801561023157600080fd5b5061023a61040a565b6040516102479190610835565b60405180910390f35b34801561025c57600080fd5b50610265610414565b6040516102729190610835565b60405180910390f35b34801561028757600080fd5b5061029061041e565b60405161029d919061097b565b60405180910390f35b3480156102b257600080fd5b506102bb6104b0565b6040516102c891906108c7565b60405180910390f35b3480156102dd57600080fd5b506102e66104b8565b6040516102f391906108c7565b60405180910390f35b34801561030857600080fd5b506103116104e1565b60405161031e9190610835565b60405180910390f35b61032f6104eb565b60405161033c919061097b565b60405180910390f35b34801561035157600080fd5b5061035a6107ea565b6040516103679190610835565b60405180910390f35b34801561037c57600080fd5b506103856107f2565b60405161039291906108c7565b60405180910390f35b600047905090565b6000600454905090565b6000600860009054906101000a900460ff16905090565b600033905090565b6000600260009054906101000a900473ffffffffffffffffffffffffffffffffffffffff16905090565b6000600a54905090565b6000600654905090565b6000600554905090565b6000600754905090565b60606003805461042d906109cc565b80601f0160208091040260200160405190810160405280929190818152602001828054610459906109cc565b80156104a65780601f1061047b576101008083540402835291602001916104a6565b820191906000526020600020905b81548152906001019060200180831161048957829003601f168201915b5050505050905090565b600032905090565b60008060009054906101000a900473ffffffffffffffffffffffffffffffffffffffff16905090565b6000600954905090565b6060600654421115610532576040517f08c379a000000000000000000000000000000000000000000000000000000000815260040161052990610a49565b60405180910390fd5b600160009054906101000a900473ffffffffffffffffffffffffffffffffffffffff1673ffffffffffffffffffffffffffffffffffffffff163373ffffffffffffffffffffffffffffffffffffffff16146105c2576040517f08c379a00000000000000000000000000000000000000000000000000000000081526004016105b990610ab5565b60405180910390fd5b60001515600860009054906101000a900460ff16151514610618576040517f08c379a000000000000000000000000000000000000000000000000000000000815260040161060f90610b21565b60405180910390fd5b6001600860006101000a81548160ff021916908315150217905550600160009054906101000a900473ffffffffffffffffffffffffffffffffffffffff1673ffffffffffffffffffffffffffffffffffffffff166108fc600a549081150290604051600060405180830381858888f1935050505080156106ed5750600260009054906101000a900473ffffffffffffffffffffffffffffffffffffffff1673ffffffffffffffffffffffffffffffffffffffff166108fc6009549081150290604051600060405180830381858888f193505050505b156107ae577f6074e021b205b07b46ee0f721ec9ae16e8003704ba4dacd72705ab84e6ab1dee60075460008054906101000a900473ffffffffffffffffffffffffffffffffffffffff16600160009054906101000a900473ffffffffffffffffffffffffffffffffffffffff1660405161076993929190610ba0565b60405180910390a16040518060400160405280601381526020017f5472616e7366657220636f6d706c65746564210000000000000000000000000081525090506107e7565b6040518060400160405280601081526020017f536f6d657468696e672077726f6e67210000000000000000000000000000000081525090505b90565b600042905090565b6000600160009054906101000a900473ffffffffffffffffffffffffffffffffffffffff16905090565b6000819050919050565b61082f8161081c565b82525050565b600060208201905061084a6000830184610826565b92915050565b60008115159050919050565b61086581610850565b82525050565b6000602082019050610880600083018461085c565b92915050565b600073ffffffffffffffffffffffffffffffffffffffff82169050919050565b60006108b182610886565b9050919050565b6108c1816108a6565b82525050565b60006020820190506108dc60008301846108b8565b92915050565b600081519050919050565b600082825260208201905092915050565b60005b8381101561091c578082015181840152602081019050610901565b8381111561092b576000848401525b50505050565b6000601f19601f8301169050919050565b600061094d826108e2565b61095781856108ed565b93506109678185602086016108fe565b61097081610931565b840191505092915050565b600060208201905081810360008301526109958184610942565b905092915050565b7f4e487b7100000000000000000000000000000000000000000000000000000000600052602260045260246000fd5b600060028204905060018216806109e457607f821691505b6020821081036109f7576109f661099d565b5b50919050565b7f436f6e74726163742068617320636c6f73656421000000000000000000000000600082015250565b6000610a336014836108ed565b9150610a3e826109fd565b602082019050919050565b60006020820190508181036000830152610a6281610a26565b9050919050565b7f57686f2061726520796f753f0000000000000000000000000000000000000000600082015250565b6000610a9f600c836108ed565b9150610aaa82610a69565b602082019050919050565b60006020820190508181036000830152610ace81610a92565b9050919050565b7f616c726561647920646f6e650000000000000000000000000000000000000000600082015250565b6000610b0b600c836108ed565b9150610b1682610ad5565b602082019050919050565b60006020820190508181036000830152610b3a81610afe565b9050919050565b6000819050919050565b6000610b66610b61610b5c84610886565b610b41565b610886565b9050919050565b6000610b7882610b4b565b9050919050565b6000610b8a82610b6d565b9050919050565b610b9a81610b7f565b82525050565b6000606082019050610bb56000830186610826565b610bc260208301856108b8565b610bcf6040830184610b91565b94935050505056fea2646970667358221220dd50506ac8257418ea38944173326e7a819cfe52776572620d4fd9e98e5229e564736f6c634300080d0033",
  "immutableReferences": {},
  "source": "// SPDX-License-Identifier: SimPL-2.0\r\npragma solidity ^0.8.12;\r\n\r\nimport \"./Verification.sol\";\r\n\r\ncontract Purchase {\r\n    address purchaser;\r\n    address payable imageOwner;\r\n    address payable imageAuthor;\r\n    string SHA3;\r\n    uint duration;\r\n    uint launchTime;\r\n    uint endTime;\r\n    uint256 amount;\r\n    bool isSuccess = false;\r\n    \r\n    uint authorShare;\r\n    uint ownerShare;\r\n\r\n    event purchaseLaunched(address purchaser, address imageOwner, uint amount);\r\n    event transefComplete(uint amount, address buyer, address seller);\r\n\r\n\r\n    function checkerPurchaser() public view returns (address)       { return purchaser; }\r\n    function checkerOwner()     public view returns (address)       { return imageOwner; }\r\n    function checkerAuthor()      public view returns (address)       { return imageAuthor; }\r\n    function checkerSHA3()        public view returns (string memory) { return SHA3; }\r\n    function checkerDuration()    public view returns (uint)          { return duration; }\r\n    function checkerEndTime()     public view returns (uint)          { return endTime; }\r\n    function checkerLaunchTime()  public view returns (uint)          { return launchTime; }\r\n    function checkerAmount()      public view returns (uint256)       { return amount; }\r\n    function checkerSuccess()     public view returns (bool)          { return isSuccess;}\r\n    function checkerOwnerShare()  public view returns (uint)          { return ownerShare;}\r\n    function checkerAuthorShare() public view returns (uint)          { return authorShare;}\r\n    \r\n\r\n    function checkerSender()      public view returns (address) { return msg.sender; }\r\n    function checkerBalance()     public view returns (uint256) { return address(this).balance; }\r\n    function checkerOrigin()      public view returns (address) { return tx.origin; }\r\n    function checkerTmSp()        public view returns (uint)    { return block.timestamp; }\r\n\r\n    constructor(\r\n        address _purchaser,\r\n        address payable _imageOwner,\r\n        address payable _imageAuthor,\r\n        string memory _SHA3,\r\n        uint _duration\r\n    ) payable {\r\n        //evm ensures address should be valid otherwise contract will not be created\r\n        //BUT I still check addresses for precaution\r\n        require(_purchaser != address(0x0), \"invalid purchaser address\");\r\n        require(_imageOwner != address(0x0), \"invalid image owner address\");\r\n        require(_imageAuthor != address(0x0), \"invalid image author address\");\r\n        require(bytes(_SHA3).length != 0, \"invalid sha3\");\r\n        require(_duration >= 15, \"time too short\");\r\n\r\n        purchaser = _purchaser;\r\n        imageOwner = _imageOwner;\r\n        imageAuthor = _imageAuthor;\r\n        duration = _duration;\r\n        launchTime = block.timestamp;\r\n        endTime = launchTime + _duration;\r\n        SHA3 = _SHA3;\r\n        amount = msg.value;\r\n\r\n        authorShare = amount / 10 ;\r\n        ownerShare = amount - authorShare;\r\n        emit purchaseLaunched(_purchaser, _imageOwner, amount);\r\n    }\r\n\r\n    function confirmPurchase() public payable returns (string memory) {\r\n        \r\n        require(block.timestamp <= endTime, \"Contract has closed!\");        \r\n        require(msg.sender == imageOwner, \"Who are you?\");  \r\n        require(isSuccess == false, \"already done\");\r\n        \r\n        isSuccess = true;\r\n\r\n        if ((payable(imageOwner)).send(ownerShare) && (payable(imageAuthor)).send(authorShare)) {\r\n            emit transefComplete(amount, purchaser, imageOwner);\r\n            return \"Transfer completed!\";\r\n        } else {\r\n            return \"Something wrong!\";\r\n        }\r\n    }\r\n\r\n    // fallback() external payable {\r\n    //   uint falseAmount = msg.value;\r\n    //   address from = msg.sender;\r\n    //   payable(from).transfer(falseAmount);\r\n    // }\r\n\r\n    // receive() external payable {\r\n    //   uint falseAmount = msg.value;\r\n    //   address from = msg.sender;\r\n    //   payable(from).transfer(falseAmount);\r\n    // }\r\n}\r\n",
  "sourcePath": "D:\\Fun\\proj12\\Dimage\\contracts\\Purchase.sol",
  "compiler": {
    "name": "solc",
    "version": "0.8.13+commit.abaa5c0e.Emscripten.clang"
  },
  "schemaVersion": "3.4.5",
  "updatedAt": "2022-04-25T15:47:52.798Z",
  "devdoc": {
    "kind": "dev",
    "methods": {},
    "version": 1
  },
  "userdoc": {
    "kind": "user",
    "methods": {},
    "version": 1
  }
}