{
  "contractName": "Purchase",
  "abi": [
    {
      "inputs": [
        {
          "internalType": "address",
          "name": "releaseAddress",
          "type": "address"
        },
        {
          "internalType": "uint256",
          "name": "_imageID",
          "type": "uint256"
        },
        {
          "internalType": "address",
          "name": "_purchaser",
          "type": "address"
        },
        {
          "internalType": "address payable",
          "name": "_imageOwner",
          "type": "address"
        },
        {
          "internalType": "address payable",
          "name": "_imageAuthor",
          "type": "address"
        },
        {
          "internalType": "uint256",
          "name": "_duration",
          "type": "uint256"
        }
      ],
      "stateMutability": "payable",
      "type": "constructor"
    },
    {
      "anonymous": false,
      "inputs": [
        {
          "indexed": false,
          "internalType": "uint256",
          "name": "imageID",
          "type": "uint256"
        },
        {
          "indexed": false,
          "internalType": "address",
          "name": "canceller",
          "type": "address"
        }
      ],
      "name": "purchaseDisengage",
      "type": "event"
    },
    {
      "anonymous": false,
      "inputs": [
        {
          "indexed": false,
          "internalType": "uint256",
          "name": "imageID",
          "type": "uint256"
        },
        {
          "indexed": false,
          "internalType": "address",
          "name": "purchaser",
          "type": "address"
        },
        {
          "indexed": false,
          "internalType": "address",
          "name": "imageOwner",
          "type": "address"
        },
        {
          "indexed": false,
          "internalType": "address",
          "name": "imageAuthor",
          "type": "address"
        },
        {
          "indexed": false,
          "internalType": "uint256",
          "name": "amount",
          "type": "uint256"
        }
      ],
      "name": "purchaseLaunched",
      "type": "event"
    },
    {
      "anonymous": false,
      "inputs": [
        {
          "indexed": false,
          "internalType": "uint256",
          "name": "imageID",
          "type": "uint256"
        },
        {
          "indexed": false,
          "internalType": "address",
          "name": "purchaser",
          "type": "address"
        },
        {
          "indexed": false,
          "internalType": "address",
          "name": "imageOwner",
          "type": "address"
        }
      ],
      "name": "transferComplete",
      "type": "event"
    },
    {
      "anonymous": false,
      "inputs": [
        {
          "indexed": false,
          "internalType": "uint256",
          "name": "imageID",
          "type": "uint256"
        },
        {
          "indexed": false,
          "internalType": "address",
          "name": "transferor",
          "type": "address"
        },
        {
          "indexed": false,
          "internalType": "address",
          "name": "transferee",
          "type": "address"
        }
      ],
      "name": "transferFailed",
      "type": "event"
    },
    {
      "inputs": [],
      "name": "amount",
      "outputs": [
        {
          "internalType": "uint256",
          "name": "",
          "type": "uint256"
        }
      ],
      "stateMutability": "view",
      "type": "function"
    },
    {
      "inputs": [],
      "name": "authorShare",
      "outputs": [
        {
          "internalType": "uint256",
          "name": "",
          "type": "uint256"
        }
      ],
      "stateMutability": "view",
      "type": "function"
    },
    {
      "inputs": [],
      "name": "contractRelease",
      "outputs": [
        {
          "internalType": "contract Release",
          "name": "",
          "type": "address"
        }
      ],
      "stateMutability": "view",
      "type": "function"
    },
    {
      "inputs": [],
      "name": "duration",
      "outputs": [
        {
          "internalType": "uint256",
          "name": "",
          "type": "uint256"
        }
      ],
      "stateMutability": "view",
      "type": "function"
    },
    {
      "inputs": [],
      "name": "endTime",
      "outputs": [
        {
          "internalType": "uint256",
          "name": "",
          "type": "uint256"
        }
      ],
      "stateMutability": "view",
      "type": "function"
    },
    {
      "inputs": [],
      "name": "imageAuthor",
      "outputs": [
        {
          "internalType": "address payable",
          "name": "",
          "type": "address"
        }
      ],
      "stateMutability": "view",
      "type": "function"
    },
    {
      "inputs": [],
      "name": "imageID",
      "outputs": [
        {
          "internalType": "uint256",
          "name": "",
          "type": "uint256"
        }
      ],
      "stateMutability": "view",
      "type": "function"
    },
    {
      "inputs": [],
      "name": "imageOwner",
      "outputs": [
        {
          "internalType": "address payable",
          "name": "",
          "type": "address"
        }
      ],
      "stateMutability": "view",
      "type": "function"
    },
    {
      "inputs": [],
      "name": "isClosed",
      "outputs": [
        {
          "internalType": "bool",
          "name": "",
          "type": "bool"
        }
      ],
      "stateMutability": "view",
      "type": "function"
    },
    {
      "inputs": [],
      "name": "launchTime",
      "outputs": [
        {
          "internalType": "uint256",
          "name": "",
          "type": "uint256"
        }
      ],
      "stateMutability": "view",
      "type": "function"
    },
    {
      "inputs": [],
      "name": "ownerShare",
      "outputs": [
        {
          "internalType": "uint256",
          "name": "",
          "type": "uint256"
        }
      ],
      "stateMutability": "view",
      "type": "function"
    },
    {
      "inputs": [],
      "name": "purchaser",
      "outputs": [
        {
          "internalType": "address",
          "name": "",
          "type": "address"
        }
      ],
      "stateMutability": "view",
      "type": "function"
    },
    {
      "inputs": [],
      "name": "confirmPurchase",
      "outputs": [],
      "stateMutability": "payable",
      "type": "function"
    },
    {
      "inputs": [],
      "name": "declinePurchase",
      "outputs": [],
      "stateMutability": "payable",
      "type": "function"
    },
    {
      "inputs": [],
      "name": "cancelPurchase",
      "outputs": [],
      "stateMutability": "payable",
      "type": "function"
    }
  ],
  "bytecode": "0x60806040526000600960006101000a81548160ff021916908315150217905550604051620018c8380380620018c8833981810160405281019062000044919062000615565b60008073ffffffffffffffffffffffffffffffffffffffff168573ffffffffffffffffffffffffffffffffffffffff161415905060008073ffffffffffffffffffffffffffffffffffffffff168573ffffffffffffffffffffffffffffffffffffffff161415905060008073ffffffffffffffffffffffffffffffffffffffff168573ffffffffffffffffffffffffffffffffffffffff16141590506000600f8510159050896000806101000a81548173ffffffffffffffffffffffffffffffffffffffff021916908373ffffffffffffffffffffffffffffffffffffffff1602179055506000808a118015620001cc575060008054906101000a900473ffffffffffffffffffffffffffffffffffffffff1673ffffffffffffffffffffffffffffffffffffffff166392053b636040518163ffffffff1660e01b8152600401602060405180830381865afa158015620001a2573d6000803e3d6000fd5b505050506040513d601f19601f82011682018060405250810190620001c89190620006b1565b8a11155b9050838015620002a5575060008054906101000a900473ffffffffffffffffffffffffffffffffffffffff1673ffffffffffffffffffffffffffffffffffffffff1663a9b114268b6040518263ffffffff1660e01b8152600401620002329190620006f4565b602060405180830381865afa15801562000250573d6000803e3d6000fd5b505050506040513d601f19601f8201168201806040525081019062000276919062000711565b73ffffffffffffffffffffffffffffffffffffffff168873ffffffffffffffffffffffffffffffffffffffff16145b93508280156200037e575060008054906101000a900473ffffffffffffffffffffffffffffffffffffffff1673ffffffffffffffffffffffffffffffffffffffff16631440bd078b6040518263ffffffff1660e01b81526004016200030b9190620006f4565b602060405180830381865afa15801562000329573d6000803e3d6000fd5b505050506040513d601f19601f820116820180604052508101906200034f919062000711565b73ffffffffffffffffffffffffffffffffffffffff168773ffffffffffffffffffffffffffffffffffffffff16145b92508080156200038b5750835b8015620003955750825b80156200039f5750845b8015620003a95750815b620003b357600080fd5b8960018190555088600260006101000a81548173ffffffffffffffffffffffffffffffffffffffff021916908373ffffffffffffffffffffffffffffffffffffffff16021790555087600360006101000a81548173ffffffffffffffffffffffffffffffffffffffff021916908373ffffffffffffffffffffffffffffffffffffffff16021790555086600460006101000a81548173ffffffffffffffffffffffffffffffffffffffff021916908373ffffffffffffffffffffffffffffffffffffffff1602179055508560058190555042600681905550856006546200049b919062000772565b60078190555034600881905550600a600854620004b99190620007fe565b600a81905550600a54600854620004d1919062000836565b600b819055507f881398ee76a74d936f5b826b7cca23946040cc0fbb7df9646c3173c8e8c5eedb8a8a8a8a60085460405162000512959493929190620008ed565b60405180910390a150505050505050505050506200094a565b600080fd5b600073ffffffffffffffffffffffffffffffffffffffff82169050919050565b60006200055d8262000530565b9050919050565b6200056f8162000550565b81146200057b57600080fd5b50565b6000815190506200058f8162000564565b92915050565b6000819050919050565b620005aa8162000595565b8114620005b657600080fd5b50565b600081519050620005ca816200059f565b92915050565b6000620005dd8262000530565b9050919050565b620005ef81620005d0565b8114620005fb57600080fd5b50565b6000815190506200060f81620005e4565b92915050565b60008060008060008060c087890312156200063557620006346200052b565b5b60006200064589828a016200057e565b96505060206200065889828a01620005b9565b95505060406200066b89828a016200057e565b94505060606200067e89828a01620005fe565b93505060806200069189828a01620005fe565b92505060a0620006a489828a01620005b9565b9150509295509295509295565b600060208284031215620006ca57620006c96200052b565b5b6000620006da84828501620005b9565b91505092915050565b620006ee8162000595565b82525050565b60006020820190506200070b6000830184620006e3565b92915050565b6000602082840312156200072a57620007296200052b565b5b60006200073a848285016200057e565b91505092915050565b7f4e487b7100000000000000000000000000000000000000000000000000000000600052601160045260246000fd5b60006200077f8262000595565b91506200078c8362000595565b9250827fffffffffffffffffffffffffffffffffffffffffffffffffffffffffffffffff03821115620007c457620007c362000743565b5b828201905092915050565b7f4e487b7100000000000000000000000000000000000000000000000000000000600052601260045260246000fd5b60006200080b8262000595565b9150620008188362000595565b9250826200082b576200082a620007cf565b5b828204905092915050565b6000620008438262000595565b9150620008508362000595565b92508282101562000866576200086562000743565b5b828203905092915050565b6200087c8162000550565b82525050565b6000819050919050565b6000620008ad620008a7620008a18462000530565b62000882565b62000530565b9050919050565b6000620008c1826200088c565b9050919050565b6000620008d582620008b4565b9050919050565b620008e781620008c8565b82525050565b600060a082019050620009046000830188620006e3565b62000913602083018762000871565b620009226040830186620008dc565b620009316060830185620008dc565b620009406080830184620006e3565b9695505050505050565b610f6e806200095a6000396000f3fe6080604052600436106100e85760003560e01c80635a77dc461161008a578063ab460a2611610059578063ab460a26146102a5578063c2b6b58c146102af578063d6960697146102da578063e742a74d146102e4576100e8565b80635a77dc46146101f9578063790ca413146102245780638f1c31511461024f578063aa8c217c1461027a576100e8565b80633961bdfb116100c65780633961bdfb1461016e5780634773fb7c146101995780634d3499b5146101a3578063544082e5146101ce576100e8565b806307191f29146100ed5780630fb5a6b4146101185780633197cbb614610143575b600080fd5b3480156100f957600080fd5b5061010261030f565b60405161010f9190610c95565b60405180910390f35b34801561012457600080fd5b5061012d610335565b60405161013a9190610cc9565b60405180910390f35b34801561014f57600080fd5b5061015861033b565b6040516101659190610cc9565b60405180910390f35b34801561017a57600080fd5b50610183610341565b6040516101909190610c95565b60405180910390f35b6101a1610367565b005b3480156101af57600080fd5b506101b8610646565b6040516101c59190610cc9565b60405180910390f35b3480156101da57600080fd5b506101e361064c565b6040516101f09190610cc9565b60405180910390f35b34801561020557600080fd5b5061020e610652565b60405161021b9190610d05565b60405180910390f35b34801561023057600080fd5b50610239610678565b6040516102469190610cc9565b60405180910390f35b34801561025b57600080fd5b5061026461067e565b6040516102719190610cc9565b60405180910390f35b34801561028657600080fd5b5061028f610684565b60405161029c9190610cc9565b60405180910390f35b6102ad61068a565b005b3480156102bb57600080fd5b506102c4610955565b6040516102d19190610d3b565b60405180910390f35b6102e2610968565b005b3480156102f057600080fd5b506102f9610c30565b6040516103069190610db5565b60405180910390f35b600360009054906101000a900473ffffffffffffffffffffffffffffffffffffffff1681565b60055481565b60075481565b600460009054906101000a900473ffffffffffffffffffffffffffffffffffffffff1681565b600060075442111590506000600360009054906101000a900473ffffffffffffffffffffffffffffffffffffffff1673ffffffffffffffffffffffffffffffffffffffff163373ffffffffffffffffffffffffffffffffffffffff161490506000600360009054906101000a900473ffffffffffffffffffffffffffffffffffffffff1673ffffffffffffffffffffffffffffffffffffffff1660008054906101000a900473ffffffffffffffffffffffffffffffffffffffff1673ffffffffffffffffffffffffffffffffffffffff1663a9b114266001546040518263ffffffff1660e01b815260040161045c9190610cc9565b602060405180830381865afa158015610479573d6000803e3d6000fd5b505050506040513d601f19601f8201168201806040525081019061049d9190610e01565b73ffffffffffffffffffffffffffffffffffffffff161490508280156104c05750815b80156104c95750805b80156104e25750600960009054906101000a900460ff16155b6104eb57600080fd5b6001600960006101000a81548160ff021916908315150217905550600260009054906101000a900473ffffffffffffffffffffffffffffffffffffffff1673ffffffffffffffffffffffffffffffffffffffff166108fc6008549081150290604051600060405180830381858888f19350505050156105c6577fb92a7474c1491f709d736b42aeaaf2e23fa8e029038e11454064047d69cff1fd600154600360009054906101000a900473ffffffffffffffffffffffffffffffffffffffff166040516105b9929190610e4f565b60405180910390a1610641565b7fc53b4710517515ffe70cd71a0ffe6a9c8c36985d28acb6b472cda6fa75514a4960015430600260009054906101000a900473ffffffffffffffffffffffffffffffffffffffff1660405161061d93929190610e78565b60405180910390a16000600960006101000a81548160ff0219169083151502179055505b505050565b60015481565b600a5481565b600260009054906101000a900473ffffffffffffffffffffffffffffffffffffffff1681565b60065481565b600b5481565b60085481565b6000600260009054906101000a900473ffffffffffffffffffffffffffffffffffffffff1673ffffffffffffffffffffffffffffffffffffffff163373ffffffffffffffffffffffffffffffffffffffff161490506000600360009054906101000a900473ffffffffffffffffffffffffffffffffffffffff1673ffffffffffffffffffffffffffffffffffffffff1660008054906101000a900473ffffffffffffffffffffffffffffffffffffffff1673ffffffffffffffffffffffffffffffffffffffff1663a9b114266001546040518263ffffffff1660e01b81526004016107759190610cc9565b602060405180830381865afa158015610792573d6000803e3d6000fd5b505050506040513d601f19601f820116820180604052508101906107b69190610e01565b73ffffffffffffffffffffffffffffffffffffffff161490508180156107d95750805b80156107f25750600960009054906101000a900460ff16155b6107fb57600080fd5b6001600960006101000a81548160ff021916908315150217905550600260009054906101000a900473ffffffffffffffffffffffffffffffffffffffff1673ffffffffffffffffffffffffffffffffffffffff166108fc6008549081150290604051600060405180830381858888f19350505050156108d6577fb92a7474c1491f709d736b42aeaaf2e23fa8e029038e11454064047d69cff1fd600154600260009054906101000a900473ffffffffffffffffffffffffffffffffffffffff166040516108c9929190610eaf565b60405180910390a1610951565b7fc53b4710517515ffe70cd71a0ffe6a9c8c36985d28acb6b472cda6fa75514a4960015430600260009054906101000a900473ffffffffffffffffffffffffffffffffffffffff1660405161092d93929190610e78565b60405180910390a16000600960006101000a81548160ff0219169083151502179055505b5050565b600960009054906101000a900460ff1681565b600060075442111590506000600360009054906101000a900473ffffffffffffffffffffffffffffffffffffffff1673ffffffffffffffffffffffffffffffffffffffff163273ffffffffffffffffffffffffffffffffffffffff161490508180156109d15750805b80156109ea5750600960009054906101000a900460ff16155b6109f357600080fd5b6001600960006101000a81548160ff0219169083151502179055506000600360009054906101000a900473ffffffffffffffffffffffffffffffffffffffff1673ffffffffffffffffffffffffffffffffffffffff166108fc600b549081150290604051600060405180830381858888f1935050505090506000600460009054906101000a900473ffffffffffffffffffffffffffffffffffffffff1673ffffffffffffffffffffffffffffffffffffffff166108fc600a549081150290604051600060405180830381858888f193505050509050818015610ad25750805b15610c0e5760008054906101000a900473ffffffffffffffffffffffffffffffffffffffff1673ffffffffffffffffffffffffffffffffffffffff1663784796f7600154600260009054906101000a900473ffffffffffffffffffffffffffffffffffffffff166040518363ffffffff1660e01b8152600401610b56929190610ed8565b600060405180830381600087803b158015610b7057600080fd5b505af1158015610b84573d6000803e3d6000fd5b505050507f4f751a0f286ea331992891ca180b2885950256880401e6dbd0bf20b1d923e677600154600260009054906101000a900473ffffffffffffffffffffffffffffffffffffffff16600360009054906101000a900473ffffffffffffffffffffffffffffffffffffffff16604051610c0193929190610f01565b60405180910390a1610c2a565b6000600960006101000a81548160ff0219169083151502179055505b50505050565b60008054906101000a900473ffffffffffffffffffffffffffffffffffffffff1681565b600073ffffffffffffffffffffffffffffffffffffffff82169050919050565b6000610c7f82610c54565b9050919050565b610c8f81610c74565b82525050565b6000602082019050610caa6000830184610c86565b92915050565b6000819050919050565b610cc381610cb0565b82525050565b6000602082019050610cde6000830184610cba565b92915050565b6000610cef82610c54565b9050919050565b610cff81610ce4565b82525050565b6000602082019050610d1a6000830184610cf6565b92915050565b60008115159050919050565b610d3581610d20565b82525050565b6000602082019050610d506000830184610d2c565b92915050565b6000819050919050565b6000610d7b610d76610d7184610c54565b610d56565b610c54565b9050919050565b6000610d8d82610d60565b9050919050565b6000610d9f82610d82565b9050919050565b610daf81610d94565b82525050565b6000602082019050610dca6000830184610da6565b92915050565b600080fd5b610dde81610ce4565b8114610de957600080fd5b50565b600081519050610dfb81610dd5565b92915050565b600060208284031215610e1757610e16610dd0565b5b6000610e2584828501610dec565b91505092915050565b6000610e3982610d82565b9050919050565b610e4981610e2e565b82525050565b6000604082019050610e646000830185610cba565b610e716020830184610e40565b9392505050565b6000606082019050610e8d6000830186610cba565b610e9a6020830185610cf6565b610ea76040830184610cf6565b949350505050565b6000604082019050610ec46000830185610cba565b610ed16020830184610cf6565b9392505050565b6000604082019050610eed6000830185610cba565b610efa6020830184610c86565b9392505050565b6000606082019050610f166000830186610cba565b610f236020830185610cf6565b610f306040830184610e40565b94935050505056fea2646970667358221220fb4002261345ea5af23452f14f2faa468cdae47fb85696f6867e5f620d7f8a9464736f6c634300080d0033",
  "immutableReferences": {},
  "source": "// SPDX-License-Identifier: SimPL-2.0\r\npragma solidity ^0.8.12;\r\n\r\nimport \"./Release.sol\";\r\n\r\ncontract Purchase {\r\n\r\n    Release public contractRelease;\r\n    uint    public imageID; \r\n    address public purchaser;\r\n    address payable public imageOwner;\r\n    address payable public imageAuthor;\r\n    // string  public SHA3;\r\n    uint    public duration;\r\n    uint    public launchTime;\r\n    uint    public endTime;\r\n    uint256 public amount;\r\n    bool    public isClosed = false;\r\n    uint    public authorShare;\r\n    uint    public ownerShare;\r\n\r\n    event purchaseLaunched(uint imageID,address purchaser, address imageOwner, address imageAuthor, uint amount);\r\n    event transferComplete(uint imageID,address purchaser, address imageOwner);\r\n    event transferFailed(uint imageID,address transferor, address transferee);\r\n    event purchaseDisengage(uint imageID, address canceller);\r\n\r\n    //evidence of stupid\r\n    // function checkerRelease()     public view returns (address)       { return address(contractRelease); }\r\n    // function checkerImageID()     public view returns (uint)          { return imageID; }\r\n    // function checkerPurchaser()   public view returns (address)       { return purchaser; }\r\n    // function checkerOwner()       public view returns (address)       { return imageOwner; }\r\n    // function checkerAuthor()      public view returns (address)       { return imageAuthor; }\r\n    // function checkerSHA3()        public view returns (string memory) { return SHA3; }\r\n    // function checkerDuration()    public view returns (uint)          { return duration; }\r\n    // function checkerEndTime()     public view returns (uint)          { return endTime; }\r\n    // function checkerLaunchTime()  public view returns (uint)          { return launchTime; }\r\n    // function checkerAmount()      public view returns (uint256)       { return amount; }\r\n    // function checkerClosed()      public view returns (bool)          { return isClosed;}\r\n    // function checkerOwnerShare()  public view returns (uint)          { return ownerShare;}\r\n    // function checkerAuthorShare() public view returns (uint)          { return authorShare;}\r\n    // function checkerSender()      public view returns (address)       { return msg.sender; }\r\n    // function checkerBalance()     public view returns (uint256)       { return address(this).balance; }\r\n    // function checkerOrigin()      public view returns (address)       { return tx.origin; }\r\n    // function checkerTmSp()        public view returns (uint)          { return block.timestamp; }\r\n    //default getter is cheaper, no need for these shit\r\n\r\n    constructor(\r\n        address releaseAddress,\r\n        uint _imageID,\r\n        address _purchaser,\r\n        address payable _imageOwner,\r\n        address payable _imageAuthor,\r\n        // string memory _SHA3,\r\n        uint _duration\r\n    ) payable {\r\n        //evm ensures address should be valid otherwise contract will not be created\r\n        //BUT I still check addresses for precaution\r\n        bool FlagPurchaser = _purchaser != address(0x0);\r\n        bool FlagOwner = _imageOwner != address(0x0);\r\n        bool FlagAuthor = _imageAuthor != address(0x0);\r\n        // bool FlagSHA3 = bytes(_SHA3).length != 0;\r\n        bool FlagDuration = _duration >= 15;\r\n        // require(_purchaser != address(0x0), \"invalid purchaser address\");\r\n        // require(_imageOwner != address(0x0), \"invalid image owner address\");\r\n        // require(_imageAuthor != address(0x0), \"invalid image author address\");\r\n        // require(bytes(_SHA3).length != 0, \"invalid sha3\");\r\n        // require(_duration >= 15, \"time too short\");\r\n        contractRelease = Release(releaseAddress);\r\n\r\n        bool FlagImageID = _imageID > 0 && _imageID <= contractRelease.imageCount();\r\n\r\n        FlagOwner = FlagOwner && _imageOwner == contractRelease.getImageOwner(_imageID);\r\n        FlagAuthor = FlagAuthor && _imageAuthor == contractRelease.getImageAuthor(_imageID);\r\n        // FlagSHA3 = FlagSHA3 && contractRelease.isSHA3Match(imageID, _SHA3);\r\n        // require(_imageID > 0 && _imageID <= contractRelease.imageCount(), \"invalid image ID\");\r\n        // require(_imageOwner == contractRelease.getImageOwner(_imageID), \"wrong owner\");\r\n        // require(_imageAuthor == contractRelease.getImageAuthor(_imageID), \"wrong author\");\r\n        // require(FlagPurchaser && FlagSHA3 && FlagDuration);\r\n        \r\n        //use one require to save gas\r\n        require(FlagImageID && FlagOwner && FlagAuthor && FlagPurchaser && FlagDuration);\r\n\r\n        imageID = _imageID;\r\n        purchaser = _purchaser;\r\n        imageOwner = _imageOwner;\r\n        imageAuthor = _imageAuthor;\r\n        duration = _duration;\r\n        launchTime = block.timestamp;\r\n        endTime = launchTime + _duration;\r\n        // SHA3 = _SHA3;\r\n        amount = msg.value;\r\n\r\n        authorShare = amount / 10 ;\r\n        ownerShare = amount - authorShare;\r\n        emit purchaseLaunched(_imageID, _purchaser, _imageOwner, _imageAuthor, amount);\r\n    }\r\n\r\n    function confirmPurchase() public payable {\r\n        bool FlagTimestamp = block.timestamp <= endTime;\r\n        bool FlagTxOrigin = tx.origin == imageOwner;\r\n        // if (block.timestamp > endTime) return;\r\n        // if (tx.origin != imageOwner;) return;\r\n        // if (isClosed) return;\r\n\r\n        require(FlagTimestamp && FlagTxOrigin && !isClosed);\r\n        \r\n        isClosed = true;\r\n    \r\n        bool tsfOwnerFlag =  (payable(imageOwner)).send(ownerShare);\r\n        bool tsfAuthorFlag = (payable(imageAuthor)).send(authorShare);\r\n        \r\n        if (tsfOwnerFlag && tsfAuthorFlag) {\r\n          contractRelease.changeOwner(imageID, payable(purchaser));\r\n          emit transferComplete(imageID, purchaser, imageOwner);\r\n        } else{\r\n          isClosed = false;\r\n        }\r\n    }\r\n\r\n    function declinePurchase() public payable {\r\n        \r\n      bool FlagTimestamp = block.timestamp <= endTime;\r\n      bool FlagTxOrigin = msg.sender == imageOwner;\r\n      bool FlagOwner = contractRelease.getImageOwner(imageID) == imageOwner;\r\n      // require(block.timestamp <= endTime, \"Contract has closed!\");\r\n      // require(msg.sender == imageOwner, \"Who are you?\");  \r\n      // require(isClosed == false, \"already done\");\r\n      // require(contractRelease.getImageOwner(imageID) == imageOwner, \"\");\r\n      \r\n      require(FlagTimestamp && FlagTxOrigin && FlagOwner && !isClosed);\r\n\r\n      isClosed = true;\r\n\r\n      if ((payable(purchaser)).send(amount)) {\r\n        emit purchaseDisengage(imageID, imageOwner);\r\n      }else {\r\n        emit transferFailed(imageID,address(this), purchaser);\r\n        isClosed = false;\r\n      }\r\n    }\r\n\r\n    function cancelPurchase() public payable {\r\n      \r\n      bool FlagTxOrigin = msg.sender == purchaser;\r\n      bool FlagOwner = contractRelease.getImageOwner(imageID) == imageOwner;\r\n\r\n      // require(msg.sender == purchaser, \"you cannot cancel this\");\r\n      // require(isClosed == false, \"already done\");\r\n      // require(contractRelease.getImageOwner(imageID) == imageOwner, \"\");\r\n      require( FlagTxOrigin && FlagOwner && !isClosed);\r\n\r\n      isClosed = true;\r\n\r\n      if ((payable(purchaser)).send(amount)) {\r\n        emit purchaseDisengage(imageID, purchaser);\r\n      }else {\r\n        emit transferFailed(imageID, address(this), purchaser);\r\n        isClosed = false;\r\n      }\r\n    }\r\n\r\n    // function callTest() public payable {\r\n    //   contractRelease.changeOwner(imageID, payable(purchaser));\r\n    // }\r\n}\r\n",
  "sourcePath": "D:\\Fun\\proj12\\Dimage\\contracts\\Purchase.sol",
  "compiler": {
    "name": "solc",
    "version": "0.8.13+commit.abaa5c0e.Emscripten.clang"
  },
  "schemaVersion": "3.4.5",
  "updatedAt": "2022-04-27T09:06:40.306Z",
  "devdoc": {
    "kind": "dev",
    "methods": {},
    "version": 1
  },
  "userdoc": {
    "kind": "user",
    "methods": {},
    "version": 1
  }
}