{
  "contractName": "Purchase",
  "abi": [
    {
      "inputs": [
        {
          "internalType": "address",
          "name": "releaseAddress",
          "type": "address"
        },
        {
          "internalType": "uint256",
          "name": "_imageID",
          "type": "uint256"
        },
        {
          "internalType": "address",
          "name": "_purchaser",
          "type": "address"
        },
        {
          "internalType": "address payable",
          "name": "_imageOwner",
          "type": "address"
        },
        {
          "internalType": "address payable",
          "name": "_imageAuthor",
          "type": "address"
        },
        {
          "internalType": "uint256",
          "name": "_duration",
          "type": "uint256"
        }
      ],
      "stateMutability": "payable",
      "type": "constructor"
    },
    {
      "anonymous": false,
      "inputs": [
        {
          "indexed": false,
          "internalType": "uint256",
          "name": "imageID",
          "type": "uint256"
        },
        {
          "indexed": false,
          "internalType": "address",
          "name": "canceller",
          "type": "address"
        }
      ],
      "name": "purchaseDisengage",
      "type": "event"
    },
    {
      "anonymous": false,
      "inputs": [
        {
          "indexed": false,
          "internalType": "uint256",
          "name": "imageID",
          "type": "uint256"
        },
        {
          "indexed": false,
          "internalType": "address",
          "name": "purchaser",
          "type": "address"
        },
        {
          "indexed": false,
          "internalType": "address",
          "name": "imageOwner",
          "type": "address"
        },
        {
          "indexed": false,
          "internalType": "address",
          "name": "imageAuthor",
          "type": "address"
        },
        {
          "indexed": false,
          "internalType": "uint256",
          "name": "amount",
          "type": "uint256"
        }
      ],
      "name": "purchaseLaunched",
      "type": "event"
    },
    {
      "anonymous": false,
      "inputs": [
        {
          "indexed": false,
          "internalType": "uint256",
          "name": "imageID",
          "type": "uint256"
        },
        {
          "indexed": false,
          "internalType": "address",
          "name": "purchaser",
          "type": "address"
        },
        {
          "indexed": false,
          "internalType": "address",
          "name": "imageOwner",
          "type": "address"
        }
      ],
      "name": "transferComplete",
      "type": "event"
    },
    {
      "anonymous": false,
      "inputs": [
        {
          "indexed": false,
          "internalType": "uint256",
          "name": "imageID",
          "type": "uint256"
        },
        {
          "indexed": false,
          "internalType": "address",
          "name": "transferor",
          "type": "address"
        },
        {
          "indexed": false,
          "internalType": "address",
          "name": "transferee",
          "type": "address"
        }
      ],
      "name": "transferFailed",
      "type": "event"
    },
    {
      "inputs": [],
      "name": "amount",
      "outputs": [
        {
          "internalType": "uint256",
          "name": "",
          "type": "uint256"
        }
      ],
      "stateMutability": "view",
      "type": "function"
    },
    {
      "inputs": [],
      "name": "authorShare",
      "outputs": [
        {
          "internalType": "uint256",
          "name": "",
          "type": "uint256"
        }
      ],
      "stateMutability": "view",
      "type": "function"
    },
    {
      "inputs": [],
      "name": "contractRelease",
      "outputs": [
        {
          "internalType": "contract Release",
          "name": "",
          "type": "address"
        }
      ],
      "stateMutability": "view",
      "type": "function"
    },
    {
      "inputs": [],
      "name": "duration",
      "outputs": [
        {
          "internalType": "uint256",
          "name": "",
          "type": "uint256"
        }
      ],
      "stateMutability": "view",
      "type": "function"
    },
    {
      "inputs": [],
      "name": "endTime",
      "outputs": [
        {
          "internalType": "uint256",
          "name": "",
          "type": "uint256"
        }
      ],
      "stateMutability": "view",
      "type": "function"
    },
    {
      "inputs": [],
      "name": "imageAuthor",
      "outputs": [
        {
          "internalType": "address payable",
          "name": "",
          "type": "address"
        }
      ],
      "stateMutability": "view",
      "type": "function"
    },
    {
      "inputs": [],
      "name": "imageID",
      "outputs": [
        {
          "internalType": "uint256",
          "name": "",
          "type": "uint256"
        }
      ],
      "stateMutability": "view",
      "type": "function"
    },
    {
      "inputs": [],
      "name": "imageOwner",
      "outputs": [
        {
          "internalType": "address payable",
          "name": "",
          "type": "address"
        }
      ],
      "stateMutability": "view",
      "type": "function"
    },
    {
      "inputs": [],
      "name": "isClosed",
      "outputs": [
        {
          "internalType": "bool",
          "name": "",
          "type": "bool"
        }
      ],
      "stateMutability": "view",
      "type": "function"
    },
    {
      "inputs": [],
      "name": "launchTime",
      "outputs": [
        {
          "internalType": "uint256",
          "name": "",
          "type": "uint256"
        }
      ],
      "stateMutability": "view",
      "type": "function"
    },
    {
      "inputs": [],
      "name": "ownerShare",
      "outputs": [
        {
          "internalType": "uint256",
          "name": "",
          "type": "uint256"
        }
      ],
      "stateMutability": "view",
      "type": "function"
    },
    {
      "inputs": [],
      "name": "purchaser",
      "outputs": [
        {
          "internalType": "address",
          "name": "",
          "type": "address"
        }
      ],
      "stateMutability": "view",
      "type": "function"
    },
    {
      "inputs": [],
      "name": "thisImage",
      "outputs": [
        {
          "internalType": "uint256",
          "name": "id",
          "type": "uint256"
        },
        {
          "internalType": "string",
          "name": "hash",
          "type": "string"
        },
        {
          "internalType": "string",
          "name": "sha3",
          "type": "string"
        },
        {
          "internalType": "string",
          "name": "signature",
          "type": "string"
        },
        {
          "internalType": "string",
          "name": "title",
          "type": "string"
        },
        {
          "internalType": "address payable",
          "name": "author",
          "type": "address"
        },
        {
          "internalType": "address payable",
          "name": "owner",
          "type": "address"
        }
      ],
      "stateMutability": "view",
      "type": "function"
    },
    {
      "inputs": [],
      "name": "confirmPurchase",
      "outputs": [],
      "stateMutability": "payable",
      "type": "function"
    },
    {
      "inputs": [],
      "name": "declinePurchase",
      "outputs": [],
      "stateMutability": "payable",
      "type": "function"
    },
    {
      "inputs": [],
      "name": "cancelPurchase",
      "outputs": [],
      "stateMutability": "payable",
      "type": "function"
    }
  ],
  "bytecode": "0x60806040526000600960006101000a81548160ff02191690831515021790555060405162001dd638038062001dd6833981810160405281019062000044919062000650565b60008073ffffffffffffffffffffffffffffffffffffffff168573ffffffffffffffffffffffffffffffffffffffff161415905060008073ffffffffffffffffffffffffffffffffffffffff168573ffffffffffffffffffffffffffffffffffffffff161415905060008073ffffffffffffffffffffffffffffffffffffffff168573ffffffffffffffffffffffffffffffffffffffff16141590506000600f85101590506000808a1190508a6000806101000a81548173ffffffffffffffffffffffffffffffffffffffff021916908373ffffffffffffffffffffffffffffffffffffffff160217905550808015620001cf575060008054906101000a900473ffffffffffffffffffffffffffffffffffffffff1673ffffffffffffffffffffffffffffffffffffffff166392053b636040518163ffffffff1660e01b8152600401602060405180830381865afa158015620001a5573d6000803e3d6000fd5b505050506040513d601f19601f82011682018060405250810190620001cb9190620006ec565b8a11155b9050838015620002a8575060008054906101000a900473ffffffffffffffffffffffffffffffffffffffff1673ffffffffffffffffffffffffffffffffffffffff1663a9b114268b6040518263ffffffff1660e01b81526004016200023591906200072f565b602060405180830381865afa15801562000253573d6000803e3d6000fd5b505050506040513d601f19601f820116820180604052508101906200027991906200074c565b73ffffffffffffffffffffffffffffffffffffffff168873ffffffffffffffffffffffffffffffffffffffff16145b935082801562000381575060008054906101000a900473ffffffffffffffffffffffffffffffffffffffff1673ffffffffffffffffffffffffffffffffffffffff16631440bd078b6040518263ffffffff1660e01b81526004016200030e91906200072f565b602060405180830381865afa1580156200032c573d6000803e3d6000fd5b505050506040513d601f19601f820116820180604052508101906200035291906200074c565b73ffffffffffffffffffffffffffffffffffffffff168773ffffffffffffffffffffffffffffffffffffffff16145b92508080156200038e5750835b8015620003985750825b8015620003a25750845b8015620003ac5750815b620003ee576040517f08c379a0000000000000000000000000000000000000000000000000000000008152600401620003e590620007df565b60405180910390fd5b8960018190555088600260006101000a81548173ffffffffffffffffffffffffffffffffffffffff021916908373ffffffffffffffffffffffffffffffffffffffff16021790555087600360006101000a81548173ffffffffffffffffffffffffffffffffffffffff021916908373ffffffffffffffffffffffffffffffffffffffff16021790555086600460006101000a81548173ffffffffffffffffffffffffffffffffffffffff021916908373ffffffffffffffffffffffffffffffffffffffff160217905550856005819055504260068190555085600654620004d6919062000830565b60078190555034600881905550600a600854620004f49190620008bc565b600a81905550600a546008546200050c9190620008f4565b600b819055507f881398ee76a74d936f5b826b7cca23946040cc0fbb7df9646c3173c8e8c5eedb8a8a8a8a6008546040516200054d959493929190620009ab565b60405180910390a1505050505050505050505062000a08565b600080fd5b600073ffffffffffffffffffffffffffffffffffffffff82169050919050565b600062000598826200056b565b9050919050565b620005aa816200058b565b8114620005b657600080fd5b50565b600081519050620005ca816200059f565b92915050565b6000819050919050565b620005e581620005d0565b8114620005f157600080fd5b50565b6000815190506200060581620005da565b92915050565b600062000618826200056b565b9050919050565b6200062a816200060b565b81146200063657600080fd5b50565b6000815190506200064a816200061f565b92915050565b60008060008060008060c0878903121562000670576200066f62000566565b5b60006200068089828a01620005b9565b96505060206200069389828a01620005f4565b9550506040620006a689828a01620005b9565b9450506060620006b989828a0162000639565b9350506080620006cc89828a0162000639565b92505060a0620006df89828a01620005f4565b9150509295509295509295565b60006020828403121562000705576200070462000566565b5b60006200071584828501620005f4565b91505092915050565b6200072981620005d0565b82525050565b60006020820190506200074660008301846200071e565b92915050565b60006020828403121562000765576200076462000566565b5b60006200077584828501620005b9565b91505092915050565b600082825260208201905092915050565b7f696e76616c696420706172616d65746572730000000000000000000000000000600082015250565b6000620007c76012836200077e565b9150620007d4826200078f565b602082019050919050565b60006020820190508181036000830152620007fa81620007b8565b9050919050565b7f4e487b7100000000000000000000000000000000000000000000000000000000600052601160045260246000fd5b60006200083d82620005d0565b91506200084a83620005d0565b9250827fffffffffffffffffffffffffffffffffffffffffffffffffffffffffffffffff0382111562000882576200088162000801565b5b828201905092915050565b7f4e487b7100000000000000000000000000000000000000000000000000000000600052601260045260246000fd5b6000620008c982620005d0565b9150620008d683620005d0565b925082620008e957620008e86200088d565b5b828204905092915050565b60006200090182620005d0565b91506200090e83620005d0565b92508282101562000924576200092362000801565b5b828203905092915050565b6200093a816200058b565b82525050565b6000819050919050565b60006200096b620009656200095f846200056b565b62000940565b6200056b565b9050919050565b60006200097f826200094a565b9050919050565b6000620009938262000972565b9050919050565b620009a58162000986565b82525050565b600060a082019050620009c260008301886200071e565b620009d160208301876200092f565b620009e060408301866200099a565b620009ef60608301856200099a565b620009fe60808301846200071e565b9695505050505050565b6113be8062000a186000396000f3fe6080604052600436106100f35760003560e01c8063790ca4131161008a578063c2b6b58c11610059578063c2b6b58c146102ba578063d6960697146102e5578063e742a74d146102ef578063fbf8fc001461031a576100f3565b8063790ca4131461022f5780638f1c31511461025a578063aa8c217c14610285578063ab460a26146102b0576100f3565b80634773fb7c116100c65780634773fb7c146101a45780634d3499b5146101ae578063544082e5146101d95780635a77dc4614610204576100f3565b806307191f29146100f85780630fb5a6b4146101235780633197cbb61461014e5780633961bdfb14610179575b600080fd5b34801561010457600080fd5b5061010d61034b565b60405161011a9190610f61565b60405180910390f35b34801561012f57600080fd5b50610138610371565b6040516101459190610f95565b60405180910390f35b34801561015a57600080fd5b50610163610377565b6040516101709190610f95565b60405180910390f35b34801561018557600080fd5b5061018e61037d565b60405161019b9190610f61565b60405180910390f35b6101ac6103a3565b005b3480156101ba57600080fd5b506101c3610682565b6040516101d09190610f95565b60405180910390f35b3480156101e557600080fd5b506101ee610688565b6040516101fb9190610f95565b60405180910390f35b34801561021057600080fd5b5061021961068e565b6040516102269190610fd1565b60405180910390f35b34801561023b57600080fd5b506102446106b4565b6040516102519190610f95565b60405180910390f35b34801561026657600080fd5b5061026f6106ba565b60405161027c9190610f95565b60405180910390f35b34801561029157600080fd5b5061029a6106c0565b6040516102a79190610f95565b60405180910390f35b6102b86106c6565b005b3480156102c657600080fd5b506102cf610991565b6040516102dc9190611007565b60405180910390f35b6102ed6109a4565b005b3480156102fb57600080fd5b50610304610c6c565b6040516103119190611081565b60405180910390f35b34801561032657600080fd5b5061032f610c90565b6040516103429796959493929190611135565b60405180910390f35b600360009054906101000a900473ffffffffffffffffffffffffffffffffffffffff1681565b60055481565b60075481565b600460009054906101000a900473ffffffffffffffffffffffffffffffffffffffff1681565b600060075442111590506000600360009054906101000a900473ffffffffffffffffffffffffffffffffffffffff1673ffffffffffffffffffffffffffffffffffffffff163373ffffffffffffffffffffffffffffffffffffffff161490506000600360009054906101000a900473ffffffffffffffffffffffffffffffffffffffff1673ffffffffffffffffffffffffffffffffffffffff1660008054906101000a900473ffffffffffffffffffffffffffffffffffffffff1673ffffffffffffffffffffffffffffffffffffffff1663a9b114266001546040518263ffffffff1660e01b81526004016104989190610f95565b602060405180830381865afa1580156104b5573d6000803e3d6000fd5b505050506040513d601f19601f820116820180604052508101906104d991906111f1565b73ffffffffffffffffffffffffffffffffffffffff161490508280156104fc5750815b80156105055750805b801561051e5750600960009054906101000a900460ff16155b61052757600080fd5b6001600960006101000a81548160ff021916908315150217905550600260009054906101000a900473ffffffffffffffffffffffffffffffffffffffff1673ffffffffffffffffffffffffffffffffffffffff166108fc6008549081150290604051600060405180830381858888f1935050505015610602577fb92a7474c1491f709d736b42aeaaf2e23fa8e029038e11454064047d69cff1fd600154600360009054906101000a900473ffffffffffffffffffffffffffffffffffffffff166040516105f592919061123f565b60405180910390a161067d565b7fc53b4710517515ffe70cd71a0ffe6a9c8c36985d28acb6b472cda6fa75514a4960015430600260009054906101000a900473ffffffffffffffffffffffffffffffffffffffff1660405161065993929190611268565b60405180910390a16000600960006101000a81548160ff0219169083151502179055505b505050565b60015481565b600a5481565b600260009054906101000a900473ffffffffffffffffffffffffffffffffffffffff1681565b60065481565b600b5481565b60085481565b6000600260009054906101000a900473ffffffffffffffffffffffffffffffffffffffff1673ffffffffffffffffffffffffffffffffffffffff163373ffffffffffffffffffffffffffffffffffffffff161490506000600360009054906101000a900473ffffffffffffffffffffffffffffffffffffffff1673ffffffffffffffffffffffffffffffffffffffff1660008054906101000a900473ffffffffffffffffffffffffffffffffffffffff1673ffffffffffffffffffffffffffffffffffffffff1663a9b114266001546040518263ffffffff1660e01b81526004016107b19190610f95565b602060405180830381865afa1580156107ce573d6000803e3d6000fd5b505050506040513d601f19601f820116820180604052508101906107f291906111f1565b73ffffffffffffffffffffffffffffffffffffffff161490508180156108155750805b801561082e5750600960009054906101000a900460ff16155b61083757600080fd5b6001600960006101000a81548160ff021916908315150217905550600260009054906101000a900473ffffffffffffffffffffffffffffffffffffffff1673ffffffffffffffffffffffffffffffffffffffff166108fc6008549081150290604051600060405180830381858888f1935050505015610912577fb92a7474c1491f709d736b42aeaaf2e23fa8e029038e11454064047d69cff1fd600154600260009054906101000a900473ffffffffffffffffffffffffffffffffffffffff1660405161090592919061129f565b60405180910390a161098d565b7fc53b4710517515ffe70cd71a0ffe6a9c8c36985d28acb6b472cda6fa75514a4960015430600260009054906101000a900473ffffffffffffffffffffffffffffffffffffffff1660405161096993929190611268565b60405180910390a16000600960006101000a81548160ff0219169083151502179055505b5050565b600960009054906101000a900460ff1681565b600060075442111590506000600360009054906101000a900473ffffffffffffffffffffffffffffffffffffffff1673ffffffffffffffffffffffffffffffffffffffff163273ffffffffffffffffffffffffffffffffffffffff16149050818015610a0d5750805b8015610a265750600960009054906101000a900460ff16155b610a2f57600080fd5b6001600960006101000a81548160ff0219169083151502179055506000600360009054906101000a900473ffffffffffffffffffffffffffffffffffffffff1673ffffffffffffffffffffffffffffffffffffffff166108fc600b549081150290604051600060405180830381858888f1935050505090506000600460009054906101000a900473ffffffffffffffffffffffffffffffffffffffff1673ffffffffffffffffffffffffffffffffffffffff166108fc600a549081150290604051600060405180830381858888f193505050509050818015610b0e5750805b15610c4a5760008054906101000a900473ffffffffffffffffffffffffffffffffffffffff1673ffffffffffffffffffffffffffffffffffffffff1663784796f7600154600260009054906101000a900473ffffffffffffffffffffffffffffffffffffffff166040518363ffffffff1660e01b8152600401610b929291906112c8565b600060405180830381600087803b158015610bac57600080fd5b505af1158015610bc0573d6000803e3d6000fd5b505050507f4f751a0f286ea331992891ca180b2885950256880401e6dbd0bf20b1d923e677600154600260009054906101000a900473ffffffffffffffffffffffffffffffffffffffff16600360009054906101000a900473ffffffffffffffffffffffffffffffffffffffff16604051610c3d939291906112f1565b60405180910390a1610c66565b6000600960006101000a81548160ff0219169083151502179055505b50505050565b60008054906101000a900473ffffffffffffffffffffffffffffffffffffffff1681565b600c806000015490806001018054610ca790611357565b80601f0160208091040260200160405190810160405280929190818152602001828054610cd390611357565b8015610d205780601f10610cf557610100808354040283529160200191610d20565b820191906000526020600020905b815481529060010190602001808311610d0357829003601f168201915b505050505090806002018054610d3590611357565b80601f0160208091040260200160405190810160405280929190818152602001828054610d6190611357565b8015610dae5780601f10610d8357610100808354040283529160200191610dae565b820191906000526020600020905b815481529060010190602001808311610d9157829003601f168201915b505050505090806003018054610dc390611357565b80601f0160208091040260200160405190810160405280929190818152602001828054610def90611357565b8015610e3c5780601f10610e1157610100808354040283529160200191610e3c565b820191906000526020600020905b815481529060010190602001808311610e1f57829003601f168201915b505050505090806004018054610e5190611357565b80601f0160208091040260200160405190810160405280929190818152602001828054610e7d90611357565b8015610eca5780601f10610e9f57610100808354040283529160200191610eca565b820191906000526020600020905b815481529060010190602001808311610ead57829003601f168201915b5050505050908060050160009054906101000a900473ffffffffffffffffffffffffffffffffffffffff16908060060160009054906101000a900473ffffffffffffffffffffffffffffffffffffffff16905087565b600073ffffffffffffffffffffffffffffffffffffffff82169050919050565b6000610f4b82610f20565b9050919050565b610f5b81610f40565b82525050565b6000602082019050610f766000830184610f52565b92915050565b6000819050919050565b610f8f81610f7c565b82525050565b6000602082019050610faa6000830184610f86565b92915050565b6000610fbb82610f20565b9050919050565b610fcb81610fb0565b82525050565b6000602082019050610fe66000830184610fc2565b92915050565b60008115159050919050565b61100181610fec565b82525050565b600060208201905061101c6000830184610ff8565b92915050565b6000819050919050565b600061104761104261103d84610f20565b611022565b610f20565b9050919050565b60006110598261102c565b9050919050565b600061106b8261104e565b9050919050565b61107b81611060565b82525050565b60006020820190506110966000830184611072565b92915050565b600081519050919050565b600082825260208201905092915050565b60005b838110156110d65780820151818401526020810190506110bb565b838111156110e5576000848401525b50505050565b6000601f19601f8301169050919050565b60006111078261109c565b61111181856110a7565b93506111218185602086016110b8565b61112a816110eb565b840191505092915050565b600060e08201905061114a600083018a610f86565b818103602083015261115c81896110fc565b9050818103604083015261117081886110fc565b9050818103606083015261118481876110fc565b9050818103608083015261119881866110fc565b90506111a760a0830185610f52565b6111b460c0830184610f52565b98975050505050505050565b600080fd5b6111ce81610fb0565b81146111d957600080fd5b50565b6000815190506111eb816111c5565b92915050565b600060208284031215611207576112066111c0565b5b6000611215848285016111dc565b91505092915050565b60006112298261104e565b9050919050565b6112398161121e565b82525050565b60006040820190506112546000830185610f86565b6112616020830184611230565b9392505050565b600060608201905061127d6000830186610f86565b61128a6020830185610fc2565b6112976040830184610fc2565b949350505050565b60006040820190506112b46000830185610f86565b6112c16020830184610fc2565b9392505050565b60006040820190506112dd6000830185610f86565b6112ea6020830184610f52565b9392505050565b60006060820190506113066000830186610f86565b6113136020830185610fc2565b6113206040830184611230565b949350505050565b7f4e487b7100000000000000000000000000000000000000000000000000000000600052602260045260246000fd5b6000600282049050600182168061136f57607f821691505b60208210810361138257611381611328565b5b5091905056fea2646970667358221220b9087a19c63a5709b5510869fc6a0f6b72f445d65ba8722a537c029de88e125664736f6c634300080d0033",
  "immutableReferences": {},
  "source": "// SPDX-License-Identifier: SimPL-2.0\r\npragma solidity ^0.8.12;\r\n\r\nimport \"./Release.sol\";\r\n\r\ncontract Purchase {\r\n\r\n    Release public contractRelease;\r\n    uint    public imageID; \r\n    address public purchaser;\r\n    address payable public imageOwner;\r\n    address payable public imageAuthor;\r\n    uint    public duration;\r\n    uint    public launchTime;\r\n    uint    public endTime;\r\n    uint256 public amount;\r\n    bool    public isClosed = false;\r\n    uint    public authorShare;\r\n    uint    public ownerShare;\r\n    Image public thisImage;\r\n    struct Image {\r\n        uint id;\r\n        string hash;\r\n        string sha3;\r\n        string signature;\r\n        string title;\r\n        address payable author;\r\n        address payable owner;\r\n    }\r\n\r\n    event purchaseLaunched(uint imageID,address purchaser, address imageOwner, address imageAuthor, uint amount);\r\n    event transferComplete(uint imageID,address purchaser, address imageOwner);\r\n    event transferFailed(uint imageID,address transferor, address transferee);\r\n    event purchaseDisengage(uint imageID, address canceller);\r\n\r\n    //evidence of stupid\r\n    // function checkerRelease()     public view returns (address)       { return address(contractRelease); }\r\n    // function checkerImageID()     public view returns (uint)          { return imageID; }\r\n    // function checkerPurchaser()   public view returns (address)       { return purchaser; }\r\n    // function checkerOwner()       public view returns (address)       { return imageOwner; }\r\n    // function checkerAuthor()      public view returns (address)       { return imageAuthor; }\r\n    // function checkerDuration()    public view returns (uint)          { return duration; }\r\n    // function checkerEndTime()     public view returns (uint)          { return endTime; }\r\n    // function checkerLaunchTime()  public view returns (uint)          { return launchTime; }\r\n    // function checkerAmount()      public view returns (uint256)       { return amount; }\r\n    // function checkerClosed()      public view returns (bool)          { return isClosed;}\r\n    // function checkerOwnerShare()  public view returns (uint)          { return ownerShare;}\r\n    // function checkerAuthorShare() public view returns (uint)          { return authorShare;}\r\n    // function checkerSender()      public view returns (address)       { return msg.sender; }\r\n    // function checkerBalance()     public view returns (uint256)       { return address(this).balance; }\r\n    // function checkerOrigin()      public view returns (address)       { return tx.origin; }\r\n    // function checkerTmSp()        public view returns (uint)          { return block.timestamp; }\r\n    //default getter is cheaper, no need for these shit\r\n\r\n    constructor(\r\n        address releaseAddress,\r\n        uint _imageID,\r\n        address _purchaser,\r\n        address payable _imageOwner,\r\n        address payable _imageAuthor,\r\n        uint _duration\r\n    ) payable {\r\n        //evm ensures address should be valid otherwise contract will not be created\r\n        //BUT I still check addresses for precaution\r\n        bool FlagPurchaser = _purchaser != address(0x0);\r\n        bool FlagOwner = _imageOwner != address(0x0);\r\n        bool FlagAuthor = _imageAuthor != address(0x0);\r\n        bool FlagDuration = _duration >= 15;\r\n        bool FlagImageID = _imageID > 0;\r\n        contractRelease=Release(releaseAddress);\r\n        // require(_purchaser != address(0x0), \"invalid purchaser address\");\r\n        // require(_imageOwner != address(0x0), \"invalid image owner address\");\r\n        // require(_imageAuthor != address(0x0), \"invalid image author address\");\r\n        // require(_purchaser != address(0x0), \"invalid purchaser address\");\r\n        // require(_imageID > 0 && _imageID <= contractRelease.imageCount(), \"invalid image ID\");\r\n        // require(_imageOwner != address(0x0) && _imageOwner == contractRelease.getImageOwner(_imageID), \"invalid owner\");\r\n        // require(_imageAuthor != address(0x0) && _imageAuthor == contractRelease.getImageAuthor(_imageID), \"invalid author\");\r\n        // require(_duration >= 15, \"time too short\");\r\n        FlagImageID = FlagImageID && ( _imageID <= contractRelease.imageCount());\r\n        FlagOwner = FlagOwner && (_imageOwner == contractRelease.getImageOwner(_imageID));\r\n        FlagAuthor = FlagAuthor && (_imageAuthor == contractRelease.getImageAuthor(_imageID));\r\n        \r\n        //use one require to save gas\r\n        require(FlagImageID && FlagOwner && FlagAuthor && FlagPurchaser && FlagDuration, \"invalid parameters\");\r\n        \r\n        imageID = _imageID;\r\n        purchaser = _purchaser;\r\n        imageOwner = _imageOwner;\r\n        imageAuthor = _imageAuthor;\r\n        duration = _duration;\r\n        launchTime = block.timestamp;\r\n        endTime = launchTime + _duration;\r\n        amount = msg.value;\r\n        authorShare = amount / 10 ;\r\n        ownerShare = amount - authorShare;\r\n        emit purchaseLaunched(_imageID, _purchaser, _imageOwner, _imageAuthor, amount);\r\n    }\r\n\r\n    function confirmPurchase() public payable {\r\n        bool FlagTimestamp = block.timestamp <= endTime;\r\n        bool FlagTxOrigin = tx.origin == imageOwner;\r\n        // if (block.timestamp > endTime) return;\r\n        // if (tx.origin != imageOwner;) return;\r\n        // if (isClosed) return;\r\n\r\n        require(FlagTimestamp && FlagTxOrigin && !isClosed);\r\n        \r\n        isClosed = true;\r\n    \r\n        bool tsfOwnerFlag =  (payable(imageOwner)).send(ownerShare);\r\n        bool tsfAuthorFlag = (payable(imageAuthor)).send(authorShare);\r\n        \r\n        if (tsfOwnerFlag && tsfAuthorFlag) {\r\n          contractRelease.changeOwner(imageID, payable(purchaser));\r\n          emit transferComplete(imageID, purchaser, imageOwner);\r\n        } else{\r\n          isClosed = false;\r\n        }\r\n    }\r\n\r\n    function declinePurchase() public payable {\r\n        \r\n      bool FlagTimestamp = block.timestamp <= endTime;\r\n      bool FlagTxOrigin = msg.sender == imageOwner;\r\n      bool FlagOwner = contractRelease.getImageOwner(imageID) == imageOwner;\r\n      // require(block.timestamp <= endTime, \"Contract has closed!\");\r\n      // require(msg.sender == imageOwner, \"Who are you?\");  \r\n      // require(isClosed == false, \"already done\");\r\n      // require(contractRelease.getImageOwner(imageID) == imageOwner, \"\");\r\n      \r\n      require(FlagTimestamp && FlagTxOrigin && FlagOwner && !isClosed);\r\n\r\n      isClosed = true;\r\n\r\n      if ((payable(purchaser)).send(amount)) {\r\n        emit purchaseDisengage(imageID, imageOwner);\r\n      }else {\r\n        emit transferFailed(imageID,address(this), purchaser);\r\n        isClosed = false;\r\n      }\r\n    }\r\n\r\n    function cancelPurchase() public payable {\r\n      \r\n      bool FlagTxOrigin = msg.sender == purchaser;\r\n      bool FlagOwner = contractRelease.getImageOwner(imageID) == imageOwner;\r\n\r\n      // require(msg.sender == purchaser, \"you cannot cancel this\");\r\n      // require(isClosed == false, \"already done\");\r\n      // require(contractRelease.getImageOwner(imageID) == imageOwner, \"\");\r\n      require( FlagTxOrigin && FlagOwner && !isClosed);\r\n\r\n      isClosed = true;\r\n\r\n      if ((payable(purchaser)).send(amount)) {\r\n        emit purchaseDisengage(imageID, purchaser);\r\n      }else {\r\n        emit transferFailed(imageID, address(this), purchaser);\r\n        isClosed = false;\r\n      }\r\n    }\r\n\r\n    // function callTest() public payable {\r\n    //   contractRelease.changeOwner(imageID, payable(purchaser));\r\n    // }\r\n}\r\n",
  "sourcePath": "D:\\Fun\\proj12\\Dimage\\contracts\\Purchase.sol",
  "compiler": {
    "name": "solc",
    "version": "0.8.13+commit.abaa5c0e.Emscripten.clang"
  },
  "schemaVersion": "3.4.5",
  "updatedAt": "2022-04-28T12:07:59.829Z",
  "devdoc": {
    "kind": "dev",
    "methods": {},
    "version": 1
  },
  "userdoc": {
    "kind": "user",
    "methods": {},
    "version": 1
  }
}