{
  "contractName": "Purchase",
  "abi": [
    {
      "inputs": [
        {
          "internalType": "address",
          "name": "releaseAddress",
          "type": "address"
        },
        {
          "internalType": "uint256",
          "name": "_imageID",
          "type": "uint256"
        },
        {
          "internalType": "address",
          "name": "_purchaser",
          "type": "address"
        },
        {
          "internalType": "address payable",
          "name": "_imageOwner",
          "type": "address"
        },
        {
          "internalType": "address payable",
          "name": "_imageAuthor",
          "type": "address"
        },
        {
          "internalType": "string",
          "name": "_SHA3",
          "type": "string"
        },
        {
          "internalType": "uint256",
          "name": "_duration",
          "type": "uint256"
        }
      ],
      "stateMutability": "payable",
      "type": "constructor"
    },
    {
      "anonymous": false,
      "inputs": [
        {
          "indexed": false,
          "internalType": "uint256",
          "name": "imageID",
          "type": "uint256"
        },
        {
          "indexed": false,
          "internalType": "address",
          "name": "canceller",
          "type": "address"
        }
      ],
      "name": "purchaseDisengage",
      "type": "event"
    },
    {
      "anonymous": false,
      "inputs": [
        {
          "indexed": false,
          "internalType": "uint256",
          "name": "imageID",
          "type": "uint256"
        },
        {
          "indexed": false,
          "internalType": "address",
          "name": "purchaser",
          "type": "address"
        },
        {
          "indexed": false,
          "internalType": "address",
          "name": "imageOwner",
          "type": "address"
        },
        {
          "indexed": false,
          "internalType": "address",
          "name": "imageAuthor",
          "type": "address"
        },
        {
          "indexed": false,
          "internalType": "uint256",
          "name": "amount",
          "type": "uint256"
        }
      ],
      "name": "purchaseLaunched",
      "type": "event"
    },
    {
      "anonymous": false,
      "inputs": [
        {
          "indexed": false,
          "internalType": "address",
          "name": "purchaser",
          "type": "address"
        },
        {
          "indexed": false,
          "internalType": "address",
          "name": "imageOwner",
          "type": "address"
        },
        {
          "indexed": false,
          "internalType": "address",
          "name": "imageAuthor",
          "type": "address"
        }
      ],
      "name": "transferComplete",
      "type": "event"
    },
    {
      "anonymous": false,
      "inputs": [
        {
          "indexed": false,
          "internalType": "address",
          "name": "transferor",
          "type": "address"
        },
        {
          "indexed": false,
          "internalType": "address",
          "name": "transferee",
          "type": "address"
        }
      ],
      "name": "transferFailed",
      "type": "event"
    },
    {
      "inputs": [],
      "name": "checkerRelease",
      "outputs": [
        {
          "internalType": "address",
          "name": "",
          "type": "address"
        }
      ],
      "stateMutability": "view",
      "type": "function"
    },
    {
      "inputs": [],
      "name": "checkerImageID",
      "outputs": [
        {
          "internalType": "uint256",
          "name": "",
          "type": "uint256"
        }
      ],
      "stateMutability": "view",
      "type": "function"
    },
    {
      "inputs": [],
      "name": "checkerPurchaser",
      "outputs": [
        {
          "internalType": "address",
          "name": "",
          "type": "address"
        }
      ],
      "stateMutability": "view",
      "type": "function"
    },
    {
      "inputs": [],
      "name": "checkerOwner",
      "outputs": [
        {
          "internalType": "address",
          "name": "",
          "type": "address"
        }
      ],
      "stateMutability": "view",
      "type": "function"
    },
    {
      "inputs": [],
      "name": "checkerAuthor",
      "outputs": [
        {
          "internalType": "address",
          "name": "",
          "type": "address"
        }
      ],
      "stateMutability": "view",
      "type": "function"
    },
    {
      "inputs": [],
      "name": "checkerSHA3",
      "outputs": [
        {
          "internalType": "string",
          "name": "",
          "type": "string"
        }
      ],
      "stateMutability": "view",
      "type": "function"
    },
    {
      "inputs": [],
      "name": "checkerDuration",
      "outputs": [
        {
          "internalType": "uint256",
          "name": "",
          "type": "uint256"
        }
      ],
      "stateMutability": "view",
      "type": "function"
    },
    {
      "inputs": [],
      "name": "checkerEndTime",
      "outputs": [
        {
          "internalType": "uint256",
          "name": "",
          "type": "uint256"
        }
      ],
      "stateMutability": "view",
      "type": "function"
    },
    {
      "inputs": [],
      "name": "checkerLaunchTime",
      "outputs": [
        {
          "internalType": "uint256",
          "name": "",
          "type": "uint256"
        }
      ],
      "stateMutability": "view",
      "type": "function"
    },
    {
      "inputs": [],
      "name": "checkerAmount",
      "outputs": [
        {
          "internalType": "uint256",
          "name": "",
          "type": "uint256"
        }
      ],
      "stateMutability": "view",
      "type": "function"
    },
    {
      "inputs": [],
      "name": "checkerClosed",
      "outputs": [
        {
          "internalType": "bool",
          "name": "",
          "type": "bool"
        }
      ],
      "stateMutability": "view",
      "type": "function"
    },
    {
      "inputs": [],
      "name": "checkerOwnerShare",
      "outputs": [
        {
          "internalType": "uint256",
          "name": "",
          "type": "uint256"
        }
      ],
      "stateMutability": "view",
      "type": "function"
    },
    {
      "inputs": [],
      "name": "checkerAuthorShare",
      "outputs": [
        {
          "internalType": "uint256",
          "name": "",
          "type": "uint256"
        }
      ],
      "stateMutability": "view",
      "type": "function"
    },
    {
      "inputs": [],
      "name": "checkerSender",
      "outputs": [
        {
          "internalType": "address",
          "name": "",
          "type": "address"
        }
      ],
      "stateMutability": "view",
      "type": "function"
    },
    {
      "inputs": [],
      "name": "checkerBalance",
      "outputs": [
        {
          "internalType": "uint256",
          "name": "",
          "type": "uint256"
        }
      ],
      "stateMutability": "view",
      "type": "function"
    },
    {
      "inputs": [],
      "name": "checkerOrigin",
      "outputs": [
        {
          "internalType": "address",
          "name": "",
          "type": "address"
        }
      ],
      "stateMutability": "view",
      "type": "function"
    },
    {
      "inputs": [],
      "name": "checkerTmSp",
      "outputs": [
        {
          "internalType": "uint256",
          "name": "",
          "type": "uint256"
        }
      ],
      "stateMutability": "view",
      "type": "function"
    },
    {
      "inputs": [],
      "name": "confirmPurchase",
      "outputs": [],
      "stateMutability": "payable",
      "type": "function"
    },
    {
      "inputs": [],
      "name": "confirmPurchase2",
      "outputs": [],
      "stateMutability": "payable",
      "type": "function"
    },
    {
      "inputs": [],
      "name": "declinePurchase",
      "outputs": [],
      "stateMutability": "payable",
      "type": "function"
    },
    {
      "inputs": [],
      "name": "cancelPurchase",
      "outputs": [],
      "stateMutability": "payable",
      "type": "function"
    },
    {
      "inputs": [],
      "name": "callTest",
      "outputs": [],
      "stateMutability": "payable",
      "type": "function"
    }
  ],
  "bytecode": "0x60806040526000600a60006101000a81548160ff021916908315150217905550604051620028b2380380620028b2833981810160405281019062000044919062000a29565b600073ffffffffffffffffffffffffffffffffffffffff168573ffffffffffffffffffffffffffffffffffffffff1603620000b6576040517f08c379a0000000000000000000000000000000000000000000000000000000008152600401620000ad9062000b5c565b60405180910390fd5b600073ffffffffffffffffffffffffffffffffffffffff168473ffffffffffffffffffffffffffffffffffffffff160362000128576040517f08c379a00000000000000000000000000000000000000000000000000000000081526004016200011f9062000bce565b60405180910390fd5b600073ffffffffffffffffffffffffffffffffffffffff168373ffffffffffffffffffffffffffffffffffffffff16036200019a576040517f08c379a0000000000000000000000000000000000000000000000000000000008152600401620001919062000c40565b60405180910390fd5b6000825103620001e1576040517f08c379a0000000000000000000000000000000000000000000000000000000008152600401620001d89062000cb2565b60405180910390fd5b600f81101562000228576040517f08c379a00000000000000000000000000000000000000000000000000000000081526004016200021f9062000d24565b60405180910390fd5b866000806101000a81548173ffffffffffffffffffffffffffffffffffffffff021916908373ffffffffffffffffffffffffffffffffffffffff1602179055506000861180156200030a575060008054906101000a900473ffffffffffffffffffffffffffffffffffffffff1673ffffffffffffffffffffffffffffffffffffffff166392053b636040518163ffffffff1660e01b8152600401602060405180830381865afa158015620002e0573d6000803e3d6000fd5b505050506040513d601f19601f8201168201806040525081019062000306919062000d46565b8611155b6200034c576040517f08c379a0000000000000000000000000000000000000000000000000000000008152600401620003439062000dc8565b60405180910390fd5b60008054906101000a900473ffffffffffffffffffffffffffffffffffffffff1673ffffffffffffffffffffffffffffffffffffffff1663a9b11426876040518263ffffffff1660e01b8152600401620003a7919062000dfb565b602060405180830381865afa158015620003c5573d6000803e3d6000fd5b505050506040513d601f19601f82011682018060405250810190620003eb919062000e18565b73ffffffffffffffffffffffffffffffffffffffff168473ffffffffffffffffffffffffffffffffffffffff16146200045b576040517f08c379a0000000000000000000000000000000000000000000000000000000008152600401620004529062000e9a565b60405180910390fd5b60008054906101000a900473ffffffffffffffffffffffffffffffffffffffff1673ffffffffffffffffffffffffffffffffffffffff16631440bd07876040518263ffffffff1660e01b8152600401620004b6919062000dfb565b602060405180830381865afa158015620004d4573d6000803e3d6000fd5b505050506040513d601f19601f82011682018060405250810190620004fa919062000e18565b73ffffffffffffffffffffffffffffffffffffffff168373ffffffffffffffffffffffffffffffffffffffff16146200056a576040517f08c379a0000000000000000000000000000000000000000000000000000000008152600401620005619062000f0c565b60405180910390fd5b8560018190555084600260006101000a81548173ffffffffffffffffffffffffffffffffffffffff021916908373ffffffffffffffffffffffffffffffffffffffff16021790555083600360006101000a81548173ffffffffffffffffffffffffffffffffffffffff021916908373ffffffffffffffffffffffffffffffffffffffff16021790555082600460006101000a81548173ffffffffffffffffffffffffffffffffffffffff021916908373ffffffffffffffffffffffffffffffffffffffff16021790555080600681905550426007819055508060075462000652919062000f5d565b600881905550816005908051906020019062000670929190620006f7565b5034600981905550600a60095462000689919062000fe9565b600b81905550600b54600954620006a1919062001021565b600c819055507f881398ee76a74d936f5b826b7cca23946040cc0fbb7df9646c3173c8e8c5eedb86868686600954604051620006e2959493929190620010d8565b60405180910390a15050505050505062001199565b828054620007059062001164565b90600052602060002090601f01602090048101928262000729576000855562000775565b82601f106200074457805160ff191683800117855562000775565b8280016001018555821562000775579182015b828111156200077457825182559160200191906001019062000757565b5b50905062000784919062000788565b5090565b5b80821115620007a357600081600090555060010162000789565b5090565b6000604051905090565b600080fd5b600080fd5b600073ffffffffffffffffffffffffffffffffffffffff82169050919050565b6000620007e882620007bb565b9050919050565b620007fa81620007db565b81146200080657600080fd5b50565b6000815190506200081a81620007ef565b92915050565b6000819050919050565b620008358162000820565b81146200084157600080fd5b50565b60008151905062000855816200082a565b92915050565b60006200086882620007bb565b9050919050565b6200087a816200085b565b81146200088657600080fd5b50565b6000815190506200089a816200086f565b92915050565b600080fd5b600080fd5b6000601f19601f8301169050919050565b7f4e487b7100000000000000000000000000000000000000000000000000000000600052604160045260246000fd5b620008f582620008aa565b810181811067ffffffffffffffff82111715620009175762000916620008bb565b5b80604052505050565b60006200092c620007a7565b90506200093a8282620008ea565b919050565b600067ffffffffffffffff8211156200095d576200095c620008bb565b5b6200096882620008aa565b9050602081019050919050565b60005b838110156200099557808201518184015260208101905062000978565b83811115620009a5576000848401525b50505050565b6000620009c2620009bc846200093f565b62000920565b905082815260208101848484011115620009e157620009e0620008a5565b5b620009ee84828562000975565b509392505050565b600082601f83011262000a0e5762000a0d620008a0565b5b815162000a20848260208601620009ab565b91505092915050565b600080600080600080600060e0888a03121562000a4b5762000a4a620007b1565b5b600062000a5b8a828b0162000809565b975050602062000a6e8a828b0162000844565b965050604062000a818a828b0162000809565b955050606062000a948a828b0162000889565b945050608062000aa78a828b0162000889565b93505060a088015167ffffffffffffffff81111562000acb5762000aca620007b6565b5b62000ad98a828b01620009f6565b92505060c062000aec8a828b0162000844565b91505092959891949750929550565b600082825260208201905092915050565b7f696e76616c696420707572636861736572206164647265737300000000000000600082015250565b600062000b4460198362000afb565b915062000b518262000b0c565b602082019050919050565b6000602082019050818103600083015262000b778162000b35565b9050919050565b7f696e76616c696420696d616765206f776e657220616464726573730000000000600082015250565b600062000bb6601b8362000afb565b915062000bc38262000b7e565b602082019050919050565b6000602082019050818103600083015262000be98162000ba7565b9050919050565b7f696e76616c696420696d61676520617574686f72206164647265737300000000600082015250565b600062000c28601c8362000afb565b915062000c358262000bf0565b602082019050919050565b6000602082019050818103600083015262000c5b8162000c19565b9050919050565b7f696e76616c696420736861330000000000000000000000000000000000000000600082015250565b600062000c9a600c8362000afb565b915062000ca78262000c62565b602082019050919050565b6000602082019050818103600083015262000ccd8162000c8b565b9050919050565b7f74696d6520746f6f2073686f7274000000000000000000000000000000000000600082015250565b600062000d0c600e8362000afb565b915062000d198262000cd4565b602082019050919050565b6000602082019050818103600083015262000d3f8162000cfd565b9050919050565b60006020828403121562000d5f5762000d5e620007b1565b5b600062000d6f8482850162000844565b91505092915050565b7f696e76616c696420696d61676520494400000000000000000000000000000000600082015250565b600062000db060108362000afb565b915062000dbd8262000d78565b602082019050919050565b6000602082019050818103600083015262000de38162000da1565b9050919050565b62000df58162000820565b82525050565b600060208201905062000e12600083018462000dea565b92915050565b60006020828403121562000e315762000e30620007b1565b5b600062000e418482850162000809565b91505092915050565b7f77726f6e67206f776e6572000000000000000000000000000000000000000000600082015250565b600062000e82600b8362000afb565b915062000e8f8262000e4a565b602082019050919050565b6000602082019050818103600083015262000eb58162000e73565b9050919050565b7f77726f6e6720617574686f720000000000000000000000000000000000000000600082015250565b600062000ef4600c8362000afb565b915062000f018262000ebc565b602082019050919050565b6000602082019050818103600083015262000f278162000ee5565b9050919050565b7f4e487b7100000000000000000000000000000000000000000000000000000000600052601160045260246000fd5b600062000f6a8262000820565b915062000f778362000820565b9250827fffffffffffffffffffffffffffffffffffffffffffffffffffffffffffffffff0382111562000faf5762000fae62000f2e565b5b828201905092915050565b7f4e487b7100000000000000000000000000000000000000000000000000000000600052601260045260246000fd5b600062000ff68262000820565b9150620010038362000820565b92508262001016576200101562000fba565b5b828204905092915050565b60006200102e8262000820565b91506200103b8362000820565b92508282101562001051576200105062000f2e565b5b828203905092915050565b6200106781620007db565b82525050565b6000819050919050565b600062001098620010926200108c84620007bb565b6200106d565b620007bb565b9050919050565b6000620010ac8262001077565b9050919050565b6000620010c0826200109f565b9050919050565b620010d281620010b3565b82525050565b600060a082019050620010ef600083018862000dea565b620010fe60208301876200105c565b6200110d6040830186620010c7565b6200111c6060830185620010c7565b6200112b608083018462000dea565b9695505050505050565b7f4e487b7100000000000000000000000000000000000000000000000000000000600052602260045260246000fd5b600060028204905060018216806200117d57607f821691505b60208210810362001193576200119262001135565b5b50919050565b61170980620011a96000396000f3fe6080604052600436106101355760003560e01c80637f4d7be5116100ab578063ab460a261161006f578063ab460a2614610387578063be31d9be14610391578063d6960697146103bc578063e1eefd12146103c6578063e485e34b146103f1578063ea9f32421461041c57610135565b80637f4d7be5146102b057806386da7955146102db57806399685f4514610306578063a266744114610331578063a6fe3ae81461035c57610135565b80634773fb7c116100fd5780634773fb7c146101f057806350621619146101fa57806350d519d51461022557806365f46317146102505780636613f9b01461025a5780636a1edb901461028557610135565b8063087279cb1461013a57806308a26245146101655780631e7cc22814610190578063214d9505146101bb57806321615e9c146101e6575b600080fd5b34801561014657600080fd5b5061014f610447565b60405161015c91906111d9565b60405180910390f35b34801561017157600080fd5b5061017a61045e565b604051610187919061120d565b60405180910390f35b34801561019c57600080fd5b506101a5610466565b6040516101b2919061120d565b60405180910390f35b3480156101c757600080fd5b506101d0610470565b6040516101dd9190611269565b60405180910390f35b6101ee610499565b005b6101f861054c565b005b34801561020657600080fd5b5061020f6107b0565b60405161021c9190611269565b60405180910390f35b34801561023157600080fd5b5061023a6107b8565b6040516102479190611269565b60405180910390f35b6102586107e2565b005b34801561026657600080fd5b5061026f610ab0565b60405161027c919061120d565b60405180910390f35b34801561029157600080fd5b5061029a610aba565b6040516102a7919061120d565b60405180910390f35b3480156102bc57600080fd5b506102c5610ac4565b6040516102d2919061120d565b60405180910390f35b3480156102e757600080fd5b506102f0610ace565b6040516102fd919061120d565b60405180910390f35b34801561031257600080fd5b5061031b610ad8565b604051610328919061131d565b60405180910390f35b34801561033d57600080fd5b50610346610b6a565b6040516103539190611269565b60405180910390f35b34801561036857600080fd5b50610371610b72565b60405161037e9190611269565b60405180910390f35b61038f610b9c565b005b34801561039d57600080fd5b506103a6610dbb565b6040516103b3919061120d565b60405180910390f35b6103c4610dc5565b005b3480156103d257600080fd5b506103db611182565b6040516103e8919061120d565b60405180910390f35b3480156103fd57600080fd5b5061040661118c565b604051610413919061120d565b60405180910390f35b34801561042857600080fd5b50610431611194565b60405161043e9190611269565b60405180910390f35b6000600a60009054906101000a900460ff16905090565b600047905090565b6000600654905090565b60008060009054906101000a900473ffffffffffffffffffffffffffffffffffffffff16905090565b60008054906101000a900473ffffffffffffffffffffffffffffffffffffffff1673ffffffffffffffffffffffffffffffffffffffff1663784796f7600154600260009054906101000a900473ffffffffffffffffffffffffffffffffffffffff166040518363ffffffff1660e01b8152600401610518929190611360565b600060405180830381600087803b15801561053257600080fd5b505af1158015610546573d6000803e3d6000fd5b50505050565b600854421115610591576040517f08c379a0000000000000000000000000000000000000000000000000000000008152600401610588906113d5565b60405180910390fd5b600360009054906101000a900473ffffffffffffffffffffffffffffffffffffffff1673ffffffffffffffffffffffffffffffffffffffff163373ffffffffffffffffffffffffffffffffffffffff1614610621576040517f08c379a000000000000000000000000000000000000000000000000000000000815260040161061890611441565b60405180910390fd5b60001515600a60009054906101000a900460ff16151514610677576040517f08c379a000000000000000000000000000000000000000000000000000000000815260040161066e906114ad565b60405180910390fd5b6001600a60006101000a81548160ff021916908315150217905550600260009054906101000a900473ffffffffffffffffffffffffffffffffffffffff1673ffffffffffffffffffffffffffffffffffffffff166108fc6009549081150290604051600060405180830381858888f1935050505015610752577fb92a7474c1491f709d736b42aeaaf2e23fa8e029038e11454064047d69cff1fd600154600360009054906101000a900473ffffffffffffffffffffffffffffffffffffffff1660405161074592919061152c565b60405180910390a16107ae565b7fc6afbff7d6fbff924177435d84160a0fe47a31ca612e8e5a49de3dcf6398983e30600260009054906101000a900473ffffffffffffffffffffffffffffffffffffffff166040516107a5929190611555565b60405180910390a15b565b600033905090565b6000600460009054906101000a900473ffffffffffffffffffffffffffffffffffffffff16905090565b6008544211610aae57600360009054906101000a900473ffffffffffffffffffffffffffffffffffffffff1673ffffffffffffffffffffffffffffffffffffffff163273ffffffffffffffffffffffffffffffffffffffff1603610aae57600a60009054906101000a900460ff16610aae576001600a60006101000a81548160ff02191690831515021790555060008054906101000a900473ffffffffffffffffffffffffffffffffffffffff1673ffffffffffffffffffffffffffffffffffffffff1663784796f7600154600260009054906101000a900473ffffffffffffffffffffffffffffffffffffffff166040518363ffffffff1660e01b81526004016108ee929190611360565b600060405180830381600087803b15801561090857600080fd5b505af115801561091c573d6000803e3d6000fd5b505050506000600360009054906101000a900473ffffffffffffffffffffffffffffffffffffffff1673ffffffffffffffffffffffffffffffffffffffff166108fc600c549081150290604051600060405180830381858888f1935050505090506000600460009054906101000a900473ffffffffffffffffffffffffffffffffffffffff1673ffffffffffffffffffffffffffffffffffffffff166108fc600b549081150290604051600060405180830381858888f1935050505090508180156109e45750805b15610a8f577f97214b013eeee439e2aa56468469e791456e9ded1cab84ce4b4e58eeb648232c600260009054906101000a900473ffffffffffffffffffffffffffffffffffffffff16600360009054906101000a900473ffffffffffffffffffffffffffffffffffffffff16600460009054906101000a900473ffffffffffffffffffffffffffffffffffffffff16604051610a829392919061157e565b60405180910390a1610aab565b6000600a60006101000a81548160ff0219169083151502179055505b50505b565b6000600c54905090565b6000600854905090565b6000600754905090565b6000600954905090565b606060058054610ae7906115e4565b80601f0160208091040260200160405190810160405280929190818152602001828054610b13906115e4565b8015610b605780601f10610b3557610100808354040283529160200191610b60565b820191906000526020600020905b815481529060010190602001808311610b4357829003601f168201915b5050505050905090565b600032905090565b6000600260009054906101000a900473ffffffffffffffffffffffffffffffffffffffff16905090565b600260009054906101000a900473ffffffffffffffffffffffffffffffffffffffff1673ffffffffffffffffffffffffffffffffffffffff163373ffffffffffffffffffffffffffffffffffffffff1614610c2c576040517f08c379a0000000000000000000000000000000000000000000000000000000008152600401610c2390611661565b60405180910390fd5b60001515600a60009054906101000a900460ff16151514610c82576040517f08c379a0000000000000000000000000000000000000000000000000000000008152600401610c79906114ad565b60405180910390fd5b6001600a60006101000a81548160ff021916908315150217905550600260009054906101000a900473ffffffffffffffffffffffffffffffffffffffff1673ffffffffffffffffffffffffffffffffffffffff166108fc6009549081150290604051600060405180830381858888f1935050505015610d5d577fb92a7474c1491f709d736b42aeaaf2e23fa8e029038e11454064047d69cff1fd600154600260009054906101000a900473ffffffffffffffffffffffffffffffffffffffff16604051610d50929190611681565b60405180910390a1610db9565b7fc6afbff7d6fbff924177435d84160a0fe47a31ca612e8e5a49de3dcf6398983e30600260009054906101000a900473ffffffffffffffffffffffffffffffffffffffff16604051610db0929190611555565b60405180910390a15b565b6000600b54905090565b600854421115610e0a576040517f08c379a0000000000000000000000000000000000000000000000000000000008152600401610e01906113d5565b60405180910390fd5b600360009054906101000a900473ffffffffffffffffffffffffffffffffffffffff1673ffffffffffffffffffffffffffffffffffffffff163273ffffffffffffffffffffffffffffffffffffffff1614610e9a576040517f08c379a0000000000000000000000000000000000000000000000000000000008152600401610e9190611441565b60405180910390fd5b60001515600a60009054906101000a900460ff16151514610ef0576040517f08c379a0000000000000000000000000000000000000000000000000000000008152600401610ee7906114ad565b60405180910390fd5b6001600a60006101000a81548160ff0219169083151502179055506000600360009054906101000a900473ffffffffffffffffffffffffffffffffffffffff1673ffffffffffffffffffffffffffffffffffffffff166108fc600c549081150290604051600060405180830381858888f1935050505090506000600460009054906101000a900473ffffffffffffffffffffffffffffffffffffffff1673ffffffffffffffffffffffffffffffffffffffff166108fc600b549081150290604051600060405180830381858888f193505050509050818015610fcf5750805b15611076577f97214b013eeee439e2aa56468469e791456e9ded1cab84ce4b4e58eeb648232c600260009054906101000a900473ffffffffffffffffffffffffffffffffffffffff16600360009054906101000a900473ffffffffffffffffffffffffffffffffffffffff16600460009054906101000a900473ffffffffffffffffffffffffffffffffffffffff1660405161106d9392919061157e565b60405180910390a15b81156110fa577fc6afbff7d6fbff924177435d84160a0fe47a31ca612e8e5a49de3dcf6398983e600260009054906101000a900473ffffffffffffffffffffffffffffffffffffffff16600360009054906101000a900473ffffffffffffffffffffffffffffffffffffffff166040516110f19291906116aa565b60405180910390a15b801561117e577fc6afbff7d6fbff924177435d84160a0fe47a31ca612e8e5a49de3dcf6398983e600260009054906101000a900473ffffffffffffffffffffffffffffffffffffffff16600460009054906101000a900473ffffffffffffffffffffffffffffffffffffffff166040516111759291906116aa565b60405180910390a15b5050565b6000600154905090565b600042905090565b6000600360009054906101000a900473ffffffffffffffffffffffffffffffffffffffff16905090565b60008115159050919050565b6111d3816111be565b82525050565b60006020820190506111ee60008301846111ca565b92915050565b6000819050919050565b611207816111f4565b82525050565b600060208201905061122260008301846111fe565b92915050565b600073ffffffffffffffffffffffffffffffffffffffff82169050919050565b600061125382611228565b9050919050565b61126381611248565b82525050565b600060208201905061127e600083018461125a565b92915050565b600081519050919050565b600082825260208201905092915050565b60005b838110156112be5780820151818401526020810190506112a3565b838111156112cd576000848401525b50505050565b6000601f19601f8301169050919050565b60006112ef82611284565b6112f9818561128f565b93506113098185602086016112a0565b611312816112d3565b840191505092915050565b6000602082019050818103600083015261133781846112e4565b905092915050565b600061134a82611228565b9050919050565b61135a8161133f565b82525050565b600060408201905061137560008301856111fe565b6113826020830184611351565b9392505050565b7f436f6e74726163742068617320636c6f73656421000000000000000000000000600082015250565b60006113bf60148361128f565b91506113ca82611389565b602082019050919050565b600060208201905081810360008301526113ee816113b2565b9050919050565b7f57686f2061726520796f753f0000000000000000000000000000000000000000600082015250565b600061142b600c8361128f565b9150611436826113f5565b602082019050919050565b6000602082019050818103600083015261145a8161141e565b9050919050565b7f616c726561647920646f6e650000000000000000000000000000000000000000600082015250565b6000611497600c8361128f565b91506114a282611461565b602082019050919050565b600060208201905081810360008301526114c68161148a565b9050919050565b6000819050919050565b60006114f26114ed6114e884611228565b6114cd565b611228565b9050919050565b6000611504826114d7565b9050919050565b6000611516826114f9565b9050919050565b6115268161150b565b82525050565b600060408201905061154160008301856111fe565b61154e602083018461151d565b9392505050565b600060408201905061156a600083018561125a565b611577602083018461125a565b9392505050565b6000606082019050611593600083018661125a565b6115a0602083018561151d565b6115ad604083018461151d565b949350505050565b7f4e487b7100000000000000000000000000000000000000000000000000000000600052602260045260246000fd5b600060028204905060018216806115fc57607f821691505b60208210810361160f5761160e6115b5565b5b50919050565b7f796f752063616e6e6f742063616e63656c207468697300000000000000000000600082015250565b600061164b60168361128f565b915061165682611615565b602082019050919050565b6000602082019050818103600083015261167a8161163e565b9050919050565b600060408201905061169660008301856111fe565b6116a3602083018461125a565b9392505050565b60006040820190506116bf600083018561125a565b6116cc602083018461151d565b939250505056fea2646970667358221220265c5574e72b52e8a2c54bf9a942936cc27a780142c6a7be1fe7263726d16e1b64736f6c634300080d0033",
  "immutableReferences": {},
  "source": "// SPDX-License-Identifier: SimPL-2.0\r\npragma solidity ^0.8.12;\r\n\r\nimport \"./Release.sol\";\r\n\r\ncontract Purchase {\r\n\r\n    Release contractRelease;\r\n    uint imageID; \r\n    address purchaser;\r\n    address payable imageOwner;\r\n    address payable imageAuthor;\r\n    string SHA3;\r\n    uint duration;\r\n    uint launchTime;\r\n    uint endTime;\r\n    uint256 amount;\r\n    bool isClosed = false;\r\n    \r\n    uint authorShare;\r\n    uint ownerShare;\r\n\r\n    event purchaseLaunched(uint imageID,address purchaser, address imageOwner, address imageAuthor, uint amount);\r\n    event transferComplete(address purchaser, address imageOwner, address imageAuthor);\r\n    event transferFailed(address transferor, address transferee);\r\n    event purchaseDisengage(uint imageID, address canceller);\r\n\r\n    function checkerRelease()     public view returns (address)       { return address(contractRelease); }\r\n    function checkerImageID()     public view returns (uint)          { return imageID; }\r\n    function checkerPurchaser()   public view returns (address)       { return purchaser; }\r\n    function checkerOwner()       public view returns (address)       { return imageOwner; }\r\n    function checkerAuthor()      public view returns (address)       { return imageAuthor; }\r\n    function checkerSHA3()        public view returns (string memory) { return SHA3; }\r\n    function checkerDuration()    public view returns (uint)          { return duration; }\r\n    function checkerEndTime()     public view returns (uint)          { return endTime; }\r\n    function checkerLaunchTime()  public view returns (uint)          { return launchTime; }\r\n    function checkerAmount()      public view returns (uint256)       { return amount; }\r\n    function checkerClosed()      public view returns (bool)          { return isClosed;}\r\n    function checkerOwnerShare()  public view returns (uint)          { return ownerShare;}\r\n    function checkerAuthorShare() public view returns (uint)          { return authorShare;}\r\n    \r\n\r\n    function checkerSender()      public view returns (address) { return msg.sender; }\r\n    function checkerBalance()     public view returns (uint256) { return address(this).balance; }\r\n    function checkerOrigin()      public view returns (address) { return tx.origin; }\r\n    function checkerTmSp()        public view returns (uint)    { return block.timestamp; }\r\n\r\n    constructor(\r\n        address releaseAddress,\r\n        uint _imageID,\r\n        address _purchaser,\r\n        address payable _imageOwner,\r\n        address payable _imageAuthor,\r\n        string memory _SHA3,\r\n        uint _duration\r\n    ) payable {\r\n        //evm ensures address should be valid otherwise contract will not be created\r\n        //BUT I still check addresses for precaution\r\n        require(_purchaser != address(0x0), \"invalid purchaser address\");\r\n        require(_imageOwner != address(0x0), \"invalid image owner address\");\r\n        require(_imageAuthor != address(0x0), \"invalid image author address\");\r\n        require(bytes(_SHA3).length != 0, \"invalid sha3\");\r\n        require(_duration >= 15, \"time too short\");\r\n\r\n        contractRelease = Release(releaseAddress);\r\n\r\n        require(_imageID > 0 && _imageID <= contractRelease.imageCount(), \"invalid image ID\");\r\n        require(_imageOwner == contractRelease.getImageOwner(_imageID), \"wrong owner\");\r\n        require(_imageAuthor == contractRelease.getImageAuthor(_imageID), \"wrong author\");\r\n\r\n        imageID = _imageID;\r\n        purchaser = _purchaser;\r\n        imageOwner = _imageOwner;\r\n        imageAuthor = _imageAuthor;\r\n        duration = _duration;\r\n        launchTime = block.timestamp;\r\n        endTime = launchTime + _duration;\r\n        SHA3 = _SHA3;\r\n        amount = msg.value;\r\n\r\n        authorShare = amount / 10 ;\r\n        ownerShare = amount - authorShare;\r\n        emit purchaseLaunched(_imageID, _purchaser, _imageOwner, _imageAuthor, amount);\r\n    }\r\n\r\n    function confirmPurchase() public payable {\r\n        require(block.timestamp <= endTime, \"Contract has closed!\");        \r\n        require(tx.origin == imageOwner, \"Who are you?\");  \r\n        require(isClosed == false, \"already done\");\r\n        isClosed = true;\r\n\r\n        bool tsfOwnerFlag =  (payable(imageOwner)).send(ownerShare);\r\n        bool tsfAuthorFlag = (payable(imageAuthor)).send(authorShare);\r\n\r\n        if (tsfOwnerFlag && tsfAuthorFlag) {\r\n          emit transferComplete(purchaser, imageOwner, imageAuthor);\r\n        } \r\n        if (tsfOwnerFlag){\r\n          emit transferFailed(purchaser, imageOwner); \r\n        }\r\n        if (tsfAuthorFlag){\r\n          emit transferFailed(purchaser,imageAuthor);\r\n        }\r\n    }\r\n\r\n    function confirmPurchase2() public payable {\r\n        if (block.timestamp > endTime) return;\r\n        if (tx.origin != imageOwner) return;\r\n        if (isClosed) return;\r\n        isClosed = true;\r\n        \r\n        contractRelease.changeOwner(imageID, payable(purchaser));\r\n\r\n        bool tsfOwnerFlag =  (payable(imageOwner)).send(ownerShare);\r\n        bool tsfAuthorFlag = (payable(imageAuthor)).send(authorShare);\r\n\r\n        if (tsfOwnerFlag && tsfAuthorFlag) {\r\n          emit transferComplete(purchaser, imageOwner, imageAuthor);\r\n        } else{\r\n          isClosed = false;\r\n        }\r\n    }\r\n\r\n    function declinePurchase() public payable {\r\n      require(block.timestamp <= endTime, \"Contract has closed!\");\r\n      require(msg.sender == imageOwner, \"Who are you?\");  \r\n      require(isClosed == false, \"already done\");\r\n      // require(contractRelease.getImageOwner(imageID) == imageOwner, \"\");\r\n      isClosed = true;\r\n      if ((payable(purchaser)).send(amount)) {\r\n        emit purchaseDisengage(imageID, imageOwner);\r\n      }else {\r\n        emit transferFailed(address(this), purchaser);\r\n      }\r\n    }\r\n\r\n    function cancelPurchase() public payable {\r\n      require(msg.sender == purchaser, \"you cannot cancel this\");\r\n      require(isClosed == false, \"already done\");\r\n      // require(contractRelease.getImageOwner(imageID) == imageOwner, \"\");\r\n\r\n      isClosed = true;\r\n\r\n      if ((payable(purchaser)).send(amount)) {\r\n        emit purchaseDisengage(imageID, purchaser);\r\n      }else {\r\n        emit transferFailed(address(this), purchaser);\r\n      }\r\n    }\r\n\r\n    function callTest() public payable {\r\n      contractRelease.changeOwner(imageID, payable(purchaser));\r\n    }\r\n}\r\n",
  "sourcePath": "D:\\Fun\\proj12\\Dimage\\contracts\\Purchase.sol",
  "compiler": {
    "name": "solc",
    "version": "0.8.13+commit.abaa5c0e.Emscripten.clang"
  },
  "schemaVersion": "3.4.5",
  "updatedAt": "2022-04-26T15:52:40.976Z",
  "devdoc": {
    "kind": "dev",
    "methods": {},
    "version": 1
  },
  "userdoc": {
    "kind": "user",
    "methods": {},
    "version": 1
  }
}