{
  "contractName": "Purchase",
  "abi": [
    {
      "inputs": [
        {
          "internalType": "address",
          "name": "releaseAddress",
          "type": "address"
        },
        {
          "internalType": "uint256",
          "name": "_imageID",
          "type": "uint256"
        },
        {
          "internalType": "address",
          "name": "_purchaser",
          "type": "address"
        },
        {
          "internalType": "uint256",
          "name": "_duration",
          "type": "uint256"
        },
        {
          "internalType": "bytes32",
          "name": "_SHA3",
          "type": "bytes32"
        }
      ],
      "stateMutability": "payable",
      "type": "constructor"
    },
    {
      "anonymous": false,
      "inputs": [
        {
          "indexed": false,
          "internalType": "uint256",
          "name": "imageID",
          "type": "uint256"
        },
        {
          "indexed": false,
          "internalType": "address",
          "name": "canceller",
          "type": "address"
        }
      ],
      "name": "purchaseDisengage",
      "type": "event"
    },
    {
      "anonymous": false,
      "inputs": [
        {
          "indexed": false,
          "internalType": "uint256",
          "name": "imageID",
          "type": "uint256"
        },
        {
          "indexed": false,
          "internalType": "address",
          "name": "purchaser",
          "type": "address"
        },
        {
          "indexed": false,
          "internalType": "address",
          "name": "imageOwner",
          "type": "address"
        },
        {
          "indexed": false,
          "internalType": "address",
          "name": "imageAuthor",
          "type": "address"
        },
        {
          "indexed": false,
          "internalType": "uint256",
          "name": "amount",
          "type": "uint256"
        }
      ],
      "name": "purchaseLaunched",
      "type": "event"
    },
    {
      "anonymous": false,
      "inputs": [
        {
          "indexed": false,
          "internalType": "uint256",
          "name": "imageID",
          "type": "uint256"
        },
        {
          "indexed": false,
          "internalType": "address",
          "name": "transferor",
          "type": "address"
        },
        {
          "indexed": false,
          "internalType": "address",
          "name": "transferee",
          "type": "address"
        }
      ],
      "name": "transferFailed",
      "type": "event"
    },
    {
      "inputs": [],
      "name": "SHA3",
      "outputs": [
        {
          "internalType": "bytes32",
          "name": "",
          "type": "bytes32"
        }
      ],
      "stateMutability": "view",
      "type": "function"
    },
    {
      "inputs": [],
      "name": "amount",
      "outputs": [
        {
          "internalType": "uint256",
          "name": "",
          "type": "uint256"
        }
      ],
      "stateMutability": "view",
      "type": "function"
    },
    {
      "inputs": [],
      "name": "authorShare",
      "outputs": [
        {
          "internalType": "uint256",
          "name": "",
          "type": "uint256"
        }
      ],
      "stateMutability": "view",
      "type": "function"
    },
    {
      "inputs": [],
      "name": "contractRelease",
      "outputs": [
        {
          "internalType": "contract Release",
          "name": "",
          "type": "address"
        }
      ],
      "stateMutability": "view",
      "type": "function"
    },
    {
      "inputs": [],
      "name": "duration",
      "outputs": [
        {
          "internalType": "uint256",
          "name": "",
          "type": "uint256"
        }
      ],
      "stateMutability": "view",
      "type": "function"
    },
    {
      "inputs": [],
      "name": "endTime",
      "outputs": [
        {
          "internalType": "uint256",
          "name": "",
          "type": "uint256"
        }
      ],
      "stateMutability": "view",
      "type": "function"
    },
    {
      "inputs": [],
      "name": "imageAuthor",
      "outputs": [
        {
          "internalType": "address payable",
          "name": "",
          "type": "address"
        }
      ],
      "stateMutability": "view",
      "type": "function"
    },
    {
      "inputs": [],
      "name": "imageID",
      "outputs": [
        {
          "internalType": "uint256",
          "name": "",
          "type": "uint256"
        }
      ],
      "stateMutability": "view",
      "type": "function"
    },
    {
      "inputs": [],
      "name": "imageOwner",
      "outputs": [
        {
          "internalType": "address payable",
          "name": "",
          "type": "address"
        }
      ],
      "stateMutability": "view",
      "type": "function"
    },
    {
      "inputs": [],
      "name": "imageTxCount",
      "outputs": [
        {
          "internalType": "uint256",
          "name": "",
          "type": "uint256"
        }
      ],
      "stateMutability": "view",
      "type": "function"
    },
    {
      "inputs": [],
      "name": "isClosed",
      "outputs": [
        {
          "internalType": "bool",
          "name": "",
          "type": "bool"
        }
      ],
      "stateMutability": "view",
      "type": "function"
    },
    {
      "inputs": [],
      "name": "launchTime",
      "outputs": [
        {
          "internalType": "uint256",
          "name": "",
          "type": "uint256"
        }
      ],
      "stateMutability": "view",
      "type": "function"
    },
    {
      "inputs": [],
      "name": "ownerShare",
      "outputs": [
        {
          "internalType": "uint256",
          "name": "",
          "type": "uint256"
        }
      ],
      "stateMutability": "view",
      "type": "function"
    },
    {
      "inputs": [
        {
          "internalType": "uint256",
          "name": "",
          "type": "uint256"
        }
      ],
      "name": "prevOwnerShare",
      "outputs": [
        {
          "internalType": "uint256",
          "name": "",
          "type": "uint256"
        }
      ],
      "stateMutability": "view",
      "type": "function"
    },
    {
      "inputs": [
        {
          "internalType": "uint256",
          "name": "",
          "type": "uint256"
        }
      ],
      "name": "prevOwners",
      "outputs": [
        {
          "internalType": "address",
          "name": "",
          "type": "address"
        }
      ],
      "stateMutability": "view",
      "type": "function"
    },
    {
      "inputs": [],
      "name": "purchaser",
      "outputs": [
        {
          "internalType": "address",
          "name": "",
          "type": "address"
        }
      ],
      "stateMutability": "view",
      "type": "function"
    },
    {
      "inputs": [],
      "name": "confirmPurchase",
      "outputs": [],
      "stateMutability": "payable",
      "type": "function"
    },
    {
      "inputs": [],
      "name": "declinePurchase",
      "outputs": [],
      "stateMutability": "payable",
      "type": "function"
    },
    {
      "inputs": [],
      "name": "cancelPurchase",
      "outputs": [],
      "stateMutability": "payable",
      "type": "function"
    }
  ],
  "bytecode": "0x60806040526000600a60006101000a81548160ff021916908315150217905550604051620028d1380380620028d1833981810160405281019062000044919062000b36565b846000806101000a81548173ffffffffffffffffffffffffffffffffffffffff021916908373ffffffffffffffffffffffffffffffffffffffff16021790555060008060009054906101000a900473ffffffffffffffffffffffffffffffffffffffff1673ffffffffffffffffffffffffffffffffffffffff1663a9b11426866040518263ffffffff1660e01b8152600401620000e2919062000bcf565b602060405180830381865afa15801562000100573d6000803e3d6000fd5b505050506040513d601f19601f8201168201806040525081019062000126919062000bec565b9050600085118015620001ca575060008054906101000a900473ffffffffffffffffffffffffffffffffffffffff1673ffffffffffffffffffffffffffffffffffffffff166392053b636040518163ffffffff1660e01b8152600401602060405180830381865afa158015620001a0573d6000803e3d6000fd5b505050506040513d601f19601f82011682018060405250810190620001c6919062000c1e565b8511155b6200020c576040517f08c379a0000000000000000000000000000000000000000000000000000000008152600401620002039062000cb1565b60405180910390fd5b600073ffffffffffffffffffffffffffffffffffffffff168473ffffffffffffffffffffffffffffffffffffffff16141580156200027657508073ffffffffffffffffffffffffffffffffffffffff168473ffffffffffffffffffffffffffffffffffffffff1614155b6200028057600080fd5b60008054906101000a900473ffffffffffffffffffffffffffffffffffffffff1673ffffffffffffffffffffffffffffffffffffffff16627ac14a86846040518363ffffffff1660e01b8152600401620002dc92919062000ce4565b602060405180830381865afa158015620002fa573d6000803e3d6000fd5b505050506040513d601f19601f8201168201806040525081019062000320919062000d4e565b6200032a57600080fd5b600583101562000371576040517f08c379a0000000000000000000000000000000000000000000000000000000008152600401620003689062000dd0565b60405180910390fd5b8460018190555083600260006101000a81548173ffffffffffffffffffffffffffffffffffffffff021916908373ffffffffffffffffffffffffffffffffffffffff16021790555080600360006101000a81548173ffffffffffffffffffffffffffffffffffffffff021916908373ffffffffffffffffffffffffffffffffffffffff16021790555060008054906101000a900473ffffffffffffffffffffffffffffffffffffffff1673ffffffffffffffffffffffffffffffffffffffff16631440bd07866040518263ffffffff1660e01b815260040162000455919062000bcf565b602060405180830381865afa15801562000473573d6000803e3d6000fd5b505050506040513d601f19601f8201168201806040525081019062000499919062000bec565b600460006101000a81548173ffffffffffffffffffffffffffffffffffffffff021916908373ffffffffffffffffffffffffffffffffffffffff160217905550826006819055504260078190555082600754620004f7919062000e21565b600881905550346009819055508160058190555060008054906101000a900473ffffffffffffffffffffffffffffffffffffffff1673ffffffffffffffffffffffffffffffffffffffff1663f2d03fcf866040518263ffffffff1660e01b815260040162000566919062000bcf565b600060405180830381865afa15801562000584573d6000803e3d6000fd5b505050506040513d6000823e3d601f19601f82011682018060405250810190620005af919062000fd1565b600d9080519060200190620005c692919062000947565b5060008054906101000a900473ffffffffffffffffffffffffffffffffffffffff1673ffffffffffffffffffffffffffffffffffffffff1663c5d47daf6001546040518263ffffffff1660e01b815260040162000624919062000bcf565b602060405180830381865afa15801562000642573d6000803e3d6000fd5b505050506040513d601f19601f8201168201806040525081019062000668919062000c1e565b600f819055506200067e6200071160201b60201c565b7f881398ee76a74d936f5b826b7cca23946040cc0fbb7df9646c3173c8e8c5eedb8585600360009054906101000a900473ffffffffffffffffffffffffffffffffffffffff16600460009054906101000a900473ffffffffffffffffffffffffffffffffffffffff16600954604051620006fd9594939291906200109e565b60405180910390a150505050505062001264565b600a600f541162000747576003600a6009546200072f91906200112a565b6200073b919062001162565b600b8190555062000796565b6032600f54116200076f5760056009546200076391906200112a565b600b8190555062000795565b600360146009546200078291906200112a565b6200078e919062001162565b600b819055505b5b6000600567ffffffffffffffff811115620007b657620007b562000e72565b5b604051908082528060200260200182016040528015620007e55781602001602082028036833780820191505090505b50600e9080519060200190620007fd929190620009d6565b5060005b600d805490508110156200091e57600073ffffffffffffffffffffffffffffffffffffffff16600d82815481106200083e576200083d620011ad565b5b9060005260206000200160009054906101000a900473ffffffffffffffffffffffffffffffffffffffff1673ffffffffffffffffffffffffffffffffffffffff16146200090857806005620008949190620011dc565b6064600954620008a591906200112a565b620008b1919062001162565b600e8281548110620008c857620008c7620011ad565b5b9060005260206000200181905550600e8181548110620008ed57620008ec620011ad565b5b90600052602060002001548262000905919062000e21565b91505b8080620009159062001217565b91505062000801565b5080600b54600954620009329190620011dc565b6200093e9190620011dc565b600c8190555050565b828054828255906000526020600020908101928215620009c3579160200282015b82811115620009c25782518260006101000a81548173ffffffffffffffffffffffffffffffffffffffff021916908373ffffffffffffffffffffffffffffffffffffffff1602179055509160200191906001019062000968565b5b509050620009d2919062000a28565b5090565b82805482825590600052602060002090810192821562000a15579160200282015b8281111562000a14578251825591602001919060010190620009f7565b5b50905062000a24919062000a28565b5090565b5b8082111562000a4357600081600090555060010162000a29565b5090565b6000604051905090565b600080fd5b600080fd5b600073ffffffffffffffffffffffffffffffffffffffff82169050919050565b600062000a888262000a5b565b9050919050565b62000a9a8162000a7b565b811462000aa657600080fd5b50565b60008151905062000aba8162000a8f565b92915050565b6000819050919050565b62000ad58162000ac0565b811462000ae157600080fd5b50565b60008151905062000af58162000aca565b92915050565b6000819050919050565b62000b108162000afb565b811462000b1c57600080fd5b50565b60008151905062000b308162000b05565b92915050565b600080600080600060a0868803121562000b555762000b5462000a51565b5b600062000b658882890162000aa9565b955050602062000b788882890162000ae4565b945050604062000b8b8882890162000aa9565b935050606062000b9e8882890162000ae4565b925050608062000bb18882890162000b1f565b9150509295509295909350565b62000bc98162000ac0565b82525050565b600060208201905062000be6600083018462000bbe565b92915050565b60006020828403121562000c055762000c0462000a51565b5b600062000c158482850162000aa9565b91505092915050565b60006020828403121562000c375762000c3662000a51565b5b600062000c478482850162000ae4565b91505092915050565b600082825260208201905092915050565b7f696e76616c696420696d61676520494400000000000000000000000000000000600082015250565b600062000c9960108362000c50565b915062000ca68262000c61565b602082019050919050565b6000602082019050818103600083015262000ccc8162000c8a565b9050919050565b62000cde8162000afb565b82525050565b600060408201905062000cfb600083018562000bbe565b62000d0a602083018462000cd3565b9392505050565b60008115159050919050565b62000d288162000d11565b811462000d3457600080fd5b50565b60008151905062000d488162000d1d565b92915050565b60006020828403121562000d675762000d6662000a51565b5b600062000d778482850162000d37565b91505092915050565b7f74696d6520746f6f2073686f7274000000000000000000000000000000000000600082015250565b600062000db8600e8362000c50565b915062000dc58262000d80565b602082019050919050565b6000602082019050818103600083015262000deb8162000da9565b9050919050565b7f4e487b7100000000000000000000000000000000000000000000000000000000600052601160045260246000fd5b600062000e2e8262000ac0565b915062000e3b8362000ac0565b925082820190508082111562000e565762000e5562000df2565b5b92915050565b600080fd5b6000601f19601f8301169050919050565b7f4e487b7100000000000000000000000000000000000000000000000000000000600052604160045260246000fd5b62000eac8262000e61565b810181811067ffffffffffffffff8211171562000ece5762000ecd62000e72565b5b80604052505050565b600062000ee362000a47565b905062000ef1828262000ea1565b919050565b600067ffffffffffffffff82111562000f145762000f1362000e72565b5b602082029050602081019050919050565b600080fd5b600062000f4162000f3b8462000ef6565b62000ed7565b9050808382526020820190506020840283018581111562000f675762000f6662000f25565b5b835b8181101562000f94578062000f7f888262000aa9565b84526020840193505060208101905062000f69565b5050509392505050565b600082601f83011262000fb65762000fb562000e5c565b5b815162000fc884826020860162000f2a565b91505092915050565b60006020828403121562000fea5762000fe962000a51565b5b600082015167ffffffffffffffff8111156200100b576200100a62000a56565b5b620010198482850162000f9e565b91505092915050565b6200102d8162000a7b565b82525050565b6000819050919050565b60006200105e62001058620010528462000a5b565b62001033565b62000a5b565b9050919050565b600062001072826200103d565b9050919050565b6000620010868262001065565b9050919050565b620010988162001079565b82525050565b600060a082019050620010b5600083018862000bbe565b620010c4602083018762001022565b620010d360408301866200108d565b620010e260608301856200108d565b620010f1608083018462000bbe565b9695505050505050565b7f4e487b7100000000000000000000000000000000000000000000000000000000600052601260045260246000fd5b6000620011378262000ac0565b9150620011448362000ac0565b925082620011575762001156620010fb565b5b828204905092915050565b60006200116f8262000ac0565b91506200117c8362000ac0565b92508282026200118c8162000ac0565b91508282048414831517620011a657620011a562000df2565b5b5092915050565b7f4e487b7100000000000000000000000000000000000000000000000000000000600052603260045260246000fd5b6000620011e98262000ac0565b9150620011f68362000ac0565b925082820390508181111562001211576200121062000df2565b5b92915050565b6000620012248262000ac0565b91507fffffffffffffffffffffffffffffffffffffffffffffffffffffffffffffffff820362001259576200125862000df2565b5b600182019050919050565b61165d80620012746000396000f3fe6080604052600436106101145760003560e01c8063790ca413116100a0578063ae96e12c11610064578063ae96e12c14610355578063b1b4dee014610380578063c2b6b58c146103ab578063d6960697146103d6578063e742a74d146103e057610114565b8063790ca4131461028d57806383913708146102b85780638f1c3151146102f5578063aa8c217c14610320578063ab460a261461034b57610114565b80634773fb7c116100e75780634773fb7c146101c55780634d3499b5146101cf57806352ec94c3146101fa578063544082e5146102375780635a77dc461461026257610114565b806307191f29146101195780630fb5a6b4146101445780633197cbb61461016f5780633961bdfb1461019a575b600080fd5b34801561012557600080fd5b5061012e61040b565b60405161013b91906110fc565b60405180910390f35b34801561015057600080fd5b50610159610431565b6040516101669190611130565b60405180910390f35b34801561017b57600080fd5b50610184610437565b6040516101919190611130565b60405180910390f35b3480156101a657600080fd5b506101af61043d565b6040516101bc91906110fc565b60405180910390f35b6101cd610463565b005b3480156101db57600080fd5b506101e46107c4565b6040516101f19190611130565b60405180910390f35b34801561020657600080fd5b50610221600480360381019061021c919061117c565b6107ca565b60405161022e9190611130565b60405180910390f35b34801561024357600080fd5b5061024c6107ee565b6040516102599190611130565b60405180910390f35b34801561026e57600080fd5b506102776107f4565b60405161028491906111ca565b60405180910390f35b34801561029957600080fd5b506102a261081a565b6040516102af9190611130565b60405180910390f35b3480156102c457600080fd5b506102df60048036038101906102da919061117c565b610820565b6040516102ec91906111ca565b60405180910390f35b34801561030157600080fd5b5061030a61085f565b6040516103179190611130565b60405180910390f35b34801561032c57600080fd5b50610335610865565b6040516103429190611130565b60405180910390f35b61035361086b565b005b34801561036157600080fd5b5061036a610a92565b60405161037791906111fe565b60405180910390f35b34801561038c57600080fd5b50610395610a98565b6040516103a29190611130565b60405180910390f35b3480156103b757600080fd5b506103c0610a9e565b6040516103cd9190611234565b60405180910390f35b6103de610ab1565b005b3480156103ec57600080fd5b506103f5611097565b60405161040291906112ae565b60405180910390f35b600360009054906101000a900473ffffffffffffffffffffffffffffffffffffffff1681565b60065481565b60085481565b600460009054906101000a900473ffffffffffffffffffffffffffffffffffffffff1681565b6008544211156104a8576040517f08c379a000000000000000000000000000000000000000000000000000000000815260040161049f90611326565b60405180910390fd5b600360009054906101000a900473ffffffffffffffffffffffffffffffffffffffff1673ffffffffffffffffffffffffffffffffffffffff163373ffffffffffffffffffffffffffffffffffffffff1614610538576040517f08c379a000000000000000000000000000000000000000000000000000000000815260040161052f90611392565b60405180910390fd5b60001515600a60009054906101000a900460ff1615151461058e576040517f08c379a0000000000000000000000000000000000000000000000000000000008152600401610585906113fe565b60405180910390fd5b600360009054906101000a900473ffffffffffffffffffffffffffffffffffffffff1673ffffffffffffffffffffffffffffffffffffffff1660008054906101000a900473ffffffffffffffffffffffffffffffffffffffff1673ffffffffffffffffffffffffffffffffffffffff1663a9b114266001546040518263ffffffff1660e01b81526004016106229190611130565b602060405180830381865afa15801561063f573d6000803e3d6000fd5b505050506040513d601f19601f82011682018060405250810190610663919061144a565b73ffffffffffffffffffffffffffffffffffffffff161461068357600080fd5b6001600a60006101000a81548160ff021916908315150217905550600260009054906101000a900473ffffffffffffffffffffffffffffffffffffffff1673ffffffffffffffffffffffffffffffffffffffff166108fc6009549081150290604051600060405180830381858888f193505050501561075e577fb92a7474c1491f709d736b42aeaaf2e23fa8e029038e11454064047d69cff1fd600154600360009054906101000a900473ffffffffffffffffffffffffffffffffffffffff16604051610751929190611498565b60405180910390a16107c2565b7fc53b4710517515ffe70cd71a0ffe6a9c8c36985d28acb6b472cda6fa75514a4960015430600260009054906101000a900473ffffffffffffffffffffffffffffffffffffffff166040516107b5939291906114c1565b60405180910390a1600080fd5b565b60015481565b600e81815481106107da57600080fd5b906000526020600020016000915090505481565b600b5481565b600260009054906101000a900473ffffffffffffffffffffffffffffffffffffffff1681565b60075481565b600d818154811061083057600080fd5b906000526020600020016000915054906101000a900473ffffffffffffffffffffffffffffffffffffffff1681565b600c5481565b60095481565b600260009054906101000a900473ffffffffffffffffffffffffffffffffffffffff1673ffffffffffffffffffffffffffffffffffffffff163373ffffffffffffffffffffffffffffffffffffffff16146108fb576040517f08c379a00000000000000000000000000000000000000000000000000000000081526004016108f290611392565b60405180910390fd5b60001515600a60009054906101000a900460ff16151514610951576040517f08c379a0000000000000000000000000000000000000000000000000000000008152600401610948906113fe565b60405180910390fd5b6001600a60006101000a81548160ff021916908315150217905550600260009054906101000a900473ffffffffffffffffffffffffffffffffffffffff1673ffffffffffffffffffffffffffffffffffffffff166108fc6009549081150290604051600060405180830381858888f1935050505015610a2c577fb92a7474c1491f709d736b42aeaaf2e23fa8e029038e11454064047d69cff1fd600154600260009054906101000a900473ffffffffffffffffffffffffffffffffffffffff16604051610a1f9291906114f8565b60405180910390a1610a90565b7fc53b4710517515ffe70cd71a0ffe6a9c8c36985d28acb6b472cda6fa75514a4960015430600260009054906101000a900473ffffffffffffffffffffffffffffffffffffffff16604051610a83939291906114c1565b60405180910390a1600080fd5b565b60055481565b600f5481565b600a60009054906101000a900460ff1681565b600854421115610af6576040517f08c379a0000000000000000000000000000000000000000000000000000000008152600401610aed90611326565b60405180910390fd5b600360009054906101000a900473ffffffffffffffffffffffffffffffffffffffff1673ffffffffffffffffffffffffffffffffffffffff163373ffffffffffffffffffffffffffffffffffffffff1614610b86576040517f08c379a0000000000000000000000000000000000000000000000000000000008152600401610b7d90611392565b60405180910390fd5b60001515600a60009054906101000a900460ff16151514610bdc576040517f08c379a0000000000000000000000000000000000000000000000000000000008152600401610bd3906113fe565b60405180910390fd5b6001600a60006101000a81548160ff02191690831515021790555060006001905060005b600d80549050811015610d2f57600073ffffffffffffffffffffffffffffffffffffffff16600d8281548110610c3957610c38611521565b5b9060005260206000200160009054906101000a900473ffffffffffffffffffffffffffffffffffffffff1673ffffffffffffffffffffffffffffffffffffffff1614610d1c57818015610d195750600d8181548110610c9b57610c9a611521565b5b9060005260206000200160009054906101000a900473ffffffffffffffffffffffffffffffffffffffff1673ffffffffffffffffffffffffffffffffffffffff166108fc600e8381548110610cf357610cf2611521565b5b90600052602060002001549081150290604051600060405180830381858888f193505050505b91505b8080610d279061157f565b915050610c00565b50600460009054906101000a900473ffffffffffffffffffffffffffffffffffffffff1673ffffffffffffffffffffffffffffffffffffffff166108fc600b549081150290604051600060405180830381858888f193505050508015610dea5750600360009054906101000a900473ffffffffffffffffffffffffffffffffffffffff1673ffffffffffffffffffffffffffffffffffffffff166108fc600c549081150290604051600060405180830381858888f193505050505b8015610df35750805b156110305760008054906101000a900473ffffffffffffffffffffffffffffffffffffffff1673ffffffffffffffffffffffffffffffffffffffff1663cbed3d526001546040518263ffffffff1660e01b8152600401610e539190611130565b600060405180830381600087803b158015610e6d57600080fd5b505af1158015610e81573d6000803e3d6000fd5b5050505060008054906101000a900473ffffffffffffffffffffffffffffffffffffffff1673ffffffffffffffffffffffffffffffffffffffff1663784796f7600154600260009054906101000a900473ffffffffffffffffffffffffffffffffffffffff166040518363ffffffff1660e01b8152600401610f049291906115c7565b600060405180830381600087803b158015610f1e57600080fd5b505af1158015610f32573d6000803e3d6000fd5b5050505060008054906101000a900473ffffffffffffffffffffffffffffffffffffffff1673ffffffffffffffffffffffffffffffffffffffff1663a9b114266001546040518263ffffffff1660e01b8152600401610f919190611130565b602060405180830381865afa158015610fae573d6000803e3d6000fd5b505050506040513d601f19601f82011682018060405250810190610fd2919061144a565b73ffffffffffffffffffffffffffffffffffffffff16600260009054906101000a900473ffffffffffffffffffffffffffffffffffffffff1673ffffffffffffffffffffffffffffffffffffffff161461102b57600080fd5b611094565b7fc53b4710517515ffe70cd71a0ffe6a9c8c36985d28acb6b472cda6fa75514a4960015430600360009054906101000a900473ffffffffffffffffffffffffffffffffffffffff16604051611087939291906115f0565b60405180910390a1600080fd5b50565b60008054906101000a900473ffffffffffffffffffffffffffffffffffffffff1681565b600073ffffffffffffffffffffffffffffffffffffffff82169050919050565b60006110e6826110bb565b9050919050565b6110f6816110db565b82525050565b600060208201905061111160008301846110ed565b92915050565b6000819050919050565b61112a81611117565b82525050565b60006020820190506111456000830184611121565b92915050565b600080fd5b61115981611117565b811461116457600080fd5b50565b60008135905061117681611150565b92915050565b6000602082840312156111925761119161114b565b5b60006111a084828501611167565b91505092915050565b60006111b4826110bb565b9050919050565b6111c4816111a9565b82525050565b60006020820190506111df60008301846111bb565b92915050565b6000819050919050565b6111f8816111e5565b82525050565b600060208201905061121360008301846111ef565b92915050565b60008115159050919050565b61122e81611219565b82525050565b60006020820190506112496000830184611225565b92915050565b6000819050919050565b600061127461126f61126a846110bb565b61124f565b6110bb565b9050919050565b600061128682611259565b9050919050565b60006112988261127b565b9050919050565b6112a88161128d565b82525050565b60006020820190506112c3600083018461129f565b92915050565b600082825260208201905092915050565b7f54686973207472616e73616374696f6e20697320657870697265642100000000600082015250565b6000611310601c836112c9565b915061131b826112da565b602082019050919050565b6000602082019050818103600083015261133f81611303565b9050919050565b7f596f752068617665206e6f20617574686f726974792100000000000000000000600082015250565b600061137c6016836112c9565b915061138782611346565b602082019050919050565b600060208201905081810360008301526113ab8161136f565b9050919050565b7f54686973207472616e73616374696f6e20697320636c6f736564210000000000600082015250565b60006113e8601b836112c9565b91506113f3826113b2565b602082019050919050565b60006020820190508181036000830152611417816113db565b9050919050565b611427816111a9565b811461143257600080fd5b50565b6000815190506114448161141e565b92915050565b6000602082840312156114605761145f61114b565b5b600061146e84828501611435565b91505092915050565b60006114828261127b565b9050919050565b61149281611477565b82525050565b60006040820190506114ad6000830185611121565b6114ba6020830184611489565b9392505050565b60006060820190506114d66000830186611121565b6114e360208301856111bb565b6114f060408301846111bb565b949350505050565b600060408201905061150d6000830185611121565b61151a60208301846111bb565b9392505050565b7f4e487b7100000000000000000000000000000000000000000000000000000000600052603260045260246000fd5b7f4e487b7100000000000000000000000000000000000000000000000000000000600052601160045260246000fd5b600061158a82611117565b91507fffffffffffffffffffffffffffffffffffffffffffffffffffffffffffffffff82036115bc576115bb611550565b5b600182019050919050565b60006040820190506115dc6000830185611121565b6115e960208301846110ed565b9392505050565b60006060820190506116056000830186611121565b61161260208301856111bb565b61161f6040830184611489565b94935050505056fea26469706673582212200b14e5c5feb99fc06151aa907a948a1701c0187a32782bce491674eeb7188a4764736f6c63430008130033",
  "immutableReferences": {},
  "source": "// SPDX-License-Identifier: SimPL-2.0\r\npragma solidity ^0.8.12;\r\n\r\nimport \"./Release.sol\";\r\n\r\ncontract Purchase {\r\n\r\n    Release public contractRelease;     //\r\n    uint    public imageID;             //\r\n    address public purchaser;           //\r\n    address payable public imageOwner;  //\r\n    address payable public imageAuthor; //\r\n    bytes32 public SHA3;                //\r\n    uint    public duration;            //\r\n    uint    public launchTime;          //\r\n    uint    public endTime;             //\r\n    uint    public amount;              //\r\n    bool    public isClosed = false;    //\r\n    uint    public authorShare;         //\r\n    uint    public ownerShare;          //\r\n    address[] public prevOwners;        //\r\n    uint[]  public prevOwnerShare;      //\r\n    uint    public imageTxCount;        //\r\n\r\n    event purchaseLaunched(uint imageID,address purchaser, address imageOwner, address imageAuthor, uint amount);\r\n    event transferFailed(uint imageID,address transferor, address transferee);\r\n    event purchaseDisengage(uint imageID, address canceller);\r\n\r\n      // bool FlagDuration = _duration >= 3600;\r\n      // bool FlagImageID = (_imageID > 0) && (_imageID <= contractRelease.imageCount());\r\n      // bool FlagAuthor = (_imageAuthor != address(0x0)) && (_imageAuthor == contractRelease.getImageAuthor(_imageID))\r\n      // bool FlagOwner = (_imageOwner != address(0x0)) && (_imageOwner == owner);\r\n      // bool FlagPurchaser = (_purchaser != address(0x0)) && (_purchaser != owner);      \r\n      // bool FlagSHA3 = contractRelease.isSHA3Match(_imageID, _SHA3)\r\n      //use one require to save gas\r\n      // require(FlagImageID && FlagOwner && FlagAuthor && FlagPurchaser && FlagDuration && FlagSHA3, \"invalid parameters\");\r\n        \r\n    constructor(\r\n        address releaseAddress, uint _imageID,\r\n        address _purchaser, uint _duration, bytes32 _SHA3\r\n    ) payable {\r\n        //\r\n        contractRelease=Release(releaseAddress);\r\n        address owner = contractRelease.getImageOwner(_imageID);\r\n        require(_imageID > 0 && _imageID <= contractRelease.imageCount(), \"invalid image ID\");\r\n        //\r\n        require(_purchaser != address(0x0) && _purchaser != owner);\r\n        //SHA3\r\n        require(contractRelease.isSHA3Match(_imageID, _SHA3));\r\n        require(_duration >= 5, \"time too short\");\r\n        //\r\n        imageID = _imageID;\r\n        purchaser = _purchaser;\r\n        imageOwner = payable(owner);\r\n        imageAuthor = payable(contractRelease.getImageAuthor(_imageID));\r\n        duration = _duration;\r\n        launchTime = block.timestamp;                        //\r\n        endTime = launchTime + _duration;\r\n        amount = msg.value;                                  //\r\n        SHA3 = _SHA3;\r\n        prevOwners = contractRelease.getPrevOwner(_imageID); //\r\n        imageTxCount = contractRelease.getTxCount(imageID);  //\r\n        calShares();                                         //\r\n        emit purchaseLaunched(_imageID, _purchaser, imageOwner, imageAuthor, amount);\r\n    }\r\n\r\n    // bool FlagTimestamp = block.timestamp <= endTime;\r\n    // bool FlagTxOrigin = tx.origin == imageOwner;\r\n    // require(FlagTimestamp && FlagTxOrigin && !isClosed);\r\n\r\n    function confirmPurchase() public payable {\r\n        //\r\n        require(block.timestamp <= endTime, \"This transaction is expired!\");\r\n        //\r\n        require(msg.sender == imageOwner, \"You have no authority!\");\r\n        //\r\n        require( isClosed == false,\"This transaction is closed!\" );\r\n        // bool FlagTimestamp = block.timestamp <= endTime;\r\n        // bool FlagTxOrigin = tx.origin == imageOwner;\r\n        // require(FlagTimestamp && FlagTxOrigin && !isClosed);\r\n        //\r\n        isClosed = true;\r\n        bool flag = true;   //\r\n        for(uint i=0; i<prevOwners.length; i++) {\r\n          if (prevOwners[i] != address(0x0)) {     //\r\n            flag = flag && payable(prevOwners[i]).send(prevOwnerShare[i]);\r\n          }\r\n        }\r\n        //\r\n        if ( imageAuthor.send(authorShare) && imageOwner.send(ownerShare) && flag) { \r\n        //\r\n          //1\r\n          contractRelease.incTxCount(imageID);\r\n          //\r\n          contractRelease.changeOwner(imageID, payable(purchaser));\r\n          //\r\n          require(purchaser == contractRelease.getImageOwner(imageID));\r\n          //\r\n        }else{\r\n          emit transferFailed(imageID,address(this), imageOwner);\r\n          //\r\n          revert();\r\n        }\r\n    }\r\n\r\n    function calShares()  private {\r\n      //\r\n      if (imageTxCount <= 10) {\r\n        authorShare = amount / 10 * 3;  //1030%\r\n      }else if(imageTxCount <= 50) {\r\n        authorShare = amount / 5;       //105020%\r\n      }else {\r\n        authorShare = amount / 20 * 3;  //5015%\r\n      }\r\n      //\r\n      uint prevShareSum = 0;\r\n      prevOwnerShare = new uint[](5);\r\n      for(uint i=0; i<prevOwners.length; i++) {\r\n        if (prevOwners[i] != address(0x0)) {       //\r\n          prevOwnerShare[i] = amount / 100 * (5-i);\r\n          prevShareSum += prevOwnerShare[i];\r\n        }\r\n      }\r\n      //--\r\n      ownerShare = amount - authorShare - prevShareSum;\r\n    }\r\n\r\n\r\n   \r\n    function declinePurchase() public payable {\r\n      //\r\n      require(block.timestamp <= endTime,\"This transaction is expired!\" );\r\n      //\r\n      require(msg.sender == imageOwner, \"You have no authority!\");\r\n      //  \r\n      require(isClosed == false, \"This transaction is closed!\");\r\n      //\r\n      require(contractRelease.getImageOwner(imageID) == imageOwner);\r\n      // bool FlagTimestamp = block.timestamp <= endTime;\r\n      // bool FlagTxOrigin = msg.sender == imageOwner;\r\n      // bool FlagOwner = contractRelease.getImageOwner(imageID) == imageOwner;\r\n      // require(FlagTimestamp && FlagTxOrigin && FlagOwner && !isClosed);\r\n      isClosed = true;\r\n      //\r\n      if ((payable(purchaser)).send(amount)) {\r\n        emit purchaseDisengage(imageID, imageOwner);\r\n      }else {\r\n        emit transferFailed(imageID,address(this), purchaser);\r\n        //\r\n        revert();\r\n      }\r\n    }\r\n\r\n      \r\n    function cancelPurchase() public payable {\r\n      //\r\n      require(msg.sender == purchaser, \"You have no authority!\");\r\n      //\r\n      require(isClosed == false,\"This transaction is closed!\");\r\n      // bool FlagTxOrigin = msg.sender == purchaser;\r\n      // require( FlagTxOrigin && !isClosed);\r\n      isClosed = true;\r\n      //\r\n      if ((payable(purchaser)).send(amount)) {\r\n        emit purchaseDisengage(imageID, purchaser);\r\n      }else {\r\n        emit transferFailed(imageID,address(this), purchaser);\r\n        //\r\n        revert();\r\n      }\r\n    }\r\n}\r\n",
  "sourcePath": "D:\\Fun\\proj12\\Dimage\\contracts\\Purchase.sol",
  "compiler": {
    "name": "solc",
    "version": "0.8.19+commit.7dd6d404.Emscripten.clang"
  },
  "schemaVersion": "3.4.5",
  "updatedAt": "2023-04-02T15:24:00.269Z",
  "devdoc": {
    "kind": "dev",
    "methods": {},
    "version": 1
  },
  "userdoc": {
    "kind": "user",
    "methods": {},
    "version": 1
  }
}