{
  "contractName": "Purchase2",
  "abi": [
    {
      "inputs": [
        {
          "internalType": "address",
          "name": "releaseAddress",
          "type": "address"
        },
        {
          "internalType": "uint256",
          "name": "_imageID",
          "type": "uint256"
        },
        {
          "internalType": "address",
          "name": "_purchaser",
          "type": "address"
        },
        {
          "internalType": "address payable",
          "name": "_imageOwner",
          "type": "address"
        },
        {
          "internalType": "address payable",
          "name": "_imageAuthor",
          "type": "address"
        },
        {
          "internalType": "uint256",
          "name": "_duration",
          "type": "uint256"
        },
        {
          "internalType": "bytes32",
          "name": "_SHA3",
          "type": "bytes32"
        }
      ],
      "stateMutability": "payable",
      "type": "constructor"
    },
    {
      "anonymous": false,
      "inputs": [
        {
          "indexed": false,
          "internalType": "uint256",
          "name": "imageID",
          "type": "uint256"
        },
        {
          "indexed": false,
          "internalType": "address",
          "name": "canceller",
          "type": "address"
        }
      ],
      "name": "purchaseDisengage",
      "type": "event"
    },
    {
      "anonymous": false,
      "inputs": [
        {
          "indexed": false,
          "internalType": "uint256",
          "name": "imageID",
          "type": "uint256"
        },
        {
          "indexed": false,
          "internalType": "address",
          "name": "purchaser",
          "type": "address"
        },
        {
          "indexed": false,
          "internalType": "address",
          "name": "imageOwner",
          "type": "address"
        },
        {
          "indexed": false,
          "internalType": "address",
          "name": "imageAuthor",
          "type": "address"
        },
        {
          "indexed": false,
          "internalType": "uint256",
          "name": "amount",
          "type": "uint256"
        }
      ],
      "name": "purchaseLaunched",
      "type": "event"
    },
    {
      "anonymous": false,
      "inputs": [
        {
          "indexed": false,
          "internalType": "uint256",
          "name": "imageID",
          "type": "uint256"
        },
        {
          "indexed": false,
          "internalType": "address",
          "name": "purchaser",
          "type": "address"
        },
        {
          "indexed": false,
          "internalType": "address",
          "name": "imageOwner",
          "type": "address"
        }
      ],
      "name": "transferComplete",
      "type": "event"
    },
    {
      "anonymous": false,
      "inputs": [
        {
          "indexed": false,
          "internalType": "uint256",
          "name": "imageID",
          "type": "uint256"
        },
        {
          "indexed": false,
          "internalType": "address",
          "name": "transferor",
          "type": "address"
        },
        {
          "indexed": false,
          "internalType": "address",
          "name": "transferee",
          "type": "address"
        }
      ],
      "name": "transferFailed",
      "type": "event"
    },
    {
      "inputs": [],
      "name": "SHA3",
      "outputs": [
        {
          "internalType": "bytes32",
          "name": "",
          "type": "bytes32"
        }
      ],
      "stateMutability": "view",
      "type": "function"
    },
    {
      "inputs": [],
      "name": "amount",
      "outputs": [
        {
          "internalType": "uint256",
          "name": "",
          "type": "uint256"
        }
      ],
      "stateMutability": "view",
      "type": "function"
    },
    {
      "inputs": [],
      "name": "authorShare",
      "outputs": [
        {
          "internalType": "uint256",
          "name": "",
          "type": "uint256"
        }
      ],
      "stateMutability": "view",
      "type": "function"
    },
    {
      "inputs": [],
      "name": "contractRelease",
      "outputs": [
        {
          "internalType": "contract Release2",
          "name": "",
          "type": "address"
        }
      ],
      "stateMutability": "view",
      "type": "function"
    },
    {
      "inputs": [],
      "name": "duration",
      "outputs": [
        {
          "internalType": "uint256",
          "name": "",
          "type": "uint256"
        }
      ],
      "stateMutability": "view",
      "type": "function"
    },
    {
      "inputs": [],
      "name": "endTime",
      "outputs": [
        {
          "internalType": "uint256",
          "name": "",
          "type": "uint256"
        }
      ],
      "stateMutability": "view",
      "type": "function"
    },
    {
      "inputs": [],
      "name": "imageAuthor",
      "outputs": [
        {
          "internalType": "address payable",
          "name": "",
          "type": "address"
        }
      ],
      "stateMutability": "view",
      "type": "function"
    },
    {
      "inputs": [],
      "name": "imageID",
      "outputs": [
        {
          "internalType": "uint256",
          "name": "",
          "type": "uint256"
        }
      ],
      "stateMutability": "view",
      "type": "function"
    },
    {
      "inputs": [],
      "name": "imageOwner",
      "outputs": [
        {
          "internalType": "address payable",
          "name": "",
          "type": "address"
        }
      ],
      "stateMutability": "view",
      "type": "function"
    },
    {
      "inputs": [],
      "name": "imageTxCount",
      "outputs": [
        {
          "internalType": "uint256",
          "name": "",
          "type": "uint256"
        }
      ],
      "stateMutability": "view",
      "type": "function"
    },
    {
      "inputs": [],
      "name": "isClosed",
      "outputs": [
        {
          "internalType": "bool",
          "name": "",
          "type": "bool"
        }
      ],
      "stateMutability": "view",
      "type": "function"
    },
    {
      "inputs": [],
      "name": "launchTime",
      "outputs": [
        {
          "internalType": "uint256",
          "name": "",
          "type": "uint256"
        }
      ],
      "stateMutability": "view",
      "type": "function"
    },
    {
      "inputs": [],
      "name": "ownerShare",
      "outputs": [
        {
          "internalType": "uint256",
          "name": "",
          "type": "uint256"
        }
      ],
      "stateMutability": "view",
      "type": "function"
    },
    {
      "inputs": [
        {
          "internalType": "uint256",
          "name": "",
          "type": "uint256"
        }
      ],
      "name": "prevOwnerShare",
      "outputs": [
        {
          "internalType": "uint256",
          "name": "",
          "type": "uint256"
        }
      ],
      "stateMutability": "view",
      "type": "function"
    },
    {
      "inputs": [
        {
          "internalType": "uint256",
          "name": "",
          "type": "uint256"
        }
      ],
      "name": "prevOwners",
      "outputs": [
        {
          "internalType": "address",
          "name": "",
          "type": "address"
        }
      ],
      "stateMutability": "view",
      "type": "function"
    },
    {
      "inputs": [],
      "name": "purchaser",
      "outputs": [
        {
          "internalType": "address",
          "name": "",
          "type": "address"
        }
      ],
      "stateMutability": "view",
      "type": "function"
    },
    {
      "inputs": [],
      "name": "confirmPurchase",
      "outputs": [],
      "stateMutability": "payable",
      "type": "function"
    },
    {
      "inputs": [],
      "name": "declinePurchase",
      "outputs": [],
      "stateMutability": "payable",
      "type": "function"
    },
    {
      "inputs": [],
      "name": "cancelPurchase",
      "outputs": [],
      "stateMutability": "payable",
      "type": "function"
    }
  ],
  "bytecode": "0x60806040526000600a60006101000a81548160ff02191690831515021790555060405162001f5e38038062001f5e833981810160405281019062000044919062000898565b60008073ffffffffffffffffffffffffffffffffffffffff168673ffffffffffffffffffffffffffffffffffffffff161415905060008073ffffffffffffffffffffffffffffffffffffffff168673ffffffffffffffffffffffffffffffffffffffff161415905060008073ffffffffffffffffffffffffffffffffffffffff168673ffffffffffffffffffffffffffffffffffffffff16141590506000600f86101590506000808b119050600080602060ff161190508c6000806101000a81548173ffffffffffffffffffffffffffffffffffffffff021916908373ffffffffffffffffffffffffffffffffffffffff160217905550818015620001da575060008054906101000a900473ffffffffffffffffffffffffffffffffffffffff1673ffffffffffffffffffffffffffffffffffffffff166392053b636040518163ffffffff1660e01b8152600401602060405180830381865afa158015620001b0573d6000803e3d6000fd5b505050506040513d601f19601f82011682018060405250810190620001d691906200094b565b8c11155b9150848015620002b3575060008054906101000a900473ffffffffffffffffffffffffffffffffffffffff1673ffffffffffffffffffffffffffffffffffffffff1663a9b114268d6040518263ffffffff1660e01b81526004016200024091906200098e565b602060405180830381865afa1580156200025e573d6000803e3d6000fd5b505050506040513d601f19601f82011682018060405250810190620002849190620009ab565b73ffffffffffffffffffffffffffffffffffffffff168a73ffffffffffffffffffffffffffffffffffffffff16145b94508380156200038c575060008054906101000a900473ffffffffffffffffffffffffffffffffffffffff1673ffffffffffffffffffffffffffffffffffffffff16631440bd078d6040518263ffffffff1660e01b81526004016200031991906200098e565b602060405180830381865afa15801562000337573d6000803e3d6000fd5b505050506040513d601f19601f820116820180604052508101906200035d9190620009ab565b73ffffffffffffffffffffffffffffffffffffffff168973ffffffffffffffffffffffffffffffffffffffff16145b935080801562000438575060008054906101000a900473ffffffffffffffffffffffffffffffffffffffff1673ffffffffffffffffffffffffffffffffffffffff16627ac14a8d896040518363ffffffff1660e01b8152600401620003f3929190620009ee565b602060405180830381865afa15801562000411573d6000803e3d6000fd5b505050506040513d601f19601f8201168201806040525081019062000437919062000a58565b5b9050818015620004455750845b80156200044f5750835b8015620004595750855b8015620004635750825b80156200046d5750805b620004af576040517f08c379a0000000000000000000000000000000000000000000000000000000008152600401620004a69062000aeb565b60405180910390fd5b8b6001819055508a600260006101000a81548173ffffffffffffffffffffffffffffffffffffffff021916908373ffffffffffffffffffffffffffffffffffffffff16021790555089600360006101000a81548173ffffffffffffffffffffffffffffffffffffffff021916908373ffffffffffffffffffffffffffffffffffffffff16021790555088600460006101000a81548173ffffffffffffffffffffffffffffffffffffffff021916908373ffffffffffffffffffffffffffffffffffffffff16021790555087600681905550426007819055508760075462000597919062000b3c565b6008819055503460098190555060008054906101000a900473ffffffffffffffffffffffffffffffffffffffff1673ffffffffffffffffffffffffffffffffffffffff1663f2d03fcf8d6040518263ffffffff1660e01b8152600401620005ff91906200098e565b600060405180830381865afa1580156200061d573d6000803e3d6000fd5b505050506040513d6000823e3d601f19601f8201168201806040525081019062000648919062000d0e565b600d90805190602001906200065f929190620006b6565b507f881398ee76a74d936f5b826b7cca23946040cc0fbb7df9646c3173c8e8c5eedb8c8c8c8c6009546040516200069b95949392919062000ddb565b60405180910390a15050505050505050505050505062000e38565b82805482825590600052602060002090810192821562000732579160200282015b82811115620007315782518260006101000a81548173ffffffffffffffffffffffffffffffffffffffff021916908373ffffffffffffffffffffffffffffffffffffffff16021790555091602001919060010190620006d7565b5b50905062000741919062000745565b5090565b5b808211156200076057600081600090555060010162000746565b5090565b6000604051905090565b600080fd5b600080fd5b600073ffffffffffffffffffffffffffffffffffffffff82169050919050565b6000620007a58262000778565b9050919050565b620007b78162000798565b8114620007c357600080fd5b50565b600081519050620007d781620007ac565b92915050565b6000819050919050565b620007f281620007dd565b8114620007fe57600080fd5b50565b6000815190506200081281620007e7565b92915050565b6000620008258262000778565b9050919050565b620008378162000818565b81146200084357600080fd5b50565b60008151905062000857816200082c565b92915050565b6000819050919050565b62000872816200085d565b81146200087e57600080fd5b50565b600081519050620008928162000867565b92915050565b600080600080600080600060e0888a031215620008ba57620008b96200076e565b5b6000620008ca8a828b01620007c6565b9750506020620008dd8a828b0162000801565b9650506040620008f08a828b01620007c6565b9550506060620009038a828b0162000846565b9450506080620009168a828b0162000846565b93505060a0620009298a828b0162000801565b92505060c06200093c8a828b0162000881565b91505092959891949750929550565b6000602082840312156200096457620009636200076e565b5b6000620009748482850162000801565b91505092915050565b6200098881620007dd565b82525050565b6000602082019050620009a560008301846200097d565b92915050565b600060208284031215620009c457620009c36200076e565b5b6000620009d484828501620007c6565b91505092915050565b620009e8816200085d565b82525050565b600060408201905062000a0560008301856200097d565b62000a146020830184620009dd565b9392505050565b60008115159050919050565b62000a328162000a1b565b811462000a3e57600080fd5b50565b60008151905062000a528162000a27565b92915050565b60006020828403121562000a715762000a706200076e565b5b600062000a818482850162000a41565b91505092915050565b600082825260208201905092915050565b7f696e76616c696420706172616d65746572730000000000000000000000000000600082015250565b600062000ad360128362000a8a565b915062000ae08262000a9b565b602082019050919050565b6000602082019050818103600083015262000b068162000ac4565b9050919050565b7f4e487b7100000000000000000000000000000000000000000000000000000000600052601160045260246000fd5b600062000b4982620007dd565b915062000b5683620007dd565b9250827fffffffffffffffffffffffffffffffffffffffffffffffffffffffffffffffff0382111562000b8e5762000b8d62000b0d565b5b828201905092915050565b600080fd5b6000601f19601f8301169050919050565b7f4e487b7100000000000000000000000000000000000000000000000000000000600052604160045260246000fd5b62000be98262000b9e565b810181811067ffffffffffffffff8211171562000c0b5762000c0a62000baf565b5b80604052505050565b600062000c2062000764565b905062000c2e828262000bde565b919050565b600067ffffffffffffffff82111562000c515762000c5062000baf565b5b602082029050602081019050919050565b600080fd5b600062000c7e62000c788462000c33565b62000c14565b9050808382526020820190506020840283018581111562000ca45762000ca362000c62565b5b835b8181101562000cd1578062000cbc8882620007c6565b84526020840193505060208101905062000ca6565b5050509392505050565b600082601f83011262000cf35762000cf262000b99565b5b815162000d0584826020860162000c67565b91505092915050565b60006020828403121562000d275762000d266200076e565b5b600082015167ffffffffffffffff81111562000d485762000d4762000773565b5b62000d568482850162000cdb565b91505092915050565b62000d6a8162000798565b82525050565b6000819050919050565b600062000d9b62000d9562000d8f8462000778565b62000d70565b62000778565b9050919050565b600062000daf8262000d7a565b9050919050565b600062000dc38262000da2565b9050919050565b62000dd58162000db6565b82525050565b600060a08201905062000df260008301886200097d565b62000e01602083018762000d5f565b62000e10604083018662000dca565b62000e1f606083018562000dca565b62000e2e60808301846200097d565b9695505050505050565b6111168062000e486000396000f3fe6080604052600436106101145760003560e01c8063790ca413116100a0578063ae96e12c11610064578063ae96e12c14610355578063b1b4dee014610380578063c2b6b58c146103ab578063d6960697146103d6578063e742a74d146103e057610114565b8063790ca4131461028d57806383913708146102b85780638f1c3151146102f5578063aa8c217c14610320578063ab460a261461034b57610114565b80634773fb7c116100e75780634773fb7c146101c55780634d3499b5146101cf57806352ec94c3146101fa578063544082e5146102375780635a77dc461461026257610114565b806307191f29146101195780630fb5a6b4146101445780633197cbb61461016f5780633961bdfb1461019a575b600080fd5b34801561012557600080fd5b5061012e61040b565b60405161013b9190610d6a565b60405180910390f35b34801561015057600080fd5b50610159610431565b6040516101669190610d9e565b60405180910390f35b34801561017b57600080fd5b50610184610437565b6040516101919190610d9e565b60405180910390f35b3480156101a657600080fd5b506101af61043d565b6040516101bc9190610d6a565b60405180910390f35b6101cd610463565b005b3480156101db57600080fd5b506101e4610746565b6040516101f19190610d9e565b60405180910390f35b34801561020657600080fd5b50610221600480360381019061021c9190610dea565b61074c565b60405161022e9190610d9e565b60405180910390f35b34801561024357600080fd5b5061024c610770565b6040516102599190610d9e565b60405180910390f35b34801561026e57600080fd5b50610277610776565b6040516102849190610e38565b60405180910390f35b34801561029957600080fd5b506102a261079c565b6040516102af9190610d9e565b60405180910390f35b3480156102c457600080fd5b506102df60048036038101906102da9190610dea565b6107a2565b6040516102ec9190610e38565b60405180910390f35b34801561030157600080fd5b5061030a6107e1565b6040516103179190610d9e565b60405180910390f35b34801561032c57600080fd5b506103356107e7565b6040516103429190610d9e565b60405180910390f35b6103536107ed565b005b34801561036157600080fd5b5061036a610abc565b6040516103779190610e6c565b60405180910390f35b34801561038c57600080fd5b50610395610ac2565b6040516103a29190610d9e565b60405180910390f35b3480156103b757600080fd5b506103c0610ac8565b6040516103cd9190610ea2565b60405180910390f35b6103de610adb565b005b3480156103ec57600080fd5b506103f5610d05565b6040516104029190610f1c565b60405180910390f35b600360009054906101000a900473ffffffffffffffffffffffffffffffffffffffff1681565b60065481565b60085481565b600460009054906101000a900473ffffffffffffffffffffffffffffffffffffffff1681565b600060085442111590506000600360009054906101000a900473ffffffffffffffffffffffffffffffffffffffff1673ffffffffffffffffffffffffffffffffffffffff163373ffffffffffffffffffffffffffffffffffffffff161490506000600360009054906101000a900473ffffffffffffffffffffffffffffffffffffffff1673ffffffffffffffffffffffffffffffffffffffff1660008054906101000a900473ffffffffffffffffffffffffffffffffffffffff1673ffffffffffffffffffffffffffffffffffffffff1663a9b114266001546040518263ffffffff1660e01b81526004016105589190610d9e565b602060405180830381865afa158015610575573d6000803e3d6000fd5b505050506040513d601f19601f820116820180604052508101906105999190610f63565b73ffffffffffffffffffffffffffffffffffffffff161490508280156105bc5750815b80156105c55750805b80156105de5750600a60009054906101000a900460ff16155b6105e757600080fd5b6001600a60006101000a81548160ff021916908315150217905550600260009054906101000a900473ffffffffffffffffffffffffffffffffffffffff1673ffffffffffffffffffffffffffffffffffffffff166108fc6009549081150290604051600060405180830381858888f19350505050156106c2577fb92a7474c1491f709d736b42aeaaf2e23fa8e029038e11454064047d69cff1fd600154600360009054906101000a900473ffffffffffffffffffffffffffffffffffffffff166040516106b5929190610fb1565b60405180910390a1610741565b7fc53b4710517515ffe70cd71a0ffe6a9c8c36985d28acb6b472cda6fa75514a4960015430600260009054906101000a900473ffffffffffffffffffffffffffffffffffffffff1660405161071993929190610fda565b60405180910390a16000600a60006101000a81548160ff021916908315150217905550600080fd5b505050565b60015481565b600e818154811061075c57600080fd5b906000526020600020016000915090505481565b600b5481565b600260009054906101000a900473ffffffffffffffffffffffffffffffffffffffff1681565b60075481565b600d81815481106107b257600080fd5b906000526020600020016000915054906101000a900473ffffffffffffffffffffffffffffffffffffffff1681565b600c5481565b60095481565b6000600260009054906101000a900473ffffffffffffffffffffffffffffffffffffffff1673ffffffffffffffffffffffffffffffffffffffff163373ffffffffffffffffffffffffffffffffffffffff161490506000600360009054906101000a900473ffffffffffffffffffffffffffffffffffffffff1673ffffffffffffffffffffffffffffffffffffffff1660008054906101000a900473ffffffffffffffffffffffffffffffffffffffff1673ffffffffffffffffffffffffffffffffffffffff1663a9b114266001546040518263ffffffff1660e01b81526004016108d89190610d9e565b602060405180830381865afa1580156108f5573d6000803e3d6000fd5b505050506040513d601f19601f820116820180604052508101906109199190610f63565b73ffffffffffffffffffffffffffffffffffffffff1614905081801561093c5750805b80156109555750600a60009054906101000a900460ff16155b61095e57600080fd5b6001600a60006101000a81548160ff021916908315150217905550600260009054906101000a900473ffffffffffffffffffffffffffffffffffffffff1673ffffffffffffffffffffffffffffffffffffffff166108fc6009549081150290604051600060405180830381858888f1935050505015610a39577fb92a7474c1491f709d736b42aeaaf2e23fa8e029038e11454064047d69cff1fd600154600260009054906101000a900473ffffffffffffffffffffffffffffffffffffffff16604051610a2c929190611011565b60405180910390a1610ab8565b7fc53b4710517515ffe70cd71a0ffe6a9c8c36985d28acb6b472cda6fa75514a4960015430600260009054906101000a900473ffffffffffffffffffffffffffffffffffffffff16604051610a9093929190610fda565b60405180910390a16000600a60006101000a81548160ff021916908315150217905550600080fd5b5050565b60055481565b600f5481565b600a60009054906101000a900460ff1681565b600060085442111590506000600360009054906101000a900473ffffffffffffffffffffffffffffffffffffffff1673ffffffffffffffffffffffffffffffffffffffff163273ffffffffffffffffffffffffffffffffffffffff16149050818015610b445750805b8015610b5d5750600a60009054906101000a900460ff16155b610b6657600080fd5b6001600a60006101000a81548160ff02191690831515021790555060006001905060005b6005811015610c2557818015610c105750600d8181548110610baf57610bae61103a565b5b9060005260206000200160009054906101000a900473ffffffffffffffffffffffffffffffffffffffff1673ffffffffffffffffffffffffffffffffffffffff166108fc60029081150290604051600060405180830381858888f193505050505b91508080610c1d90611098565b915050610b8a565b5060001515600460009054906101000a900473ffffffffffffffffffffffffffffffffffffffff1673ffffffffffffffffffffffffffffffffffffffff166108fc600b549081150290604051600060405180830381858888f1935050505015151480610ced575060001515600360009054906101000a900473ffffffffffffffffffffffffffffffffffffffff1673ffffffffffffffffffffffffffffffffffffffff166108fc600c549081150290604051600060405180830381858888f193505050501515145b80610cf6575080155b15610d0057600080fd5b505050565b60008054906101000a900473ffffffffffffffffffffffffffffffffffffffff1681565b600073ffffffffffffffffffffffffffffffffffffffff82169050919050565b6000610d5482610d29565b9050919050565b610d6481610d49565b82525050565b6000602082019050610d7f6000830184610d5b565b92915050565b6000819050919050565b610d9881610d85565b82525050565b6000602082019050610db36000830184610d8f565b92915050565b600080fd5b610dc781610d85565b8114610dd257600080fd5b50565b600081359050610de481610dbe565b92915050565b600060208284031215610e0057610dff610db9565b5b6000610e0e84828501610dd5565b91505092915050565b6000610e2282610d29565b9050919050565b610e3281610e17565b82525050565b6000602082019050610e4d6000830184610e29565b92915050565b6000819050919050565b610e6681610e53565b82525050565b6000602082019050610e816000830184610e5d565b92915050565b60008115159050919050565b610e9c81610e87565b82525050565b6000602082019050610eb76000830184610e93565b92915050565b6000819050919050565b6000610ee2610edd610ed884610d29565b610ebd565b610d29565b9050919050565b6000610ef482610ec7565b9050919050565b6000610f0682610ee9565b9050919050565b610f1681610efb565b82525050565b6000602082019050610f316000830184610f0d565b92915050565b610f4081610e17565b8114610f4b57600080fd5b50565b600081519050610f5d81610f37565b92915050565b600060208284031215610f7957610f78610db9565b5b6000610f8784828501610f4e565b91505092915050565b6000610f9b82610ee9565b9050919050565b610fab81610f90565b82525050565b6000604082019050610fc66000830185610d8f565b610fd36020830184610fa2565b9392505050565b6000606082019050610fef6000830186610d8f565b610ffc6020830185610e29565b6110096040830184610e29565b949350505050565b60006040820190506110266000830185610d8f565b6110336020830184610e29565b9392505050565b7f4e487b7100000000000000000000000000000000000000000000000000000000600052603260045260246000fd5b7f4e487b7100000000000000000000000000000000000000000000000000000000600052601160045260246000fd5b60006110a382610d85565b91507fffffffffffffffffffffffffffffffffffffffffffffffffffffffffffffffff82036110d5576110d4611069565b5b60018201905091905056fea26469706673582212202751636b1e8b949d78e870e3c6d338a57c7e4c2ca59c77b6e8109d2e167c8ae064736f6c634300080d0033",
  "immutableReferences": {},
  "source": "// SPDX-License-Identifier: SimPL-2.0\r\npragma solidity ^0.8.12;\r\n\r\nimport \"./Release2.sol\";\r\n\r\ncontract Purchase2 {\r\n\r\n    Release2 public contractRelease;\r\n    uint    public imageID; \r\n    address public purchaser;\r\n    address payable public imageOwner;\r\n    address payable public imageAuthor;\r\n    bytes32 public SHA3;\r\n    uint    public duration;\r\n    uint    public launchTime;\r\n    uint    public endTime;\r\n    uint256 public amount;\r\n    bool    public isClosed = false;\r\n    uint    public authorShare;\r\n    uint    public ownerShare;\r\n    address[] public prevOwners;\r\n    uint[]  public prevOwnerShare;\r\n    uint    public imageTxCount;\r\n\r\n    event purchaseLaunched(uint imageID,address purchaser, address imageOwner, address imageAuthor, uint amount);\r\n    event transferComplete(uint imageID,address purchaser, address imageOwner);\r\n    event transferFailed(uint imageID,address transferor, address transferee);\r\n    event purchaseDisengage(uint imageID, address canceller);\r\n\r\n    constructor(\r\n        address releaseAddress,\r\n        uint _imageID,\r\n        address _purchaser,\r\n        address payable _imageOwner,\r\n        address payable _imageAuthor,\r\n        uint _duration,\r\n        bytes32 _SHA3\r\n    ) payable {\r\n        //evm ensures address should be valid otherwise contract will not be created\r\n        //BUT I still check addresses for precaution\r\n        bool FlagPurchaser = _purchaser != address(0x0);\r\n        bool FlagOwner = _imageOwner != address(0x0);\r\n        bool FlagAuthor = _imageAuthor != address(0x0);\r\n        bool FlagDuration = _duration >= 15;\r\n        bool FlagImageID = _imageID > 0;\r\n        bool FlagSHA3 = _SHA3.length > 0;\r\n        contractRelease=Release2(releaseAddress);\r\n        // require(_purchaser != address(0x0), \"invalid purchaser address\");\r\n        // require(_imageOwner != address(0x0), \"invalid image owner address\");\r\n        // require(_imageAuthor != address(0x0), \"invalid image author address\");\r\n        // require(_purchaser != address(0x0), \"invalid purchaser address\");\r\n        // require(_imageID > 0 && _imageID <= contractRelease.imageCount(), \"invalid image ID\");\r\n        // require(_imageOwner != address(0x0) && _imageOwner == contractRelease.getImageOwner(_imageID), \"invalid owner\");\r\n        // require(_imageAuthor != address(0x0) && _imageAuthor == contractRelease.getImageAuthor(_imageID), \"invalid author\");\r\n        // require(_duration >= 15, \"time too short\");\r\n        FlagImageID = FlagImageID && ( _imageID <= contractRelease.imageCount());\r\n        FlagOwner = FlagOwner && (_imageOwner == contractRelease.getImageOwner(_imageID));\r\n        FlagAuthor = FlagAuthor && (_imageAuthor == contractRelease.getImageAuthor(_imageID));\r\n        FlagSHA3 = FlagSHA3 && contractRelease.isSHA3Match(_imageID, _SHA3);\r\n        //use one require to save gas\r\n        require(FlagImageID && FlagOwner && FlagAuthor && FlagPurchaser && FlagDuration && FlagSHA3, \"invalid parameters\");\r\n        \r\n        imageID = _imageID;\r\n        purchaser = _purchaser;\r\n        imageOwner = _imageOwner;\r\n        imageAuthor = _imageAuthor;\r\n        duration = _duration;\r\n        launchTime = block.timestamp;\r\n        endTime = launchTime + _duration;\r\n        amount = msg.value;\r\n        \r\n        prevOwners = contractRelease.getPrevOwner(_imageID);\r\n        // imageTxCount = contractRelease.getTxCount(imageID);\r\n        // calShares();\r\n\r\n        emit purchaseLaunched(_imageID, _purchaser, _imageOwner, _imageAuthor, amount);\r\n    }\r\n\r\n    function confirmPurchase() public payable {\r\n        bool FlagTimestamp = block.timestamp <= endTime;\r\n        bool FlagTxOrigin = tx.origin == imageOwner;\r\n        // if (block.timestamp > endTime) return;\r\n        // if (tx.origin != imageOwner;) return;\r\n        // if (isClosed) return;\r\n\r\n        require(FlagTimestamp && FlagTxOrigin && !isClosed);\r\n        \r\n        isClosed = true;\r\n\r\n        // calShares();\r\n\r\n\r\n\r\n        bool flag = true;\r\n        for(uint i=0; i<5; i++) {\r\n          flag = flag && payable(prevOwners[i]).send(2);\r\n        }\r\n        if ( imageAuthor.send(authorShare) == false || imageOwner.send(ownerShare) == false || !flag) {\r\n          revert();\r\n        }\r\n    }\r\n\r\n    function calShares()  private {\r\n\r\n      if (imageTxCount <= 10) {\r\n        authorShare = amount / 5;\r\n      }else if(imageTxCount <= 50) {\r\n        authorShare = amount / 10;\r\n      }else {\r\n        authorShare = amount / 20;\r\n      }\r\n      \r\n      uint prevShareSum = 0;\r\n      prevOwnerShare = new uint[](5);\r\n      for(uint i=0; i<prevOwners.length-1; i++) {\r\n        prevOwnerShare[i] = amount / 100 * (5-i);\r\n        prevShareSum += prevOwnerShare[i];\r\n      }\r\n\r\n      ownerShare = amount - authorShare - prevShareSum;\r\n    }\r\n\r\n\r\n    function declinePurchase() public payable {\r\n        \r\n      bool FlagTimestamp = block.timestamp <= endTime;\r\n      bool FlagTxOrigin = msg.sender == imageOwner;\r\n      bool FlagOwner = contractRelease.getImageOwner(imageID) == imageOwner;\r\n      // require(block.timestamp <= endTime, \"Contract has closed!\");\r\n      // require(msg.sender == imageOwner, \"Who are you?\");  \r\n      // require(isClosed == false, \"already done\");\r\n      // require(contractRelease.getImageOwner(imageID) == imageOwner, \"\");\r\n\r\n      require(FlagTimestamp && FlagTxOrigin && FlagOwner && !isClosed);\r\n\r\n      isClosed = true;\r\n\r\n      if ((payable(purchaser)).send(amount)) {\r\n        emit purchaseDisengage(imageID, imageOwner);\r\n      }else {\r\n        emit transferFailed(imageID,address(this), purchaser);\r\n        isClosed = false;\r\n        revert();\r\n      }\r\n    }\r\n\r\n    function cancelPurchase() public payable {\r\n      \r\n      bool FlagTxOrigin = msg.sender == purchaser;\r\n      \r\n      /*why I cancel this restriction?\r\n        let's assume malicous owner A sees this offer  \r\n      */\r\n      bool FlagOwner = contractRelease.getImageOwner(imageID) == imageOwner;\r\n\r\n      // require(msg.sender == purchaser, \"you cannot cancel this\");\r\n      // require(isClosed == false, \"already done\");\r\n      // require(contractRelease.getImageOwner(imageID) == imageOwner, \"\");\r\n      require( FlagTxOrigin && FlagOwner && !isClosed);\r\n\r\n      isClosed = true;\r\n\r\n      if ((payable(purchaser)).send(amount)) {\r\n        emit purchaseDisengage(imageID, purchaser);\r\n      }else {\r\n        emit transferFailed(imageID, address(this), purchaser);\r\n        isClosed = false;\r\n        revert();\r\n      }\r\n    }\r\n}\r\n",
  "sourcePath": "D:\\Fun\\proj12\\Dimage\\contracts\\Purchase2.sol",
  "compiler": {
    "name": "solc",
    "version": "0.8.13+commit.abaa5c0e.Emscripten.clang"
  },
  "schemaVersion": "3.4.5",
  "updatedAt": "2022-05-05T15:49:25.149Z",
  "devdoc": {
    "kind": "dev",
    "methods": {},
    "version": 1
  },
  "userdoc": {
    "kind": "user",
    "methods": {},
    "version": 1
  }
}