{
  "contractName": "Purchase",
  "abi": [
    {
      "inputs": [
        {
          "internalType": "address",
          "name": "releaseAddress",
          "type": "address"
        },
        {
          "internalType": "uint256",
          "name": "_imageID",
          "type": "uint256"
        },
        {
          "internalType": "address",
          "name": "_purchaser",
          "type": "address"
        },
        {
          "internalType": "address payable",
          "name": "_imageOwner",
          "type": "address"
        },
        {
          "internalType": "address payable",
          "name": "_imageAuthor",
          "type": "address"
        },
        {
          "internalType": "uint256",
          "name": "_duration",
          "type": "uint256"
        },
        {
          "internalType": "string",
          "name": "_SHA3",
          "type": "string"
        }
      ],
      "stateMutability": "payable",
      "type": "constructor"
    },
    {
      "anonymous": false,
      "inputs": [
        {
          "indexed": false,
          "internalType": "uint256",
          "name": "imageID",
          "type": "uint256"
        },
        {
          "indexed": false,
          "internalType": "address",
          "name": "canceller",
          "type": "address"
        }
      ],
      "name": "purchaseDisengage",
      "type": "event"
    },
    {
      "anonymous": false,
      "inputs": [
        {
          "indexed": false,
          "internalType": "uint256",
          "name": "imageID",
          "type": "uint256"
        },
        {
          "indexed": false,
          "internalType": "address",
          "name": "purchaser",
          "type": "address"
        },
        {
          "indexed": false,
          "internalType": "address",
          "name": "imageOwner",
          "type": "address"
        },
        {
          "indexed": false,
          "internalType": "address",
          "name": "imageAuthor",
          "type": "address"
        },
        {
          "indexed": false,
          "internalType": "uint256",
          "name": "amount",
          "type": "uint256"
        }
      ],
      "name": "purchaseLaunched",
      "type": "event"
    },
    {
      "anonymous": false,
      "inputs": [
        {
          "indexed": false,
          "internalType": "uint256",
          "name": "imageID",
          "type": "uint256"
        },
        {
          "indexed": false,
          "internalType": "address",
          "name": "purchaser",
          "type": "address"
        },
        {
          "indexed": false,
          "internalType": "address",
          "name": "imageOwner",
          "type": "address"
        }
      ],
      "name": "transferComplete",
      "type": "event"
    },
    {
      "anonymous": false,
      "inputs": [
        {
          "indexed": false,
          "internalType": "uint256",
          "name": "imageID",
          "type": "uint256"
        },
        {
          "indexed": false,
          "internalType": "address",
          "name": "transferor",
          "type": "address"
        },
        {
          "indexed": false,
          "internalType": "address",
          "name": "transferee",
          "type": "address"
        }
      ],
      "name": "transferFailed",
      "type": "event"
    },
    {
      "inputs": [],
      "name": "SHA3",
      "outputs": [
        {
          "internalType": "string",
          "name": "",
          "type": "string"
        }
      ],
      "stateMutability": "view",
      "type": "function"
    },
    {
      "inputs": [],
      "name": "amount",
      "outputs": [
        {
          "internalType": "uint256",
          "name": "",
          "type": "uint256"
        }
      ],
      "stateMutability": "view",
      "type": "function"
    },
    {
      "inputs": [],
      "name": "authorShare",
      "outputs": [
        {
          "internalType": "uint256",
          "name": "",
          "type": "uint256"
        }
      ],
      "stateMutability": "view",
      "type": "function"
    },
    {
      "inputs": [],
      "name": "contractRelease",
      "outputs": [
        {
          "internalType": "contract Release",
          "name": "",
          "type": "address"
        }
      ],
      "stateMutability": "view",
      "type": "function"
    },
    {
      "inputs": [],
      "name": "duration",
      "outputs": [
        {
          "internalType": "uint256",
          "name": "",
          "type": "uint256"
        }
      ],
      "stateMutability": "view",
      "type": "function"
    },
    {
      "inputs": [],
      "name": "endTime",
      "outputs": [
        {
          "internalType": "uint256",
          "name": "",
          "type": "uint256"
        }
      ],
      "stateMutability": "view",
      "type": "function"
    },
    {
      "inputs": [],
      "name": "imageAuthor",
      "outputs": [
        {
          "internalType": "address payable",
          "name": "",
          "type": "address"
        }
      ],
      "stateMutability": "view",
      "type": "function"
    },
    {
      "inputs": [],
      "name": "imageID",
      "outputs": [
        {
          "internalType": "uint256",
          "name": "",
          "type": "uint256"
        }
      ],
      "stateMutability": "view",
      "type": "function"
    },
    {
      "inputs": [],
      "name": "imageOwner",
      "outputs": [
        {
          "internalType": "address payable",
          "name": "",
          "type": "address"
        }
      ],
      "stateMutability": "view",
      "type": "function"
    },
    {
      "inputs": [],
      "name": "isClosed",
      "outputs": [
        {
          "internalType": "bool",
          "name": "",
          "type": "bool"
        }
      ],
      "stateMutability": "view",
      "type": "function"
    },
    {
      "inputs": [],
      "name": "launchTime",
      "outputs": [
        {
          "internalType": "uint256",
          "name": "",
          "type": "uint256"
        }
      ],
      "stateMutability": "view",
      "type": "function"
    },
    {
      "inputs": [],
      "name": "ownerShare",
      "outputs": [
        {
          "internalType": "uint256",
          "name": "",
          "type": "uint256"
        }
      ],
      "stateMutability": "view",
      "type": "function"
    },
    {
      "inputs": [],
      "name": "purchaser",
      "outputs": [
        {
          "internalType": "address",
          "name": "",
          "type": "address"
        }
      ],
      "stateMutability": "view",
      "type": "function"
    },
    {
      "inputs": [],
      "name": "confirmPurchase",
      "outputs": [],
      "stateMutability": "payable",
      "type": "function"
    },
    {
      "inputs": [],
      "name": "declinePurchase",
      "outputs": [],
      "stateMutability": "payable",
      "type": "function"
    },
    {
      "inputs": [],
      "name": "cancelPurchase",
      "outputs": [],
      "stateMutability": "payable",
      "type": "function"
    }
  ],
  "bytecode": "0x60806040526000600a60006101000a81548160ff02191690831515021790555060405162001ee338038062001ee38339818101604052810190620000449190620008a9565b60008073ffffffffffffffffffffffffffffffffffffffff168673ffffffffffffffffffffffffffffffffffffffff161415905060008073ffffffffffffffffffffffffffffffffffffffff168673ffffffffffffffffffffffffffffffffffffffff161415905060008073ffffffffffffffffffffffffffffffffffffffff168673ffffffffffffffffffffffffffffffffffffffff16141590506000600f86101590506000808b11905060008087511190508c6000806101000a81548173ffffffffffffffffffffffffffffffffffffffff021916908373ffffffffffffffffffffffffffffffffffffffff160217905550818015620001d7575060008054906101000a900473ffffffffffffffffffffffffffffffffffffffff1673ffffffffffffffffffffffffffffffffffffffff166392053b636040518163ffffffff1660e01b8152600401602060405180830381865afa158015620001ad573d6000803e3d6000fd5b505050506040513d601f19601f82011682018060405250810190620001d391906200097b565b8c11155b9150848015620002b0575060008054906101000a900473ffffffffffffffffffffffffffffffffffffffff1673ffffffffffffffffffffffffffffffffffffffff1663a9b114268d6040518263ffffffff1660e01b81526004016200023d9190620009be565b602060405180830381865afa1580156200025b573d6000803e3d6000fd5b505050506040513d601f19601f82011682018060405250810190620002819190620009db565b73ffffffffffffffffffffffffffffffffffffffff168a73ffffffffffffffffffffffffffffffffffffffff16145b945083801562000389575060008054906101000a900473ffffffffffffffffffffffffffffffffffffffff1673ffffffffffffffffffffffffffffffffffffffff16631440bd078d6040518263ffffffff1660e01b8152600401620003169190620009be565b602060405180830381865afa15801562000334573d6000803e3d6000fd5b505050506040513d601f19601f820116820180604052508101906200035a9190620009db565b73ffffffffffffffffffffffffffffffffffffffff168973ffffffffffffffffffffffffffffffffffffffff16145b935080801562000436575060008054906101000a900473ffffffffffffffffffffffffffffffffffffffff1673ffffffffffffffffffffffffffffffffffffffff16635ec26dd68d896040518363ffffffff1660e01b8152600401620003f192919062000a6a565b602060405180830381865afa1580156200040f573d6000803e3d6000fd5b505050506040513d601f19601f8201168201806040525081019062000435919062000adb565b5b9050818015620004435750845b80156200044d5750835b8015620004575750855b8015620004615750825b80156200046b5750805b620004ad576040517f08c379a0000000000000000000000000000000000000000000000000000000008152600401620004a49062000b5d565b60405180910390fd5b8b6001819055508a600260006101000a81548173ffffffffffffffffffffffffffffffffffffffff021916908373ffffffffffffffffffffffffffffffffffffffff16021790555089600360006101000a81548173ffffffffffffffffffffffffffffffffffffffff021916908373ffffffffffffffffffffffffffffffffffffffff16021790555088600460006101000a81548173ffffffffffffffffffffffffffffffffffffffff021916908373ffffffffffffffffffffffffffffffffffffffff16021790555087600681905550426007819055508760075462000595919062000bae565b60088190555034600981905550600a600954620005b3919062000c3a565b600b81905550600b54600954620005cb919062000c72565b600c819055507f881398ee76a74d936f5b826b7cca23946040cc0fbb7df9646c3173c8e8c5eedb8c8c8c8c6009546040516200060c95949392919062000d29565b60405180910390a15050505050505050505050505062000d86565b6000604051905090565b600080fd5b600080fd5b600073ffffffffffffffffffffffffffffffffffffffff82169050919050565b600062000668826200063b565b9050919050565b6200067a816200065b565b81146200068657600080fd5b50565b6000815190506200069a816200066f565b92915050565b6000819050919050565b620006b581620006a0565b8114620006c157600080fd5b50565b600081519050620006d581620006aa565b92915050565b6000620006e8826200063b565b9050919050565b620006fa81620006db565b81146200070657600080fd5b50565b6000815190506200071a81620006ef565b92915050565b600080fd5b600080fd5b6000601f19601f8301169050919050565b7f4e487b7100000000000000000000000000000000000000000000000000000000600052604160045260246000fd5b62000775826200072a565b810181811067ffffffffffffffff821117156200079757620007966200073b565b5b80604052505050565b6000620007ac62000627565b9050620007ba82826200076a565b919050565b600067ffffffffffffffff821115620007dd57620007dc6200073b565b5b620007e8826200072a565b9050602081019050919050565b60005b8381101562000815578082015181840152602081019050620007f8565b8381111562000825576000848401525b50505050565b6000620008426200083c84620007bf565b620007a0565b90508281526020810184848401111562000861576200086062000725565b5b6200086e848285620007f5565b509392505050565b600082601f8301126200088e576200088d62000720565b5b8151620008a08482602086016200082b565b91505092915050565b600080600080600080600060e0888a031215620008cb57620008ca62000631565b5b6000620008db8a828b0162000689565b9750506020620008ee8a828b01620006c4565b9650506040620009018a828b0162000689565b9550506060620009148a828b0162000709565b9450506080620009278a828b0162000709565b93505060a06200093a8a828b01620006c4565b92505060c088015167ffffffffffffffff8111156200095e576200095d62000636565b5b6200096c8a828b0162000876565b91505092959891949750929550565b60006020828403121562000994576200099362000631565b5b6000620009a484828501620006c4565b91505092915050565b620009b881620006a0565b82525050565b6000602082019050620009d56000830184620009ad565b92915050565b600060208284031215620009f457620009f362000631565b5b600062000a048482850162000689565b91505092915050565b600081519050919050565b600082825260208201905092915050565b600062000a368262000a0d565b62000a42818562000a18565b935062000a54818560208601620007f5565b62000a5f816200072a565b840191505092915050565b600060408201905062000a816000830185620009ad565b818103602083015262000a95818462000a29565b90509392505050565b60008115159050919050565b62000ab58162000a9e565b811462000ac157600080fd5b50565b60008151905062000ad58162000aaa565b92915050565b60006020828403121562000af45762000af362000631565b5b600062000b048482850162000ac4565b91505092915050565b7f696e76616c696420706172616d65746572730000000000000000000000000000600082015250565b600062000b4560128362000a18565b915062000b528262000b0d565b602082019050919050565b6000602082019050818103600083015262000b788162000b36565b9050919050565b7f4e487b7100000000000000000000000000000000000000000000000000000000600052601160045260246000fd5b600062000bbb82620006a0565b915062000bc883620006a0565b9250827fffffffffffffffffffffffffffffffffffffffffffffffffffffffffffffffff0382111562000c005762000bff62000b7f565b5b828201905092915050565b7f4e487b7100000000000000000000000000000000000000000000000000000000600052601260045260246000fd5b600062000c4782620006a0565b915062000c5483620006a0565b92508262000c675762000c6662000c0b565b5b828204905092915050565b600062000c7f82620006a0565b915062000c8c83620006a0565b92508282101562000ca25762000ca162000b7f565b5b828203905092915050565b62000cb8816200065b565b82525050565b6000819050919050565b600062000ce962000ce362000cdd846200063b565b62000cbe565b6200063b565b9050919050565b600062000cfd8262000cc8565b9050919050565b600062000d118262000cf0565b9050919050565b62000d238162000d04565b82525050565b600060a08201905062000d406000830188620009ad565b62000d4f602083018762000cad565b62000d5e604083018662000d18565b62000d6d606083018562000d18565b62000d7c6080830184620009ad565b9695505050505050565b61114d8062000d966000396000f3fe6080604052600436106100f35760003560e01c8063790ca4131161008a578063ae96e12c11610059578063ae96e12c146102ba578063c2b6b58c146102e5578063d696069714610310578063e742a74d1461031a576100f3565b8063790ca4131461022f5780638f1c31511461025a578063aa8c217c14610285578063ab460a26146102b0576100f3565b80634773fb7c116100c65780634773fb7c146101a45780634d3499b5146101ae578063544082e5146101d95780635a77dc4614610204576100f3565b806307191f29146100f85780630fb5a6b4146101235780633197cbb61461014e5780633961bdfb14610179575b600080fd5b34801561010457600080fd5b5061010d610345565b60405161011a9190610d59565b60405180910390f35b34801561012f57600080fd5b5061013861036b565b6040516101459190610d8d565b60405180910390f35b34801561015a57600080fd5b50610163610371565b6040516101709190610d8d565b60405180910390f35b34801561018557600080fd5b5061018e610377565b60405161019b9190610d59565b60405180910390f35b6101ac61039d565b005b3480156101ba57600080fd5b506101c361067c565b6040516101d09190610d8d565b60405180910390f35b3480156101e557600080fd5b506101ee610682565b6040516101fb9190610d8d565b60405180910390f35b34801561021057600080fd5b50610219610688565b6040516102269190610dc9565b60405180910390f35b34801561023b57600080fd5b506102446106ae565b6040516102519190610d8d565b60405180910390f35b34801561026657600080fd5b5061026f6106b4565b60405161027c9190610d8d565b60405180910390f35b34801561029157600080fd5b5061029a6106ba565b6040516102a79190610d8d565b60405180910390f35b6102b86106c0565b005b3480156102c657600080fd5b506102cf61098b565b6040516102dc9190610e7d565b60405180910390f35b3480156102f157600080fd5b506102fa610a19565b6040516103079190610eba565b60405180910390f35b610318610a2c565b005b34801561032657600080fd5b5061032f610cf4565b60405161033c9190610f34565b60405180910390f35b600360009054906101000a900473ffffffffffffffffffffffffffffffffffffffff1681565b60065481565b60085481565b600460009054906101000a900473ffffffffffffffffffffffffffffffffffffffff1681565b600060085442111590506000600360009054906101000a900473ffffffffffffffffffffffffffffffffffffffff1673ffffffffffffffffffffffffffffffffffffffff163373ffffffffffffffffffffffffffffffffffffffff161490506000600360009054906101000a900473ffffffffffffffffffffffffffffffffffffffff1673ffffffffffffffffffffffffffffffffffffffff1660008054906101000a900473ffffffffffffffffffffffffffffffffffffffff1673ffffffffffffffffffffffffffffffffffffffff1663a9b114266001546040518263ffffffff1660e01b81526004016104929190610d8d565b602060405180830381865afa1580156104af573d6000803e3d6000fd5b505050506040513d601f19601f820116820180604052508101906104d39190610f80565b73ffffffffffffffffffffffffffffffffffffffff161490508280156104f65750815b80156104ff5750805b80156105185750600a60009054906101000a900460ff16155b61052157600080fd5b6001600a60006101000a81548160ff021916908315150217905550600260009054906101000a900473ffffffffffffffffffffffffffffffffffffffff1673ffffffffffffffffffffffffffffffffffffffff166108fc6009549081150290604051600060405180830381858888f19350505050156105fc577fb92a7474c1491f709d736b42aeaaf2e23fa8e029038e11454064047d69cff1fd600154600360009054906101000a900473ffffffffffffffffffffffffffffffffffffffff166040516105ef929190610fce565b60405180910390a1610677565b7fc53b4710517515ffe70cd71a0ffe6a9c8c36985d28acb6b472cda6fa75514a4960015430600260009054906101000a900473ffffffffffffffffffffffffffffffffffffffff1660405161065393929190610ff7565b60405180910390a16000600a60006101000a81548160ff0219169083151502179055505b505050565b60015481565b600b5481565b600260009054906101000a900473ffffffffffffffffffffffffffffffffffffffff1681565b60075481565b600c5481565b60095481565b6000600260009054906101000a900473ffffffffffffffffffffffffffffffffffffffff1673ffffffffffffffffffffffffffffffffffffffff163373ffffffffffffffffffffffffffffffffffffffff161490506000600360009054906101000a900473ffffffffffffffffffffffffffffffffffffffff1673ffffffffffffffffffffffffffffffffffffffff1660008054906101000a900473ffffffffffffffffffffffffffffffffffffffff1673ffffffffffffffffffffffffffffffffffffffff1663a9b114266001546040518263ffffffff1660e01b81526004016107ab9190610d8d565b602060405180830381865afa1580156107c8573d6000803e3d6000fd5b505050506040513d601f19601f820116820180604052508101906107ec9190610f80565b73ffffffffffffffffffffffffffffffffffffffff1614905081801561080f5750805b80156108285750600a60009054906101000a900460ff16155b61083157600080fd5b6001600a60006101000a81548160ff021916908315150217905550600260009054906101000a900473ffffffffffffffffffffffffffffffffffffffff1673ffffffffffffffffffffffffffffffffffffffff166108fc6009549081150290604051600060405180830381858888f193505050501561090c577fb92a7474c1491f709d736b42aeaaf2e23fa8e029038e11454064047d69cff1fd600154600260009054906101000a900473ffffffffffffffffffffffffffffffffffffffff166040516108ff92919061102e565b60405180910390a1610987565b7fc53b4710517515ffe70cd71a0ffe6a9c8c36985d28acb6b472cda6fa75514a4960015430600260009054906101000a900473ffffffffffffffffffffffffffffffffffffffff1660405161096393929190610ff7565b60405180910390a16000600a60006101000a81548160ff0219169083151502179055505b5050565b6005805461099890611086565b80601f01602080910402602001604051908101604052809291908181526020018280546109c490611086565b8015610a115780601f106109e657610100808354040283529160200191610a11565b820191906000526020600020905b8154815290600101906020018083116109f457829003601f168201915b505050505081565b600a60009054906101000a900460ff1681565b600060085442111590506000600360009054906101000a900473ffffffffffffffffffffffffffffffffffffffff1673ffffffffffffffffffffffffffffffffffffffff163273ffffffffffffffffffffffffffffffffffffffff16149050818015610a955750805b8015610aae5750600a60009054906101000a900460ff16155b610ab757600080fd5b6001600a60006101000a81548160ff0219169083151502179055506000600360009054906101000a900473ffffffffffffffffffffffffffffffffffffffff1673ffffffffffffffffffffffffffffffffffffffff166108fc600c549081150290604051600060405180830381858888f1935050505090506000600460009054906101000a900473ffffffffffffffffffffffffffffffffffffffff1673ffffffffffffffffffffffffffffffffffffffff166108fc600b549081150290604051600060405180830381858888f193505050509050818015610b965750805b15610cd25760008054906101000a900473ffffffffffffffffffffffffffffffffffffffff1673ffffffffffffffffffffffffffffffffffffffff1663784796f7600154600260009054906101000a900473ffffffffffffffffffffffffffffffffffffffff166040518363ffffffff1660e01b8152600401610c1a9291906110b7565b600060405180830381600087803b158015610c3457600080fd5b505af1158015610c48573d6000803e3d6000fd5b505050507f4f751a0f286ea331992891ca180b2885950256880401e6dbd0bf20b1d923e677600154600260009054906101000a900473ffffffffffffffffffffffffffffffffffffffff16600360009054906101000a900473ffffffffffffffffffffffffffffffffffffffff16604051610cc5939291906110e0565b60405180910390a1610cee565b6000600a60006101000a81548160ff0219169083151502179055505b50505050565b60008054906101000a900473ffffffffffffffffffffffffffffffffffffffff1681565b600073ffffffffffffffffffffffffffffffffffffffff82169050919050565b6000610d4382610d18565b9050919050565b610d5381610d38565b82525050565b6000602082019050610d6e6000830184610d4a565b92915050565b6000819050919050565b610d8781610d74565b82525050565b6000602082019050610da26000830184610d7e565b92915050565b6000610db382610d18565b9050919050565b610dc381610da8565b82525050565b6000602082019050610dde6000830184610dba565b92915050565b600081519050919050565b600082825260208201905092915050565b60005b83811015610e1e578082015181840152602081019050610e03565b83811115610e2d576000848401525b50505050565b6000601f19601f8301169050919050565b6000610e4f82610de4565b610e598185610def565b9350610e69818560208601610e00565b610e7281610e33565b840191505092915050565b60006020820190508181036000830152610e978184610e44565b905092915050565b60008115159050919050565b610eb481610e9f565b82525050565b6000602082019050610ecf6000830184610eab565b92915050565b6000819050919050565b6000610efa610ef5610ef084610d18565b610ed5565b610d18565b9050919050565b6000610f0c82610edf565b9050919050565b6000610f1e82610f01565b9050919050565b610f2e81610f13565b82525050565b6000602082019050610f496000830184610f25565b92915050565b600080fd5b610f5d81610da8565b8114610f6857600080fd5b50565b600081519050610f7a81610f54565b92915050565b600060208284031215610f9657610f95610f4f565b5b6000610fa484828501610f6b565b91505092915050565b6000610fb882610f01565b9050919050565b610fc881610fad565b82525050565b6000604082019050610fe36000830185610d7e565b610ff06020830184610fbf565b9392505050565b600060608201905061100c6000830186610d7e565b6110196020830185610dba565b6110266040830184610dba565b949350505050565b60006040820190506110436000830185610d7e565b6110506020830184610dba565b9392505050565b7f4e487b7100000000000000000000000000000000000000000000000000000000600052602260045260246000fd5b6000600282049050600182168061109e57607f821691505b6020821081036110b1576110b0611057565b5b50919050565b60006040820190506110cc6000830185610d7e565b6110d96020830184610d4a565b9392505050565b60006060820190506110f56000830186610d7e565b6111026020830185610dba565b61110f6040830184610fbf565b94935050505056fea264697066735822122023b655b3cad059d3f412014da987f38a7c4f9024c400d7c10ac5695433bbd42f64736f6c634300080d0033",
  "immutableReferences": {},
  "source": "// SPDX-License-Identifier: SimPL-2.0\r\npragma solidity ^0.8.12;\r\n\r\nimport \"./Release.sol\";\r\n\r\ncontract Purchase {\r\n\r\n    Release public contractRelease;\r\n    uint    public imageID; \r\n    address public purchaser;\r\n    address payable public imageOwner;\r\n    address payable public imageAuthor;\r\n    string  public SHA3;\r\n    uint    public duration;\r\n    uint    public launchTime;\r\n    uint    public endTime;\r\n    uint256 public amount;\r\n    bool    public isClosed = false;\r\n    uint    public authorShare;\r\n    uint    public ownerShare;\r\n\r\n    event purchaseLaunched(uint imageID,address purchaser, address imageOwner, address imageAuthor, uint amount);\r\n    event transferComplete(uint imageID,address purchaser, address imageOwner);\r\n    event transferFailed(uint imageID,address transferor, address transferee);\r\n    event purchaseDisengage(uint imageID, address canceller);\r\n\r\n    constructor(\r\n        address releaseAddress,\r\n        uint _imageID,\r\n        address _purchaser,\r\n        address payable _imageOwner,\r\n        address payable _imageAuthor,\r\n        uint _duration,\r\n        string memory _SHA3\r\n    ) payable {\r\n        //evm ensures address should be valid otherwise contract will not be created\r\n        //BUT I still check addresses for precaution\r\n        bool FlagPurchaser = _purchaser != address(0x0);\r\n        bool FlagOwner = _imageOwner != address(0x0);\r\n        bool FlagAuthor = _imageAuthor != address(0x0);\r\n        bool FlagDuration = _duration >= 15;\r\n        bool FlagImageID = _imageID > 0;\r\n        bool FlagSHA3 = bytes(_SHA3).length > 0;\r\n        contractRelease=Release(releaseAddress);\r\n        // require(_purchaser != address(0x0), \"invalid purchaser address\");\r\n        // require(_imageOwner != address(0x0), \"invalid image owner address\");\r\n        // require(_imageAuthor != address(0x0), \"invalid image author address\");\r\n        // require(_purchaser != address(0x0), \"invalid purchaser address\");\r\n        // require(_imageID > 0 && _imageID <= contractRelease.imageCount(), \"invalid image ID\");\r\n        // require(_imageOwner != address(0x0) && _imageOwner == contractRelease.getImageOwner(_imageID), \"invalid owner\");\r\n        // require(_imageAuthor != address(0x0) && _imageAuthor == contractRelease.getImageAuthor(_imageID), \"invalid author\");\r\n        // require(_duration >= 15, \"time too short\");\r\n        FlagImageID = FlagImageID && ( _imageID <= contractRelease.imageCount());\r\n        FlagOwner = FlagOwner && (_imageOwner == contractRelease.getImageOwner(_imageID));\r\n        FlagAuthor = FlagAuthor && (_imageAuthor == contractRelease.getImageAuthor(_imageID));\r\n        FlagSHA3 = FlagSHA3 && contractRelease.isSHA3Match(_imageID, _SHA3);\r\n        //use one require to save gas\r\n        require(FlagImageID && FlagOwner && FlagAuthor && FlagPurchaser && FlagDuration && FlagSHA3, \"invalid parameters\");\r\n        \r\n        imageID = _imageID;\r\n        purchaser = _purchaser;\r\n        imageOwner = _imageOwner;\r\n        imageAuthor = _imageAuthor;\r\n        duration = _duration;\r\n        launchTime = block.timestamp;\r\n        endTime = launchTime + _duration;\r\n        amount = msg.value;\r\n        authorShare = amount / 10 ;\r\n        ownerShare = amount - authorShare;\r\n        emit purchaseLaunched(_imageID, _purchaser, _imageOwner, _imageAuthor, amount);\r\n    }\r\n\r\n    function confirmPurchase() public payable {\r\n        bool FlagTimestamp = block.timestamp <= endTime;\r\n        bool FlagTxOrigin = tx.origin == imageOwner;\r\n        // if (block.timestamp > endTime) return;\r\n        // if (tx.origin != imageOwner;) return;\r\n        // if (isClosed) return;\r\n\r\n        require(FlagTimestamp && FlagTxOrigin && !isClosed);\r\n        \r\n        isClosed = true;\r\n    \r\n        bool tsfOwnerFlag =  (payable(imageOwner)).send(ownerShare);\r\n        bool tsfAuthorFlag = (payable(imageAuthor)).send(authorShare);\r\n        \r\n        if (tsfOwnerFlag && tsfAuthorFlag) {\r\n          contractRelease.changeOwner(imageID, payable(purchaser));\r\n          emit transferComplete(imageID, purchaser, imageOwner);\r\n        } else{\r\n          isClosed = false;\r\n        }\r\n    }\r\n\r\n    function declinePurchase() public payable {\r\n        \r\n      bool FlagTimestamp = block.timestamp <= endTime;\r\n      bool FlagTxOrigin = msg.sender == imageOwner;\r\n      bool FlagOwner = contractRelease.getImageOwner(imageID) == imageOwner;\r\n      // require(block.timestamp <= endTime, \"Contract has closed!\");\r\n      // require(msg.sender == imageOwner, \"Who are you?\");  \r\n      // require(isClosed == false, \"already done\");\r\n      // require(contractRelease.getImageOwner(imageID) == imageOwner, \"\");\r\n      \r\n      require(FlagTimestamp && FlagTxOrigin && FlagOwner && !isClosed);\r\n\r\n      isClosed = true;\r\n\r\n      if ((payable(purchaser)).send(amount)) {\r\n        emit purchaseDisengage(imageID, imageOwner);\r\n      }else {\r\n        emit transferFailed(imageID,address(this), purchaser);\r\n        isClosed = false;\r\n      }\r\n    }\r\n\r\n    function cancelPurchase() public payable {\r\n      \r\n      bool FlagTxOrigin = msg.sender == purchaser;\r\n      bool FlagOwner = contractRelease.getImageOwner(imageID) == imageOwner;\r\n\r\n      // require(msg.sender == purchaser, \"you cannot cancel this\");\r\n      // require(isClosed == false, \"already done\");\r\n      // require(contractRelease.getImageOwner(imageID) == imageOwner, \"\");\r\n      require( FlagTxOrigin && FlagOwner && !isClosed);\r\n\r\n      isClosed = true;\r\n\r\n      if ((payable(purchaser)).send(amount)) {\r\n        emit purchaseDisengage(imageID, purchaser);\r\n      }else {\r\n        emit transferFailed(imageID, address(this), purchaser);\r\n        isClosed = false;\r\n      }\r\n    }\r\n\r\n    // function callTest() public payable {\r\n    //   contractRelease.changeOwner(imageID, payable(purchaser));\r\n    // }\r\n}\r\n",
  "sourcePath": "D:\\Fun\\proj12\\Dimage\\contracts\\Purchase.sol",
  "compiler": {
    "name": "solc",
    "version": "0.8.13+commit.abaa5c0e.Emscripten.clang"
  },
  "schemaVersion": "3.4.5",
  "updatedAt": "2022-04-30T07:14:54.943Z",
  "devdoc": {
    "kind": "dev",
    "methods": {},
    "version": 1
  },
  "userdoc": {
    "kind": "user",
    "methods": {},
    "version": 1
  }
}