{
  "contractName": "Release",
  "abi": [
    {
      "inputs": [],
      "stateMutability": "nonpayable",
      "type": "constructor"
    },
    {
      "anonymous": false,
      "inputs": [
        {
          "indexed": false,
          "internalType": "uint256",
          "name": "id",
          "type": "uint256"
        },
        {
          "indexed": false,
          "internalType": "string",
          "name": "hash",
          "type": "string"
        },
        {
          "indexed": false,
          "internalType": "string",
          "name": "sha3",
          "type": "string"
        },
        {
          "indexed": false,
          "internalType": "string",
          "name": "signature",
          "type": "string"
        },
        {
          "indexed": false,
          "internalType": "string",
          "name": "title",
          "type": "string"
        },
        {
          "indexed": false,
          "internalType": "address payable",
          "name": "author",
          "type": "address"
        },
        {
          "indexed": false,
          "internalType": "address payable",
          "name": "owner",
          "type": "address"
        }
      ],
      "name": "ImageCreated",
      "type": "event"
    },
    {
      "inputs": [],
      "name": "contractName",
      "outputs": [
        {
          "internalType": "string",
          "name": "",
          "type": "string"
        }
      ],
      "stateMutability": "view",
      "type": "function"
    },
    {
      "inputs": [],
      "name": "imageCount",
      "outputs": [
        {
          "internalType": "uint256",
          "name": "",
          "type": "uint256"
        }
      ],
      "stateMutability": "view",
      "type": "function"
    },
    {
      "inputs": [
        {
          "internalType": "uint256",
          "name": "",
          "type": "uint256"
        }
      ],
      "name": "images",
      "outputs": [
        {
          "internalType": "uint256",
          "name": "id",
          "type": "uint256"
        },
        {
          "internalType": "string",
          "name": "hash",
          "type": "string"
        },
        {
          "internalType": "string",
          "name": "sha3",
          "type": "string"
        },
        {
          "internalType": "string",
          "name": "signature",
          "type": "string"
        },
        {
          "internalType": "string",
          "name": "title",
          "type": "string"
        },
        {
          "internalType": "address payable",
          "name": "author",
          "type": "address"
        },
        {
          "internalType": "address payable",
          "name": "owner",
          "type": "address"
        }
      ],
      "stateMutability": "view",
      "type": "function"
    },
    {
      "inputs": [
        {
          "internalType": "string",
          "name": "_imgHash",
          "type": "string"
        },
        {
          "internalType": "string",
          "name": "_imgSHA3",
          "type": "string"
        },
        {
          "internalType": "string",
          "name": "_imgSign",
          "type": "string"
        },
        {
          "internalType": "string",
          "name": "_title",
          "type": "string"
        }
      ],
      "name": "uploadImage",
      "outputs": [],
      "stateMutability": "nonpayable",
      "type": "function"
    },
    {
      "inputs": [
        {
          "internalType": "uint256",
          "name": "_id",
          "type": "uint256"
        },
        {
          "internalType": "address payable",
          "name": "newOwner",
          "type": "address"
        }
      ],
      "name": "changeOwner",
      "outputs": [],
      "stateMutability": "nonpayable",
      "type": "function"
    },
    {
      "inputs": [
        {
          "internalType": "uint256",
          "name": "_id",
          "type": "uint256"
        },
        {
          "internalType": "string",
          "name": "newSign",
          "type": "string"
        }
      ],
      "name": "changeSign",
      "outputs": [],
      "stateMutability": "nonpayable",
      "type": "function"
    },
    {
      "inputs": [
        {
          "internalType": "uint256",
          "name": "imageID",
          "type": "uint256"
        }
      ],
      "name": "getImageOwner",
      "outputs": [
        {
          "internalType": "address",
          "name": "",
          "type": "address"
        }
      ],
      "stateMutability": "view",
      "type": "function"
    },
    {
      "inputs": [
        {
          "internalType": "uint256",
          "name": "imageID",
          "type": "uint256"
        }
      ],
      "name": "getImageAuthor",
      "outputs": [
        {
          "internalType": "address",
          "name": "",
          "type": "address"
        }
      ],
      "stateMutability": "view",
      "type": "function"
    }
  ],
  "bytecode": "0x608060405260006001553480156200001657600080fd5b506040518060400160405280600781526020017f72656c656173650000000000000000000000000000000000000000000000000081525060009080519060200190620000649291906200006b565b506200017f565b82805462000079906200014a565b90600052602060002090601f0160209004810192826200009d5760008555620000e9565b82601f10620000b857805160ff1916838001178555620000e9565b82800160010185558215620000e9579182015b82811115620000e8578251825591602001919060010190620000cb565b5b509050620000f89190620000fc565b5090565b5b8082111562000117576000816000905550600101620000fd565b5090565b7f4e487b7100000000000000000000000000000000000000000000000000000000600052602260045260246000fd5b600060028204905060018216806200016357607f821691505b6020821081036200017957620001786200011b565b5b50919050565b611511806200018f6000396000f3fe608060405234801561001057600080fd5b50600436106100885760003560e01c8063848564821161005b578063848564821461011357806392053b6314610149578063a9b1142614610167578063fdfc88731461019757610088565b80631440bd071461008d57806350a07b6f146100bd57806375d0c0dc146100d9578063784796f7146100f7575b600080fd5b6100a760048036038101906100a29190610f16565b6101b3565b6040516100b49190610f84565b60405180910390f35b6100d760048036038101906100d291906110e5565b61020d565b005b6100e16106c9565b6040516100ee91906111c9565b60405180910390f35b610111600480360381019061010c9190611229565b610757565b005b61012d60048036038101906101289190610f16565b6108ce565b6040516101409796959493929190611287565b60405180910390f35b610151610b70565b60405161015e9190611312565b60405180910390f35b610181600480360381019061017c9190610f16565b610b76565b60405161018e9190610f84565b60405180910390f35b6101b160048036038101906101ac919061132d565b610bd0565b005b600080821180156101c657506001548211155b6101cf57600080fd5b6002600083815260200190815260200160002060050160009054906101000a900473ffffffffffffffffffffffffffffffffffffffff169050919050565b60008211801561021f57506001548211155b61022857600080fd5b600081511161023657600080fd5b6000600260008481526020019081526020016000206040518060e00160405290816000820154815260200160018201805461027090611433565b80601f016020809104026020016040519081016040528092919081815260200182805461029c90611433565b80156102e95780601f106102be576101008083540402835291602001916102e9565b820191906000526020600020905b8154815290600101906020018083116102cc57829003601f168201915b5050505050815260200160028201805461030290611433565b80601f016020809104026020016040519081016040528092919081815260200182805461032e90611433565b801561037b5780601f106103505761010080835404028352916020019161037b565b820191906000526020600020905b81548152906001019060200180831161035e57829003601f168201915b5050505050815260200160038201805461039490611433565b80601f01602080910402602001604051908101604052809291908181526020018280546103c090611433565b801561040d5780601f106103e25761010080835404028352916020019161040d565b820191906000526020600020905b8154815290600101906020018083116103f057829003601f168201915b5050505050815260200160048201805461042690611433565b80601f016020809104026020016040519081016040528092919081815260200182805461045290611433565b801561049f5780601f106104745761010080835404028352916020019161049f565b820191906000526020600020905b81548152906001019060200180831161048257829003601f168201915b505050505081526020016005820160009054906101000a900473ffffffffffffffffffffffffffffffffffffffff1673ffffffffffffffffffffffffffffffffffffffff1673ffffffffffffffffffffffffffffffffffffffff1681526020016006820160009054906101000a900473ffffffffffffffffffffffffffffffffffffffff1673ffffffffffffffffffffffffffffffffffffffff1673ffffffffffffffffffffffffffffffffffffffff1681525050905060008160c0015190508073ffffffffffffffffffffffffffffffffffffffff163373ffffffffffffffffffffffffffffffffffffffff161461059757600080fd5b82826060018190525081600260008681526020019081526020016000206000820151816000015560208201518160010190805190602001906105da929190610e29565b5060408201518160020190805190602001906105f7929190610e29565b506060820151816003019080519060200190610614929190610e29565b506080820151816004019080519060200190610631929190610e29565b5060a08201518160050160006101000a81548173ffffffffffffffffffffffffffffffffffffffff021916908373ffffffffffffffffffffffffffffffffffffffff16021790555060c08201518160060160006101000a81548173ffffffffffffffffffffffffffffffffffffffff021916908373ffffffffffffffffffffffffffffffffffffffff16021790555090505050505050565b600080546106d690611433565b80601f016020809104026020016040519081016040528092919081815260200182805461070290611433565b801561074f5780601f106107245761010080835404028352916020019161074f565b820191906000526020600020905b81548152906001019060200180831161073257829003601f168201915b505050505081565b600082111580610768575060015482115b6108ca576002600083815260200190815260200160002060060160009054906101000a900473ffffffffffffffffffffffffffffffffffffffff1673ffffffffffffffffffffffffffffffffffffffff163273ffffffffffffffffffffffffffffffffffffffff16036108ca576002600083815260200190815260200160002060060160009054906101000a900473ffffffffffffffffffffffffffffffffffffffff1673ffffffffffffffffffffffffffffffffffffffff168173ffffffffffffffffffffffffffffffffffffffff1603156108ca57600073ffffffffffffffffffffffffffffffffffffffff168173ffffffffffffffffffffffffffffffffffffffff1603156108ca57806002600084815260200190815260200160002060060160006101000a81548173ffffffffffffffffffffffffffffffffffffffff021916908373ffffffffffffffffffffffffffffffffffffffff1602179055505b5050565b60026020528060005260406000206000915090508060000154908060010180546108f790611433565b80601f016020809104026020016040519081016040528092919081815260200182805461092390611433565b80156109705780601f1061094557610100808354040283529160200191610970565b820191906000526020600020905b81548152906001019060200180831161095357829003601f168201915b50505050509080600201805461098590611433565b80601f01602080910402602001604051908101604052809291908181526020018280546109b190611433565b80156109fe5780601f106109d3576101008083540402835291602001916109fe565b820191906000526020600020905b8154815290600101906020018083116109e157829003601f168201915b505050505090806003018054610a1390611433565b80601f0160208091040260200160405190810160405280929190818152602001828054610a3f90611433565b8015610a8c5780601f10610a6157610100808354040283529160200191610a8c565b820191906000526020600020905b815481529060010190602001808311610a6f57829003601f168201915b505050505090806004018054610aa190611433565b80601f0160208091040260200160405190810160405280929190818152602001828054610acd90611433565b8015610b1a5780601f10610aef57610100808354040283529160200191610b1a565b820191906000526020600020905b815481529060010190602001808311610afd57829003601f168201915b5050505050908060050160009054906101000a900473ffffffffffffffffffffffffffffffffffffffff16908060060160009054906101000a900473ffffffffffffffffffffffffffffffffffffffff16905087565b60015481565b60008082118015610b8957506001548211155b610b9257600080fd5b6002600083815260200190815260200160002060060160009054906101000a900473ffffffffffffffffffffffffffffffffffffffff169050919050565b6000845111610bde57600080fd5b6000835111610bec57600080fd5b6000825111610bfa57600080fd5b6000815111610c0857600080fd5b600073ffffffffffffffffffffffffffffffffffffffff163373ffffffffffffffffffffffffffffffffffffffff1603610c4157600080fd5b60016000815480929190610c5490611493565b91905055506040518060e0016040528060015481526020018581526020018481526020018381526020018281526020013373ffffffffffffffffffffffffffffffffffffffff1681526020013373ffffffffffffffffffffffffffffffffffffffff16815250600260006001548152602001908152602001600020600082015181600001556020820151816001019080519060200190610cf5929190610e29565b506040820151816002019080519060200190610d12929190610e29565b506060820151816003019080519060200190610d2f929190610e29565b506080820151816004019080519060200190610d4c929190610e29565b5060a08201518160050160006101000a81548173ffffffffffffffffffffffffffffffffffffffff021916908373ffffffffffffffffffffffffffffffffffffffff16021790555060c08201518160060160006101000a81548173ffffffffffffffffffffffffffffffffffffffff021916908373ffffffffffffffffffffffffffffffffffffffff1602179055509050507f801b79e9f8a7e351922f85b2d3bca4d34c7708b4eb20e5255bc199afff902eb0600154858585853333604051610e1b9796959493929190611287565b60405180910390a150505050565b828054610e3590611433565b90600052602060002090601f016020900481019282610e575760008555610e9e565b82601f10610e7057805160ff1916838001178555610e9e565b82800160010185558215610e9e579182015b82811115610e9d578251825591602001919060010190610e82565b5b509050610eab9190610eaf565b5090565b5b80821115610ec8576000816000905550600101610eb0565b5090565b6000604051905090565b600080fd5b600080fd5b6000819050919050565b610ef381610ee0565b8114610efe57600080fd5b50565b600081359050610f1081610eea565b92915050565b600060208284031215610f2c57610f2b610ed6565b5b6000610f3a84828501610f01565b91505092915050565b600073ffffffffffffffffffffffffffffffffffffffff82169050919050565b6000610f6e82610f43565b9050919050565b610f7e81610f63565b82525050565b6000602082019050610f996000830184610f75565b92915050565b600080fd5b600080fd5b6000601f19601f8301169050919050565b7f4e487b7100000000000000000000000000000000000000000000000000000000600052604160045260246000fd5b610ff282610fa9565b810181811067ffffffffffffffff8211171561101157611010610fba565b5b80604052505050565b6000611024610ecc565b90506110308282610fe9565b919050565b600067ffffffffffffffff8211156110505761104f610fba565b5b61105982610fa9565b9050602081019050919050565b82818337600083830152505050565b600061108861108384611035565b61101a565b9050828152602081018484840111156110a4576110a3610fa4565b5b6110af848285611066565b509392505050565b600082601f8301126110cc576110cb610f9f565b5b81356110dc848260208601611075565b91505092915050565b600080604083850312156110fc576110fb610ed6565b5b600061110a85828601610f01565b925050602083013567ffffffffffffffff81111561112b5761112a610edb565b5b611137858286016110b7565b9150509250929050565b600081519050919050565b600082825260208201905092915050565b60005b8381101561117b578082015181840152602081019050611160565b8381111561118a576000848401525b50505050565b600061119b82611141565b6111a5818561114c565b93506111b581856020860161115d565b6111be81610fa9565b840191505092915050565b600060208201905081810360008301526111e38184611190565b905092915050565b60006111f682610f43565b9050919050565b611206816111eb565b811461121157600080fd5b50565b600081359050611223816111fd565b92915050565b600080604083850312156112405761123f610ed6565b5b600061124e85828601610f01565b925050602061125f85828601611214565b9150509250929050565b61127281610ee0565b82525050565b611281816111eb565b82525050565b600060e08201905061129c600083018a611269565b81810360208301526112ae8189611190565b905081810360408301526112c28188611190565b905081810360608301526112d68187611190565b905081810360808301526112ea8186611190565b90506112f960a0830185611278565b61130660c0830184611278565b98975050505050505050565b60006020820190506113276000830184611269565b92915050565b6000806000806080858703121561134757611346610ed6565b5b600085013567ffffffffffffffff81111561136557611364610edb565b5b611371878288016110b7565b945050602085013567ffffffffffffffff81111561139257611391610edb565b5b61139e878288016110b7565b935050604085013567ffffffffffffffff8111156113bf576113be610edb565b5b6113cb878288016110b7565b925050606085013567ffffffffffffffff8111156113ec576113eb610edb565b5b6113f8878288016110b7565b91505092959194509250565b7f4e487b7100000000000000000000000000000000000000000000000000000000600052602260045260246000fd5b6000600282049050600182168061144b57607f821691505b60208210810361145e5761145d611404565b5b50919050565b7f4e487b7100000000000000000000000000000000000000000000000000000000600052601160045260246000fd5b600061149e82610ee0565b91507fffffffffffffffffffffffffffffffffffffffffffffffffffffffffffffffff82036114d0576114cf611464565b5b60018201905091905056fea2646970667358221220c06ae118e15bb16e614364649b028f2fe562f41405e7f57487df96cd994aa79164736f6c634300080d0033",
  "immutableReferences": {},
  "source": "// SPDX-License-Identifier: SimPL-2.0\r\npragma solidity ^0.8.12;\r\n\r\ncontract Release{\r\n    \r\n    string public contractName;\r\n    uint public imageCount = 0;\r\n    mapping(uint => Image) public images;\r\n    \r\n    struct Image{\r\n        uint id;\r\n        string hash;\r\n        string sha3;\r\n        string signature;\r\n        string title;\r\n        address payable author;\r\n        address payable owner;\r\n    }\r\n\r\n    event ImageCreated(\r\n        uint id,\r\n        string hash,\r\n        string sha3,\r\n        string signature,\r\n        string title,\r\n        address payable author,\r\n        address payable owner\r\n    );\r\n\r\n    constructor()  {\r\n      contractName = \"release\";\r\n    }\r\n    \r\n    function uploadImage(\r\n        string memory _imgHash,\r\n        string memory _imgSHA3, \r\n        string memory _imgSign,\r\n        string memory _title) public {\r\n\r\n        //check requires\r\n        require(bytes(_imgHash).length > 0);\r\n        require(bytes(_imgSHA3).length > 0);\r\n        require(bytes(_imgSign).length > 0);\r\n        require(bytes(_title).length > 0);\r\n        require(msg.sender != address(0x0));\r\n\r\n        imageCount++;\r\n        images[imageCount] = Image(\r\n            imageCount,\r\n            _imgHash,\r\n            _imgSHA3,\r\n            _imgSign,\r\n            _title, \r\n            payable(msg.sender),payable(msg.sender));\r\n        emit ImageCreated(\r\n            imageCount,\r\n            _imgHash,\r\n            _imgSHA3,\r\n            _imgSign,\r\n            _title, \r\n            payable(msg.sender), payable(msg.sender));\r\n    }\r\n\r\n    function changeOwner(\r\n        uint _id,\r\n        address payable newOwner\r\n        ) public {\r\n        \r\n        if (_id <= 0 || _id > imageCount) return;    \r\n        \r\n        if (tx.origin != images[_id].owner) return;\r\n        if (newOwner == images[_id].owner) return;\r\n        if (newOwner == address(0x0)) return;\r\n\r\n        images[_id].owner = newOwner;\r\n    }\r\n\r\n    function changeSign(uint _id, string memory newSign) public{\r\n      require(_id > 0 && _id <= imageCount );\r\n      require(bytes(newSign).length > 0);\r\n      //get image data\r\n      Image memory _image = images[_id];\r\n      //get Owner's address\r\n      address _owner = _image.owner;\r\n      require(msg.sender == _owner);\r\n\r\n      _image.signature = newSign;\r\n      images[_id] = _image;\r\n    } \r\n\r\n    function getImageOwner(uint imageID) public view returns(address) {\r\n      require(imageID > 0 && imageID <= imageCount );\r\n      return images[imageID].owner;\r\n    }\r\n\r\n    function getImageAuthor(uint imageID) public view returns(address) {\r\n      require(imageID > 0 && imageID <= imageCount );\r\n      return images[imageID].author;\r\n    }\r\n}",
  "sourcePath": "D:\\Fun\\proj12\\Dimage\\contracts\\Release.sol",
  "compiler": {
    "name": "solc",
    "version": "0.8.13+commit.abaa5c0e.Emscripten.clang"
  },
  "schemaVersion": "3.4.5",
  "updatedAt": "2022-04-26T15:52:41.001Z",
  "devdoc": {
    "kind": "dev",
    "methods": {},
    "version": 1
  },
  "userdoc": {
    "kind": "user",
    "methods": {},
    "version": 1
  }
}