{
  "contractName": "Release2",
  "abi": [
    {
      "inputs": [],
      "stateMutability": "nonpayable",
      "type": "constructor"
    },
    {
      "anonymous": false,
      "inputs": [
        {
          "indexed": false,
          "internalType": "uint256",
          "name": "id",
          "type": "uint256"
        },
        {
          "indexed": false,
          "internalType": "uint256",
          "name": "timestamp",
          "type": "uint256"
        },
        {
          "indexed": false,
          "internalType": "bytes32",
          "name": "sha3",
          "type": "bytes32"
        },
        {
          "indexed": false,
          "internalType": "bytes",
          "name": "signature",
          "type": "bytes"
        },
        {
          "indexed": false,
          "internalType": "string",
          "name": "ipfsHash",
          "type": "string"
        },
        {
          "indexed": false,
          "internalType": "address payable",
          "name": "author",
          "type": "address"
        },
        {
          "indexed": false,
          "internalType": "address payable",
          "name": "owner",
          "type": "address"
        }
      ],
      "name": "ImageCreated",
      "type": "event"
    },
    {
      "inputs": [],
      "name": "contractName",
      "outputs": [
        {
          "internalType": "string",
          "name": "",
          "type": "string"
        }
      ],
      "stateMutability": "view",
      "type": "function"
    },
    {
      "inputs": [],
      "name": "imageCount",
      "outputs": [
        {
          "internalType": "uint256",
          "name": "",
          "type": "uint256"
        }
      ],
      "stateMutability": "view",
      "type": "function"
    },
    {
      "inputs": [
        {
          "internalType": "uint256",
          "name": "",
          "type": "uint256"
        }
      ],
      "name": "images",
      "outputs": [
        {
          "internalType": "uint256",
          "name": "id",
          "type": "uint256"
        },
        {
          "internalType": "uint256",
          "name": "timestamp",
          "type": "uint256"
        },
        {
          "internalType": "uint256",
          "name": "txCount",
          "type": "uint256"
        },
        {
          "internalType": "bytes32",
          "name": "sha3",
          "type": "bytes32"
        },
        {
          "internalType": "bytes",
          "name": "signature",
          "type": "bytes"
        },
        {
          "internalType": "string",
          "name": "ipfsHash",
          "type": "string"
        },
        {
          "internalType": "address payable",
          "name": "author",
          "type": "address"
        },
        {
          "internalType": "address payable",
          "name": "owner",
          "type": "address"
        }
      ],
      "stateMutability": "view",
      "type": "function"
    },
    {
      "inputs": [
        {
          "internalType": "bytes32",
          "name": "",
          "type": "bytes32"
        }
      ],
      "name": "released",
      "outputs": [
        {
          "internalType": "uint8",
          "name": "",
          "type": "uint8"
        }
      ],
      "stateMutability": "view",
      "type": "function"
    },
    {
      "inputs": [
        {
          "internalType": "string",
          "name": "_ipfsHash",
          "type": "string"
        },
        {
          "internalType": "bytes32",
          "name": "_imgSHA3",
          "type": "bytes32"
        },
        {
          "internalType": "bytes",
          "name": "_imgSign",
          "type": "bytes"
        }
      ],
      "name": "uploadImage",
      "outputs": [],
      "stateMutability": "nonpayable",
      "type": "function"
    },
    {
      "inputs": [
        {
          "internalType": "uint256",
          "name": "_id",
          "type": "uint256"
        },
        {
          "internalType": "address payable",
          "name": "newOwner",
          "type": "address"
        }
      ],
      "name": "changeOwner",
      "outputs": [],
      "stateMutability": "nonpayable",
      "type": "function"
    },
    {
      "inputs": [
        {
          "internalType": "uint256",
          "name": "_id",
          "type": "uint256"
        }
      ],
      "name": "incTxCount",
      "outputs": [],
      "stateMutability": "nonpayable",
      "type": "function"
    },
    {
      "inputs": [
        {
          "internalType": "uint256",
          "name": "_id",
          "type": "uint256"
        }
      ],
      "name": "getTxCount",
      "outputs": [
        {
          "internalType": "uint256",
          "name": "",
          "type": "uint256"
        }
      ],
      "stateMutability": "view",
      "type": "function"
    },
    {
      "inputs": [
        {
          "internalType": "uint256",
          "name": "_id",
          "type": "uint256"
        },
        {
          "internalType": "bytes",
          "name": "newSign",
          "type": "bytes"
        }
      ],
      "name": "changeSign",
      "outputs": [],
      "stateMutability": "nonpayable",
      "type": "function"
    },
    {
      "inputs": [
        {
          "internalType": "uint256",
          "name": "imageID",
          "type": "uint256"
        }
      ],
      "name": "getImageOwner",
      "outputs": [
        {
          "internalType": "address",
          "name": "",
          "type": "address"
        }
      ],
      "stateMutability": "view",
      "type": "function"
    },
    {
      "inputs": [
        {
          "internalType": "uint256",
          "name": "imageID",
          "type": "uint256"
        }
      ],
      "name": "getImageAuthor",
      "outputs": [
        {
          "internalType": "address",
          "name": "",
          "type": "address"
        }
      ],
      "stateMutability": "view",
      "type": "function"
    },
    {
      "inputs": [
        {
          "internalType": "uint256",
          "name": "imageID",
          "type": "uint256"
        }
      ],
      "name": "getPrevOwner",
      "outputs": [
        {
          "internalType": "address[]",
          "name": "",
          "type": "address[]"
        }
      ],
      "stateMutability": "view",
      "type": "function"
    },
    {
      "inputs": [
        {
          "internalType": "uint256",
          "name": "imageID",
          "type": "uint256"
        },
        {
          "internalType": "bytes32",
          "name": "testSHA3",
          "type": "bytes32"
        }
      ],
      "name": "isSHA3Match",
      "outputs": [
        {
          "internalType": "bool",
          "name": "",
          "type": "bool"
        }
      ],
      "stateMutability": "view",
      "type": "function"
    }
  ],
  "bytecode": "0x608060405260006001553480156200001657600080fd5b506040518060400160405280600781526020017f72656c656173650000000000000000000000000000000000000000000000000081525060009080519060200190620000649291906200006b565b506200017f565b82805462000079906200014a565b90600052602060002090601f0160209004810192826200009d5760008555620000e9565b82601f10620000b857805160ff1916838001178555620000e9565b82800160010185558215620000e9579182015b82811115620000e8578251825591602001919060010190620000cb565b5b509050620000f89190620000fc565b5090565b5b8082111562000117576000816000905550600101620000fd565b5090565b7f4e487b7100000000000000000000000000000000000000000000000000000000600052602260045260246000fd5b600060028204905060018216806200016357607f821691505b6020821081036200017957620001786200011b565b5b50919050565b611fde806200018f6000396000f3fe608060405234801561001057600080fd5b50600436106100ce5760003560e01c8063a6d68ecd1161008c578063cbed3d5211610066578063cbed3d5214610252578063f2d03fcf1461026e578063f413c3bd1461029e578063ff7244c6146102ba576100ce565b8063a6d68ecd146101c2578063a9b11426146101f2578063c5d47daf14610222576100ce565b80627ac14a146100d35780631440bd071461010357806375d0c0dc14610133578063784796f714610151578063848564821461016d57806392053b63146101a4575b600080fd5b6100ed60048036038101906100e891906115be565b6102d6565b6040516100fa9190611619565b60405180910390f35b61011d60048036038101906101189190611634565b61036b565b60405161012a91906116a2565b60405180910390f35b61013b6103c5565b6040516101489190611756565b60405180910390f35b61016b600480360381019061016691906117b6565b610453565b005b61018760048036038101906101829190611634565b610803565b60405161019b989796959493929190611878565b60405180910390f35b6101ac61099b565b6040516101b99190611904565b60405180910390f35b6101dc60048036038101906101d7919061191f565b6109a1565b6040516101e99190611968565b60405180910390f35b61020c60048036038101906102079190611634565b6109c1565b60405161021991906116a2565b60405180910390f35b61023c60048036038101906102379190611634565b610a1b565b6040516102499190611904565b60405180910390f35b61026c60048036038101906102679190611634565b610aa9565b005b61028860048036038101906102839190611634565b610b46565b6040516102959190611a41565b60405180910390f35b6102b860048036038101906102b39190611c39565b610c05565b005b6102d460048036038101906102cf9190611cc4565b610f44565b005b600080831180156102e957506001548311155b6102f257600080fd5b6000600260008581526020019081526020016000206003015460405160200161031b9190611d41565b604051602081830303815290604052905060008360405160200161033f9190611d41565b604051602081830303815290604052905081805190602001208180519060200120149250505092915050565b6000808211801561037e57506001548211155b61038757600080fd5b6002600083815260200190815260200160002060060160009054906101000a900473ffffffffffffffffffffffffffffffffffffffff169050919050565b600080546103d290611d8b565b80601f01602080910402602001604051908101604052809291908181526020018280546103fe90611d8b565b801561044b5780601f106104205761010080835404028352916020019161044b565b820191906000526020600020905b81548152906001019060200180831161042e57829003601f168201915b505050505081565b60006002600084815260200190815260200160002060070160009054906101000a900473ffffffffffffffffffffffffffffffffffffffff169050600080841180156104a157506001548411155b905060008273ffffffffffffffffffffffffffffffffffffffff163273ffffffffffffffffffffffffffffffffffffffff1614905060006002600087815260200190815260200160002060070160009054906101000a900473ffffffffffffffffffffffffffffffffffffffff1673ffffffffffffffffffffffffffffffffffffffff168573ffffffffffffffffffffffffffffffffffffffff16141580156105775750600073ffffffffffffffffffffffffffffffffffffffff168573ffffffffffffffffffffffffffffffffffffffff1614155b90508280156105835750815b801561058c5750805b61059557600080fd5b846002600088815260200190815260200160002060070160006101000a81548173ffffffffffffffffffffffffffffffffffffffff021916908373ffffffffffffffffffffffffffffffffffffffff16021790555060006002600088815260200190815260200160002060080180548060200260200160405190810160405280929190818152602001828054801561068257602002820191906000526020600020905b8160009054906101000a900473ffffffffffffffffffffffffffffffffffffffff1673ffffffffffffffffffffffffffffffffffffffff1681526020019060010190808311610638575b505050505090506000600182516106999190611deb565b90505b600081111561078757600260008981526020019081526020016000206008016001826106c89190611deb565b815481106106d9576106d8611e1f565b5b9060005260206000200160009054906101000a900473ffffffffffffffffffffffffffffffffffffffff16600260008a8152602001908152602001600020600801828154811061072c5761072b611e1f565b5b9060005260206000200160006101000a81548173ffffffffffffffffffffffffffffffffffffffff021916908373ffffffffffffffffffffffffffffffffffffffff160217905550808061077f90611e4e565b91505061069c565b5084600260008981526020019081526020016000206008016000815481106107b2576107b1611e1f565b5b9060005260206000200160006101000a81548173ffffffffffffffffffffffffffffffffffffffff021916908373ffffffffffffffffffffffffffffffffffffffff16021790555050505050505050565b600260205280600052604060002060009150905080600001549080600101549080600201549080600301549080600401805461083e90611d8b565b80601f016020809104026020016040519081016040528092919081815260200182805461086a90611d8b565b80156108b75780601f1061088c576101008083540402835291602001916108b7565b820191906000526020600020905b81548152906001019060200180831161089a57829003601f168201915b5050505050908060050180546108cc90611d8b565b80601f01602080910402602001604051908101604052809291908181526020018280546108f890611d8b565b80156109455780601f1061091a57610100808354040283529160200191610945565b820191906000526020600020905b81548152906001019060200180831161092857829003601f168201915b5050505050908060060160009054906101000a900473ffffffffffffffffffffffffffffffffffffffff16908060070160009054906101000a900473ffffffffffffffffffffffffffffffffffffffff16905088565b60015481565b60036020528060005260406000206000915054906101000a900460ff1681565b600080821180156109d457506001548211155b6109dd57600080fd5b6002600083815260200190815260200160002060070160009054906101000a900473ffffffffffffffffffffffffffffffffffffffff169050919050565b60006002600083815260200190815260200160002060070160009054906101000a900473ffffffffffffffffffffffffffffffffffffffff1673ffffffffffffffffffffffffffffffffffffffff163273ffffffffffffffffffffffffffffffffffffffff1614610a8b57600080fd5b60026000838152602001908152602001600020600201549050919050565b6002600082815260200190815260200160002060070160009054906101000a900473ffffffffffffffffffffffffffffffffffffffff1673ffffffffffffffffffffffffffffffffffffffff163273ffffffffffffffffffffffffffffffffffffffff1614610b1757600080fd5b600260008281526020019081526020016000206002016000815480929190610b3e90611e77565b919050555050565b6060600082118015610b5a57506001548211155b610b6357600080fd5b60026000838152602001908152602001600020600801805480602002602001604051908101604052809291908181526020018280548015610bf957602002820191906000526020600020905b8160009054906101000a900473ffffffffffffffffffffffffffffffffffffffff1673ffffffffffffffffffffffffffffffffffffffff1681526020019060010190808311610baf575b50505050509050919050565b6000835111610c1357600080fd5b6000602060ff1611610c2457600080fd5b6000815111610c3257600080fd5b600073ffffffffffffffffffffffffffffffffffffffff163373ffffffffffffffffffffffffffffffffffffffff1603610c6b57600080fd5b60006003600084815260200190815260200160002060009054906101000a900460ff1660ff1614610cd1576040517f08c379a0000000000000000000000000000000000000000000000000000000008152600401610cc890611f0b565b60405180910390fd5b600042905060016000815480929190610ce990611e77565b91905055506040518061012001604052806001548152602001828152602001600081526020018481526020018381526020018581526020013373ffffffffffffffffffffffffffffffffffffffff1681526020013373ffffffffffffffffffffffffffffffffffffffff168152602001600667ffffffffffffffff811115610d7457610d73611a6d565b5b604051908082528060200260200182016040528015610da25781602001602082028036833780820191505090505b50815250600260006001548152602001908152602001600020600082015181600001556020820151816001015560408201518160020155606082015181600301556080820151816004019080519060200190610dff92919061138b565b5060a0820151816005019080519060200190610e1c929190611411565b5060c08201518160060160006101000a81548173ffffffffffffffffffffffffffffffffffffffff021916908373ffffffffffffffffffffffffffffffffffffffff16021790555060e08201518160070160006101000a81548173ffffffffffffffffffffffffffffffffffffffff021916908373ffffffffffffffffffffffffffffffffffffffff160217905550610100820151816008019080519060200190610ec8929190611497565b5090505060016003600085815260200190815260200160002060006101000a81548160ff021916908360ff1602179055507feaaa352ed5b9b818b17cf311dd6da95f59b00a68659d3946183aa3a6cb4d5ca0600154828585883333604051610f369796959493929190611f2b565b60405180910390a150505050565b600082118015610f5657506001548211155b610f5f57600080fd5b6000815111610f6d57600080fd5b6000600260008481526020019081526020016000206040518061012001604052908160008201548152602001600182015481526020016002820154815260200160038201548152602001600482018054610fc690611d8b565b80601f0160208091040260200160405190810160405280929190818152602001828054610ff290611d8b565b801561103f5780601f106110145761010080835404028352916020019161103f565b820191906000526020600020905b81548152906001019060200180831161102257829003601f168201915b5050505050815260200160058201805461105890611d8b565b80601f016020809104026020016040519081016040528092919081815260200182805461108490611d8b565b80156110d15780601f106110a6576101008083540402835291602001916110d1565b820191906000526020600020905b8154815290600101906020018083116110b457829003601f168201915b505050505081526020016006820160009054906101000a900473ffffffffffffffffffffffffffffffffffffffff1673ffffffffffffffffffffffffffffffffffffffff1673ffffffffffffffffffffffffffffffffffffffff1681526020016007820160009054906101000a900473ffffffffffffffffffffffffffffffffffffffff1673ffffffffffffffffffffffffffffffffffffffff1673ffffffffffffffffffffffffffffffffffffffff1681526020016008820180548060200260200160405190810160405280929190818152602001828054801561120b57602002820191906000526020600020905b8160009054906101000a900473ffffffffffffffffffffffffffffffffffffffff1673ffffffffffffffffffffffffffffffffffffffff16815260200190600101908083116111c1575b505050505081525050905060008160e0015190508073ffffffffffffffffffffffffffffffffffffffff163373ffffffffffffffffffffffffffffffffffffffff161461125757600080fd5b82826080018190525081600260008681526020019081526020016000206000820151816000015560208201518160010155604082015181600201556060820151816003015560808201518160040190805190602001906112b892919061138b565b5060a08201518160050190805190602001906112d5929190611411565b5060c08201518160060160006101000a81548173ffffffffffffffffffffffffffffffffffffffff021916908373ffffffffffffffffffffffffffffffffffffffff16021790555060e08201518160070160006101000a81548173ffffffffffffffffffffffffffffffffffffffff021916908373ffffffffffffffffffffffffffffffffffffffff160217905550610100820151816008019080519060200190611381929190611497565b5090505050505050565b82805461139790611d8b565b90600052602060002090601f0160209004810192826113b95760008555611400565b82601f106113d257805160ff1916838001178555611400565b82800160010185558215611400579182015b828111156113ff5782518255916020019190600101906113e4565b5b50905061140d9190611521565b5090565b82805461141d90611d8b565b90600052602060002090601f01602090048101928261143f5760008555611486565b82601f1061145857805160ff1916838001178555611486565b82800160010185558215611486579182015b8281111561148557825182559160200191906001019061146a565b5b5090506114939190611521565b5090565b828054828255906000526020600020908101928215611510579160200282015b8281111561150f5782518260006101000a81548173ffffffffffffffffffffffffffffffffffffffff021916908373ffffffffffffffffffffffffffffffffffffffff160217905550916020019190600101906114b7565b5b50905061151d9190611521565b5090565b5b8082111561153a576000816000905550600101611522565b5090565b6000604051905090565b600080fd5b600080fd5b6000819050919050565b61156581611552565b811461157057600080fd5b50565b6000813590506115828161155c565b92915050565b6000819050919050565b61159b81611588565b81146115a657600080fd5b50565b6000813590506115b881611592565b92915050565b600080604083850312156115d5576115d4611548565b5b60006115e385828601611573565b92505060206115f4858286016115a9565b9150509250929050565b60008115159050919050565b611613816115fe565b82525050565b600060208201905061162e600083018461160a565b92915050565b60006020828403121561164a57611649611548565b5b600061165884828501611573565b91505092915050565b600073ffffffffffffffffffffffffffffffffffffffff82169050919050565b600061168c82611661565b9050919050565b61169c81611681565b82525050565b60006020820190506116b76000830184611693565b92915050565b600081519050919050565b600082825260208201905092915050565b60005b838110156116f75780820151818401526020810190506116dc565b83811115611706576000848401525b50505050565b6000601f19601f8301169050919050565b6000611728826116bd565b61173281856116c8565b93506117428185602086016116d9565b61174b8161170c565b840191505092915050565b60006020820190508181036000830152611770818461171d565b905092915050565b600061178382611661565b9050919050565b61179381611778565b811461179e57600080fd5b50565b6000813590506117b08161178a565b92915050565b600080604083850312156117cd576117cc611548565b5b60006117db85828601611573565b92505060206117ec858286016117a1565b9150509250929050565b6117ff81611552565b82525050565b61180e81611588565b82525050565b600081519050919050565b600082825260208201905092915050565b600061183b82611814565b611845818561181f565b93506118558185602086016116d9565b61185e8161170c565b840191505092915050565b61187281611778565b82525050565b60006101008201905061188e600083018b6117f6565b61189b602083018a6117f6565b6118a860408301896117f6565b6118b56060830188611805565b81810360808301526118c78187611830565b905081810360a08301526118db818661171d565b90506118ea60c0830185611869565b6118f760e0830184611869565b9998505050505050505050565b600060208201905061191960008301846117f6565b92915050565b60006020828403121561193557611934611548565b5b6000611943848285016115a9565b91505092915050565b600060ff82169050919050565b6119628161194c565b82525050565b600060208201905061197d6000830184611959565b92915050565b600081519050919050565b600082825260208201905092915050565b6000819050602082019050919050565b6119b881611681565b82525050565b60006119ca83836119af565b60208301905092915050565b6000602082019050919050565b60006119ee82611983565b6119f8818561198e565b9350611a038361199f565b8060005b83811015611a34578151611a1b88826119be565b9750611a26836119d6565b925050600181019050611a07565b5085935050505092915050565b60006020820190508181036000830152611a5b81846119e3565b905092915050565b600080fd5b600080fd5b7f4e487b7100000000000000000000000000000000000000000000000000000000600052604160045260246000fd5b611aa58261170c565b810181811067ffffffffffffffff82111715611ac457611ac3611a6d565b5b80604052505050565b6000611ad761153e565b9050611ae38282611a9c565b919050565b600067ffffffffffffffff821115611b0357611b02611a6d565b5b611b0c8261170c565b9050602081019050919050565b82818337600083830152505050565b6000611b3b611b3684611ae8565b611acd565b905082815260208101848484011115611b5757611b56611a68565b5b611b62848285611b19565b509392505050565b600082601f830112611b7f57611b7e611a63565b5b8135611b8f848260208601611b28565b91505092915050565b600067ffffffffffffffff821115611bb357611bb2611a6d565b5b611bbc8261170c565b9050602081019050919050565b6000611bdc611bd784611b98565b611acd565b905082815260208101848484011115611bf857611bf7611a68565b5b611c03848285611b19565b509392505050565b600082601f830112611c2057611c1f611a63565b5b8135611c30848260208601611bc9565b91505092915050565b600080600060608486031215611c5257611c51611548565b5b600084013567ffffffffffffffff811115611c7057611c6f61154d565b5b611c7c86828701611b6a565b9350506020611c8d868287016115a9565b925050604084013567ffffffffffffffff811115611cae57611cad61154d565b5b611cba86828701611c0b565b9150509250925092565b60008060408385031215611cdb57611cda611548565b5b6000611ce985828601611573565b925050602083013567ffffffffffffffff811115611d0a57611d0961154d565b5b611d1685828601611c0b565b9150509250929050565b6000819050919050565b611d3b611d3682611588565b611d20565b82525050565b6000611d4d8284611d2a565b60208201915081905092915050565b7f4e487b7100000000000000000000000000000000000000000000000000000000600052602260045260246000fd5b60006002820490506001821680611da357607f821691505b602082108103611db657611db5611d5c565b5b50919050565b7f4e487b7100000000000000000000000000000000000000000000000000000000600052601160045260246000fd5b6000611df682611552565b9150611e0183611552565b925082821015611e1457611e13611dbc565b5b828203905092915050565b7f4e487b7100000000000000000000000000000000000000000000000000000000600052603260045260246000fd5b6000611e5982611552565b915060008203611e6c57611e6b611dbc565b5b600182039050919050565b6000611e8282611552565b91507fffffffffffffffffffffffffffffffffffffffffffffffffffffffffffffffff8203611eb457611eb3611dbc565b5b600182019050919050565b7f616c726561647920657869737421000000000000000000000000000000000000600082015250565b6000611ef5600e836116c8565b9150611f0082611ebf565b602082019050919050565b60006020820190508181036000830152611f2481611ee8565b9050919050565b600060e082019050611f40600083018a6117f6565b611f4d60208301896117f6565b611f5a6040830188611805565b8181036060830152611f6c8187611830565b90508181036080830152611f80818661171d565b9050611f8f60a0830185611869565b611f9c60c0830184611869565b9897505050505050505056fea264697066735822122043fbaa555ba901e22a2ccbfd5f2c3618f56ddffe2b500bf94658739268f5c9ad64736f6c634300080d0033",
  "immutableReferences": {},
  "source": "// SPDX-License-Identifier: SimPL-2.0\r\npragma solidity ^0.8.12;\r\n\r\ncontract Release2{\r\n    \r\n    string public contractName;\r\n    uint public imageCount = 0;\r\n    mapping(uint => Image) public images;\r\n    mapping(bytes32 => uint8) public released;\r\n    \r\n    struct Image {\r\n        uint id;\r\n        uint timestamp;\r\n        uint txCount;\r\n\r\n        bytes32 sha3;\r\n        bytes signature;\r\n        string ipfsHash;\r\n        \r\n        address payable author;\r\n        address payable owner;\r\n\r\n        address[] prevOwners;\r\n    }\r\n\r\n    event ImageCreated(\r\n        uint id,\r\n        uint timestamp,\r\n        bytes32 sha3,\r\n        bytes signature,\r\n        string ipfsHash,\r\n        address payable author,\r\n        address payable owner\r\n    );\r\n\r\n    constructor()  {\r\n      contractName = \"release\";\r\n    }\r\n    \r\n    function uploadImage(\r\n        string memory _ipfsHash,\r\n        bytes32       _imgSHA3, \r\n        bytes  memory _imgSign\r\n        ) public {\r\n        //check requires\r\n        require(bytes(_ipfsHash).length > 0);\r\n        require(_imgSHA3.length > 0);\r\n        require(_imgSign.length > 0);\r\n        require(msg.sender != address(0x0));\r\n        require(released[_imgSHA3] == 0, \"already exist!\");\r\n\r\n        uint time = block.timestamp;\r\n        imageCount++;\r\n        images[imageCount] = Image(\r\n            imageCount,\r\n            time,\r\n            0,\r\n            _imgSHA3,\r\n            _imgSign,\r\n            _ipfsHash,\r\n            payable(msg.sender),\r\n            payable(msg.sender),\r\n            new address[](6)\r\n            );\r\n\r\n        released[_imgSHA3] = 1;\r\n\r\n        emit ImageCreated(\r\n            imageCount,\r\n            time,\r\n            _imgSHA3,\r\n            _imgSign,\r\n            _ipfsHash,\r\n            payable(msg.sender), payable(msg.sender));\r\n    }\r\n\r\n    function changeOwner(\r\n        uint _id,\r\n        address payable newOwner\r\n        ) public {\r\n        \r\n        address oldOwner = images[_id].owner;\r\n        bool FlagID = _id > 0 && _id <= imageCount;\r\n        bool FlagOldOwner = (tx.origin ==  oldOwner);\r\n        bool FlagNewOwner = (newOwner != images[_id].owner) && (newOwner != address(0x0));\r\n        // if (_id <= 0 || _id > imageCount) return;    \r\n        // if (tx.origin != images[_id].owner) return;\r\n        // if (newOwner == images[_id].owner) return;\r\n        // if (newOwner == address(0x0)) return;\r\n\r\n        require(FlagID && FlagOldOwner && FlagNewOwner);\r\n\r\n        images[_id].owner = newOwner;\r\n        \r\n        address[] memory prevOwnerTemp = images[_id].prevOwners;\r\n        for (uint i = prevOwnerTemp.length-1; i>0 ; i--) {\r\n          images[_id].prevOwners[i] = images[_id].prevOwners[i-1]; \r\n        }\r\n        images[_id].prevOwners[0] = oldOwner;\r\n    }\r\n\r\n    function incTxCount(uint _id) public {\r\n      require(tx.origin == images[_id].owner);\r\n      images[_id].txCount++;\r\n    }\r\n\r\n    function getTxCount(uint _id) public view returns(uint){\r\n      require(tx.origin == images[_id].owner);\r\n      return images[_id].txCount;\r\n    }\r\n\r\n    function changeSign(uint _id, bytes memory newSign) public{\r\n      require(_id > 0 && _id <= imageCount );\r\n      require(newSign.length > 0);\r\n      //get image data\r\n      Image memory _image = images[_id];\r\n      //get Owner's address\r\n      address _owner = _image.owner;\r\n      require(msg.sender == _owner);\r\n\r\n      _image.signature = newSign;\r\n      images[_id] = _image;\r\n    } \r\n\r\n    function getImageOwner(uint imageID) public view returns(address) {\r\n      require(imageID > 0 && imageID <= imageCount );\r\n      return images[imageID].owner;\r\n    }\r\n\r\n    function getImageAuthor(uint imageID) public view returns(address) {\r\n      require(imageID > 0 && imageID <= imageCount );\r\n      return images[imageID].author;\r\n    }\r\n\r\n    function getPrevOwner(uint imageID) public view returns(address[] memory) {\r\n      require(imageID > 0 && imageID <= imageCount );\r\n      return images[imageID].prevOwners;\r\n    }\r\n\r\n    function isSHA3Match(uint imageID, bytes32 testSHA3) public view returns(bool) {\r\n      require(imageID > 0 && imageID <= imageCount );\r\n      bytes memory SHA3 = abi.encodePacked(images[imageID].sha3);\r\n      bytes memory tester = abi.encodePacked(testSHA3);\r\n      return keccak256(tester) == keccak256(SHA3);\r\n      \r\n    }\r\n\r\n    \r\n}",
  "sourcePath": "D:\\Fun\\proj12\\Dimage\\contracts\\Release2.sol",
  "compiler": {
    "name": "solc",
    "version": "0.8.13+commit.abaa5c0e.Emscripten.clang"
  },
  "schemaVersion": "3.4.5",
  "updatedAt": "2022-05-05T15:49:25.164Z",
  "devdoc": {
    "kind": "dev",
    "methods": {},
    "version": 1
  },
  "userdoc": {
    "kind": "user",
    "methods": {},
    "version": 1
  }
}