{
  "contractName": "Release",
  "abi": [
    {
      "inputs": [],
      "stateMutability": "nonpayable",
      "type": "constructor"
    },
    {
      "anonymous": false,
      "inputs": [
        {
          "indexed": false,
          "internalType": "uint256",
          "name": "id",
          "type": "uint256"
        },
        {
          "indexed": false,
          "internalType": "uint256",
          "name": "timestamp",
          "type": "uint256"
        },
        {
          "indexed": false,
          "internalType": "bytes32",
          "name": "sha3",
          "type": "bytes32"
        },
        {
          "indexed": false,
          "internalType": "bytes",
          "name": "signature",
          "type": "bytes"
        },
        {
          "indexed": false,
          "internalType": "string",
          "name": "ipfsHash",
          "type": "string"
        },
        {
          "indexed": false,
          "internalType": "address payable",
          "name": "author",
          "type": "address"
        },
        {
          "indexed": false,
          "internalType": "address payable",
          "name": "owner",
          "type": "address"
        }
      ],
      "name": "ImageCreated",
      "type": "event"
    },
    {
      "inputs": [],
      "name": "contractName",
      "outputs": [
        {
          "internalType": "string",
          "name": "",
          "type": "string"
        }
      ],
      "stateMutability": "view",
      "type": "function",
      "constant": true
    },
    {
      "inputs": [],
      "name": "imageCount",
      "outputs": [
        {
          "internalType": "uint256",
          "name": "",
          "type": "uint256"
        }
      ],
      "stateMutability": "view",
      "type": "function",
      "constant": true
    },
    {
      "inputs": [
        {
          "internalType": "uint256",
          "name": "",
          "type": "uint256"
        }
      ],
      "name": "images",
      "outputs": [
        {
          "internalType": "uint256",
          "name": "id",
          "type": "uint256"
        },
        {
          "internalType": "uint256",
          "name": "timestamp",
          "type": "uint256"
        },
        {
          "internalType": "bytes32",
          "name": "sha3",
          "type": "bytes32"
        },
        {
          "internalType": "bytes",
          "name": "signature",
          "type": "bytes"
        },
        {
          "internalType": "string",
          "name": "ipfsHash",
          "type": "string"
        },
        {
          "internalType": "address payable",
          "name": "author",
          "type": "address"
        },
        {
          "internalType": "address payable",
          "name": "owner",
          "type": "address"
        }
      ],
      "stateMutability": "view",
      "type": "function",
      "constant": true
    },
    {
      "inputs": [
        {
          "internalType": "bytes32",
          "name": "",
          "type": "bytes32"
        }
      ],
      "name": "released",
      "outputs": [
        {
          "internalType": "uint8",
          "name": "",
          "type": "uint8"
        }
      ],
      "stateMutability": "view",
      "type": "function",
      "constant": true
    },
    {
      "inputs": [
        {
          "internalType": "string",
          "name": "_ipfsHash",
          "type": "string"
        },
        {
          "internalType": "bytes32",
          "name": "_imgSHA3",
          "type": "bytes32"
        },
        {
          "internalType": "bytes",
          "name": "_imgSign",
          "type": "bytes"
        }
      ],
      "name": "uploadImage",
      "outputs": [],
      "stateMutability": "nonpayable",
      "type": "function"
    },
    {
      "inputs": [
        {
          "internalType": "uint256",
          "name": "_id",
          "type": "uint256"
        },
        {
          "internalType": "address payable",
          "name": "newOwner",
          "type": "address"
        }
      ],
      "name": "changeOwner",
      "outputs": [],
      "stateMutability": "nonpayable",
      "type": "function"
    },
    {
      "inputs": [
        {
          "internalType": "uint256",
          "name": "_id",
          "type": "uint256"
        },
        {
          "internalType": "bytes",
          "name": "newSign",
          "type": "bytes"
        }
      ],
      "name": "changeSign",
      "outputs": [],
      "stateMutability": "nonpayable",
      "type": "function"
    },
    {
      "inputs": [
        {
          "internalType": "uint256",
          "name": "imageID",
          "type": "uint256"
        }
      ],
      "name": "getImageOwner",
      "outputs": [
        {
          "internalType": "address",
          "name": "",
          "type": "address"
        }
      ],
      "stateMutability": "view",
      "type": "function",
      "constant": true
    },
    {
      "inputs": [
        {
          "internalType": "uint256",
          "name": "imageID",
          "type": "uint256"
        }
      ],
      "name": "getImageAuthor",
      "outputs": [
        {
          "internalType": "address",
          "name": "",
          "type": "address"
        }
      ],
      "stateMutability": "view",
      "type": "function",
      "constant": true
    },
    {
      "inputs": [
        {
          "internalType": "uint256",
          "name": "imageID",
          "type": "uint256"
        },
        {
          "internalType": "bytes32",
          "name": "testSHA3",
          "type": "bytes32"
        }
      ],
      "name": "isSHA3Match",
      "outputs": [
        {
          "internalType": "bool",
          "name": "",
          "type": "bool"
        }
      ],
      "stateMutability": "view",
      "type": "function",
      "constant": true
    }
  ],
  "bytecode": "0x608060405260006001553480156200001657600080fd5b506040518060400160405280600781526020017f72656c656173650000000000000000000000000000000000000000000000000081525060009080519060200190620000649291906200006b565b506200017f565b82805462000079906200014a565b90600052602060002090601f0160209004810192826200009d5760008555620000e9565b82601f10620000b857805160ff1916838001178555620000e9565b82800160010185558215620000e9579182015b82811115620000e8578251825591602001919060010190620000cb565b5b509050620000f89190620000fc565b5090565b5b8082111562000117576000816000905550600101620000fd565b5090565b7f4e487b7100000000000000000000000000000000000000000000000000000000600052602260045260246000fd5b600060028204905060018216806200016357607f821691505b6020821081036200017957620001786200011b565b5b50919050565b611767806200018f6000396000f3fe608060405234801561001057600080fd5b506004361061009d5760003560e01c806392053b631161006657806392053b6314610172578063a6d68ecd14610190578063a9b11426146101c0578063f413c3bd146101f0578063ff7244c61461020c5761009d565b80627ac14a146100a25780631440bd07146100d257806375d0c0dc14610102578063784796f714610120578063848564821461013c575b600080fd5b6100bc60048036038101906100b79190610f3f565b610228565b6040516100c99190610f9a565b60405180910390f35b6100ec60048036038101906100e79190610fb5565b6102bd565b6040516100f99190611023565b60405180910390f35b61010a610317565b60405161011791906110d7565b60405180910390f35b61013a60048036038101906101359190611137565b6103a5565b005b61015660048036038101906101519190610fb5565b61053e565b60405161016997969594939291906111f9565b60405180910390f35b61017a6106d0565b6040516101879190611276565b60405180910390f35b6101aa60048036038101906101a59190611291565b6106d6565b6040516101b791906112da565b60405180910390f35b6101da60048036038101906101d59190610fb5565b6106f6565b6040516101e79190611023565b60405180910390f35b61020a600480360381019061020591906114cb565b610750565b005b61022660048036038101906102219190611556565b610a10565b005b6000808311801561023b57506001548311155b61024457600080fd5b6000600260008581526020019081526020016000206002015460405160200161026d91906115d3565b604051602081830303815290604052905060008360405160200161029191906115d3565b604051602081830303815290604052905081805190602001208180519060200120149250505092915050565b600080821180156102d057506001548211155b6102d957600080fd5b6002600083815260200190815260200160002060050160009054906101000a900473ffffffffffffffffffffffffffffffffffffffff169050919050565b600080546103249061161d565b80601f01602080910402602001604051908101604052809291908181526020018280546103509061161d565b801561039d5780601f106103725761010080835404028352916020019161039d565b820191906000526020600020905b81548152906001019060200180831161038057829003601f168201915b505050505081565b600080831180156103b857506001548311155b905060006002600085815260200190815260200160002060060160009054906101000a900473ffffffffffffffffffffffffffffffffffffffff1673ffffffffffffffffffffffffffffffffffffffff163273ffffffffffffffffffffffffffffffffffffffff1614905060006002600086815260200190815260200160002060060160009054906101000a900473ffffffffffffffffffffffffffffffffffffffff1673ffffffffffffffffffffffffffffffffffffffff168473ffffffffffffffffffffffffffffffffffffffff16141580156104c45750600073ffffffffffffffffffffffffffffffffffffffff168473ffffffffffffffffffffffffffffffffffffffff1614155b90508280156104d05750815b80156104d95750805b6104e257600080fd5b836002600087815260200190815260200160002060060160006101000a81548173ffffffffffffffffffffffffffffffffffffffff021916908373ffffffffffffffffffffffffffffffffffffffff1602179055505050505050565b60026020528060005260406000206000915090508060000154908060010154908060020154908060030180546105739061161d565b80601f016020809104026020016040519081016040528092919081815260200182805461059f9061161d565b80156105ec5780601f106105c1576101008083540402835291602001916105ec565b820191906000526020600020905b8154815290600101906020018083116105cf57829003601f168201915b5050505050908060040180546106019061161d565b80601f016020809104026020016040519081016040528092919081815260200182805461062d9061161d565b801561067a5780601f1061064f5761010080835404028352916020019161067a565b820191906000526020600020905b81548152906001019060200180831161065d57829003601f168201915b5050505050908060050160009054906101000a900473ffffffffffffffffffffffffffffffffffffffff16908060060160009054906101000a900473ffffffffffffffffffffffffffffffffffffffff16905087565b60015481565b60036020528060005260406000206000915054906101000a900460ff1681565b6000808211801561070957506001548211155b61071257600080fd5b6002600083815260200190815260200160002060060160009054906101000a900473ffffffffffffffffffffffffffffffffffffffff169050919050565b600083511161075e57600080fd5b6000602060ff161161076f57600080fd5b600081511161077d57600080fd5b600073ffffffffffffffffffffffffffffffffffffffff163373ffffffffffffffffffffffffffffffffffffffff16036107b657600080fd5b60006003600084815260200190815260200160002060009054906101000a900460ff1660ff161461081c576040517f08c379a00000000000000000000000000000000000000000000000000000000081526004016108139061169a565b60405180910390fd5b600042905060016000815480929190610834906116e9565b91905055506040518060e0016040528060015481526020018281526020018481526020018381526020018581526020013373ffffffffffffffffffffffffffffffffffffffff1681526020013373ffffffffffffffffffffffffffffffffffffffff1681525060026000600154815260200190815260200160002060008201518160000155602082015181600101556040820151816002015560608201518160030190805190602001906108e9929190610d96565b506080820151816004019080519060200190610906929190610e1c565b5060a08201518160050160006101000a81548173ffffffffffffffffffffffffffffffffffffffff021916908373ffffffffffffffffffffffffffffffffffffffff16021790555060c08201518160060160006101000a81548173ffffffffffffffffffffffffffffffffffffffff021916908373ffffffffffffffffffffffffffffffffffffffff16021790555090505060016003600085815260200190815260200160002060006101000a81548160ff021916908360ff1602179055507feaaa352ed5b9b818b17cf311dd6da95f59b00a68659d3946183aa3a6cb4d5ca0600154828585883333604051610a0297969594939291906111f9565b60405180910390a150505050565b600082118015610a2257506001548211155b610a2b57600080fd5b6000815111610a3957600080fd5b6000600260008481526020019081526020016000206040518060e0016040529081600082015481526020016001820154815260200160028201548152602001600382018054610a879061161d565b80601f0160208091040260200160405190810160405280929190818152602001828054610ab39061161d565b8015610b005780601f10610ad557610100808354040283529160200191610b00565b820191906000526020600020905b815481529060010190602001808311610ae357829003601f168201915b50505050508152602001600482018054610b199061161d565b80601f0160208091040260200160405190810160405280929190818152602001828054610b459061161d565b8015610b925780601f10610b6757610100808354040283529160200191610b92565b820191906000526020600020905b815481529060010190602001808311610b7557829003601f168201915b505050505081526020016005820160009054906101000a900473ffffffffffffffffffffffffffffffffffffffff1673ffffffffffffffffffffffffffffffffffffffff1673ffffffffffffffffffffffffffffffffffffffff1681526020016006820160009054906101000a900473ffffffffffffffffffffffffffffffffffffffff1673ffffffffffffffffffffffffffffffffffffffff1673ffffffffffffffffffffffffffffffffffffffff1681525050905060008160c0015190508073ffffffffffffffffffffffffffffffffffffffff163373ffffffffffffffffffffffffffffffffffffffff1614610c8a57600080fd5b82826060018190525081600260008681526020019081526020016000206000820151816000015560208201518160010155604082015181600201556060820151816003019080519060200190610ce1929190610d96565b506080820151816004019080519060200190610cfe929190610e1c565b5060a08201518160050160006101000a81548173ffffffffffffffffffffffffffffffffffffffff021916908373ffffffffffffffffffffffffffffffffffffffff16021790555060c08201518160060160006101000a81548173ffffffffffffffffffffffffffffffffffffffff021916908373ffffffffffffffffffffffffffffffffffffffff16021790555090505050505050565b828054610da29061161d565b90600052602060002090601f016020900481019282610dc45760008555610e0b565b82601f10610ddd57805160ff1916838001178555610e0b565b82800160010185558215610e0b579182015b82811115610e0a578251825591602001919060010190610def565b5b509050610e189190610ea2565b5090565b828054610e289061161d565b90600052602060002090601f016020900481019282610e4a5760008555610e91565b82601f10610e6357805160ff1916838001178555610e91565b82800160010185558215610e91579182015b82811115610e90578251825591602001919060010190610e75565b5b509050610e9e9190610ea2565b5090565b5b80821115610ebb576000816000905550600101610ea3565b5090565b6000604051905090565b600080fd5b600080fd5b6000819050919050565b610ee681610ed3565b8114610ef157600080fd5b50565b600081359050610f0381610edd565b92915050565b6000819050919050565b610f1c81610f09565b8114610f2757600080fd5b50565b600081359050610f3981610f13565b92915050565b60008060408385031215610f5657610f55610ec9565b5b6000610f6485828601610ef4565b9250506020610f7585828601610f2a565b9150509250929050565b60008115159050919050565b610f9481610f7f565b82525050565b6000602082019050610faf6000830184610f8b565b92915050565b600060208284031215610fcb57610fca610ec9565b5b6000610fd984828501610ef4565b91505092915050565b600073ffffffffffffffffffffffffffffffffffffffff82169050919050565b600061100d82610fe2565b9050919050565b61101d81611002565b82525050565b60006020820190506110386000830184611014565b92915050565b600081519050919050565b600082825260208201905092915050565b60005b8381101561107857808201518184015260208101905061105d565b83811115611087576000848401525b50505050565b6000601f19601f8301169050919050565b60006110a98261103e565b6110b38185611049565b93506110c381856020860161105a565b6110cc8161108d565b840191505092915050565b600060208201905081810360008301526110f1818461109e565b905092915050565b600061110482610fe2565b9050919050565b611114816110f9565b811461111f57600080fd5b50565b6000813590506111318161110b565b92915050565b6000806040838503121561114e5761114d610ec9565b5b600061115c85828601610ef4565b925050602061116d85828601611122565b9150509250929050565b61118081610ed3565b82525050565b61118f81610f09565b82525050565b600081519050919050565b600082825260208201905092915050565b60006111bc82611195565b6111c681856111a0565b93506111d681856020860161105a565b6111df8161108d565b840191505092915050565b6111f3816110f9565b82525050565b600060e08201905061120e600083018a611177565b61121b6020830189611177565b6112286040830188611186565b818103606083015261123a81876111b1565b9050818103608083015261124e818661109e565b905061125d60a08301856111ea565b61126a60c08301846111ea565b98975050505050505050565b600060208201905061128b6000830184611177565b92915050565b6000602082840312156112a7576112a6610ec9565b5b60006112b584828501610f2a565b91505092915050565b600060ff82169050919050565b6112d4816112be565b82525050565b60006020820190506112ef60008301846112cb565b92915050565b600080fd5b600080fd5b7f4e487b7100000000000000000000000000000000000000000000000000000000600052604160045260246000fd5b6113378261108d565b810181811067ffffffffffffffff82111715611356576113556112ff565b5b80604052505050565b6000611369610ebf565b9050611375828261132e565b919050565b600067ffffffffffffffff821115611395576113946112ff565b5b61139e8261108d565b9050602081019050919050565b82818337600083830152505050565b60006113cd6113c88461137a565b61135f565b9050828152602081018484840111156113e9576113e86112fa565b5b6113f48482856113ab565b509392505050565b600082601f830112611411576114106112f5565b5b81356114218482602086016113ba565b91505092915050565b600067ffffffffffffffff821115611445576114446112ff565b5b61144e8261108d565b9050602081019050919050565b600061146e6114698461142a565b61135f565b90508281526020810184848401111561148a576114896112fa565b5b6114958482856113ab565b509392505050565b600082601f8301126114b2576114b16112f5565b5b81356114c284826020860161145b565b91505092915050565b6000806000606084860312156114e4576114e3610ec9565b5b600084013567ffffffffffffffff81111561150257611501610ece565b5b61150e868287016113fc565b935050602061151f86828701610f2a565b925050604084013567ffffffffffffffff8111156115405761153f610ece565b5b61154c8682870161149d565b9150509250925092565b6000806040838503121561156d5761156c610ec9565b5b600061157b85828601610ef4565b925050602083013567ffffffffffffffff81111561159c5761159b610ece565b5b6115a88582860161149d565b9150509250929050565b6000819050919050565b6115cd6115c882610f09565b6115b2565b82525050565b60006115df82846115bc565b60208201915081905092915050565b7f4e487b7100000000000000000000000000000000000000000000000000000000600052602260045260246000fd5b6000600282049050600182168061163557607f821691505b602082108103611648576116476115ee565b5b50919050565b7f616c726561647920657869737421000000000000000000000000000000000000600082015250565b6000611684600e83611049565b915061168f8261164e565b602082019050919050565b600060208201905081810360008301526116b381611677565b9050919050565b7f4e487b7100000000000000000000000000000000000000000000000000000000600052601160045260246000fd5b60006116f482610ed3565b91507fffffffffffffffffffffffffffffffffffffffffffffffffffffffffffffffff8203611726576117256116ba565b5b60018201905091905056fea26469706673582212202c81d9fa8e37d086e997f8f028032136174e17b0665b3a2457782fc563ec695d64736f6c634300080d0033",
  "immutableReferences": {},
  "source": "// SPDX-License-Identifier: SimPL-2.0\r\npragma solidity ^0.8.12;\r\n\r\ncontract Release{\r\n    \r\n    string public contractName;\r\n    uint public imageCount = 0;\r\n    mapping(uint => Image) public images;\r\n    mapping(bytes32 => uint8) public released;\r\n    \r\n    struct Image {\r\n        uint id;\r\n        uint timestamp;\r\n        bytes32 sha3;\r\n        bytes signature;\r\n        string ipfsHash;\r\n        address payable author;\r\n        address payable owner;\r\n    }\r\n\r\n    event ImageCreated(\r\n        uint id,\r\n        uint timestamp,\r\n        bytes32 sha3,\r\n        bytes signature,\r\n        string ipfsHash,\r\n        address payable author,\r\n        address payable owner\r\n    );\r\n\r\n    constructor()  {\r\n      contractName = \"release\";\r\n    }\r\n    \r\n    function uploadImage(\r\n        string memory _ipfsHash,\r\n        bytes32       _imgSHA3, \r\n        bytes  memory _imgSign\r\n        ) public {\r\n        //check requires\r\n        require(bytes(_ipfsHash).length > 0);\r\n        require(_imgSHA3.length > 0);\r\n        require(_imgSign.length > 0);\r\n        require(msg.sender != address(0x0));\r\n        require(released[_imgSHA3] == 0, \"already exist!\");\r\n\r\n        uint time = block.timestamp;\r\n        imageCount++;\r\n        images[imageCount] = Image(\r\n            imageCount,\r\n            time,\r\n            _imgSHA3,\r\n            _imgSign,\r\n            _ipfsHash,\r\n            payable(msg.sender),payable(msg.sender));\r\n        released[_imgSHA3] = 1;\r\n\r\n        emit ImageCreated(\r\n            imageCount,\r\n            time,\r\n            _imgSHA3,\r\n            _imgSign,\r\n            _ipfsHash,\r\n            payable(msg.sender), payable(msg.sender));\r\n    }\r\n\r\n    function changeOwner(\r\n        uint _id,\r\n        address payable newOwner\r\n        ) public {\r\n        \r\n        bool FlagID = _id > 0 && _id <= imageCount;\r\n        bool FlagOldOwner = tx.origin == images[_id].owner;\r\n        bool FlagNewOwner = newOwner != images[_id].owner && newOwner != address(0x0);\r\n        // if (_id <= 0 || _id > imageCount) return;    \r\n        // if (tx.origin != images[_id].owner) return;\r\n        // if (newOwner == images[_id].owner) return;\r\n        // if (newOwner == address(0x0)) return;\r\n        require(FlagID && FlagOldOwner && FlagNewOwner);\r\n\r\n        images[_id].owner = newOwner;\r\n    }\r\n\r\n    function changeSign(uint _id, bytes memory newSign) public{\r\n      require(_id > 0 && _id <= imageCount );\r\n      require(newSign.length > 0);\r\n      //get image data\r\n      Image memory _image = images[_id];\r\n      //get Owner's address\r\n      address _owner = _image.owner;\r\n      require(msg.sender == _owner);\r\n\r\n      _image.signature = newSign;\r\n      images[_id] = _image;\r\n    } \r\n\r\n    function getImageOwner(uint imageID) public view returns(address) {\r\n      require(imageID > 0 && imageID <= imageCount );\r\n      return images[imageID].owner;\r\n    }\r\n\r\n    function getImageAuthor(uint imageID) public view returns(address) {\r\n      require(imageID > 0 && imageID <= imageCount );\r\n      return images[imageID].author;\r\n    }\r\n\r\n    function isSHA3Match(uint imageID, bytes32 testSHA3) public view returns(bool) {\r\n      require(imageID > 0 && imageID <= imageCount );\r\n      bytes memory SHA3 = abi.encodePacked(images[imageID].sha3);\r\n      bytes memory tester = abi.encodePacked(testSHA3);\r\n      return keccak256(tester) == keccak256(SHA3);\r\n      \r\n    }\r\n\r\n    \r\n}",
  "sourcePath": "D:\\Fun\\proj12\\Dimage\\contracts\\Release.sol",
  "compiler": {
    "name": "solc",
    "version": "0.8.13+commit.abaa5c0e.Emscripten.clang"
  },
  "schemaVersion": "3.4.5",
  "updatedAt": "2022-05-01T02:57:52.439Z",
  "networkType": "ethereum",
  "devdoc": {
    "kind": "dev",
    "methods": {},
    "version": 1
  },
  "userdoc": {
    "kind": "user",
    "methods": {},
    "version": 1
  }
}