{
  "contractName": "Release",
  "abi": [
    {
      "inputs": [],
      "stateMutability": "nonpayable",
      "type": "constructor"
    },
    {
      "anonymous": false,
      "inputs": [
        {
          "indexed": false,
          "internalType": "uint256",
          "name": "id",
          "type": "uint256"
        },
        {
          "indexed": false,
          "internalType": "string",
          "name": "hash",
          "type": "string"
        },
        {
          "indexed": false,
          "internalType": "string",
          "name": "sha3",
          "type": "string"
        },
        {
          "indexed": false,
          "internalType": "string",
          "name": "signature",
          "type": "string"
        },
        {
          "indexed": false,
          "internalType": "string",
          "name": "title",
          "type": "string"
        },
        {
          "indexed": false,
          "internalType": "address payable",
          "name": "author",
          "type": "address"
        },
        {
          "indexed": false,
          "internalType": "address payable",
          "name": "owner",
          "type": "address"
        }
      ],
      "name": "ImageCreated",
      "type": "event"
    },
    {
      "inputs": [],
      "name": "contractName",
      "outputs": [
        {
          "internalType": "string",
          "name": "",
          "type": "string"
        }
      ],
      "stateMutability": "view",
      "type": "function"
    },
    {
      "inputs": [],
      "name": "imageCount",
      "outputs": [
        {
          "internalType": "uint256",
          "name": "",
          "type": "uint256"
        }
      ],
      "stateMutability": "view",
      "type": "function"
    },
    {
      "inputs": [
        {
          "internalType": "uint256",
          "name": "",
          "type": "uint256"
        }
      ],
      "name": "images",
      "outputs": [
        {
          "internalType": "uint256",
          "name": "id",
          "type": "uint256"
        },
        {
          "internalType": "string",
          "name": "hash",
          "type": "string"
        },
        {
          "internalType": "string",
          "name": "sha3",
          "type": "string"
        },
        {
          "internalType": "string",
          "name": "signature",
          "type": "string"
        },
        {
          "internalType": "string",
          "name": "title",
          "type": "string"
        },
        {
          "internalType": "address payable",
          "name": "author",
          "type": "address"
        },
        {
          "internalType": "address payable",
          "name": "owner",
          "type": "address"
        }
      ],
      "stateMutability": "view",
      "type": "function"
    },
    {
      "inputs": [
        {
          "internalType": "string",
          "name": "_imgHash",
          "type": "string"
        },
        {
          "internalType": "string",
          "name": "_imgSHA3",
          "type": "string"
        },
        {
          "internalType": "string",
          "name": "_imgSign",
          "type": "string"
        },
        {
          "internalType": "string",
          "name": "_title",
          "type": "string"
        }
      ],
      "name": "uploadImage",
      "outputs": [],
      "stateMutability": "nonpayable",
      "type": "function"
    },
    {
      "inputs": [
        {
          "internalType": "uint256",
          "name": "_id",
          "type": "uint256"
        },
        {
          "internalType": "address payable",
          "name": "newOwner",
          "type": "address"
        }
      ],
      "name": "changeOwner",
      "outputs": [],
      "stateMutability": "nonpayable",
      "type": "function"
    },
    {
      "inputs": [
        {
          "internalType": "uint256",
          "name": "_id",
          "type": "uint256"
        },
        {
          "internalType": "string",
          "name": "newSign",
          "type": "string"
        }
      ],
      "name": "changeSign",
      "outputs": [],
      "stateMutability": "nonpayable",
      "type": "function"
    },
    {
      "inputs": [
        {
          "internalType": "uint256",
          "name": "imageID",
          "type": "uint256"
        }
      ],
      "name": "getImageOwner",
      "outputs": [
        {
          "internalType": "address",
          "name": "",
          "type": "address"
        }
      ],
      "stateMutability": "view",
      "type": "function"
    },
    {
      "inputs": [
        {
          "internalType": "uint256",
          "name": "imageID",
          "type": "uint256"
        }
      ],
      "name": "getImageAuthor",
      "outputs": [
        {
          "internalType": "address",
          "name": "",
          "type": "address"
        }
      ],
      "stateMutability": "view",
      "type": "function"
    },
    {
      "inputs": [
        {
          "internalType": "uint256",
          "name": "imageID",
          "type": "uint256"
        },
        {
          "internalType": "string",
          "name": "testSHA3",
          "type": "string"
        }
      ],
      "name": "isSHA3Match",
      "outputs": [
        {
          "internalType": "bool",
          "name": "",
          "type": "bool"
        }
      ],
      "stateMutability": "view",
      "type": "function"
    }
  ],
  "bytecode": "0x608060405260006001553480156200001657600080fd5b506040518060400160405280600781526020017f72656c656173650000000000000000000000000000000000000000000000000081525060009080519060200190620000649291906200006b565b506200017f565b82805462000079906200014a565b90600052602060002090601f0160209004810192826200009d5760008555620000e9565b82601f10620000b857805160ff1916838001178555620000e9565b82800160010185558215620000e9579182015b82811115620000e8578251825591602001919060010190620000cb565b5b509050620000f89190620000fc565b5090565b5b8082111562000117576000816000905550600101620000fd565b5090565b7f4e487b7100000000000000000000000000000000000000000000000000000000600052602260045260246000fd5b600060028204905060018216806200016357607f821691505b6020821081036200017957620001786200011b565b5b50919050565b611691806200018f6000396000f3fe608060405234801561001057600080fd5b50600436106100935760003560e01c8063784796f711610066578063784796f714610132578063848564821461014e57806392053b6314610184578063a9b11426146101a2578063fdfc8873146101d257610093565b80631440bd071461009857806350a07b6f146100c85780635ec26dd6146100e457806375d0c0dc14610114575b600080fd5b6100b260048036038101906100ad9190611060565b6101ee565b6040516100bf91906110ce565b60405180910390f35b6100e260048036038101906100dd919061122f565b610248565b005b6100fe60048036038101906100f9919061122f565b610704565b60405161010b91906112a6565b60405180910390f35b61011c6107f1565b6040516101299190611349565b60405180910390f35b61014c600480360381019061014791906113a9565b61087f565b005b61016860048036038101906101639190611060565b610a18565b60405161017b9796959493929190611407565b60405180910390f35b61018c610cba565b6040516101999190611492565b60405180910390f35b6101bc60048036038101906101b79190611060565b610cc0565b6040516101c991906110ce565b60405180910390f35b6101ec60048036038101906101e791906114ad565b610d1a565b005b6000808211801561020157506001548211155b61020a57600080fd5b6002600083815260200190815260200160002060050160009054906101000a900473ffffffffffffffffffffffffffffffffffffffff169050919050565b60008211801561025a57506001548211155b61026357600080fd5b600081511161027157600080fd5b6000600260008481526020019081526020016000206040518060e0016040529081600082015481526020016001820180546102ab906115b3565b80601f01602080910402602001604051908101604052809291908181526020018280546102d7906115b3565b80156103245780601f106102f957610100808354040283529160200191610324565b820191906000526020600020905b81548152906001019060200180831161030757829003601f168201915b5050505050815260200160028201805461033d906115b3565b80601f0160208091040260200160405190810160405280929190818152602001828054610369906115b3565b80156103b65780601f1061038b576101008083540402835291602001916103b6565b820191906000526020600020905b81548152906001019060200180831161039957829003601f168201915b505050505081526020016003820180546103cf906115b3565b80601f01602080910402602001604051908101604052809291908181526020018280546103fb906115b3565b80156104485780601f1061041d57610100808354040283529160200191610448565b820191906000526020600020905b81548152906001019060200180831161042b57829003601f168201915b50505050508152602001600482018054610461906115b3565b80601f016020809104026020016040519081016040528092919081815260200182805461048d906115b3565b80156104da5780601f106104af576101008083540402835291602001916104da565b820191906000526020600020905b8154815290600101906020018083116104bd57829003601f168201915b505050505081526020016005820160009054906101000a900473ffffffffffffffffffffffffffffffffffffffff1673ffffffffffffffffffffffffffffffffffffffff1673ffffffffffffffffffffffffffffffffffffffff1681526020016006820160009054906101000a900473ffffffffffffffffffffffffffffffffffffffff1673ffffffffffffffffffffffffffffffffffffffff1673ffffffffffffffffffffffffffffffffffffffff1681525050905060008160c0015190508073ffffffffffffffffffffffffffffffffffffffff163373ffffffffffffffffffffffffffffffffffffffff16146105d257600080fd5b8282606001819052508160026000868152602001908152602001600020600082015181600001556020820151816001019080519060200190610615929190610f73565b506040820151816002019080519060200190610632929190610f73565b50606082015181600301908051906020019061064f929190610f73565b50608082015181600401908051906020019061066c929190610f73565b5060a08201518160050160006101000a81548173ffffffffffffffffffffffffffffffffffffffff021916908373ffffffffffffffffffffffffffffffffffffffff16021790555060c08201518160060160006101000a81548173ffffffffffffffffffffffffffffffffffffffff021916908373ffffffffffffffffffffffffffffffffffffffff16021790555090505050505050565b6000808311801561071757506001548311155b61072057600080fd5b6000600260008581526020019081526020016000206002018054610743906115b3565b80601f016020809104026020016040519081016040528092919081815260200182805461076f906115b3565b80156107bc5780601f10610791576101008083540402835291602001916107bc565b820191906000526020600020905b81548152906001019060200180831161079f57829003601f168201915b5050505050905082518151146107d65760009150506107eb565b80805190602001208380519060200120149150505b92915050565b600080546107fe906115b3565b80601f016020809104026020016040519081016040528092919081815260200182805461082a906115b3565b80156108775780601f1061084c57610100808354040283529160200191610877565b820191906000526020600020905b81548152906001019060200180831161085a57829003601f168201915b505050505081565b6000808311801561089257506001548311155b905060006002600085815260200190815260200160002060060160009054906101000a900473ffffffffffffffffffffffffffffffffffffffff1673ffffffffffffffffffffffffffffffffffffffff163273ffffffffffffffffffffffffffffffffffffffff1614905060006002600086815260200190815260200160002060060160009054906101000a900473ffffffffffffffffffffffffffffffffffffffff1673ffffffffffffffffffffffffffffffffffffffff168473ffffffffffffffffffffffffffffffffffffffff161415801561099e5750600073ffffffffffffffffffffffffffffffffffffffff168473ffffffffffffffffffffffffffffffffffffffff1614155b90508280156109aa5750815b80156109b35750805b6109bc57600080fd5b836002600087815260200190815260200160002060060160006101000a81548173ffffffffffffffffffffffffffffffffffffffff021916908373ffffffffffffffffffffffffffffffffffffffff1602179055505050505050565b6002602052806000526040600020600091509050806000015490806001018054610a41906115b3565b80601f0160208091040260200160405190810160405280929190818152602001828054610a6d906115b3565b8015610aba5780601f10610a8f57610100808354040283529160200191610aba565b820191906000526020600020905b815481529060010190602001808311610a9d57829003601f168201915b505050505090806002018054610acf906115b3565b80601f0160208091040260200160405190810160405280929190818152602001828054610afb906115b3565b8015610b485780601f10610b1d57610100808354040283529160200191610b48565b820191906000526020600020905b815481529060010190602001808311610b2b57829003601f168201915b505050505090806003018054610b5d906115b3565b80601f0160208091040260200160405190810160405280929190818152602001828054610b89906115b3565b8015610bd65780601f10610bab57610100808354040283529160200191610bd6565b820191906000526020600020905b815481529060010190602001808311610bb957829003601f168201915b505050505090806004018054610beb906115b3565b80601f0160208091040260200160405190810160405280929190818152602001828054610c17906115b3565b8015610c645780601f10610c3957610100808354040283529160200191610c64565b820191906000526020600020905b815481529060010190602001808311610c4757829003601f168201915b5050505050908060050160009054906101000a900473ffffffffffffffffffffffffffffffffffffffff16908060060160009054906101000a900473ffffffffffffffffffffffffffffffffffffffff16905087565b60015481565b60008082118015610cd357506001548211155b610cdc57600080fd5b6002600083815260200190815260200160002060060160009054906101000a900473ffffffffffffffffffffffffffffffffffffffff169050919050565b6000845111610d2857600080fd5b6000835111610d3657600080fd5b6000825111610d4457600080fd5b6000815111610d5257600080fd5b600073ffffffffffffffffffffffffffffffffffffffff163373ffffffffffffffffffffffffffffffffffffffff1603610d8b57600080fd5b60016000815480929190610d9e90611613565b91905055506040518060e0016040528060015481526020018581526020018481526020018381526020018281526020013373ffffffffffffffffffffffffffffffffffffffff1681526020013373ffffffffffffffffffffffffffffffffffffffff16815250600260006001548152602001908152602001600020600082015181600001556020820151816001019080519060200190610e3f929190610f73565b506040820151816002019080519060200190610e5c929190610f73565b506060820151816003019080519060200190610e79929190610f73565b506080820151816004019080519060200190610e96929190610f73565b5060a08201518160050160006101000a81548173ffffffffffffffffffffffffffffffffffffffff021916908373ffffffffffffffffffffffffffffffffffffffff16021790555060c08201518160060160006101000a81548173ffffffffffffffffffffffffffffffffffffffff021916908373ffffffffffffffffffffffffffffffffffffffff1602179055509050507f801b79e9f8a7e351922f85b2d3bca4d34c7708b4eb20e5255bc199afff902eb0600154858585853333604051610f659796959493929190611407565b60405180910390a150505050565b828054610f7f906115b3565b90600052602060002090601f016020900481019282610fa15760008555610fe8565b82601f10610fba57805160ff1916838001178555610fe8565b82800160010185558215610fe8579182015b82811115610fe7578251825591602001919060010190610fcc565b5b509050610ff59190610ff9565b5090565b5b80821115611012576000816000905550600101610ffa565b5090565b6000604051905090565b600080fd5b600080fd5b6000819050919050565b61103d8161102a565b811461104857600080fd5b50565b60008135905061105a81611034565b92915050565b60006020828403121561107657611075611020565b5b60006110848482850161104b565b91505092915050565b600073ffffffffffffffffffffffffffffffffffffffff82169050919050565b60006110b88261108d565b9050919050565b6110c8816110ad565b82525050565b60006020820190506110e360008301846110bf565b92915050565b600080fd5b600080fd5b6000601f19601f8301169050919050565b7f4e487b7100000000000000000000000000000000000000000000000000000000600052604160045260246000fd5b61113c826110f3565b810181811067ffffffffffffffff8211171561115b5761115a611104565b5b80604052505050565b600061116e611016565b905061117a8282611133565b919050565b600067ffffffffffffffff82111561119a57611199611104565b5b6111a3826110f3565b9050602081019050919050565b82818337600083830152505050565b60006111d26111cd8461117f565b611164565b9050828152602081018484840111156111ee576111ed6110ee565b5b6111f98482856111b0565b509392505050565b600082601f830112611216576112156110e9565b5b81356112268482602086016111bf565b91505092915050565b6000806040838503121561124657611245611020565b5b60006112548582860161104b565b925050602083013567ffffffffffffffff81111561127557611274611025565b5b61128185828601611201565b9150509250929050565b60008115159050919050565b6112a08161128b565b82525050565b60006020820190506112bb6000830184611297565b92915050565b600081519050919050565b600082825260208201905092915050565b60005b838110156112fb5780820151818401526020810190506112e0565b8381111561130a576000848401525b50505050565b600061131b826112c1565b61132581856112cc565b93506113358185602086016112dd565b61133e816110f3565b840191505092915050565b600060208201905081810360008301526113638184611310565b905092915050565b60006113768261108d565b9050919050565b6113868161136b565b811461139157600080fd5b50565b6000813590506113a38161137d565b92915050565b600080604083850312156113c0576113bf611020565b5b60006113ce8582860161104b565b92505060206113df85828601611394565b9150509250929050565b6113f28161102a565b82525050565b6114018161136b565b82525050565b600060e08201905061141c600083018a6113e9565b818103602083015261142e8189611310565b905081810360408301526114428188611310565b905081810360608301526114568187611310565b9050818103608083015261146a8186611310565b905061147960a08301856113f8565b61148660c08301846113f8565b98975050505050505050565b60006020820190506114a760008301846113e9565b92915050565b600080600080608085870312156114c7576114c6611020565b5b600085013567ffffffffffffffff8111156114e5576114e4611025565b5b6114f187828801611201565b945050602085013567ffffffffffffffff81111561151257611511611025565b5b61151e87828801611201565b935050604085013567ffffffffffffffff81111561153f5761153e611025565b5b61154b87828801611201565b925050606085013567ffffffffffffffff81111561156c5761156b611025565b5b61157887828801611201565b91505092959194509250565b7f4e487b7100000000000000000000000000000000000000000000000000000000600052602260045260246000fd5b600060028204905060018216806115cb57607f821691505b6020821081036115de576115dd611584565b5b50919050565b7f4e487b7100000000000000000000000000000000000000000000000000000000600052601160045260246000fd5b600061161e8261102a565b91507fffffffffffffffffffffffffffffffffffffffffffffffffffffffffffffffff82036116505761164f6115e4565b5b60018201905091905056fea2646970667358221220fbe3c55a91584cb63df9c29238aa4b702f5eed92dbde52b1fb3527cadf6495d264736f6c634300080d0033",
  "immutableReferences": {},
  "source": "// SPDX-License-Identifier: SimPL-2.0\r\npragma solidity ^0.8.12;\r\n\r\ncontract Release{\r\n    \r\n    string public contractName;\r\n    uint public imageCount = 0;\r\n    mapping(uint => Image) public images;\r\n  \r\n    \r\n    struct Image {\r\n        uint id;\r\n        string hash;\r\n        string sha3;\r\n        string signature;\r\n        string title;\r\n        address payable author;\r\n        address payable owner;\r\n    }\r\n\r\n    event ImageCreated(\r\n        uint id,\r\n        string hash,\r\n        string sha3,\r\n        string signature,\r\n        string title,\r\n        address payable author,\r\n        address payable owner\r\n    );\r\n\r\n    constructor()  {\r\n      contractName = \"release\";\r\n    }\r\n    \r\n    function uploadImage(\r\n        string memory _imgHash,\r\n        string memory _imgSHA3, \r\n        string memory _imgSign,\r\n        string memory _title) public {\r\n\r\n        //check requires\r\n        require(bytes(_imgHash).length > 0);\r\n        require(bytes(_imgSHA3).length > 0);\r\n        require(bytes(_imgSign).length > 0);\r\n        require(bytes(_title).length > 0);\r\n        require(msg.sender != address(0x0));\r\n\r\n        imageCount++;\r\n        images[imageCount] = Image(\r\n            imageCount,\r\n            _imgHash,\r\n            _imgSHA3,\r\n            _imgSign,\r\n            _title, \r\n            payable(msg.sender),payable(msg.sender));\r\n        emit ImageCreated(\r\n            imageCount,\r\n            _imgHash,\r\n            _imgSHA3,\r\n            _imgSign,\r\n            _title, \r\n            payable(msg.sender), payable(msg.sender));\r\n    }\r\n\r\n    function changeOwner(\r\n        uint _id,\r\n        address payable newOwner\r\n        ) public {\r\n        \r\n        bool FlagID = _id > 0 && _id <= imageCount;\r\n        bool FlagOldOwner = tx.origin == images[_id].owner;\r\n        bool FlagNewOwner = newOwner != images[_id].owner && newOwner != address(0x0);\r\n        // if (_id <= 0 || _id > imageCount) return;    \r\n        // if (tx.origin != images[_id].owner) return;\r\n        // if (newOwner == images[_id].owner) return;\r\n        // if (newOwner == address(0x0)) return;\r\n        require(FlagID && FlagOldOwner && FlagNewOwner);\r\n\r\n        images[_id].owner = newOwner;\r\n    }\r\n\r\n    function changeSign(uint _id, string memory newSign) public{\r\n      require(_id > 0 && _id <= imageCount );\r\n      require(bytes(newSign).length > 0);\r\n      //get image data\r\n      Image memory _image = images[_id];\r\n      //get Owner's address\r\n      address _owner = _image.owner;\r\n      require(msg.sender == _owner);\r\n\r\n      _image.signature = newSign;\r\n      images[_id] = _image;\r\n    } \r\n\r\n    function getImageOwner(uint imageID) public view returns(address) {\r\n      require(imageID > 0 && imageID <= imageCount );\r\n      return images[imageID].owner;\r\n    }\r\n\r\n    function getImageAuthor(uint imageID) public view returns(address) {\r\n      require(imageID > 0 && imageID <= imageCount );\r\n      return images[imageID].author;\r\n    }\r\n\r\n    function isSHA3Match(uint imageID, string memory testSHA3) public view returns(bool) {\r\n      require(imageID > 0 && imageID <= imageCount );\r\n      string memory SHA3 = images[imageID].sha3;\r\n      if (bytes(SHA3).length != bytes(testSHA3).length) {\r\n          return false;\r\n      } else {\r\n          return keccak256(bytes(testSHA3)) == keccak256(bytes(SHA3));\r\n      }\r\n    }\r\n\r\n    \r\n}",
  "sourcePath": "D:\\Fun\\proj12\\Dimage\\contracts\\Release.sol",
  "compiler": {
    "name": "solc",
    "version": "0.8.13+commit.abaa5c0e.Emscripten.clang"
  },
  "schemaVersion": "3.4.5",
  "updatedAt": "2022-04-30T07:14:54.963Z",
  "devdoc": {
    "kind": "dev",
    "methods": {},
    "version": 1
  },
  "userdoc": {
    "kind": "user",
    "methods": {},
    "version": 1
  }
}