{
  "contractName": "Release",
  "abi": [
    {
      "inputs": [],
      "stateMutability": "nonpayable",
      "type": "constructor"
    },
    {
      "anonymous": false,
      "inputs": [
        {
          "indexed": false,
          "internalType": "uint256",
          "name": "id",
          "type": "uint256"
        },
        {
          "indexed": false,
          "internalType": "uint256",
          "name": "timestamp",
          "type": "uint256"
        },
        {
          "indexed": false,
          "internalType": "bytes32",
          "name": "sha3",
          "type": "bytes32"
        },
        {
          "indexed": false,
          "internalType": "bytes",
          "name": "signature",
          "type": "bytes"
        },
        {
          "indexed": false,
          "internalType": "string",
          "name": "ipfsHash",
          "type": "string"
        },
        {
          "indexed": false,
          "internalType": "address payable",
          "name": "author",
          "type": "address"
        },
        {
          "indexed": false,
          "internalType": "address payable",
          "name": "owner",
          "type": "address"
        }
      ],
      "name": "ImageCreated",
      "type": "event"
    },
    {
      "inputs": [],
      "name": "contractName",
      "outputs": [
        {
          "internalType": "string",
          "name": "",
          "type": "string"
        }
      ],
      "stateMutability": "view",
      "type": "function",
      "constant": true
    },
    {
      "inputs": [],
      "name": "imageCount",
      "outputs": [
        {
          "internalType": "uint256",
          "name": "",
          "type": "uint256"
        }
      ],
      "stateMutability": "view",
      "type": "function",
      "constant": true
    },
    {
      "inputs": [
        {
          "internalType": "string",
          "name": "_ipfsHash",
          "type": "string"
        },
        {
          "internalType": "bytes32",
          "name": "_imgSHA3",
          "type": "bytes32"
        },
        {
          "internalType": "bytes",
          "name": "_imgSign",
          "type": "bytes"
        }
      ],
      "name": "uploadImage",
      "outputs": [],
      "stateMutability": "nonpayable",
      "type": "function"
    },
    {
      "inputs": [
        {
          "internalType": "uint256",
          "name": "_id",
          "type": "uint256"
        },
        {
          "internalType": "address payable",
          "name": "newOwner",
          "type": "address"
        }
      ],
      "name": "changeOwner",
      "outputs": [],
      "stateMutability": "nonpayable",
      "type": "function"
    },
    {
      "inputs": [
        {
          "internalType": "uint256",
          "name": "imageID",
          "type": "uint256"
        },
        {
          "internalType": "bytes",
          "name": "newSign",
          "type": "bytes"
        }
      ],
      "name": "changeSign",
      "outputs": [],
      "stateMutability": "nonpayable",
      "type": "function"
    },
    {
      "inputs": [
        {
          "internalType": "uint256",
          "name": "imageID",
          "type": "uint256"
        }
      ],
      "name": "incTxCount",
      "outputs": [],
      "stateMutability": "nonpayable",
      "type": "function"
    },
    {
      "inputs": [
        {
          "internalType": "uint256",
          "name": "imageID",
          "type": "uint256"
        }
      ],
      "name": "getTxCount",
      "outputs": [
        {
          "internalType": "uint256",
          "name": "",
          "type": "uint256"
        }
      ],
      "stateMutability": "view",
      "type": "function",
      "constant": true
    },
    {
      "inputs": [
        {
          "internalType": "uint256",
          "name": "imageID",
          "type": "uint256"
        }
      ],
      "name": "getIpfsHash",
      "outputs": [
        {
          "internalType": "string",
          "name": "",
          "type": "string"
        }
      ],
      "stateMutability": "view",
      "type": "function",
      "constant": true
    },
    {
      "inputs": [
        {
          "internalType": "uint256",
          "name": "imageID",
          "type": "uint256"
        }
      ],
      "name": "getImageOwner",
      "outputs": [
        {
          "internalType": "address",
          "name": "",
          "type": "address"
        }
      ],
      "stateMutability": "view",
      "type": "function",
      "constant": true
    },
    {
      "inputs": [
        {
          "internalType": "uint256",
          "name": "imageID",
          "type": "uint256"
        }
      ],
      "name": "getImageAuthor",
      "outputs": [
        {
          "internalType": "address",
          "name": "",
          "type": "address"
        }
      ],
      "stateMutability": "view",
      "type": "function",
      "constant": true
    },
    {
      "inputs": [
        {
          "internalType": "uint256",
          "name": "imageID",
          "type": "uint256"
        }
      ],
      "name": "getPrevOwner",
      "outputs": [
        {
          "internalType": "address[]",
          "name": "",
          "type": "address[]"
        }
      ],
      "stateMutability": "view",
      "type": "function",
      "constant": true
    },
    {
      "inputs": [
        {
          "internalType": "uint256",
          "name": "imageID",
          "type": "uint256"
        },
        {
          "internalType": "bytes32",
          "name": "testSHA3",
          "type": "bytes32"
        }
      ],
      "name": "isSHA3Match",
      "outputs": [
        {
          "internalType": "bool",
          "name": "",
          "type": "bool"
        }
      ],
      "stateMutability": "view",
      "type": "function",
      "constant": true
    }
  ],
  "bytecode": "0x608060405260006001553480156200001657600080fd5b506040518060400160405280600781526020017f72656c6561736500000000000000000000000000000000000000000000000000815250600090816200005d9190620002de565b50620003c5565b600081519050919050565b7f4e487b7100000000000000000000000000000000000000000000000000000000600052604160045260246000fd5b7f4e487b7100000000000000000000000000000000000000000000000000000000600052602260045260246000fd5b60006002820490506001821680620000e657607f821691505b602082108103620000fc57620000fb6200009e565b5b50919050565b60008190508160005260206000209050919050565b60006020601f8301049050919050565b600082821b905092915050565b600060088302620001667fffffffffffffffffffffffffffffffffffffffffffffffffffffffffffffffff8262000127565b62000172868362000127565b95508019841693508086168417925050509392505050565b6000819050919050565b6000819050919050565b6000620001bf620001b9620001b3846200018a565b62000194565b6200018a565b9050919050565b6000819050919050565b620001db836200019e565b620001f3620001ea82620001c6565b84845462000134565b825550505050565b600090565b6200020a620001fb565b62000217818484620001d0565b505050565b5b818110156200023f576200023360008262000200565b6001810190506200021d565b5050565b601f8211156200028e57620002588162000102565b620002638462000117565b8101602085101562000273578190505b6200028b620002828562000117565b8301826200021c565b50505b505050565b600082821c905092915050565b6000620002b36000198460080262000293565b1980831691505092915050565b6000620002ce8383620002a0565b9150826002028217905092915050565b620002e98262000064565b67ffffffffffffffff8111156200030557620003046200006f565b5b620003118254620000cd565b6200031e82828562000243565b600060209050601f83116001811462000356576000841562000341578287015190505b6200034d8582620002c0565b865550620003bd565b601f198416620003668662000102565b60005b82811015620003905784890151825560018201915060208501945060208101905062000369565b86831015620003b05784890151620003ac601f891682620002a0565b8355505b6001600288020188555050505b505050505050565b611ea080620003d56000396000f3fe608060405234801561001057600080fd5b50600436106100b35760003560e01c8063c5d47daf11610071578063c5d47daf146101a0578063cbed3d52146101d0578063d450fbc9146101ec578063f2d03fcf1461021c578063f413c3bd1461024c578063ff7244c614610268576100b3565b80627ac14a146100b85780631440bd07146100e857806375d0c0dc14610118578063784796f71461013657806392053b6314610152578063a9b1142614610170575b600080fd5b6100d260048036038101906100cd919061119a565b610284565b6040516100df91906111f5565b60405180910390f35b61010260048036038101906100fd9190611210565b610319565b60405161010f919061127e565b60405180910390f35b610120610373565b60405161012d9190611329565b60405180910390f35b610150600480360381019061014b9190611389565b610401565b005b61015a6106cf565b60405161016791906113d8565b60405180910390f35b61018a60048036038101906101859190611210565b6106d5565b604051610197919061127e565b60405180910390f35b6101ba60048036038101906101b59190611210565b61072f565b6040516101c791906113d8565b60405180910390f35b6101ea60048036038101906101e59190611210565b610769565b005b61020660048036038101906102019190611210565b610832565b6040516102139190611329565b60405180910390f35b61023660048036038101906102319190611210565b610963565b60405161024391906114b1565b60405180910390f35b610266600480360381019061026191906116a9565b610a22565b005b610282600480360381019061027d9190611734565b610d40565b005b6000808311801561029757506001548311155b6102a057600080fd5b600060026000858152602001908152602001600020600201546040516020016102c991906117b1565b60405160208183030381529060405290506000836040516020016102ed91906117b1565b604051602081830303815290604052905081805190602001208180519060200120149250505092915050565b6000808211801561032c57506001548211155b61033557600080fd5b6002600083815260200190815260200160002060050160009054906101000a900473ffffffffffffffffffffffffffffffffffffffff169050919050565b60008054610380906117fb565b80601f01602080910402602001604051908101604052809291908181526020018280546103ac906117fb565b80156103f95780601f106103ce576101008083540402835291602001916103f9565b820191906000526020600020905b8154815290600101906020018083116103dc57829003601f168201915b505050505081565b60006002600084815260200190815260200160002060060160009054906101000a900473ffffffffffffffffffffffffffffffffffffffff1690506000808411801561044f57506001548411155b905060008273ffffffffffffffffffffffffffffffffffffffff163273ffffffffffffffffffffffffffffffffffffffff1614905060008373ffffffffffffffffffffffffffffffffffffffff168573ffffffffffffffffffffffffffffffffffffffff16141580156104ef5750600073ffffffffffffffffffffffffffffffffffffffff168573ffffffffffffffffffffffffffffffffffffffff1614155b90508280156104fb5750815b80156105045750805b61050d57600080fd5b846002600088815260200190815260200160002060060160006101000a81548173ffffffffffffffffffffffffffffffffffffffff021916908373ffffffffffffffffffffffffffffffffffffffff1602179055506000600490505b60008111156106545760026000888152602001908152602001600020600701600182610595919061185b565b815481106105a6576105a561188f565b5b9060005260206000200160009054906101000a900473ffffffffffffffffffffffffffffffffffffffff166002600089815260200190815260200160002060070182815481106105f9576105f861188f565b5b9060005260206000200160006101000a81548173ffffffffffffffffffffffffffffffffffffffff021916908373ffffffffffffffffffffffffffffffffffffffff160217905550808061064c906118be565b915050610569565b50836002600088815260200190815260200160002060070160008154811061067f5761067e61188f565b5b9060005260206000200160006101000a81548173ffffffffffffffffffffffffffffffffffffffff021916908373ffffffffffffffffffffffffffffffffffffffff160217905550505050505050565b60015481565b600080821180156106e857506001548211155b6106f157600080fd5b6002600083815260200190815260200160002060060160009054906101000a900473ffffffffffffffffffffffffffffffffffffffff169050919050565b6000808211801561074257506001548211155b61074b57600080fd5b60026000838152602001908152602001600020600101549050919050565b60008111801561077b57506001548111155b61078457600080fd5b6002600082815260200190815260200160002060060160009054906101000a900473ffffffffffffffffffffffffffffffffffffffff1673ffffffffffffffffffffffffffffffffffffffff163273ffffffffffffffffffffffffffffffffffffffff16146107f257600080fd5b6001600260008381526020019081526020016000206001015461081591906118e7565b600260008381526020019081526020016000206001018190555050565b606060008211801561084657506001548211155b61084f57600080fd5b6002600083815260200190815260200160002060060160009054906101000a900473ffffffffffffffffffffffffffffffffffffffff1673ffffffffffffffffffffffffffffffffffffffff163373ffffffffffffffffffffffffffffffffffffffff16146108bd57600080fd5b6002600083815260200190815260200160002060040180546108de906117fb565b80601f016020809104026020016040519081016040528092919081815260200182805461090a906117fb565b80156109575780601f1061092c57610100808354040283529160200191610957565b820191906000526020600020905b81548152906001019060200180831161093a57829003601f168201915b50505050509050919050565b606060008211801561097757506001548211155b61098057600080fd5b60026000838152602001908152602001600020600701805480602002602001604051908101604052809291908181526020018280548015610a1657602002820191906000526020600020905b8160009054906101000a900473ffffffffffffffffffffffffffffffffffffffff1673ffffffffffffffffffffffffffffffffffffffff16815260200190600101908083116109cc575b50505050509050919050565b6000835111610a3057600080fd5b6000602060ff1611610a4157600080fd5b6000815111610a4f57600080fd5b600073ffffffffffffffffffffffffffffffffffffffff163273ffffffffffffffffffffffffffffffffffffffff1603610a8857600080fd5b60006003600084815260200190815260200160002060009054906101000a900460ff1660ff1614610aee576040517f08c379a0000000000000000000000000000000000000000000000000000000008152600401610ae590611967565b60405180910390fd5b600042905060016000815480929190610b0690611987565b9190505550604051806101000160405280828152602001600081526020018481526020018381526020018581526020013273ffffffffffffffffffffffffffffffffffffffff1681526020013273ffffffffffffffffffffffffffffffffffffffff168152602001600567ffffffffffffffff811115610b8957610b886114dd565b5b604051908082528060200260200182016040528015610bb75781602001602082028036833780820191505090505b508152506002600060015481526020019081526020016000206000820151816000015560208201518160010155604082015181600201556060820151816003019081610c039190611b86565b506080820151816004019081610c199190611cb3565b5060a08201518160050160006101000a81548173ffffffffffffffffffffffffffffffffffffffff021916908373ffffffffffffffffffffffffffffffffffffffff16021790555060c08201518160060160006101000a81548173ffffffffffffffffffffffffffffffffffffffff021916908373ffffffffffffffffffffffffffffffffffffffff16021790555060e0820151816007019080519060200190610cc4929190611073565b5090505060016003600085815260200190815260200160002060006101000a81548160ff021916908360ff1602179055507feaaa352ed5b9b818b17cf311dd6da95f59b00a68659d3946183aa3a6cb4d5ca0600154828585883232604051610d329796959493929190611ded565b60405180910390a150505050565b600082118015610d5257506001548211155b610d5b57600080fd5b6000815111610d6957600080fd5b60006002600084815260200190815260200160002060405180610100016040529081600082015481526020016001820154815260200160028201548152602001600382018054610db8906117fb565b80601f0160208091040260200160405190810160405280929190818152602001828054610de4906117fb565b8015610e315780601f10610e0657610100808354040283529160200191610e31565b820191906000526020600020905b815481529060010190602001808311610e1457829003601f168201915b50505050508152602001600482018054610e4a906117fb565b80601f0160208091040260200160405190810160405280929190818152602001828054610e76906117fb565b8015610ec35780601f10610e9857610100808354040283529160200191610ec3565b820191906000526020600020905b815481529060010190602001808311610ea657829003601f168201915b505050505081526020016005820160009054906101000a900473ffffffffffffffffffffffffffffffffffffffff1673ffffffffffffffffffffffffffffffffffffffff1673ffffffffffffffffffffffffffffffffffffffff1681526020016006820160009054906101000a900473ffffffffffffffffffffffffffffffffffffffff1673ffffffffffffffffffffffffffffffffffffffff1673ffffffffffffffffffffffffffffffffffffffff16815260200160078201805480602002602001604051908101604052809291908181526020018280548015610ffd57602002820191906000526020600020905b8160009054906101000a900473ffffffffffffffffffffffffffffffffffffffff1673ffffffffffffffffffffffffffffffffffffffff1681526020019060010190808311610fb3575b505050505081525050905060008160c0015190508073ffffffffffffffffffffffffffffffffffffffff163373ffffffffffffffffffffffffffffffffffffffff161461104957600080fd5b8260026000868152602001908152602001600020600301908161106c9190611b86565b5050505050565b8280548282559060005260206000209081019282156110ec579160200282015b828111156110eb5782518260006101000a81548173ffffffffffffffffffffffffffffffffffffffff021916908373ffffffffffffffffffffffffffffffffffffffff16021790555091602001919060010190611093565b5b5090506110f991906110fd565b5090565b5b808211156111165760008160009055506001016110fe565b5090565b6000604051905090565b600080fd5b600080fd5b6000819050919050565b6111418161112e565b811461114c57600080fd5b50565b60008135905061115e81611138565b92915050565b6000819050919050565b61117781611164565b811461118257600080fd5b50565b6000813590506111948161116e565b92915050565b600080604083850312156111b1576111b0611124565b5b60006111bf8582860161114f565b92505060206111d085828601611185565b9150509250929050565b60008115159050919050565b6111ef816111da565b82525050565b600060208201905061120a60008301846111e6565b92915050565b60006020828403121561122657611225611124565b5b60006112348482850161114f565b91505092915050565b600073ffffffffffffffffffffffffffffffffffffffff82169050919050565b60006112688261123d565b9050919050565b6112788161125d565b82525050565b6000602082019050611293600083018461126f565b92915050565b600081519050919050565b600082825260208201905092915050565b60005b838110156112d35780820151818401526020810190506112b8565b60008484015250505050565b6000601f19601f8301169050919050565b60006112fb82611299565b61130581856112a4565b93506113158185602086016112b5565b61131e816112df565b840191505092915050565b6000602082019050818103600083015261134381846112f0565b905092915050565b60006113568261123d565b9050919050565b6113668161134b565b811461137157600080fd5b50565b6000813590506113838161135d565b92915050565b600080604083850312156113a05761139f611124565b5b60006113ae8582860161114f565b92505060206113bf85828601611374565b9150509250929050565b6113d28161112e565b82525050565b60006020820190506113ed60008301846113c9565b92915050565b600081519050919050565b600082825260208201905092915050565b6000819050602082019050919050565b6114288161125d565b82525050565b600061143a838361141f565b60208301905092915050565b6000602082019050919050565b600061145e826113f3565b61146881856113fe565b93506114738361140f565b8060005b838110156114a457815161148b888261142e565b975061149683611446565b925050600181019050611477565b5085935050505092915050565b600060208201905081810360008301526114cb8184611453565b905092915050565b600080fd5b600080fd5b7f4e487b7100000000000000000000000000000000000000000000000000000000600052604160045260246000fd5b611515826112df565b810181811067ffffffffffffffff82111715611534576115336114dd565b5b80604052505050565b600061154761111a565b9050611553828261150c565b919050565b600067ffffffffffffffff821115611573576115726114dd565b5b61157c826112df565b9050602081019050919050565b82818337600083830152505050565b60006115ab6115a684611558565b61153d565b9050828152602081018484840111156115c7576115c66114d8565b5b6115d2848285611589565b509392505050565b600082601f8301126115ef576115ee6114d3565b5b81356115ff848260208601611598565b91505092915050565b600067ffffffffffffffff821115611623576116226114dd565b5b61162c826112df565b9050602081019050919050565b600061164c61164784611608565b61153d565b905082815260208101848484011115611668576116676114d8565b5b611673848285611589565b509392505050565b600082601f8301126116905761168f6114d3565b5b81356116a0848260208601611639565b91505092915050565b6000806000606084860312156116c2576116c1611124565b5b600084013567ffffffffffffffff8111156116e0576116df611129565b5b6116ec868287016115da565b93505060206116fd86828701611185565b925050604084013567ffffffffffffffff81111561171e5761171d611129565b5b61172a8682870161167b565b9150509250925092565b6000806040838503121561174b5761174a611124565b5b60006117598582860161114f565b925050602083013567ffffffffffffffff81111561177a57611779611129565b5b6117868582860161167b565b9150509250929050565b6000819050919050565b6117ab6117a682611164565b611790565b82525050565b60006117bd828461179a565b60208201915081905092915050565b7f4e487b7100000000000000000000000000000000000000000000000000000000600052602260045260246000fd5b6000600282049050600182168061181357607f821691505b602082108103611826576118256117cc565b5b50919050565b7f4e487b7100000000000000000000000000000000000000000000000000000000600052601160045260246000fd5b60006118668261112e565b91506118718361112e565b92508282039050818111156118895761188861182c565b5b92915050565b7f4e487b7100000000000000000000000000000000000000000000000000000000600052603260045260246000fd5b60006118c98261112e565b9150600082036118dc576118db61182c565b5b600182039050919050565b60006118f28261112e565b91506118fd8361112e565b92508282019050808211156119155761191461182c565b5b92915050565b7f616c726561647920657869737421000000000000000000000000000000000000600082015250565b6000611951600e836112a4565b915061195c8261191b565b602082019050919050565b6000602082019050818103600083015261198081611944565b9050919050565b60006119928261112e565b91507fffffffffffffffffffffffffffffffffffffffffffffffffffffffffffffffff82036119c4576119c361182c565b5b600182019050919050565b600081519050919050565b60008190508160005260206000209050919050565b60006020601f8301049050919050565b600082821b905092915050565b600060088302611a3c7fffffffffffffffffffffffffffffffffffffffffffffffffffffffffffffffff826119ff565b611a4686836119ff565b95508019841693508086168417925050509392505050565b6000819050919050565b6000611a83611a7e611a798461112e565b611a5e565b61112e565b9050919050565b6000819050919050565b611a9d83611a68565b611ab1611aa982611a8a565b848454611a0c565b825550505050565b600090565b611ac6611ab9565b611ad1818484611a94565b505050565b5b81811015611af557611aea600082611abe565b600181019050611ad7565b5050565b601f821115611b3a57611b0b816119da565b611b14846119ef565b81016020851015611b23578190505b611b37611b2f856119ef565b830182611ad6565b50505b505050565b600082821c905092915050565b6000611b5d60001984600802611b3f565b1980831691505092915050565b6000611b768383611b4c565b9150826002028217905092915050565b611b8f826119cf565b67ffffffffffffffff811115611ba857611ba76114dd565b5b611bb282546117fb565b611bbd828285611af9565b600060209050601f831160018114611bf05760008415611bde578287015190505b611be88582611b6a565b865550611c50565b601f198416611bfe866119da565b60005b82811015611c2657848901518255600182019150602085019450602081019050611c01565b86831015611c435784890151611c3f601f891682611b4c565b8355505b6001600288020188555050505b505050505050565b60008190508160005260206000209050919050565b601f821115611cae57611c7f81611c58565b611c88846119ef565b81016020851015611c97578190505b611cab611ca3856119ef565b830182611ad6565b50505b505050565b611cbc82611299565b67ffffffffffffffff811115611cd557611cd46114dd565b5b611cdf82546117fb565b611cea828285611c6d565b600060209050601f831160018114611d1d5760008415611d0b578287015190505b611d158582611b6a565b865550611d7d565b601f198416611d2b86611c58565b60005b82811015611d5357848901518255600182019150602085019450602081019050611d2e565b86831015611d705784890151611d6c601f891682611b4c565b8355505b6001600288020188555050505b505050505050565b611d8e81611164565b82525050565b600082825260208201905092915050565b6000611db0826119cf565b611dba8185611d94565b9350611dca8185602086016112b5565b611dd3816112df565b840191505092915050565b611de78161134b565b82525050565b600060e082019050611e02600083018a6113c9565b611e0f60208301896113c9565b611e1c6040830188611d85565b8181036060830152611e2e8187611da5565b90508181036080830152611e4281866112f0565b9050611e5160a0830185611dde565b611e5e60c0830184611dde565b9897505050505050505056fea2646970667358221220da7da80ca4e3152371bd3f58aa8edc8cc3615c0c98773e8f81f60d4d393066eb64736f6c63430008130033",
  "immutableReferences": {},
  "source": "// SPDX-License-Identifier: SimPL-2.0\r\npragma solidity ^0.8.12;\r\n\r\ncontract Release{\r\n    \r\n    string public contractName;\r\n    uint public imageCount = 0;            //&\r\n    mapping(uint => Image) private images;  //mapping\r\n    mapping(bytes32 => uint8) private released; //SHA3\r\n    \r\n    struct Image {\r\n        uint timestamp;         //\r\n        uint txCount;           //\r\n        bytes32 sha3;           //(keccak256)\r\n        bytes signature;        //\r\n        string ipfsHash;        //IPFS(cid)\r\n        address payable author; //\r\n        address payable owner;  //\r\n        address[] prevOwners;   //\r\n    }\r\n\r\n    event ImageCreated(\r\n        uint id,\r\n        uint timestamp,\r\n        bytes32 sha3,\r\n        bytes signature,\r\n        string ipfsHash,\r\n        address payable author,\r\n        address payable owner\r\n    );\r\n\r\n    constructor()  {\r\n      contractName = \"release\";\r\n    }\r\n    \r\n    function uploadImage(\r\n        string memory _ipfsHash,\r\n        bytes32       _imgSHA3, \r\n        bytes  memory _imgSign\r\n        ) public {\r\n        //\r\n        require(bytes(_ipfsHash).length > 0);\r\n        require(_imgSHA3.length > 0);\r\n        require(_imgSign.length > 0);\r\n        require(tx.origin != address(0x0));\r\n        //release\r\n        require(released[_imgSHA3] == 0, \"already exist!\");\r\n\r\n        uint time = block.timestamp;                     //\r\n        imageCount++;                                    //\r\n        //\r\n        images[imageCount] = Image(time, 0, _imgSHA3, _imgSign, _ipfsHash,\r\n            payable(tx.origin), payable(tx.origin), new address[](5) );\r\n        released[_imgSHA3] = 1;                          //sha3\r\n\r\n        emit ImageCreated( imageCount, time, _imgSHA3,_imgSign,_ipfsHash,\r\n            payable(tx.origin), payable(tx.origin));   //\r\n    }\r\n\r\n    //\r\n    function changeOwner(\r\n        uint _id,\r\n        address payable newOwner\r\n        ) public {\r\n        address oldOwner = images[_id].owner; \r\n        // //ID\r\n        // require(_id > 0 && _id <= imageCount);  \r\n        // //\r\n        // require(tx.origin ==  oldOwner);   \r\n        // //\r\n        // require((newOwner != oldOwner) && (newOwner != address(0x0)));\r\n      \r\n        bool FlagID = _id > 0 && _id <= imageCount;\r\n        bool FlagOldOwner = (tx.origin ==  oldOwner);\r\n        bool FlagNewOwner = (newOwner != oldOwner) && (newOwner != address(0x0));\r\n        require(FlagID && FlagOldOwner && FlagNewOwner);\r\n        \r\n        //\r\n        images[_id].owner = newOwner;\r\n        //\r\n        for (uint i=4; i>0 ; i--) {\r\n          images[_id].prevOwners[i] = images[_id].prevOwners[i-1]; \r\n        }\r\n        images[_id].prevOwners[0] = oldOwner;\r\n    }\r\n\r\n\r\n    //\r\n    function changeSign(uint imageID, bytes memory newSign) public{\r\n      //\r\n      require(imageID > 0 && imageID <= imageCount );\r\n      require(newSign.length > 0);\r\n      //\r\n      Image memory _image = images[imageID];\r\n      //\r\n      address _owner = _image.owner;\r\n      require(msg.sender == _owner);\r\n      //\r\n      images[imageID].signature = newSign;\r\n    } \r\n\r\n  function incTxCount(uint imageID) public {\r\n      require(imageID > 0 && imageID <= imageCount);\r\n      require(tx.origin == images[imageID].owner);\r\n      images[imageID].txCount = images[imageID].txCount+1;\r\n    }\r\n\r\n    function getTxCount(uint imageID) public view returns(uint){\r\n      require(imageID > 0 && imageID <= imageCount);\r\n      return images[imageID].txCount;\r\n    }\r\n\r\n    function getIpfsHash(uint imageID) public view returns(string memory){\r\n      require(imageID > 0 && imageID <= imageCount);\r\n      require(msg.sender == images[imageID].owner);\r\n      return images[imageID].ipfsHash;\r\n    }\r\n\r\n    function getImageOwner(uint imageID) public view returns(address) {\r\n      require(imageID > 0 && imageID <= imageCount );\r\n      return images[imageID].owner;\r\n    }\r\n\r\n    function getImageAuthor(uint imageID) public view returns(address) {\r\n      require(imageID > 0 && imageID <= imageCount );\r\n      return images[imageID].author;\r\n    }\r\n\r\n    function getPrevOwner(uint imageID) public view returns(address[] memory) {\r\n      require(imageID > 0 && imageID <= imageCount );\r\n      return images[imageID].prevOwners;\r\n    }\r\n\r\n    function isSHA3Match(uint imageID, bytes32 testSHA3) public view returns(bool) {\r\n      require(imageID > 0 && imageID <= imageCount );\r\n      bytes memory SHA3 = abi.encodePacked(images[imageID].sha3);\r\n      bytes memory tester = abi.encodePacked(testSHA3);\r\n      return keccak256(tester) == keccak256(SHA3); \r\n    }\r\n}",
  "sourcePath": "D:\\Fun\\proj12\\Dimage\\contracts\\Release.sol",
  "compiler": {
    "name": "solc",
    "version": "0.8.19+commit.7dd6d404.Emscripten.clang"
  },
  "schemaVersion": "3.4.5",
  "updatedAt": "2023-04-02T15:24:09.529Z",
  "networkType": "ethereum",
  "devdoc": {
    "kind": "dev",
    "methods": {},
    "version": 1
  },
  "userdoc": {
    "kind": "user",
    "methods": {},
    "version": 1
  }
}