{
  "contractName": "Release",
  "abi": [
    {
      "inputs": [],
      "stateMutability": "nonpayable",
      "type": "constructor"
    },
    {
      "anonymous": false,
      "inputs": [
        {
          "indexed": false,
          "internalType": "uint256",
          "name": "id",
          "type": "uint256"
        },
        {
          "indexed": false,
          "internalType": "string",
          "name": "hash",
          "type": "string"
        },
        {
          "indexed": false,
          "internalType": "string",
          "name": "sha3",
          "type": "string"
        },
        {
          "indexed": false,
          "internalType": "string",
          "name": "signature",
          "type": "string"
        },
        {
          "indexed": false,
          "internalType": "string",
          "name": "title",
          "type": "string"
        },
        {
          "indexed": false,
          "internalType": "address payable",
          "name": "author",
          "type": "address"
        },
        {
          "indexed": false,
          "internalType": "address payable",
          "name": "owner",
          "type": "address"
        }
      ],
      "name": "ImageCreated",
      "type": "event"
    },
    {
      "inputs": [],
      "name": "contractName",
      "outputs": [
        {
          "internalType": "string",
          "name": "",
          "type": "string"
        }
      ],
      "stateMutability": "view",
      "type": "function"
    },
    {
      "inputs": [],
      "name": "imageCount",
      "outputs": [
        {
          "internalType": "uint256",
          "name": "",
          "type": "uint256"
        }
      ],
      "stateMutability": "view",
      "type": "function"
    },
    {
      "inputs": [
        {
          "internalType": "uint256",
          "name": "",
          "type": "uint256"
        }
      ],
      "name": "images",
      "outputs": [
        {
          "internalType": "uint256",
          "name": "id",
          "type": "uint256"
        },
        {
          "internalType": "string",
          "name": "hash",
          "type": "string"
        },
        {
          "internalType": "string",
          "name": "sha3",
          "type": "string"
        },
        {
          "internalType": "string",
          "name": "signature",
          "type": "string"
        },
        {
          "internalType": "string",
          "name": "title",
          "type": "string"
        },
        {
          "internalType": "address payable",
          "name": "author",
          "type": "address"
        },
        {
          "internalType": "address payable",
          "name": "owner",
          "type": "address"
        }
      ],
      "stateMutability": "view",
      "type": "function"
    },
    {
      "inputs": [
        {
          "internalType": "string",
          "name": "_imgHash",
          "type": "string"
        },
        {
          "internalType": "string",
          "name": "_imgSHA3",
          "type": "string"
        },
        {
          "internalType": "string",
          "name": "_imgSign",
          "type": "string"
        },
        {
          "internalType": "string",
          "name": "_title",
          "type": "string"
        }
      ],
      "name": "uploadImage",
      "outputs": [],
      "stateMutability": "nonpayable",
      "type": "function"
    },
    {
      "inputs": [
        {
          "internalType": "uint256",
          "name": "_id",
          "type": "uint256"
        },
        {
          "internalType": "address payable",
          "name": "newOwner",
          "type": "address"
        },
        {
          "internalType": "address",
          "name": "oldOwner",
          "type": "address"
        }
      ],
      "name": "changeOwner",
      "outputs": [],
      "stateMutability": "nonpayable",
      "type": "function"
    },
    {
      "inputs": [
        {
          "internalType": "uint256",
          "name": "_id",
          "type": "uint256"
        },
        {
          "internalType": "string",
          "name": "newSign",
          "type": "string"
        }
      ],
      "name": "changeSign",
      "outputs": [],
      "stateMutability": "nonpayable",
      "type": "function"
    },
    {
      "inputs": [
        {
          "internalType": "uint256",
          "name": "imageID",
          "type": "uint256"
        }
      ],
      "name": "getImageOwner",
      "outputs": [
        {
          "internalType": "address",
          "name": "",
          "type": "address"
        }
      ],
      "stateMutability": "view",
      "type": "function"
    },
    {
      "inputs": [
        {
          "internalType": "uint256",
          "name": "imageID",
          "type": "uint256"
        }
      ],
      "name": "getImageAuthor",
      "outputs": [
        {
          "internalType": "address",
          "name": "",
          "type": "address"
        }
      ],
      "stateMutability": "view",
      "type": "function"
    }
  ],
  "bytecode": "0x608060405260006001553480156200001657600080fd5b506040518060400160405280600781526020017f72656c656173650000000000000000000000000000000000000000000000000081525060009080519060200190620000649291906200006b565b506200017f565b82805462000079906200014a565b90600052602060002090601f0160209004810192826200009d5760008555620000e9565b82601f10620000b857805160ff1916838001178555620000e9565b82800160010185558215620000e9579182015b82811115620000e8578251825591602001919060010190620000cb565b5b509050620000f89190620000fc565b5090565b5b8082111562000117576000816000905550600101620000fd565b5090565b7f4e487b7100000000000000000000000000000000000000000000000000000000600052602260045260246000fd5b600060028204905060018216806200016357607f821691505b6020821081036200017957620001786200011b565b5b50919050565b611960806200018f6000396000f3fe608060405234801561001057600080fd5b50600436106100885760003560e01c806392053b631161005b57806392053b631461012d578063a9b114261461014b578063f0ed0f361461017b578063fdfc88731461019757610088565b80631440bd071461008d57806350a07b6f146100bd57806375d0c0dc146100d957806384856482146100f7575b600080fd5b6100a760048036038101906100a29190611326565b6101b3565b6040516100b49190611394565b60405180910390f35b6100d760048036038101906100d291906114f5565b61020d565b005b6100e16106c9565b6040516100ee91906115d9565b60405180910390f35b610111600480360381019061010c9190611326565b610757565b604051610124979695949392919061162b565b60405180910390f35b6101356109f9565b60405161014291906116b6565b60405180910390f35b61016560048036038101906101609190611326565b6109ff565b6040516101729190611394565b60405180910390f35b61019560048036038101906101909190611729565b610a59565b005b6101b160048036038101906101ac919061177c565b610fe0565b005b600080821180156101c657506001548211155b6101cf57600080fd5b6002600083815260200190815260200160002060050160009054906101000a900473ffffffffffffffffffffffffffffffffffffffff169050919050565b60008211801561021f57506001548211155b61022857600080fd5b600081511161023657600080fd5b6000600260008481526020019081526020016000206040518060e00160405290816000820154815260200160018201805461027090611882565b80601f016020809104026020016040519081016040528092919081815260200182805461029c90611882565b80156102e95780601f106102be576101008083540402835291602001916102e9565b820191906000526020600020905b8154815290600101906020018083116102cc57829003601f168201915b5050505050815260200160028201805461030290611882565b80601f016020809104026020016040519081016040528092919081815260200182805461032e90611882565b801561037b5780601f106103505761010080835404028352916020019161037b565b820191906000526020600020905b81548152906001019060200180831161035e57829003601f168201915b5050505050815260200160038201805461039490611882565b80601f01602080910402602001604051908101604052809291908181526020018280546103c090611882565b801561040d5780601f106103e25761010080835404028352916020019161040d565b820191906000526020600020905b8154815290600101906020018083116103f057829003601f168201915b5050505050815260200160048201805461042690611882565b80601f016020809104026020016040519081016040528092919081815260200182805461045290611882565b801561049f5780601f106104745761010080835404028352916020019161049f565b820191906000526020600020905b81548152906001019060200180831161048257829003601f168201915b505050505081526020016005820160009054906101000a900473ffffffffffffffffffffffffffffffffffffffff1673ffffffffffffffffffffffffffffffffffffffff1673ffffffffffffffffffffffffffffffffffffffff1681526020016006820160009054906101000a900473ffffffffffffffffffffffffffffffffffffffff1673ffffffffffffffffffffffffffffffffffffffff1673ffffffffffffffffffffffffffffffffffffffff1681525050905060008160c0015190508073ffffffffffffffffffffffffffffffffffffffff163373ffffffffffffffffffffffffffffffffffffffff161461059757600080fd5b82826060018190525081600260008681526020019081526020016000206000820151816000015560208201518160010190805190602001906105da929190611239565b5060408201518160020190805190602001906105f7929190611239565b506060820151816003019080519060200190610614929190611239565b506080820151816004019080519060200190610631929190611239565b5060a08201518160050160006101000a81548173ffffffffffffffffffffffffffffffffffffffff021916908373ffffffffffffffffffffffffffffffffffffffff16021790555060c08201518160060160006101000a81548173ffffffffffffffffffffffffffffffffffffffff021916908373ffffffffffffffffffffffffffffffffffffffff16021790555090505050505050565b600080546106d690611882565b80601f016020809104026020016040519081016040528092919081815260200182805461070290611882565b801561074f5780601f106107245761010080835404028352916020019161074f565b820191906000526020600020905b81548152906001019060200180831161073257829003601f168201915b505050505081565b600260205280600052604060002060009150905080600001549080600101805461078090611882565b80601f01602080910402602001604051908101604052809291908181526020018280546107ac90611882565b80156107f95780601f106107ce576101008083540402835291602001916107f9565b820191906000526020600020905b8154815290600101906020018083116107dc57829003601f168201915b50505050509080600201805461080e90611882565b80601f016020809104026020016040519081016040528092919081815260200182805461083a90611882565b80156108875780601f1061085c57610100808354040283529160200191610887565b820191906000526020600020905b81548152906001019060200180831161086a57829003601f168201915b50505050509080600301805461089c90611882565b80601f01602080910402602001604051908101604052809291908181526020018280546108c890611882565b80156109155780601f106108ea57610100808354040283529160200191610915565b820191906000526020600020905b8154815290600101906020018083116108f857829003601f168201915b50505050509080600401805461092a90611882565b80601f016020809104026020016040519081016040528092919081815260200182805461095690611882565b80156109a35780601f10610978576101008083540402835291602001916109a3565b820191906000526020600020905b81548152906001019060200180831161098657829003601f168201915b5050505050908060050160009054906101000a900473ffffffffffffffffffffffffffffffffffffffff16908060060160009054906101000a900473ffffffffffffffffffffffffffffffffffffffff16905087565b60015481565b60008082118015610a1257506001548211155b610a1b57600080fd5b6002600083815260200190815260200160002060060160009054906101000a900473ffffffffffffffffffffffffffffffffffffffff169050919050565b600083118015610a6b57506001548311155b610a7457600080fd5b6000600260008581526020019081526020016000206040518060e001604052908160008201548152602001600182018054610aae90611882565b80601f0160208091040260200160405190810160405280929190818152602001828054610ada90611882565b8015610b275780601f10610afc57610100808354040283529160200191610b27565b820191906000526020600020905b815481529060010190602001808311610b0a57829003601f168201915b50505050508152602001600282018054610b4090611882565b80601f0160208091040260200160405190810160405280929190818152602001828054610b6c90611882565b8015610bb95780601f10610b8e57610100808354040283529160200191610bb9565b820191906000526020600020905b815481529060010190602001808311610b9c57829003601f168201915b50505050508152602001600382018054610bd290611882565b80601f0160208091040260200160405190810160405280929190818152602001828054610bfe90611882565b8015610c4b5780601f10610c2057610100808354040283529160200191610c4b565b820191906000526020600020905b815481529060010190602001808311610c2e57829003601f168201915b50505050508152602001600482018054610c6490611882565b80601f0160208091040260200160405190810160405280929190818152602001828054610c9090611882565b8015610cdd5780601f10610cb257610100808354040283529160200191610cdd565b820191906000526020600020905b815481529060010190602001808311610cc057829003601f168201915b505050505081526020016005820160009054906101000a900473ffffffffffffffffffffffffffffffffffffffff1673ffffffffffffffffffffffffffffffffffffffff1673ffffffffffffffffffffffffffffffffffffffff1681526020016006820160009054906101000a900473ffffffffffffffffffffffffffffffffffffffff1673ffffffffffffffffffffffffffffffffffffffff1673ffffffffffffffffffffffffffffffffffffffff1681525050905060008160c0015190508073ffffffffffffffffffffffffffffffffffffffff163273ffffffffffffffffffffffffffffffffffffffff1614610dd557600080fd5b8273ffffffffffffffffffffffffffffffffffffffff163273ffffffffffffffffffffffffffffffffffffffff1614610e0d57600080fd5b8073ffffffffffffffffffffffffffffffffffffffff168473ffffffffffffffffffffffffffffffffffffffff1603610e4557600080fd5b600073ffffffffffffffffffffffffffffffffffffffff168473ffffffffffffffffffffffffffffffffffffffff1603610e7e57600080fd5b838260c0019073ffffffffffffffffffffffffffffffffffffffff16908173ffffffffffffffffffffffffffffffffffffffff16815250508160026000878152602001908152602001600020600082015181600001556020820151816001019080519060200190610ef0929190611239565b506040820151816002019080519060200190610f0d929190611239565b506060820151816003019080519060200190610f2a929190611239565b506080820151816004019080519060200190610f47929190611239565b5060a08201518160050160006101000a81548173ffffffffffffffffffffffffffffffffffffffff021916908373ffffffffffffffffffffffffffffffffffffffff16021790555060c08201518160060160006101000a81548173ffffffffffffffffffffffffffffffffffffffff021916908373ffffffffffffffffffffffffffffffffffffffff1602179055509050505050505050565b6000845111610fee57600080fd5b6000835111610ffc57600080fd5b600082511161100a57600080fd5b600081511161101857600080fd5b600073ffffffffffffffffffffffffffffffffffffffff163373ffffffffffffffffffffffffffffffffffffffff160361105157600080fd5b60016000815480929190611064906118e2565b91905055506040518060e0016040528060015481526020018581526020018481526020018381526020018281526020013373ffffffffffffffffffffffffffffffffffffffff1681526020013373ffffffffffffffffffffffffffffffffffffffff16815250600260006001548152602001908152602001600020600082015181600001556020820151816001019080519060200190611105929190611239565b506040820151816002019080519060200190611122929190611239565b50606082015181600301908051906020019061113f929190611239565b50608082015181600401908051906020019061115c929190611239565b5060a08201518160050160006101000a81548173ffffffffffffffffffffffffffffffffffffffff021916908373ffffffffffffffffffffffffffffffffffffffff16021790555060c08201518160060160006101000a81548173ffffffffffffffffffffffffffffffffffffffff021916908373ffffffffffffffffffffffffffffffffffffffff1602179055509050507f801b79e9f8a7e351922f85b2d3bca4d34c7708b4eb20e5255bc199afff902eb060015485858585333360405161122b979695949392919061162b565b60405180910390a150505050565b82805461124590611882565b90600052602060002090601f01602090048101928261126757600085556112ae565b82601f1061128057805160ff19168380011785556112ae565b828001600101855582156112ae579182015b828111156112ad578251825591602001919060010190611292565b5b5090506112bb91906112bf565b5090565b5b808211156112d85760008160009055506001016112c0565b5090565b6000604051905090565b600080fd5b600080fd5b6000819050919050565b611303816112f0565b811461130e57600080fd5b50565b600081359050611320816112fa565b92915050565b60006020828403121561133c5761133b6112e6565b5b600061134a84828501611311565b91505092915050565b600073ffffffffffffffffffffffffffffffffffffffff82169050919050565b600061137e82611353565b9050919050565b61138e81611373565b82525050565b60006020820190506113a96000830184611385565b92915050565b600080fd5b600080fd5b6000601f19601f8301169050919050565b7f4e487b7100000000000000000000000000000000000000000000000000000000600052604160045260246000fd5b611402826113b9565b810181811067ffffffffffffffff82111715611421576114206113ca565b5b80604052505050565b60006114346112dc565b905061144082826113f9565b919050565b600067ffffffffffffffff8211156114605761145f6113ca565b5b611469826113b9565b9050602081019050919050565b82818337600083830152505050565b600061149861149384611445565b61142a565b9050828152602081018484840111156114b4576114b36113b4565b5b6114bf848285611476565b509392505050565b600082601f8301126114dc576114db6113af565b5b81356114ec848260208601611485565b91505092915050565b6000806040838503121561150c5761150b6112e6565b5b600061151a85828601611311565b925050602083013567ffffffffffffffff81111561153b5761153a6112eb565b5b611547858286016114c7565b9150509250929050565b600081519050919050565b600082825260208201905092915050565b60005b8381101561158b578082015181840152602081019050611570565b8381111561159a576000848401525b50505050565b60006115ab82611551565b6115b5818561155c565b93506115c581856020860161156d565b6115ce816113b9565b840191505092915050565b600060208201905081810360008301526115f381846115a0565b905092915050565b611604816112f0565b82525050565b600061161582611353565b9050919050565b6116258161160a565b82525050565b600060e082019050611640600083018a6115fb565b818103602083015261165281896115a0565b9050818103604083015261166681886115a0565b9050818103606083015261167a81876115a0565b9050818103608083015261168e81866115a0565b905061169d60a083018561161c565b6116aa60c083018461161c565b98975050505050505050565b60006020820190506116cb60008301846115fb565b92915050565b6116da8161160a565b81146116e557600080fd5b50565b6000813590506116f7816116d1565b92915050565b61170681611373565b811461171157600080fd5b50565b600081359050611723816116fd565b92915050565b600080600060608486031215611742576117416112e6565b5b600061175086828701611311565b9350506020611761868287016116e8565b925050604061177286828701611714565b9150509250925092565b60008060008060808587031215611796576117956112e6565b5b600085013567ffffffffffffffff8111156117b4576117b36112eb565b5b6117c0878288016114c7565b945050602085013567ffffffffffffffff8111156117e1576117e06112eb565b5b6117ed878288016114c7565b935050604085013567ffffffffffffffff81111561180e5761180d6112eb565b5b61181a878288016114c7565b925050606085013567ffffffffffffffff81111561183b5761183a6112eb565b5b611847878288016114c7565b91505092959194509250565b7f4e487b7100000000000000000000000000000000000000000000000000000000600052602260045260246000fd5b6000600282049050600182168061189a57607f821691505b6020821081036118ad576118ac611853565b5b50919050565b7f4e487b7100000000000000000000000000000000000000000000000000000000600052601160045260246000fd5b60006118ed826112f0565b91507fffffffffffffffffffffffffffffffffffffffffffffffffffffffffffffffff820361191f5761191e6118b3565b5b60018201905091905056fea2646970667358221220ddb9c18f2ee2f1bf6d8bf21e5d5dfe1366aed825f7a634e299e68f6aee9b0a0f64736f6c634300080d0033",
  "immutableReferences": {},
  "source": "// SPDX-License-Identifier: SimPL-2.0\r\npragma solidity ^0.8.12;\r\n\r\ncontract Release{\r\n    \r\n    string public contractName;\r\n    uint public imageCount = 0;\r\n    mapping(uint => Image) public images;\r\n    \r\n    struct Image{\r\n        uint id;\r\n        string hash;\r\n        string sha3;\r\n        string signature;\r\n        string title;\r\n        address payable author;\r\n        address payable owner;\r\n    }\r\n\r\n    event ImageCreated(\r\n        uint id,\r\n        string hash,\r\n        string sha3,\r\n        string signature,\r\n        string title,\r\n        address payable author,\r\n        address payable owner\r\n    );\r\n\r\n    constructor()  {\r\n      contractName = \"release\";\r\n    }\r\n    \r\n    function uploadImage(\r\n        string memory _imgHash,\r\n        string memory _imgSHA3, \r\n        string memory _imgSign,\r\n        string memory _title) public {\r\n\r\n        //check requires\r\n        require(bytes(_imgHash).length > 0);\r\n        require(bytes(_imgSHA3).length > 0);\r\n        require(bytes(_imgSign).length > 0);\r\n        require(bytes(_title).length > 0);\r\n        require(msg.sender != address(0x0));\r\n\r\n        imageCount++;\r\n        images[imageCount] = Image(\r\n            imageCount,\r\n            _imgHash,\r\n            _imgSHA3,\r\n            _imgSign,\r\n            _title, \r\n            payable(msg.sender),payable(msg.sender));\r\n        emit ImageCreated(\r\n            imageCount,\r\n            _imgHash,\r\n            _imgSHA3,\r\n            _imgSign,\r\n            _title, \r\n            payable(msg.sender), payable(msg.sender));\r\n    }\r\n\r\n    function changeOwner(\r\n        uint _id,\r\n        address payable newOwner,\r\n        address oldOwner\r\n        ) public {\r\n        \r\n        require(_id > 0 && _id <= imageCount );\r\n        // get image data\r\n        Image memory _image = images[_id];\r\n        //get Owner's address\r\n        // oldOwner = oldOwner;\r\n        address _owner = _image.owner;\r\n        \r\n        require(tx.origin == _owner);\r\n        require(tx.origin == oldOwner);\r\n        require(newOwner != _owner);\r\n        require(newOwner != address(0x0));\r\n        \r\n        _image.owner = newOwner;\r\n        images[_id] = _image;\r\n    }\r\n\r\n    function changeSign(uint _id, string memory newSign) public{\r\n      require(_id > 0 && _id <= imageCount );\r\n      require(bytes(newSign).length > 0);\r\n      //get image data\r\n      Image memory _image = images[_id];\r\n      //get Owner's address\r\n      address _owner = _image.owner;\r\n      require(msg.sender == _owner);\r\n\r\n      _image.signature = newSign;\r\n      images[_id] = _image;\r\n    } \r\n\r\n    function getImageOwner(uint imageID) public view returns(address) {\r\n      require(imageID > 0 && imageID <= imageCount );\r\n      return images[imageID].owner;\r\n    }\r\n\r\n    function getImageAuthor(uint imageID) public view returns(address) {\r\n      require(imageID > 0 && imageID <= imageCount );\r\n      return images[imageID].author;\r\n    }\r\n}",
  "sourcePath": "D:\\Fun\\proj12\\Dimage\\contracts\\Release.sol",
  "compiler": {
    "name": "solc",
    "version": "0.8.13+commit.abaa5c0e.Emscripten.clang"
  },
  "schemaVersion": "3.4.5",
  "updatedAt": "2022-04-26T10:13:57.922Z",
  "devdoc": {
    "kind": "dev",
    "methods": {},
    "version": 1
  },
  "userdoc": {
    "kind": "user",
    "methods": {},
    "version": 1
  }
}