{
  "contractName": "Release",
  "abi": [
    {
      "inputs": [],
      "stateMutability": "nonpayable",
      "type": "constructor"
    },
    {
      "anonymous": false,
      "inputs": [
        {
          "indexed": false,
          "internalType": "uint256",
          "name": "id",
          "type": "uint256"
        },
        {
          "indexed": false,
          "internalType": "string",
          "name": "hash",
          "type": "string"
        },
        {
          "indexed": false,
          "internalType": "string",
          "name": "sha3",
          "type": "string"
        },
        {
          "indexed": false,
          "internalType": "string",
          "name": "signature",
          "type": "string"
        },
        {
          "indexed": false,
          "internalType": "string",
          "name": "title",
          "type": "string"
        },
        {
          "indexed": false,
          "internalType": "address payable",
          "name": "author",
          "type": "address"
        },
        {
          "indexed": false,
          "internalType": "address payable",
          "name": "owner",
          "type": "address"
        }
      ],
      "name": "ImageCreated",
      "type": "event"
    },
    {
      "inputs": [],
      "name": "contractName",
      "outputs": [
        {
          "internalType": "string",
          "name": "",
          "type": "string"
        }
      ],
      "stateMutability": "view",
      "type": "function"
    },
    {
      "inputs": [],
      "name": "imageCount",
      "outputs": [
        {
          "internalType": "uint256",
          "name": "",
          "type": "uint256"
        }
      ],
      "stateMutability": "view",
      "type": "function"
    },
    {
      "inputs": [
        {
          "internalType": "uint256",
          "name": "",
          "type": "uint256"
        }
      ],
      "name": "images",
      "outputs": [
        {
          "internalType": "uint256",
          "name": "id",
          "type": "uint256"
        },
        {
          "internalType": "string",
          "name": "hash",
          "type": "string"
        },
        {
          "internalType": "string",
          "name": "sha3",
          "type": "string"
        },
        {
          "internalType": "string",
          "name": "signature",
          "type": "string"
        },
        {
          "internalType": "string",
          "name": "title",
          "type": "string"
        },
        {
          "internalType": "address payable",
          "name": "author",
          "type": "address"
        },
        {
          "internalType": "address payable",
          "name": "owner",
          "type": "address"
        }
      ],
      "stateMutability": "view",
      "type": "function"
    },
    {
      "inputs": [
        {
          "internalType": "string",
          "name": "_imgHash",
          "type": "string"
        },
        {
          "internalType": "string",
          "name": "_imgSHA3",
          "type": "string"
        },
        {
          "internalType": "string",
          "name": "_imgSign",
          "type": "string"
        },
        {
          "internalType": "string",
          "name": "_title",
          "type": "string"
        }
      ],
      "name": "uploadImage",
      "outputs": [],
      "stateMutability": "nonpayable",
      "type": "function"
    },
    {
      "inputs": [
        {
          "internalType": "uint256",
          "name": "_id",
          "type": "uint256"
        },
        {
          "internalType": "address payable",
          "name": "newOwner",
          "type": "address"
        },
        {
          "internalType": "address",
          "name": "oldOwner",
          "type": "address"
        }
      ],
      "name": "changeOwner",
      "outputs": [],
      "stateMutability": "payable",
      "type": "function"
    },
    {
      "inputs": [
        {
          "internalType": "uint256",
          "name": "_id",
          "type": "uint256"
        },
        {
          "internalType": "string",
          "name": "newSign",
          "type": "string"
        }
      ],
      "name": "changeSign",
      "outputs": [],
      "stateMutability": "payable",
      "type": "function"
    }
  ],
  "bytecode": "0x608060405260006001553480156200001657600080fd5b506040518060400160405280600781526020017f72656c656173650000000000000000000000000000000000000000000000000081525060009080519060200190620000649291906200006b565b506200017f565b82805462000079906200014a565b90600052602060002090601f0160209004810192826200009d5760008555620000e9565b82601f10620000b857805160ff1916838001178555620000e9565b82800160010185558215620000e9579182015b82811115620000e8578251825591602001919060010190620000cb565b5b509050620000f89190620000fc565b5090565b5b8082111562000117576000816000905550600101620000fd565b5090565b7f4e487b7100000000000000000000000000000000000000000000000000000000600052602260045260246000fd5b600060028204905060018216806200016357607f821691505b6020821081036200017957620001786200011b565b5b50919050565b611823806200018f6000396000f3fe6080604052600436106100555760003560e01c806350a07b6f1461005a57806375d0c0dc1461007657806384856482146100a157806392053b63146100e4578063f0ed0f361461010f578063fdfc88731461012b575b600080fd5b610074600480360381019061006f9190611359565b610154565b005b34801561008257600080fd5b5061008b610610565b604051610098919061143d565b60405180910390f35b3480156100ad57600080fd5b506100c860048036038101906100c3919061145f565b61069e565b6040516100db97969594939291906114dc565b60405180910390f35b3480156100f057600080fd5b506100f9610940565b6040516101069190611567565b60405180910390f35b610129600480360381019061012491906115ec565b610946565b005b34801561013757600080fd5b50610152600480360381019061014d919061163f565b610ecd565b005b60008211801561016657506001548211155b61016f57600080fd5b600081511161017d57600080fd5b6000600260008481526020019081526020016000206040518060e0016040529081600082015481526020016001820180546101b790611745565b80601f01602080910402602001604051908101604052809291908181526020018280546101e390611745565b80156102305780601f1061020557610100808354040283529160200191610230565b820191906000526020600020905b81548152906001019060200180831161021357829003601f168201915b5050505050815260200160028201805461024990611745565b80601f016020809104026020016040519081016040528092919081815260200182805461027590611745565b80156102c25780601f10610297576101008083540402835291602001916102c2565b820191906000526020600020905b8154815290600101906020018083116102a557829003601f168201915b505050505081526020016003820180546102db90611745565b80601f016020809104026020016040519081016040528092919081815260200182805461030790611745565b80156103545780601f1061032957610100808354040283529160200191610354565b820191906000526020600020905b81548152906001019060200180831161033757829003601f168201915b5050505050815260200160048201805461036d90611745565b80601f016020809104026020016040519081016040528092919081815260200182805461039990611745565b80156103e65780601f106103bb576101008083540402835291602001916103e6565b820191906000526020600020905b8154815290600101906020018083116103c957829003601f168201915b505050505081526020016005820160009054906101000a900473ffffffffffffffffffffffffffffffffffffffff1673ffffffffffffffffffffffffffffffffffffffff1673ffffffffffffffffffffffffffffffffffffffff1681526020016006820160009054906101000a900473ffffffffffffffffffffffffffffffffffffffff1673ffffffffffffffffffffffffffffffffffffffff1673ffffffffffffffffffffffffffffffffffffffff1681525050905060008160c0015190508073ffffffffffffffffffffffffffffffffffffffff163373ffffffffffffffffffffffffffffffffffffffff16146104de57600080fd5b8282606001819052508160026000868152602001908152602001600020600082015181600001556020820151816001019080519060200190610521929190611126565b50604082015181600201908051906020019061053e929190611126565b50606082015181600301908051906020019061055b929190611126565b506080820151816004019080519060200190610578929190611126565b5060a08201518160050160006101000a81548173ffffffffffffffffffffffffffffffffffffffff021916908373ffffffffffffffffffffffffffffffffffffffff16021790555060c08201518160060160006101000a81548173ffffffffffffffffffffffffffffffffffffffff021916908373ffffffffffffffffffffffffffffffffffffffff16021790555090505050505050565b6000805461061d90611745565b80601f016020809104026020016040519081016040528092919081815260200182805461064990611745565b80156106965780601f1061066b57610100808354040283529160200191610696565b820191906000526020600020905b81548152906001019060200180831161067957829003601f168201915b505050505081565b60026020528060005260406000206000915090508060000154908060010180546106c790611745565b80601f01602080910402602001604051908101604052809291908181526020018280546106f390611745565b80156107405780601f1061071557610100808354040283529160200191610740565b820191906000526020600020905b81548152906001019060200180831161072357829003601f168201915b50505050509080600201805461075590611745565b80601f016020809104026020016040519081016040528092919081815260200182805461078190611745565b80156107ce5780601f106107a3576101008083540402835291602001916107ce565b820191906000526020600020905b8154815290600101906020018083116107b157829003601f168201915b5050505050908060030180546107e390611745565b80601f016020809104026020016040519081016040528092919081815260200182805461080f90611745565b801561085c5780601f106108315761010080835404028352916020019161085c565b820191906000526020600020905b81548152906001019060200180831161083f57829003601f168201915b50505050509080600401805461087190611745565b80601f016020809104026020016040519081016040528092919081815260200182805461089d90611745565b80156108ea5780601f106108bf576101008083540402835291602001916108ea565b820191906000526020600020905b8154815290600101906020018083116108cd57829003601f168201915b5050505050908060050160009054906101000a900473ffffffffffffffffffffffffffffffffffffffff16908060060160009054906101000a900473ffffffffffffffffffffffffffffffffffffffff16905087565b60015481565b60008311801561095857506001548311155b61096157600080fd5b6000600260008581526020019081526020016000206040518060e00160405290816000820154815260200160018201805461099b90611745565b80601f01602080910402602001604051908101604052809291908181526020018280546109c790611745565b8015610a145780601f106109e957610100808354040283529160200191610a14565b820191906000526020600020905b8154815290600101906020018083116109f757829003601f168201915b50505050508152602001600282018054610a2d90611745565b80601f0160208091040260200160405190810160405280929190818152602001828054610a5990611745565b8015610aa65780601f10610a7b57610100808354040283529160200191610aa6565b820191906000526020600020905b815481529060010190602001808311610a8957829003601f168201915b50505050508152602001600382018054610abf90611745565b80601f0160208091040260200160405190810160405280929190818152602001828054610aeb90611745565b8015610b385780601f10610b0d57610100808354040283529160200191610b38565b820191906000526020600020905b815481529060010190602001808311610b1b57829003601f168201915b50505050508152602001600482018054610b5190611745565b80601f0160208091040260200160405190810160405280929190818152602001828054610b7d90611745565b8015610bca5780601f10610b9f57610100808354040283529160200191610bca565b820191906000526020600020905b815481529060010190602001808311610bad57829003601f168201915b505050505081526020016005820160009054906101000a900473ffffffffffffffffffffffffffffffffffffffff1673ffffffffffffffffffffffffffffffffffffffff1673ffffffffffffffffffffffffffffffffffffffff1681526020016006820160009054906101000a900473ffffffffffffffffffffffffffffffffffffffff1673ffffffffffffffffffffffffffffffffffffffff1673ffffffffffffffffffffffffffffffffffffffff1681525050905060008160c0015190508073ffffffffffffffffffffffffffffffffffffffff163373ffffffffffffffffffffffffffffffffffffffff1614610cc257600080fd5b8073ffffffffffffffffffffffffffffffffffffffff168373ffffffffffffffffffffffffffffffffffffffff1614610cfa57600080fd5b8073ffffffffffffffffffffffffffffffffffffffff168473ffffffffffffffffffffffffffffffffffffffff1603610d3257600080fd5b600073ffffffffffffffffffffffffffffffffffffffff168473ffffffffffffffffffffffffffffffffffffffff1603610d6b57600080fd5b838260c0019073ffffffffffffffffffffffffffffffffffffffff16908173ffffffffffffffffffffffffffffffffffffffff16815250508160026000878152602001908152602001600020600082015181600001556020820151816001019080519060200190610ddd929190611126565b506040820151816002019080519060200190610dfa929190611126565b506060820151816003019080519060200190610e17929190611126565b506080820151816004019080519060200190610e34929190611126565b5060a08201518160050160006101000a81548173ffffffffffffffffffffffffffffffffffffffff021916908373ffffffffffffffffffffffffffffffffffffffff16021790555060c08201518160060160006101000a81548173ffffffffffffffffffffffffffffffffffffffff021916908373ffffffffffffffffffffffffffffffffffffffff1602179055509050505050505050565b6000845111610edb57600080fd5b6000835111610ee957600080fd5b6000825111610ef757600080fd5b6000815111610f0557600080fd5b600073ffffffffffffffffffffffffffffffffffffffff163373ffffffffffffffffffffffffffffffffffffffff1603610f3e57600080fd5b60016000815480929190610f51906117a5565b91905055506040518060e0016040528060015481526020018581526020018481526020018381526020018281526020013373ffffffffffffffffffffffffffffffffffffffff1681526020013373ffffffffffffffffffffffffffffffffffffffff16815250600260006001548152602001908152602001600020600082015181600001556020820151816001019080519060200190610ff2929190611126565b50604082015181600201908051906020019061100f929190611126565b50606082015181600301908051906020019061102c929190611126565b506080820151816004019080519060200190611049929190611126565b5060a08201518160050160006101000a81548173ffffffffffffffffffffffffffffffffffffffff021916908373ffffffffffffffffffffffffffffffffffffffff16021790555060c08201518160060160006101000a81548173ffffffffffffffffffffffffffffffffffffffff021916908373ffffffffffffffffffffffffffffffffffffffff1602179055509050507f801b79e9f8a7e351922f85b2d3bca4d34c7708b4eb20e5255bc199afff902eb060015485858585333360405161111897969594939291906114dc565b60405180910390a150505050565b82805461113290611745565b90600052602060002090601f016020900481019282611154576000855561119b565b82601f1061116d57805160ff191683800117855561119b565b8280016001018555821561119b579182015b8281111561119a57825182559160200191906001019061117f565b5b5090506111a891906111ac565b5090565b5b808211156111c55760008160009055506001016111ad565b5090565b6000604051905090565b600080fd5b600080fd5b6000819050919050565b6111f0816111dd565b81146111fb57600080fd5b50565b60008135905061120d816111e7565b92915050565b600080fd5b600080fd5b6000601f19601f8301169050919050565b7f4e487b7100000000000000000000000000000000000000000000000000000000600052604160045260246000fd5b6112668261121d565b810181811067ffffffffffffffff821117156112855761128461122e565b5b80604052505050565b60006112986111c9565b90506112a4828261125d565b919050565b600067ffffffffffffffff8211156112c4576112c361122e565b5b6112cd8261121d565b9050602081019050919050565b82818337600083830152505050565b60006112fc6112f7846112a9565b61128e565b90508281526020810184848401111561131857611317611218565b5b6113238482856112da565b509392505050565b600082601f8301126113405761133f611213565b5b81356113508482602086016112e9565b91505092915050565b600080604083850312156113705761136f6111d3565b5b600061137e858286016111fe565b925050602083013567ffffffffffffffff81111561139f5761139e6111d8565b5b6113ab8582860161132b565b9150509250929050565b600081519050919050565b600082825260208201905092915050565b60005b838110156113ef5780820151818401526020810190506113d4565b838111156113fe576000848401525b50505050565b600061140f826113b5565b61141981856113c0565b93506114298185602086016113d1565b6114328161121d565b840191505092915050565b600060208201905081810360008301526114578184611404565b905092915050565b600060208284031215611475576114746111d3565b5b6000611483848285016111fe565b91505092915050565b611495816111dd565b82525050565b600073ffffffffffffffffffffffffffffffffffffffff82169050919050565b60006114c68261149b565b9050919050565b6114d6816114bb565b82525050565b600060e0820190506114f1600083018a61148c565b81810360208301526115038189611404565b905081810360408301526115178188611404565b9050818103606083015261152b8187611404565b9050818103608083015261153f8186611404565b905061154e60a08301856114cd565b61155b60c08301846114cd565b98975050505050505050565b600060208201905061157c600083018461148c565b92915050565b61158b816114bb565b811461159657600080fd5b50565b6000813590506115a881611582565b92915050565b60006115b98261149b565b9050919050565b6115c9816115ae565b81146115d457600080fd5b50565b6000813590506115e6816115c0565b92915050565b600080600060608486031215611605576116046111d3565b5b6000611613868287016111fe565b935050602061162486828701611599565b9250506040611635868287016115d7565b9150509250925092565b60008060008060808587031215611659576116586111d3565b5b600085013567ffffffffffffffff811115611677576116766111d8565b5b6116838782880161132b565b945050602085013567ffffffffffffffff8111156116a4576116a36111d8565b5b6116b08782880161132b565b935050604085013567ffffffffffffffff8111156116d1576116d06111d8565b5b6116dd8782880161132b565b925050606085013567ffffffffffffffff8111156116fe576116fd6111d8565b5b61170a8782880161132b565b91505092959194509250565b7f4e487b7100000000000000000000000000000000000000000000000000000000600052602260045260246000fd5b6000600282049050600182168061175d57607f821691505b6020821081036117705761176f611716565b5b50919050565b7f4e487b7100000000000000000000000000000000000000000000000000000000600052601160045260246000fd5b60006117b0826111dd565b91507fffffffffffffffffffffffffffffffffffffffffffffffffffffffffffffffff82036117e2576117e1611776565b5b60018201905091905056fea26469706673582212200276e2ff0e0d2257b8a4971e1693de33a9359aeab6bdb065fda2c053c47f89ad64736f6c634300080d0033",
  "immutableReferences": {},
  "source": "// SPDX-License-Identifier: SimPL-2.0\r\npragma solidity ^0.8.12;\r\n\r\ncontract Release{\r\n    \r\n    string public contractName;\r\n    uint public imageCount = 0;\r\n    mapping(uint => Image) public images;\r\n    \r\n    struct Image{\r\n        uint id;\r\n        string hash;\r\n        string sha3;\r\n        string signature;\r\n        string title;\r\n        address payable author;\r\n        address payable owner;\r\n    }\r\n\r\n    event ImageCreated(\r\n        uint id,\r\n        string hash,\r\n        string sha3,\r\n        string signature,\r\n        string title,\r\n        address payable author,\r\n        address payable owner\r\n    );\r\n\r\n    constructor()  {\r\n      contractName = \"release\";\r\n    }\r\n    \r\n    function uploadImage(\r\n        string memory _imgHash,\r\n        string memory _imgSHA3, \r\n        string memory _imgSign,\r\n        string memory _title) public {\r\n\r\n        //check requires\r\n        require(bytes(_imgHash).length > 0);\r\n        require(bytes(_imgSHA3).length > 0);\r\n        require(bytes(_imgSign).length > 0);\r\n        require(bytes(_title).length > 0);\r\n        require(msg.sender != address(0x0));\r\n\r\n        imageCount++;\r\n        images[imageCount] = Image(\r\n            imageCount,\r\n            _imgHash,\r\n            _imgSHA3,\r\n            _imgSign,\r\n            _title, \r\n            payable(msg.sender),payable(msg.sender));\r\n        emit ImageCreated(\r\n            imageCount,\r\n            _imgHash,\r\n            _imgSHA3,\r\n            _imgSign,\r\n            _title, \r\n            payable(msg.sender), payable(msg.sender));\r\n    }\r\n\r\n    function changeOwner(\r\n        uint _id,\r\n        address payable newOwner,\r\n        address oldOwner\r\n        ) public payable{\r\n        \r\n\r\n        require(_id > 0 && _id <= imageCount );\r\n        //get image data\r\n        Image memory _image = images[_id];\r\n        //get Owner's address\r\n        address _owner = _image.owner;\r\n        \r\n        require(msg.sender == _owner);\r\n        require(oldOwner == _owner);\r\n        require(newOwner != _owner);\r\n        require(newOwner != address(0x0));\r\n        \r\n        _image.owner = newOwner;\r\n        images[_id] = _image;\r\n    }\r\n\r\n    function changeSign(uint _id, string memory newSign) public payable{\r\n      require(_id > 0 && _id <= imageCount );\r\n      require(bytes(newSign).length > 0);\r\n      //get image data\r\n      Image memory _image = images[_id];\r\n      //get Owner's address\r\n      address _owner = _image.owner;\r\n      require(msg.sender == _owner);\r\n\r\n      _image.signature = newSign;\r\n      images[_id] = _image;\r\n      \r\n    } \r\n}",
  "sourcePath": "D:\\Fun\\proj12\\Dimage\\contracts\\Release.sol",
  "compiler": {
    "name": "solc",
    "version": "0.8.13+commit.abaa5c0e.Emscripten.clang"
  },
  "schemaVersion": "3.4.5",
  "updatedAt": "2022-04-25T15:47:52.816Z",
  "devdoc": {
    "kind": "dev",
    "methods": {},
    "version": 1
  },
  "userdoc": {
    "kind": "user",
    "methods": {},
    "version": 1
  }
}