{
  "contractName": "Release",
  "abi": [
    {
      "inputs": [],
      "stateMutability": "nonpayable",
      "type": "constructor"
    },
    {
      "anonymous": false,
      "inputs": [
        {
          "indexed": false,
          "internalType": "uint256",
          "name": "id",
          "type": "uint256"
        },
        {
          "indexed": false,
          "internalType": "uint256",
          "name": "timestamp",
          "type": "uint256"
        },
        {
          "indexed": false,
          "internalType": "bytes32",
          "name": "sha3",
          "type": "bytes32"
        },
        {
          "indexed": false,
          "internalType": "bytes",
          "name": "signature",
          "type": "bytes"
        },
        {
          "indexed": false,
          "internalType": "string",
          "name": "ipfsHash",
          "type": "string"
        },
        {
          "indexed": false,
          "internalType": "address payable",
          "name": "author",
          "type": "address"
        },
        {
          "indexed": false,
          "internalType": "address payable",
          "name": "owner",
          "type": "address"
        }
      ],
      "name": "ImageCreated",
      "type": "event"
    },
    {
      "inputs": [],
      "name": "contractName",
      "outputs": [
        {
          "internalType": "string",
          "name": "",
          "type": "string"
        }
      ],
      "stateMutability": "view",
      "type": "function"
    },
    {
      "inputs": [],
      "name": "imageCount",
      "outputs": [
        {
          "internalType": "uint256",
          "name": "",
          "type": "uint256"
        }
      ],
      "stateMutability": "view",
      "type": "function"
    },
    {
      "inputs": [
        {
          "internalType": "uint256",
          "name": "",
          "type": "uint256"
        }
      ],
      "name": "images",
      "outputs": [
        {
          "internalType": "uint256",
          "name": "id",
          "type": "uint256"
        },
        {
          "internalType": "uint256",
          "name": "timestamp",
          "type": "uint256"
        },
        {
          "internalType": "uint32",
          "name": "txCount",
          "type": "uint32"
        },
        {
          "internalType": "bytes32",
          "name": "sha3",
          "type": "bytes32"
        },
        {
          "internalType": "bytes",
          "name": "signature",
          "type": "bytes"
        },
        {
          "internalType": "string",
          "name": "ipfsHash",
          "type": "string"
        },
        {
          "internalType": "address payable",
          "name": "author",
          "type": "address"
        },
        {
          "internalType": "address payable",
          "name": "owner",
          "type": "address"
        }
      ],
      "stateMutability": "view",
      "type": "function"
    },
    {
      "inputs": [
        {
          "internalType": "bytes32",
          "name": "",
          "type": "bytes32"
        }
      ],
      "name": "released",
      "outputs": [
        {
          "internalType": "uint8",
          "name": "",
          "type": "uint8"
        }
      ],
      "stateMutability": "view",
      "type": "function"
    },
    {
      "inputs": [
        {
          "internalType": "string",
          "name": "_ipfsHash",
          "type": "string"
        },
        {
          "internalType": "bytes32",
          "name": "_imgSHA3",
          "type": "bytes32"
        },
        {
          "internalType": "bytes",
          "name": "_imgSign",
          "type": "bytes"
        }
      ],
      "name": "uploadImage",
      "outputs": [],
      "stateMutability": "nonpayable",
      "type": "function"
    },
    {
      "inputs": [
        {
          "internalType": "uint256",
          "name": "_id",
          "type": "uint256"
        },
        {
          "internalType": "address payable",
          "name": "newOwner",
          "type": "address"
        }
      ],
      "name": "changeOwner",
      "outputs": [],
      "stateMutability": "nonpayable",
      "type": "function"
    },
    {
      "inputs": [
        {
          "internalType": "uint256",
          "name": "imageID",
          "type": "uint256"
        }
      ],
      "name": "incTxCount",
      "outputs": [],
      "stateMutability": "nonpayable",
      "type": "function"
    },
    {
      "inputs": [
        {
          "internalType": "uint256",
          "name": "imageID",
          "type": "uint256"
        }
      ],
      "name": "getTxCount",
      "outputs": [
        {
          "internalType": "uint256",
          "name": "",
          "type": "uint256"
        }
      ],
      "stateMutability": "view",
      "type": "function"
    },
    {
      "inputs": [
        {
          "internalType": "uint256",
          "name": "imageID",
          "type": "uint256"
        },
        {
          "internalType": "bytes",
          "name": "newSign",
          "type": "bytes"
        }
      ],
      "name": "changeSign",
      "outputs": [],
      "stateMutability": "nonpayable",
      "type": "function"
    },
    {
      "inputs": [
        {
          "internalType": "uint256",
          "name": "imageID",
          "type": "uint256"
        }
      ],
      "name": "getImageOwner",
      "outputs": [
        {
          "internalType": "address",
          "name": "",
          "type": "address"
        }
      ],
      "stateMutability": "view",
      "type": "function"
    },
    {
      "inputs": [
        {
          "internalType": "uint256",
          "name": "imageID",
          "type": "uint256"
        }
      ],
      "name": "getImageAuthor",
      "outputs": [
        {
          "internalType": "address",
          "name": "",
          "type": "address"
        }
      ],
      "stateMutability": "view",
      "type": "function"
    },
    {
      "inputs": [
        {
          "internalType": "uint256",
          "name": "imageID",
          "type": "uint256"
        }
      ],
      "name": "getPrevOwner",
      "outputs": [
        {
          "internalType": "address[]",
          "name": "",
          "type": "address[]"
        }
      ],
      "stateMutability": "view",
      "type": "function"
    },
    {
      "inputs": [
        {
          "internalType": "uint256",
          "name": "imageID",
          "type": "uint256"
        },
        {
          "internalType": "bytes32",
          "name": "testSHA3",
          "type": "bytes32"
        }
      ],
      "name": "isSHA3Match",
      "outputs": [
        {
          "internalType": "bool",
          "name": "",
          "type": "bool"
        }
      ],
      "stateMutability": "view",
      "type": "function"
    }
  ],
  "bytecode": "0x608060405260006001553480156200001657600080fd5b506040518060400160405280600781526020017f72656c656173650000000000000000000000000000000000000000000000000081525060009080519060200190620000649291906200006b565b506200017f565b82805462000079906200014a565b90600052602060002090601f0160209004810192826200009d5760008555620000e9565b82601f10620000b857805160ff1916838001178555620000e9565b82800160010185558215620000e9579182015b82811115620000e8578251825591602001919060010190620000cb565b5b509050620000f89190620000fc565b5090565b5b8082111562000117576000816000905550600101620000fd565b5090565b7f4e487b7100000000000000000000000000000000000000000000000000000000600052602260045260246000fd5b600060028204905060018216806200016357607f821691505b6020821081036200017957620001786200011b565b5b50919050565b611fd9806200018f6000396000f3fe608060405234801561001057600080fd5b50600436106100ce5760003560e01c8063a6d68ecd1161008c578063cbed3d5211610066578063cbed3d5214610252578063f2d03fcf1461026e578063f413c3bd1461029e578063ff7244c6146102ba576100ce565b8063a6d68ecd146101c2578063a9b11426146101f2578063c5d47daf14610222576100ce565b80627ac14a146100d35780631440bd071461010357806375d0c0dc14610133578063784796f714610151578063848564821461016d57806392053b63146101a4575b600080fd5b6100ed60048036038101906100e89190611560565b6102d6565b6040516100fa91906115bb565b60405180910390f35b61011d600480360381019061011891906115d6565b61036b565b60405161012a9190611644565b60405180910390f35b61013b6103c5565b60405161014891906116f8565b60405180910390f35b61016b60048036038101906101669190611758565b610453565b005b610187600480360381019061018291906115d6565b610721565b60405161019b989796959493929190611839565b60405180910390f35b6101ac6108c9565b6040516101b991906118c5565b60405180910390f35b6101dc60048036038101906101d791906118e0565b6108cf565b6040516101e99190611929565b60405180910390f35b61020c600480360381019061020791906115d6565b6108ef565b6040516102199190611644565b60405180910390f35b61023c600480360381019061023791906115d6565b610949565b60405161024991906118c5565b60405180910390f35b61026c600480360381019061026791906115d6565b610999565b005b610288600480360381019061028391906115d6565b610a8c565b6040516102959190611a02565b60405180910390f35b6102b860048036038101906102b39190611bfa565b610b4b565b005b6102d460048036038101906102cf9190611c85565b610ead565b005b600080831180156102e957506001548311155b6102f257600080fd5b6000600260008581526020019081526020016000206003015460405160200161031b9190611d02565b604051602081830303815290604052905060008360405160200161033f9190611d02565b604051602081830303815290604052905081805190602001208180519060200120149250505092915050565b6000808211801561037e57506001548211155b61038757600080fd5b6002600083815260200190815260200160002060060160009054906101000a900473ffffffffffffffffffffffffffffffffffffffff169050919050565b600080546103d290611d4c565b80601f01602080910402602001604051908101604052809291908181526020018280546103fe90611d4c565b801561044b5780601f106104205761010080835404028352916020019161044b565b820191906000526020600020905b81548152906001019060200180831161042e57829003601f168201915b505050505081565b60006002600084815260200190815260200160002060070160009054906101000a900473ffffffffffffffffffffffffffffffffffffffff169050600080841180156104a157506001548411155b905060008273ffffffffffffffffffffffffffffffffffffffff163273ffffffffffffffffffffffffffffffffffffffff1614905060008373ffffffffffffffffffffffffffffffffffffffff168573ffffffffffffffffffffffffffffffffffffffff16141580156105415750600073ffffffffffffffffffffffffffffffffffffffff168573ffffffffffffffffffffffffffffffffffffffff1614155b905082801561054d5750815b80156105565750805b61055f57600080fd5b846002600088815260200190815260200160002060070160006101000a81548173ffffffffffffffffffffffffffffffffffffffff021916908373ffffffffffffffffffffffffffffffffffffffff1602179055506000600490505b60008111156106a657600260008881526020019081526020016000206008016001826105e79190611dac565b815481106105f8576105f7611de0565b5b9060005260206000200160009054906101000a900473ffffffffffffffffffffffffffffffffffffffff1660026000898152602001908152602001600020600801828154811061064b5761064a611de0565b5b9060005260206000200160006101000a81548173ffffffffffffffffffffffffffffffffffffffff021916908373ffffffffffffffffffffffffffffffffffffffff160217905550808061069e90611e0f565b9150506105bb565b5083600260008881526020019081526020016000206008016000815481106106d1576106d0611de0565b5b9060005260206000200160006101000a81548173ffffffffffffffffffffffffffffffffffffffff021916908373ffffffffffffffffffffffffffffffffffffffff160217905550505050505050565b60026020528060005260406000206000915090508060000154908060010154908060020160009054906101000a900463ffffffff169080600301549080600401805461076c90611d4c565b80601f016020809104026020016040519081016040528092919081815260200182805461079890611d4c565b80156107e55780601f106107ba576101008083540402835291602001916107e5565b820191906000526020600020905b8154815290600101906020018083116107c857829003601f168201915b5050505050908060050180546107fa90611d4c565b80601f016020809104026020016040519081016040528092919081815260200182805461082690611d4c565b80156108735780601f1061084857610100808354040283529160200191610873565b820191906000526020600020905b81548152906001019060200180831161085657829003601f168201915b5050505050908060060160009054906101000a900473ffffffffffffffffffffffffffffffffffffffff16908060070160009054906101000a900473ffffffffffffffffffffffffffffffffffffffff16905088565b60015481565b60036020528060005260406000206000915054906101000a900460ff1681565b6000808211801561090257506001548211155b61090b57600080fd5b6002600083815260200190815260200160002060070160009054906101000a900473ffffffffffffffffffffffffffffffffffffffff169050919050565b6000808211801561095c57506001548211155b61096557600080fd5b6002600083815260200190815260200160002060020160009054906101000a900463ffffffff1663ffffffff169050919050565b6000811180156109ab57506001548111155b6109b457600080fd5b6002600082815260200190815260200160002060070160009054906101000a900473ffffffffffffffffffffffffffffffffffffffff1673ffffffffffffffffffffffffffffffffffffffff163273ffffffffffffffffffffffffffffffffffffffff1614610a2257600080fd5b60016002600083815260200190815260200160002060020160009054906101000a900463ffffffff16610a559190611e38565b6002600083815260200190815260200160002060020160006101000a81548163ffffffff021916908363ffffffff16021790555050565b6060600082118015610aa057506001548211155b610aa957600080fd5b60026000838152602001908152602001600020600801805480602002602001604051908101604052809291908181526020018280548015610b3f57602002820191906000526020600020905b8160009054906101000a900473ffffffffffffffffffffffffffffffffffffffff1673ffffffffffffffffffffffffffffffffffffffff1681526020019060010190808311610af5575b50505050509050919050565b6000835111610b5957600080fd5b6000602060ff1611610b6a57600080fd5b6000815111610b7857600080fd5b600073ffffffffffffffffffffffffffffffffffffffff163373ffffffffffffffffffffffffffffffffffffffff1603610bb157600080fd5b60006003600084815260200190815260200160002060009054906101000a900460ff1660ff1614610c17576040517f08c379a0000000000000000000000000000000000000000000000000000000008152600401610c0e90611ebe565b60405180910390fd5b600042905060016000815480929190610c2f90611ede565b91905055506040518061012001604052806001548152602001828152602001600063ffffffff1681526020018481526020018381526020018581526020013373ffffffffffffffffffffffffffffffffffffffff1681526020013373ffffffffffffffffffffffffffffffffffffffff168152602001600567ffffffffffffffff811115610cc057610cbf611a2e565b5b604051908082528060200260200182016040528015610cee5781602001602082028036833780820191505090505b50815250600260006001548152602001908152602001600020600082015181600001556020820151816001015560408201518160020160006101000a81548163ffffffff021916908363ffffffff160217905550606082015181600301556080820151816004019080519060200190610d6892919061132d565b5060a0820151816005019080519060200190610d859291906113b3565b5060c08201518160060160006101000a81548173ffffffffffffffffffffffffffffffffffffffff021916908373ffffffffffffffffffffffffffffffffffffffff16021790555060e08201518160070160006101000a81548173ffffffffffffffffffffffffffffffffffffffff021916908373ffffffffffffffffffffffffffffffffffffffff160217905550610100820151816008019080519060200190610e31929190611439565b5090505060016003600085815260200190815260200160002060006101000a81548160ff021916908360ff1602179055507feaaa352ed5b9b818b17cf311dd6da95f59b00a68659d3946183aa3a6cb4d5ca0600154828585883333604051610e9f9796959493929190611f26565b60405180910390a150505050565b600082118015610ebf57506001548211155b610ec857600080fd5b6000815111610ed657600080fd5b6000600260008481526020019081526020016000206040518061012001604052908160008201548152602001600182015481526020016002820160009054906101000a900463ffffffff1663ffffffff1663ffffffff16815260200160038201548152602001600482018054610f4b90611d4c565b80601f0160208091040260200160405190810160405280929190818152602001828054610f7790611d4c565b8015610fc45780601f10610f9957610100808354040283529160200191610fc4565b820191906000526020600020905b815481529060010190602001808311610fa757829003601f168201915b50505050508152602001600582018054610fdd90611d4c565b80601f016020809104026020016040519081016040528092919081815260200182805461100990611d4c565b80156110565780601f1061102b57610100808354040283529160200191611056565b820191906000526020600020905b81548152906001019060200180831161103957829003601f168201915b505050505081526020016006820160009054906101000a900473ffffffffffffffffffffffffffffffffffffffff1673ffffffffffffffffffffffffffffffffffffffff1673ffffffffffffffffffffffffffffffffffffffff1681526020016007820160009054906101000a900473ffffffffffffffffffffffffffffffffffffffff1673ffffffffffffffffffffffffffffffffffffffff1673ffffffffffffffffffffffffffffffffffffffff1681526020016008820180548060200260200160405190810160405280929190818152602001828054801561119057602002820191906000526020600020905b8160009054906101000a900473ffffffffffffffffffffffffffffffffffffffff1673ffffffffffffffffffffffffffffffffffffffff1681526020019060010190808311611146575b505050505081525050905060008160e0015190508073ffffffffffffffffffffffffffffffffffffffff163373ffffffffffffffffffffffffffffffffffffffff16146111dc57600080fd5b8282608001819052508160026000868152602001908152602001600020600082015181600001556020820151816001015560408201518160020160006101000a81548163ffffffff021916908363ffffffff16021790555060608201518160030155608082015181600401908051906020019061125a92919061132d565b5060a08201518160050190805190602001906112779291906113b3565b5060c08201518160060160006101000a81548173ffffffffffffffffffffffffffffffffffffffff021916908373ffffffffffffffffffffffffffffffffffffffff16021790555060e08201518160070160006101000a81548173ffffffffffffffffffffffffffffffffffffffff021916908373ffffffffffffffffffffffffffffffffffffffff160217905550610100820151816008019080519060200190611323929190611439565b5090505050505050565b82805461133990611d4c565b90600052602060002090601f01602090048101928261135b57600085556113a2565b82601f1061137457805160ff19168380011785556113a2565b828001600101855582156113a2579182015b828111156113a1578251825591602001919060010190611386565b5b5090506113af91906114c3565b5090565b8280546113bf90611d4c565b90600052602060002090601f0160209004810192826113e15760008555611428565b82601f106113fa57805160ff1916838001178555611428565b82800160010185558215611428579182015b8281111561142757825182559160200191906001019061140c565b5b50905061143591906114c3565b5090565b8280548282559060005260206000209081019282156114b2579160200282015b828111156114b15782518260006101000a81548173ffffffffffffffffffffffffffffffffffffffff021916908373ffffffffffffffffffffffffffffffffffffffff16021790555091602001919060010190611459565b5b5090506114bf91906114c3565b5090565b5b808211156114dc5760008160009055506001016114c4565b5090565b6000604051905090565b600080fd5b600080fd5b6000819050919050565b611507816114f4565b811461151257600080fd5b50565b600081359050611524816114fe565b92915050565b6000819050919050565b61153d8161152a565b811461154857600080fd5b50565b60008135905061155a81611534565b92915050565b60008060408385031215611577576115766114ea565b5b600061158585828601611515565b92505060206115968582860161154b565b9150509250929050565b60008115159050919050565b6115b5816115a0565b82525050565b60006020820190506115d060008301846115ac565b92915050565b6000602082840312156115ec576115eb6114ea565b5b60006115fa84828501611515565b91505092915050565b600073ffffffffffffffffffffffffffffffffffffffff82169050919050565b600061162e82611603565b9050919050565b61163e81611623565b82525050565b60006020820190506116596000830184611635565b92915050565b600081519050919050565b600082825260208201905092915050565b60005b8381101561169957808201518184015260208101905061167e565b838111156116a8576000848401525b50505050565b6000601f19601f8301169050919050565b60006116ca8261165f565b6116d4818561166a565b93506116e481856020860161167b565b6116ed816116ae565b840191505092915050565b6000602082019050818103600083015261171281846116bf565b905092915050565b600061172582611603565b9050919050565b6117358161171a565b811461174057600080fd5b50565b6000813590506117528161172c565b92915050565b6000806040838503121561176f5761176e6114ea565b5b600061177d85828601611515565b925050602061178e85828601611743565b9150509250929050565b6117a1816114f4565b82525050565b600063ffffffff82169050919050565b6117c0816117a7565b82525050565b6117cf8161152a565b82525050565b600081519050919050565b600082825260208201905092915050565b60006117fc826117d5565b61180681856117e0565b935061181681856020860161167b565b61181f816116ae565b840191505092915050565b6118338161171a565b82525050565b60006101008201905061184f600083018b611798565b61185c602083018a611798565b61186960408301896117b7565b61187660608301886117c6565b818103608083015261188881876117f1565b905081810360a083015261189c81866116bf565b90506118ab60c083018561182a565b6118b860e083018461182a565b9998505050505050505050565b60006020820190506118da6000830184611798565b92915050565b6000602082840312156118f6576118f56114ea565b5b60006119048482850161154b565b91505092915050565b600060ff82169050919050565b6119238161190d565b82525050565b600060208201905061193e600083018461191a565b92915050565b600081519050919050565b600082825260208201905092915050565b6000819050602082019050919050565b61197981611623565b82525050565b600061198b8383611970565b60208301905092915050565b6000602082019050919050565b60006119af82611944565b6119b9818561194f565b93506119c483611960565b8060005b838110156119f55781516119dc888261197f565b97506119e783611997565b9250506001810190506119c8565b5085935050505092915050565b60006020820190508181036000830152611a1c81846119a4565b905092915050565b600080fd5b600080fd5b7f4e487b7100000000000000000000000000000000000000000000000000000000600052604160045260246000fd5b611a66826116ae565b810181811067ffffffffffffffff82111715611a8557611a84611a2e565b5b80604052505050565b6000611a986114e0565b9050611aa48282611a5d565b919050565b600067ffffffffffffffff821115611ac457611ac3611a2e565b5b611acd826116ae565b9050602081019050919050565b82818337600083830152505050565b6000611afc611af784611aa9565b611a8e565b905082815260208101848484011115611b1857611b17611a29565b5b611b23848285611ada565b509392505050565b600082601f830112611b4057611b3f611a24565b5b8135611b50848260208601611ae9565b91505092915050565b600067ffffffffffffffff821115611b7457611b73611a2e565b5b611b7d826116ae565b9050602081019050919050565b6000611b9d611b9884611b59565b611a8e565b905082815260208101848484011115611bb957611bb8611a29565b5b611bc4848285611ada565b509392505050565b600082601f830112611be157611be0611a24565b5b8135611bf1848260208601611b8a565b91505092915050565b600080600060608486031215611c1357611c126114ea565b5b600084013567ffffffffffffffff811115611c3157611c306114ef565b5b611c3d86828701611b2b565b9350506020611c4e8682870161154b565b925050604084013567ffffffffffffffff811115611c6f57611c6e6114ef565b5b611c7b86828701611bcc565b9150509250925092565b60008060408385031215611c9c57611c9b6114ea565b5b6000611caa85828601611515565b925050602083013567ffffffffffffffff811115611ccb57611cca6114ef565b5b611cd785828601611bcc565b9150509250929050565b6000819050919050565b611cfc611cf78261152a565b611ce1565b82525050565b6000611d0e8284611ceb565b60208201915081905092915050565b7f4e487b7100000000000000000000000000000000000000000000000000000000600052602260045260246000fd5b60006002820490506001821680611d6457607f821691505b602082108103611d7757611d76611d1d565b5b50919050565b7f4e487b7100000000000000000000000000000000000000000000000000000000600052601160045260246000fd5b6000611db7826114f4565b9150611dc2836114f4565b925082821015611dd557611dd4611d7d565b5b828203905092915050565b7f4e487b7100000000000000000000000000000000000000000000000000000000600052603260045260246000fd5b6000611e1a826114f4565b915060008203611e2d57611e2c611d7d565b5b600182039050919050565b6000611e43826117a7565b9150611e4e836117a7565b92508263ffffffff03821115611e6757611e66611d7d565b5b828201905092915050565b7f616c726561647920657869737421000000000000000000000000000000000000600082015250565b6000611ea8600e8361166a565b9150611eb382611e72565b602082019050919050565b60006020820190508181036000830152611ed781611e9b565b9050919050565b6000611ee9826114f4565b91507fffffffffffffffffffffffffffffffffffffffffffffffffffffffffffffffff8203611f1b57611f1a611d7d565b5b600182019050919050565b600060e082019050611f3b600083018a611798565b611f486020830189611798565b611f5560408301886117c6565b8181036060830152611f6781876117f1565b90508181036080830152611f7b81866116bf565b9050611f8a60a083018561182a565b611f9760c083018461182a565b9897505050505050505056fea264697066735822122089d31ba8ca63e28a1ffca04c8b7a56219ee530064295b4d041d693e0fd5200df64736f6c634300080d0033",
  "immutableReferences": {},
  "source": "// SPDX-License-Identifier: SimPL-2.0\r\npragma solidity ^0.8.12;\r\n\r\ncontract Release{\r\n    \r\n    string public contractName;\r\n    uint public imageCount = 0;\r\n    mapping(uint => Image) public images;\r\n    mapping(bytes32 => uint8) public released;\r\n    \r\n    struct Image {\r\n        uint id;\r\n        uint timestamp;\r\n        uint32 txCount;\r\n\r\n        bytes32 sha3;\r\n        bytes signature;\r\n        string ipfsHash;\r\n        \r\n        address payable author;\r\n        address payable owner;\r\n\r\n        address[] prevOwners;\r\n    }\r\n\r\n    event ImageCreated(\r\n        uint id,\r\n        uint timestamp,\r\n        bytes32 sha3,\r\n        bytes signature,\r\n        string ipfsHash,\r\n        address payable author,\r\n        address payable owner\r\n    );\r\n\r\n    constructor()  {\r\n      contractName = \"release\";\r\n    }\r\n    \r\n    function uploadImage(\r\n        string memory _ipfsHash,\r\n        bytes32       _imgSHA3, \r\n        bytes  memory _imgSign\r\n        ) public {\r\n        //check requires\r\n        require(bytes(_ipfsHash).length > 0);\r\n        require(_imgSHA3.length > 0);\r\n        require(_imgSign.length > 0);\r\n        require(msg.sender != address(0x0));\r\n        require(released[_imgSHA3] == 0, \"already exist!\");\r\n\r\n        uint time = block.timestamp;\r\n        imageCount++;\r\n        images[imageCount] = Image(\r\n            imageCount,\r\n            time,\r\n            0,\r\n            _imgSHA3,\r\n            _imgSign,\r\n            _ipfsHash,\r\n            payable(msg.sender),\r\n            payable(msg.sender),\r\n            new address[](5)\r\n            );\r\n\r\n        released[_imgSHA3] = 1;\r\n\r\n        emit ImageCreated(\r\n            imageCount,\r\n            time,\r\n            _imgSHA3,\r\n            _imgSign,\r\n            _ipfsHash,\r\n            payable(msg.sender), payable(msg.sender));\r\n    }\r\n\r\n    function changeOwner(\r\n        uint _id,\r\n        address payable newOwner\r\n        ) public {\r\n        \r\n        address oldOwner = images[_id].owner;\r\n        bool FlagID = _id > 0 && _id <= imageCount;\r\n        bool FlagOldOwner = (tx.origin ==  oldOwner);\r\n        bool FlagNewOwner = (newOwner != oldOwner) && (newOwner != address(0x0));\r\n        // if (_id <= 0 || _id > imageCount) return;    \r\n        // if (tx.origin != images[_id].owner) return;\r\n        // if (newOwner == images[_id].owner) return;\r\n        // if (newOwner == address(0x0)) return;\r\n\r\n        require(FlagID && FlagOldOwner && FlagNewOwner);\r\n\r\n        images[_id].owner = newOwner;\r\n        \r\n        for (uint i=4; i>0 ; i--) {\r\n          images[_id].prevOwners[i] = images[_id].prevOwners[i-1]; \r\n        }\r\n        images[_id].prevOwners[0] = oldOwner;\r\n    }\r\n\r\n    function incTxCount(uint imageID) public {\r\n      require(imageID > 0 && imageID <= imageCount);\r\n      require(tx.origin == images[imageID].owner);\r\n      images[imageID].txCount = images[imageID].txCount+1;\r\n    }\r\n\r\n    function getTxCount(uint imageID) public view returns(uint){\r\n      require(imageID > 0 && imageID <= imageCount);\r\n      return images[imageID].txCount;\r\n    }\r\n\r\n    function changeSign(uint imageID, bytes memory newSign) public{\r\n      require(imageID > 0 && imageID <= imageCount );\r\n      require(newSign.length > 0);\r\n      //get image data\r\n      Image memory _image = images[imageID];\r\n      //get Owner's address\r\n      address _owner = _image.owner;\r\n      require(msg.sender == _owner);\r\n\r\n      _image.signature = newSign;\r\n      images[imageID] = _image;\r\n    } \r\n\r\n    function getImageOwner(uint imageID) public view returns(address) {\r\n      require(imageID > 0 && imageID <= imageCount );\r\n      return images[imageID].owner;\r\n    }\r\n\r\n    function getImageAuthor(uint imageID) public view returns(address) {\r\n      require(imageID > 0 && imageID <= imageCount );\r\n      return images[imageID].author;\r\n    }\r\n\r\n    function getPrevOwner(uint imageID) public view returns(address[] memory) {\r\n      require(imageID > 0 && imageID <= imageCount );\r\n      return images[imageID].prevOwners;\r\n    }\r\n\r\n    function isSHA3Match(uint imageID, bytes32 testSHA3) public view returns(bool) {\r\n      require(imageID > 0 && imageID <= imageCount );\r\n      bytes memory SHA3 = abi.encodePacked(images[imageID].sha3);\r\n      bytes memory tester = abi.encodePacked(testSHA3);\r\n      return keccak256(tester) == keccak256(SHA3); \r\n    }\r\n}",
  "sourcePath": "D:\\Fun\\proj12\\Dimage\\contracts\\Release.sol",
  "compiler": {
    "name": "solc",
    "version": "0.8.13+commit.abaa5c0e.Emscripten.clang"
  },
  "schemaVersion": "3.4.5",
  "updatedAt": "2022-05-07T03:43:44.161Z",
  "devdoc": {
    "kind": "dev",
    "methods": {},
    "version": 1
  },
  "userdoc": {
    "kind": "user",
    "methods": {},
    "version": 1
  }
}