{
  "contractName": "Release",
  "abi": [
    {
      "inputs": [],
      "stateMutability": "nonpayable",
      "type": "constructor"
    },
    {
      "anonymous": false,
      "inputs": [
        {
          "indexed": false,
          "internalType": "uint256",
          "name": "id",
          "type": "uint256"
        },
        {
          "indexed": false,
          "internalType": "uint256",
          "name": "timestamp",
          "type": "uint256"
        },
        {
          "indexed": false,
          "internalType": "bytes32",
          "name": "sha3",
          "type": "bytes32"
        },
        {
          "indexed": false,
          "internalType": "bytes",
          "name": "signature",
          "type": "bytes"
        },
        {
          "indexed": false,
          "internalType": "string",
          "name": "ipfsHash",
          "type": "string"
        },
        {
          "indexed": false,
          "internalType": "address payable",
          "name": "author",
          "type": "address"
        },
        {
          "indexed": false,
          "internalType": "address payable",
          "name": "owner",
          "type": "address"
        }
      ],
      "name": "ImageCreated",
      "type": "event"
    },
    {
      "inputs": [],
      "name": "contractName",
      "outputs": [
        {
          "internalType": "string",
          "name": "",
          "type": "string"
        }
      ],
      "stateMutability": "view",
      "type": "function",
      "constant": true
    },
    {
      "inputs": [],
      "name": "imageCount",
      "outputs": [
        {
          "internalType": "uint256",
          "name": "",
          "type": "uint256"
        }
      ],
      "stateMutability": "view",
      "type": "function",
      "constant": true
    },
    {
      "inputs": [
        {
          "internalType": "string",
          "name": "_ipfsHash",
          "type": "string"
        },
        {
          "internalType": "bytes32",
          "name": "_imgSHA3",
          "type": "bytes32"
        },
        {
          "internalType": "bytes",
          "name": "_imgSign",
          "type": "bytes"
        }
      ],
      "name": "uploadImage",
      "outputs": [],
      "stateMutability": "nonpayable",
      "type": "function"
    },
    {
      "inputs": [
        {
          "internalType": "uint256",
          "name": "_id",
          "type": "uint256"
        },
        {
          "internalType": "address payable",
          "name": "newOwner",
          "type": "address"
        }
      ],
      "name": "changeOwner",
      "outputs": [],
      "stateMutability": "nonpayable",
      "type": "function"
    },
    {
      "inputs": [
        {
          "internalType": "uint256",
          "name": "imageID",
          "type": "uint256"
        },
        {
          "internalType": "bytes",
          "name": "newSign",
          "type": "bytes"
        }
      ],
      "name": "changeSign",
      "outputs": [],
      "stateMutability": "nonpayable",
      "type": "function"
    },
    {
      "inputs": [
        {
          "internalType": "uint256",
          "name": "imageID",
          "type": "uint256"
        }
      ],
      "name": "incTxCount",
      "outputs": [],
      "stateMutability": "nonpayable",
      "type": "function"
    },
    {
      "inputs": [
        {
          "internalType": "uint256",
          "name": "imageID",
          "type": "uint256"
        }
      ],
      "name": "getTxCount",
      "outputs": [
        {
          "internalType": "uint256",
          "name": "",
          "type": "uint256"
        }
      ],
      "stateMutability": "view",
      "type": "function",
      "constant": true
    },
    {
      "inputs": [
        {
          "internalType": "uint256",
          "name": "imageID",
          "type": "uint256"
        }
      ],
      "name": "getIpfsHash",
      "outputs": [
        {
          "internalType": "string",
          "name": "",
          "type": "string"
        }
      ],
      "stateMutability": "view",
      "type": "function",
      "constant": true
    },
    {
      "inputs": [
        {
          "internalType": "uint256",
          "name": "imageID",
          "type": "uint256"
        }
      ],
      "name": "getImageOwner",
      "outputs": [
        {
          "internalType": "address",
          "name": "",
          "type": "address"
        }
      ],
      "stateMutability": "view",
      "type": "function",
      "constant": true
    },
    {
      "inputs": [
        {
          "internalType": "uint256",
          "name": "imageID",
          "type": "uint256"
        }
      ],
      "name": "getImageAuthor",
      "outputs": [
        {
          "internalType": "address",
          "name": "",
          "type": "address"
        }
      ],
      "stateMutability": "view",
      "type": "function",
      "constant": true
    },
    {
      "inputs": [
        {
          "internalType": "uint256",
          "name": "imageID",
          "type": "uint256"
        }
      ],
      "name": "getPrevOwner",
      "outputs": [
        {
          "internalType": "address[]",
          "name": "",
          "type": "address[]"
        }
      ],
      "stateMutability": "view",
      "type": "function",
      "constant": true
    },
    {
      "inputs": [
        {
          "internalType": "uint256",
          "name": "imageID",
          "type": "uint256"
        },
        {
          "internalType": "bytes32",
          "name": "testSHA3",
          "type": "bytes32"
        }
      ],
      "name": "isSHA3Match",
      "outputs": [
        {
          "internalType": "bool",
          "name": "",
          "type": "bool"
        }
      ],
      "stateMutability": "view",
      "type": "function",
      "constant": true
    }
  ],
  "bytecode": "0x608060405260006001553480156200001657600080fd5b506040518060400160405280600781526020017f72656c656173650000000000000000000000000000000000000000000000000081525060009080519060200190620000649291906200006b565b506200017f565b82805462000079906200014a565b90600052602060002090601f0160209004810192826200009d5760008555620000e9565b82601f10620000b857805160ff1916838001178555620000e9565b82800160010185558215620000e9579182015b82811115620000e8578251825591602001919060010190620000cb565b5b509050620000f89190620000fc565b5090565b5b8082111562000117576000816000905550600101620000fd565b5090565b7f4e487b7100000000000000000000000000000000000000000000000000000000600052602260045260246000fd5b600060028204905060018216806200016357607f821691505b6020821081036200017957620001786200011b565b5b50919050565b611c41806200018f6000396000f3fe608060405234801561001057600080fd5b50600436106100b35760003560e01c8063c5d47daf11610071578063c5d47daf146101a0578063cbed3d52146101d0578063d450fbc9146101ec578063f2d03fcf1461021c578063f413c3bd1461024c578063ff7244c614610268576100b3565b80627ac14a146100b85780631440bd07146100e857806375d0c0dc14610118578063784796f71461013657806392053b6314610152578063a9b1142614610170575b600080fd5b6100d260048036038101906100cd91906112bb565b610284565b6040516100df9190611316565b60405180910390f35b61010260048036038101906100fd9190611331565b610319565b60405161010f919061139f565b60405180910390f35b610120610373565b60405161012d9190611453565b60405180910390f35b610150600480360381019061014b91906114b3565b610401565b005b61015a6106cf565b6040516101679190611502565b60405180910390f35b61018a60048036038101906101859190611331565b6106d5565b604051610197919061139f565b60405180910390f35b6101ba60048036038101906101b59190611331565b61072f565b6040516101c79190611502565b60405180910390f35b6101ea60048036038101906101e59190611331565b610769565b005b61020660048036038101906102019190611331565b610832565b6040516102139190611453565b60405180910390f35b61023660048036038101906102319190611331565b610963565b60405161024391906115db565b60405180910390f35b610266600480360381019061026191906117d3565b610a22565b005b610282600480360381019061027d919061185e565b610d4e565b005b6000808311801561029757506001548311155b6102a057600080fd5b600060026000858152602001908152602001600020600201546040516020016102c991906118db565b60405160208183030381529060405290506000836040516020016102ed91906118db565b604051602081830303815290604052905081805190602001208180519060200120149250505092915050565b6000808211801561032c57506001548211155b61033557600080fd5b6002600083815260200190815260200160002060050160009054906101000a900473ffffffffffffffffffffffffffffffffffffffff169050919050565b6000805461038090611925565b80601f01602080910402602001604051908101604052809291908181526020018280546103ac90611925565b80156103f95780601f106103ce576101008083540402835291602001916103f9565b820191906000526020600020905b8154815290600101906020018083116103dc57829003601f168201915b505050505081565b60006002600084815260200190815260200160002060060160009054906101000a900473ffffffffffffffffffffffffffffffffffffffff1690506000808411801561044f57506001548411155b905060008273ffffffffffffffffffffffffffffffffffffffff163273ffffffffffffffffffffffffffffffffffffffff1614905060008373ffffffffffffffffffffffffffffffffffffffff168573ffffffffffffffffffffffffffffffffffffffff16141580156104ef5750600073ffffffffffffffffffffffffffffffffffffffff168573ffffffffffffffffffffffffffffffffffffffff1614155b90508280156104fb5750815b80156105045750805b61050d57600080fd5b846002600088815260200190815260200160002060060160006101000a81548173ffffffffffffffffffffffffffffffffffffffff021916908373ffffffffffffffffffffffffffffffffffffffff1602179055506000600490505b600081111561065457600260008881526020019081526020016000206007016001826105959190611985565b815481106105a6576105a56119b9565b5b9060005260206000200160009054906101000a900473ffffffffffffffffffffffffffffffffffffffff166002600089815260200190815260200160002060070182815481106105f9576105f86119b9565b5b9060005260206000200160006101000a81548173ffffffffffffffffffffffffffffffffffffffff021916908373ffffffffffffffffffffffffffffffffffffffff160217905550808061064c906119e8565b915050610569565b50836002600088815260200190815260200160002060070160008154811061067f5761067e6119b9565b5b9060005260206000200160006101000a81548173ffffffffffffffffffffffffffffffffffffffff021916908373ffffffffffffffffffffffffffffffffffffffff160217905550505050505050565b60015481565b600080821180156106e857506001548211155b6106f157600080fd5b6002600083815260200190815260200160002060060160009054906101000a900473ffffffffffffffffffffffffffffffffffffffff169050919050565b6000808211801561074257506001548211155b61074b57600080fd5b60026000838152602001908152602001600020600101549050919050565b60008111801561077b57506001548111155b61078457600080fd5b6002600082815260200190815260200160002060060160009054906101000a900473ffffffffffffffffffffffffffffffffffffffff1673ffffffffffffffffffffffffffffffffffffffff163273ffffffffffffffffffffffffffffffffffffffff16146107f257600080fd5b600160026000838152602001908152602001600020600101546108159190611a11565b600260008381526020019081526020016000206001018190555050565b606060008211801561084657506001548211155b61084f57600080fd5b6002600083815260200190815260200160002060060160009054906101000a900473ffffffffffffffffffffffffffffffffffffffff1673ffffffffffffffffffffffffffffffffffffffff163373ffffffffffffffffffffffffffffffffffffffff16146108bd57600080fd5b6002600083815260200190815260200160002060040180546108de90611925565b80601f016020809104026020016040519081016040528092919081815260200182805461090a90611925565b80156109575780601f1061092c57610100808354040283529160200191610957565b820191906000526020600020905b81548152906001019060200180831161093a57829003601f168201915b50505050509050919050565b606060008211801561097757506001548211155b61098057600080fd5b60026000838152602001908152602001600020600701805480602002602001604051908101604052809291908181526020018280548015610a1657602002820191906000526020600020905b8160009054906101000a900473ffffffffffffffffffffffffffffffffffffffff1673ffffffffffffffffffffffffffffffffffffffff16815260200190600101908083116109cc575b50505050509050919050565b6000835111610a3057600080fd5b6000602060ff1611610a4157600080fd5b6000815111610a4f57600080fd5b600073ffffffffffffffffffffffffffffffffffffffff163273ffffffffffffffffffffffffffffffffffffffff1603610a8857600080fd5b60006003600084815260200190815260200160002060009054906101000a900460ff1660ff1614610aee576040517f08c379a0000000000000000000000000000000000000000000000000000000008152600401610ae590611ab3565b60405180910390fd5b600042905060016000815480929190610b0690611ad3565b9190505550604051806101000160405280828152602001600081526020018481526020018381526020018581526020013273ffffffffffffffffffffffffffffffffffffffff1681526020013273ffffffffffffffffffffffffffffffffffffffff168152602001600567ffffffffffffffff811115610b8957610b88611607565b5b604051908082528060200260200182016040528015610bb75781602001602082028036833780820191505090505b508152506002600060015481526020019081526020016000206000820151816000015560208201518160010155604082015181600201556060820151816003019080519060200190610c0a929190611088565b506080820151816004019080519060200190610c2792919061110e565b5060a08201518160050160006101000a81548173ffffffffffffffffffffffffffffffffffffffff021916908373ffffffffffffffffffffffffffffffffffffffff16021790555060c08201518160060160006101000a81548173ffffffffffffffffffffffffffffffffffffffff021916908373ffffffffffffffffffffffffffffffffffffffff16021790555060e0820151816007019080519060200190610cd2929190611194565b5090505060016003600085815260200190815260200160002060006101000a81548160ff021916908360ff1602179055507feaaa352ed5b9b818b17cf311dd6da95f59b00a68659d3946183aa3a6cb4d5ca0600154828585883232604051610d409796959493929190611b8e565b60405180910390a150505050565b600082118015610d6057506001548211155b610d6957600080fd5b6000815111610d7757600080fd5b60006002600084815260200190815260200160002060405180610100016040529081600082015481526020016001820154815260200160028201548152602001600382018054610dc690611925565b80601f0160208091040260200160405190810160405280929190818152602001828054610df290611925565b8015610e3f5780601f10610e1457610100808354040283529160200191610e3f565b820191906000526020600020905b815481529060010190602001808311610e2257829003601f168201915b50505050508152602001600482018054610e5890611925565b80601f0160208091040260200160405190810160405280929190818152602001828054610e8490611925565b8015610ed15780601f10610ea657610100808354040283529160200191610ed1565b820191906000526020600020905b815481529060010190602001808311610eb457829003601f168201915b505050505081526020016005820160009054906101000a900473ffffffffffffffffffffffffffffffffffffffff1673ffffffffffffffffffffffffffffffffffffffff1673ffffffffffffffffffffffffffffffffffffffff1681526020016006820160009054906101000a900473ffffffffffffffffffffffffffffffffffffffff1673ffffffffffffffffffffffffffffffffffffffff1673ffffffffffffffffffffffffffffffffffffffff1681526020016007820180548060200260200160405190810160405280929190818152602001828054801561100b57602002820191906000526020600020905b8160009054906101000a900473ffffffffffffffffffffffffffffffffffffffff1673ffffffffffffffffffffffffffffffffffffffff1681526020019060010190808311610fc1575b505050505081525050905060008160c0015190508073ffffffffffffffffffffffffffffffffffffffff163373ffffffffffffffffffffffffffffffffffffffff161461105757600080fd5b82600260008681526020019081526020016000206003019080519060200190611081929190611088565b5050505050565b82805461109490611925565b90600052602060002090601f0160209004810192826110b657600085556110fd565b82601f106110cf57805160ff19168380011785556110fd565b828001600101855582156110fd579182015b828111156110fc5782518255916020019190600101906110e1565b5b50905061110a919061121e565b5090565b82805461111a90611925565b90600052602060002090601f01602090048101928261113c5760008555611183565b82601f1061115557805160ff1916838001178555611183565b82800160010185558215611183579182015b82811115611182578251825591602001919060010190611167565b5b509050611190919061121e565b5090565b82805482825590600052602060002090810192821561120d579160200282015b8281111561120c5782518260006101000a81548173ffffffffffffffffffffffffffffffffffffffff021916908373ffffffffffffffffffffffffffffffffffffffff160217905550916020019190600101906111b4565b5b50905061121a919061121e565b5090565b5b8082111561123757600081600090555060010161121f565b5090565b6000604051905090565b600080fd5b600080fd5b6000819050919050565b6112628161124f565b811461126d57600080fd5b50565b60008135905061127f81611259565b92915050565b6000819050919050565b61129881611285565b81146112a357600080fd5b50565b6000813590506112b58161128f565b92915050565b600080604083850312156112d2576112d1611245565b5b60006112e085828601611270565b92505060206112f1858286016112a6565b9150509250929050565b60008115159050919050565b611310816112fb565b82525050565b600060208201905061132b6000830184611307565b92915050565b60006020828403121561134757611346611245565b5b600061135584828501611270565b91505092915050565b600073ffffffffffffffffffffffffffffffffffffffff82169050919050565b60006113898261135e565b9050919050565b6113998161137e565b82525050565b60006020820190506113b46000830184611390565b92915050565b600081519050919050565b600082825260208201905092915050565b60005b838110156113f45780820151818401526020810190506113d9565b83811115611403576000848401525b50505050565b6000601f19601f8301169050919050565b6000611425826113ba565b61142f81856113c5565b935061143f8185602086016113d6565b61144881611409565b840191505092915050565b6000602082019050818103600083015261146d818461141a565b905092915050565b60006114808261135e565b9050919050565b61149081611475565b811461149b57600080fd5b50565b6000813590506114ad81611487565b92915050565b600080604083850312156114ca576114c9611245565b5b60006114d885828601611270565b92505060206114e98582860161149e565b9150509250929050565b6114fc8161124f565b82525050565b600060208201905061151760008301846114f3565b92915050565b600081519050919050565b600082825260208201905092915050565b6000819050602082019050919050565b6115528161137e565b82525050565b60006115648383611549565b60208301905092915050565b6000602082019050919050565b60006115888261151d565b6115928185611528565b935061159d83611539565b8060005b838110156115ce5781516115b58882611558565b97506115c083611570565b9250506001810190506115a1565b5085935050505092915050565b600060208201905081810360008301526115f5818461157d565b905092915050565b600080fd5b600080fd5b7f4e487b7100000000000000000000000000000000000000000000000000000000600052604160045260246000fd5b61163f82611409565b810181811067ffffffffffffffff8211171561165e5761165d611607565b5b80604052505050565b600061167161123b565b905061167d8282611636565b919050565b600067ffffffffffffffff82111561169d5761169c611607565b5b6116a682611409565b9050602081019050919050565b82818337600083830152505050565b60006116d56116d084611682565b611667565b9050828152602081018484840111156116f1576116f0611602565b5b6116fc8482856116b3565b509392505050565b600082601f830112611719576117186115fd565b5b81356117298482602086016116c2565b91505092915050565b600067ffffffffffffffff82111561174d5761174c611607565b5b61175682611409565b9050602081019050919050565b600061177661177184611732565b611667565b90508281526020810184848401111561179257611791611602565b5b61179d8482856116b3565b509392505050565b600082601f8301126117ba576117b96115fd565b5b81356117ca848260208601611763565b91505092915050565b6000806000606084860312156117ec576117eb611245565b5b600084013567ffffffffffffffff81111561180a5761180961124a565b5b61181686828701611704565b9350506020611827868287016112a6565b925050604084013567ffffffffffffffff8111156118485761184761124a565b5b611854868287016117a5565b9150509250925092565b6000806040838503121561187557611874611245565b5b600061188385828601611270565b925050602083013567ffffffffffffffff8111156118a4576118a361124a565b5b6118b0858286016117a5565b9150509250929050565b6000819050919050565b6118d56118d082611285565b6118ba565b82525050565b60006118e782846118c4565b60208201915081905092915050565b7f4e487b7100000000000000000000000000000000000000000000000000000000600052602260045260246000fd5b6000600282049050600182168061193d57607f821691505b6020821081036119505761194f6118f6565b5b50919050565b7f4e487b7100000000000000000000000000000000000000000000000000000000600052601160045260246000fd5b60006119908261124f565b915061199b8361124f565b9250828210156119ae576119ad611956565b5b828203905092915050565b7f4e487b7100000000000000000000000000000000000000000000000000000000600052603260045260246000fd5b60006119f38261124f565b915060008203611a0657611a05611956565b5b600182039050919050565b6000611a1c8261124f565b9150611a278361124f565b9250827fffffffffffffffffffffffffffffffffffffffffffffffffffffffffffffffff03821115611a5c57611a5b611956565b5b828201905092915050565b7f616c726561647920657869737421000000000000000000000000000000000000600082015250565b6000611a9d600e836113c5565b9150611aa882611a67565b602082019050919050565b60006020820190508181036000830152611acc81611a90565b9050919050565b6000611ade8261124f565b91507fffffffffffffffffffffffffffffffffffffffffffffffffffffffffffffffff8203611b1057611b0f611956565b5b600182019050919050565b611b2481611285565b82525050565b600081519050919050565b600082825260208201905092915050565b6000611b5182611b2a565b611b5b8185611b35565b9350611b6b8185602086016113d6565b611b7481611409565b840191505092915050565b611b8881611475565b82525050565b600060e082019050611ba3600083018a6114f3565b611bb060208301896114f3565b611bbd6040830188611b1b565b8181036060830152611bcf8187611b46565b90508181036080830152611be3818661141a565b9050611bf260a0830185611b7f565b611bff60c0830184611b7f565b9897505050505050505056fea264697066735822122010262d808c2d30512b3be741f13a771601c91981ddc63e95342a6820993e931864736f6c634300080e0033",
  "immutableReferences": {},
  "source": "// SPDX-License-Identifier: SimPL-2.0\r\npragma solidity ^0.8.12;\r\n\r\ncontract Release{\r\n    \r\n    string public contractName;\r\n    uint public imageCount = 0;            //&\r\n    mapping(uint => Image) private images;  //mapping\r\n    mapping(bytes32 => uint8) private released; //SHA3\r\n    \r\n    struct Image {\r\n        uint timestamp;         //\r\n        uint txCount;           //\r\n        bytes32 sha3;           //(keccak256)\r\n        bytes signature;        //\r\n        string ipfsHash;        //IPFS(cid)\r\n        address payable author; //\r\n        address payable owner;  //\r\n        address[] prevOwners;   //\r\n    }\r\n\r\n    event ImageCreated(\r\n        uint id,\r\n        uint timestamp,\r\n        bytes32 sha3,\r\n        bytes signature,\r\n        string ipfsHash,\r\n        address payable author,\r\n        address payable owner\r\n    );\r\n\r\n    constructor()  {\r\n      contractName = \"release\";\r\n    }\r\n    \r\n    function uploadImage(\r\n        string memory _ipfsHash,\r\n        bytes32       _imgSHA3, \r\n        bytes  memory _imgSign\r\n        ) public {\r\n        //\r\n        require(bytes(_ipfsHash).length > 0);\r\n        require(_imgSHA3.length > 0);\r\n        require(_imgSign.length > 0);\r\n        require(tx.origin != address(0x0));\r\n        //release\r\n        require(released[_imgSHA3] == 0, \"already exist!\");\r\n\r\n        uint time = block.timestamp;                     //\r\n        imageCount++;                                    //\r\n        //\r\n        images[imageCount] = Image(time, 0, _imgSHA3, _imgSign, _ipfsHash,\r\n            payable(tx.origin), payable(tx.origin), new address[](5) );\r\n        released[_imgSHA3] = 1;                          //sha3\r\n\r\n        emit ImageCreated( imageCount, time, _imgSHA3,_imgSign,_ipfsHash,\r\n            payable(tx.origin), payable(tx.origin));   //\r\n    }\r\n\r\n    //\r\n    function changeOwner(\r\n        uint _id,\r\n        address payable newOwner\r\n        ) public {\r\n        address oldOwner = images[_id].owner; \r\n        // //ID\r\n        // require(_id > 0 && _id <= imageCount);  \r\n        // //\r\n        // require(tx.origin ==  oldOwner);   \r\n        // //\r\n        // require((newOwner != oldOwner) && (newOwner != address(0x0)));\r\n      \r\n        bool FlagID = _id > 0 && _id <= imageCount;\r\n        bool FlagOldOwner = (tx.origin ==  oldOwner);\r\n        bool FlagNewOwner = (newOwner != oldOwner) && (newOwner != address(0x0));\r\n        require(FlagID && FlagOldOwner && FlagNewOwner);\r\n        \r\n        //\r\n        images[_id].owner = newOwner;\r\n        //\r\n        for (uint i=4; i>0 ; i--) {\r\n          images[_id].prevOwners[i] = images[_id].prevOwners[i-1]; \r\n        }\r\n        images[_id].prevOwners[0] = oldOwner;\r\n    }\r\n\r\n\r\n    //\r\n    function changeSign(uint imageID, bytes memory newSign) public{\r\n      //\r\n      require(imageID > 0 && imageID <= imageCount );\r\n      require(newSign.length > 0);\r\n      //\r\n      Image memory _image = images[imageID];\r\n      //\r\n      address _owner = _image.owner;\r\n      require(msg.sender == _owner);\r\n      //\r\n      images[imageID].signature = newSign;\r\n    } \r\n\r\n  function incTxCount(uint imageID) public {\r\n      require(imageID > 0 && imageID <= imageCount);\r\n      require(tx.origin == images[imageID].owner);\r\n      images[imageID].txCount = images[imageID].txCount+1;\r\n    }\r\n\r\n    function getTxCount(uint imageID) public view returns(uint){\r\n      require(imageID > 0 && imageID <= imageCount);\r\n      return images[imageID].txCount;\r\n    }\r\n\r\n    function getIpfsHash(uint imageID) public view returns(string memory){\r\n      require(imageID > 0 && imageID <= imageCount);\r\n      require(msg.sender == images[imageID].owner);\r\n      return images[imageID].ipfsHash;\r\n    }\r\n\r\n    function getImageOwner(uint imageID) public view returns(address) {\r\n      require(imageID > 0 && imageID <= imageCount );\r\n      return images[imageID].owner;\r\n    }\r\n\r\n    function getImageAuthor(uint imageID) public view returns(address) {\r\n      require(imageID > 0 && imageID <= imageCount );\r\n      return images[imageID].author;\r\n    }\r\n\r\n    function getPrevOwner(uint imageID) public view returns(address[] memory) {\r\n      require(imageID > 0 && imageID <= imageCount );\r\n      return images[imageID].prevOwners;\r\n    }\r\n\r\n    function isSHA3Match(uint imageID, bytes32 testSHA3) public view returns(bool) {\r\n      require(imageID > 0 && imageID <= imageCount );\r\n      bytes memory SHA3 = abi.encodePacked(images[imageID].sha3);\r\n      bytes memory tester = abi.encodePacked(testSHA3);\r\n      return keccak256(tester) == keccak256(SHA3); \r\n    }\r\n}",
  "sourcePath": "D:\\Fun\\proj12\\Dimage\\contracts\\Release.sol",
  "compiler": {
    "name": "solc",
    "version": "0.8.14+commit.80d49f37.Emscripten.clang"
  },
  "schemaVersion": "3.4.5",
  "updatedAt": "2022-05-28T06:40:02.795Z",
  "networkType": "ethereum",
  "devdoc": {
    "kind": "dev",
    "methods": {},
    "version": 1
  },
  "userdoc": {
    "kind": "user",
    "methods": {},
    "version": 1
  }
}