{
  "contractName": "Verification",
  "abi": [
    {
      "inputs": [],
      "stateMutability": "nonpayable",
      "type": "constructor"
    },
    {
      "inputs": [],
      "name": "contractName",
      "outputs": [
        {
          "internalType": "string",
          "name": "",
          "type": "string"
        }
      ],
      "stateMutability": "view",
      "type": "function"
    },
    {
      "inputs": [
        {
          "internalType": "bytes32",
          "name": "hash",
          "type": "bytes32"
        },
        {
          "internalType": "bytes",
          "name": "signature",
          "type": "bytes"
        }
      ],
      "name": "verify",
      "outputs": [
        {
          "internalType": "address",
          "name": "",
          "type": "address"
        }
      ],
      "stateMutability": "pure",
      "type": "function"
    }
  ],
  "bytecode": "0x608060405234801561001057600080fd5b506040518060400160405280600c81526020017f566572696669636174696f6e00000000000000000000000000000000000000008152506000908051906020019061005c929190610062565b50610165565b82805461006e90610134565b90600052602060002090601f01602090048101928261009057600085556100d7565b82601f106100a957805160ff19168380011785556100d7565b828001600101855582156100d7579182015b828111156100d65782518255916020019190600101906100bb565b5b5090506100e491906100e8565b5090565b5b808211156101015760008160009055506001016100e9565b5090565b7f4e487b7100000000000000000000000000000000000000000000000000000000600052602260045260246000fd5b6000600282049050600182168061014c57607f821691505b60208210810361015f5761015e610105565b5b50919050565b610648806101746000396000f3fe608060405234801561001057600080fd5b50600436106100365760003560e01c8063258ae5821461003b57806375d0c0dc1461006b575b600080fd5b6100556004803603810190610050919061037a565b610089565b6040516100629190610417565b60405180910390f35b61007361015c565b60405161008091906104ba565b60405180910390f35b60008060008060418551146100a45760009350505050610156565b6020850151925060408501519150606085015160001a9050601b8160ff1610156100d857601b816100d59190610518565b90505b601b8160ff16141580156100f05750601c8160ff1614155b156101015760009350505050610156565b60018682858560405160008152602001604052604051610124949392919061056d565b6020604051602081039080840390855afa158015610146573d6000803e3d6000fd5b5050506020604051035193505050505b92915050565b60008054610169906105e1565b80601f0160208091040260200160405190810160405280929190818152602001828054610195906105e1565b80156101e25780601f106101b7576101008083540402835291602001916101e2565b820191906000526020600020905b8154815290600101906020018083116101c557829003601f168201915b505050505081565b6000604051905090565b600080fd5b600080fd5b6000819050919050565b610211816101fe565b811461021c57600080fd5b50565b60008135905061022e81610208565b92915050565b600080fd5b600080fd5b6000601f19601f8301169050919050565b7f4e487b7100000000000000000000000000000000000000000000000000000000600052604160045260246000fd5b6102878261023e565b810181811067ffffffffffffffff821117156102a6576102a561024f565b5b80604052505050565b60006102b96101ea565b90506102c5828261027e565b919050565b600067ffffffffffffffff8211156102e5576102e461024f565b5b6102ee8261023e565b9050602081019050919050565b82818337600083830152505050565b600061031d610318846102ca565b6102af565b90508281526020810184848401111561033957610338610239565b5b6103448482856102fb565b509392505050565b600082601f83011261036157610360610234565b5b813561037184826020860161030a565b91505092915050565b60008060408385031215610391576103906101f4565b5b600061039f8582860161021f565b925050602083013567ffffffffffffffff8111156103c0576103bf6101f9565b5b6103cc8582860161034c565b9150509250929050565b600073ffffffffffffffffffffffffffffffffffffffff82169050919050565b6000610401826103d6565b9050919050565b610411816103f6565b82525050565b600060208201905061042c6000830184610408565b92915050565b600081519050919050565b600082825260208201905092915050565b60005b8381101561046c578082015181840152602081019050610451565b8381111561047b576000848401525b50505050565b600061048c82610432565b610496818561043d565b93506104a681856020860161044e565b6104af8161023e565b840191505092915050565b600060208201905081810360008301526104d48184610481565b905092915050565b600060ff82169050919050565b7f4e487b7100000000000000000000000000000000000000000000000000000000600052601160045260246000fd5b6000610523826104dc565b915061052e836104dc565b92508260ff03821115610544576105436104e9565b5b828201905092915050565b610558816101fe565b82525050565b610567816104dc565b82525050565b6000608082019050610582600083018761054f565b61058f602083018661055e565b61059c604083018561054f565b6105a9606083018461054f565b95945050505050565b7f4e487b7100000000000000000000000000000000000000000000000000000000600052602260045260246000fd5b600060028204905060018216806105f957607f821691505b60208210810361060c5761060b6105b2565b5b5091905056fea2646970667358221220c520be60ae48316f296b51241c495ffa8ddae5f54ebae1c560896dc9591bbc2564736f6c634300080d0033",
  "immutableReferences": {},
  "source": "// SPDX-License-Identifier: MIT\r\npragma solidity ^0.8.12;\r\n\r\ncontract Verification{\r\n    \r\n    string public contractName;\r\n    \r\n    constructor()  {\r\n        contractName = \"Verification\";\r\n    }\r\n    \r\n    //recover signer's address\r\n    function verify(bytes32 hash, bytes memory signature)public pure returns(address){\r\n        \r\n        //see https://github.com/protofire/zeppelin-solidity/blob/master/contracts/ECRecovery.sol\r\n        bytes32 r;\r\n        bytes32 s;\r\n        uint8 v;\r\n\r\n        //Check the signature length\r\n        if( signature.length != 65){\r\n            return (address(0x0));\r\n        }\r\n\r\n        // Divide the signature in r, s and v variables\r\n        assembly{\r\n            r := mload(add(signature, 0x20))\r\n            s := mload(add(signature, 0x40))\r\n            v := byte(0, mload(add(signature,0x60)))\r\n        }\r\n\r\n         // Version of signature should be 27 or 28, but 0 and 1 are also possible versions \r\n        if (v < 27){\r\n            v+=27;\r\n        }\r\n\r\n        // If the version is correct return the signer address\r\n        if(v != 27 && v != 28){\r\n            return (address(0x0));\r\n        }else{\r\n            return ecrecover(hash, v, r, s);\r\n        }\r\n\r\n    }\r\n}",
  "sourcePath": "D:\\Fun\\proj12\\Dimage\\contracts\\Verification.sol",
  "compiler": {
    "name": "solc",
    "version": "0.8.13+commit.abaa5c0e.Emscripten.clang"
  },
  "schemaVersion": "3.4.5",
  "updatedAt": "2022-04-25T15:47:52.828Z",
  "devdoc": {
    "kind": "dev",
    "methods": {},
    "version": 1
  },
  "userdoc": {
    "kind": "user",
    "methods": {},
    "version": 1
  }
}