{
  "contractName": "Verification",
  "abi": [
    {
      "inputs": [],
      "stateMutability": "nonpayable",
      "type": "constructor"
    },
    {
      "inputs": [],
      "name": "contractName",
      "outputs": [
        {
          "internalType": "string",
          "name": "",
          "type": "string"
        }
      ],
      "stateMutability": "view",
      "type": "function",
      "constant": true
    },
    {
      "inputs": [
        {
          "internalType": "bytes32",
          "name": "hash",
          "type": "bytes32"
        },
        {
          "internalType": "bytes",
          "name": "signature",
          "type": "bytes"
        }
      ],
      "name": "verify",
      "outputs": [
        {
          "internalType": "address",
          "name": "",
          "type": "address"
        }
      ],
      "stateMutability": "pure",
      "type": "function",
      "constant": true
    }
  ],
  "bytecode": "0x60806040523480156200001157600080fd5b506040518060400160405280600c81526020017f566572696669636174696f6e000000000000000000000000000000000000000081525060009081620000589190620002d9565b50620003c0565b600081519050919050565b7f4e487b7100000000000000000000000000000000000000000000000000000000600052604160045260246000fd5b7f4e487b7100000000000000000000000000000000000000000000000000000000600052602260045260246000fd5b60006002820490506001821680620000e157607f821691505b602082108103620000f757620000f662000099565b5b50919050565b60008190508160005260206000209050919050565b60006020601f8301049050919050565b600082821b905092915050565b600060088302620001617fffffffffffffffffffffffffffffffffffffffffffffffffffffffffffffffff8262000122565b6200016d868362000122565b95508019841693508086168417925050509392505050565b6000819050919050565b6000819050919050565b6000620001ba620001b4620001ae8462000185565b6200018f565b62000185565b9050919050565b6000819050919050565b620001d68362000199565b620001ee620001e582620001c1565b8484546200012f565b825550505050565b600090565b62000205620001f6565b62000212818484620001cb565b505050565b5b818110156200023a576200022e600082620001fb565b60018101905062000218565b5050565b601f82111562000289576200025381620000fd565b6200025e8462000112565b810160208510156200026e578190505b620002866200027d8562000112565b83018262000217565b50505b505050565b600082821c905092915050565b6000620002ae600019846008026200028e565b1980831691505092915050565b6000620002c983836200029b565b9150826002028217905092915050565b620002e4826200005f565b67ffffffffffffffff8111156200030057620002ff6200006a565b5b6200030c8254620000c8565b620003198282856200023e565b600060209050601f8311600181146200035157600084156200033c578287015190505b620003488582620002bb565b865550620003b8565b601f1984166200036186620000fd565b60005b828110156200038b5784890151825560018201915060208501945060208101905062000364565b86831015620003ab5784890151620003a7601f8916826200029b565b8355505b6001600288020188555050505b505050505050565b61063d80620003d06000396000f3fe608060405234801561001057600080fd5b50600436106100365760003560e01c8063258ae5821461003b57806375d0c0dc1461006b575b600080fd5b6100556004803603810190610050919061037a565b610089565b6040516100629190610417565b60405180910390f35b61007361015c565b60405161008091906104b1565b60405180910390f35b60008060008060418551146100a45760009350505050610156565b6020850151925060408501519150606085015160001a9050601b8160ff1610156100d857601b816100d5919061050f565b90505b601b8160ff16141580156100f05750601c8160ff1614155b156101015760009350505050610156565b600186828585604051600081526020016040526040516101249493929190610562565b6020604051602081039080840390855afa158015610146573d6000803e3d6000fd5b5050506020604051035193505050505b92915050565b60008054610169906105d6565b80601f0160208091040260200160405190810160405280929190818152602001828054610195906105d6565b80156101e25780601f106101b7576101008083540402835291602001916101e2565b820191906000526020600020905b8154815290600101906020018083116101c557829003601f168201915b505050505081565b6000604051905090565b600080fd5b600080fd5b6000819050919050565b610211816101fe565b811461021c57600080fd5b50565b60008135905061022e81610208565b92915050565b600080fd5b600080fd5b6000601f19601f8301169050919050565b7f4e487b7100000000000000000000000000000000000000000000000000000000600052604160045260246000fd5b6102878261023e565b810181811067ffffffffffffffff821117156102a6576102a561024f565b5b80604052505050565b60006102b96101ea565b90506102c5828261027e565b919050565b600067ffffffffffffffff8211156102e5576102e461024f565b5b6102ee8261023e565b9050602081019050919050565b82818337600083830152505050565b600061031d610318846102ca565b6102af565b90508281526020810184848401111561033957610338610239565b5b6103448482856102fb565b509392505050565b600082601f83011261036157610360610234565b5b813561037184826020860161030a565b91505092915050565b60008060408385031215610391576103906101f4565b5b600061039f8582860161021f565b925050602083013567ffffffffffffffff8111156103c0576103bf6101f9565b5b6103cc8582860161034c565b9150509250929050565b600073ffffffffffffffffffffffffffffffffffffffff82169050919050565b6000610401826103d6565b9050919050565b610411816103f6565b82525050565b600060208201905061042c6000830184610408565b92915050565b600081519050919050565b600082825260208201905092915050565b60005b8381101561046c578082015181840152602081019050610451565b60008484015250505050565b600061048382610432565b61048d818561043d565b935061049d81856020860161044e565b6104a68161023e565b840191505092915050565b600060208201905081810360008301526104cb8184610478565b905092915050565b600060ff82169050919050565b7f4e487b7100000000000000000000000000000000000000000000000000000000600052601160045260246000fd5b600061051a826104d3565b9150610525836104d3565b9250828201905060ff81111561053e5761053d6104e0565b5b92915050565b61054d816101fe565b82525050565b61055c816104d3565b82525050565b60006080820190506105776000830187610544565b6105846020830186610553565b6105916040830185610544565b61059e6060830184610544565b95945050505050565b7f4e487b7100000000000000000000000000000000000000000000000000000000600052602260045260246000fd5b600060028204905060018216806105ee57607f821691505b602082108103610601576106006105a7565b5b5091905056fea2646970667358221220188282fa47804b1fbe6dcd36443fba579a9d43b94ab2015f50b6f871f6abeded64736f6c63430008130033",
  "immutableReferences": {},
  "source": "// SPDX-License-Identifier: MIT\r\npragma solidity ^0.8.12;\r\n\r\ncontract Verification{\r\n    \r\n    string public contractName;\r\n    \r\n    constructor()  {\r\n        contractName = \"Verification\";\r\n    }\r\n    \r\n    //recover signer's address\r\n    function verify(bytes32 hash, bytes memory signature)public pure returns(address){\r\n        \r\n        //see https://github.com/protofire/zeppelin-solidity/blob/master/contracts/ECRecovery.sol\r\n        bytes32 r;\r\n        bytes32 s;\r\n        uint8 v;\r\n\r\n        //Check the signature length\r\n        if( signature.length != 65){\r\n            return (address(0x0));\r\n        }\r\n\r\n        // Divide the signature in r, s and v variables\r\n        assembly{\r\n            r := mload(add(signature, 0x20))\r\n            s := mload(add(signature, 0x40))\r\n            v := byte(0, mload(add(signature,0x60)))\r\n        }\r\n\r\n         // Version of signature should be 27 or 28, but 0 and 1 are also possible versions \r\n        if (v < 27){\r\n            v+=27;\r\n        }\r\n\r\n        // If the version is correct return the signer address\r\n        if(v != 27 && v != 28){\r\n            return (address(0x0));\r\n        }else{\r\n            return ecrecover(hash, v, r, s);\r\n        }\r\n\r\n    }\r\n}",
  "sourcePath": "D:\\Fun\\proj12\\Dimage\\contracts\\Verification.sol",
  "compiler": {
    "name": "solc",
    "version": "0.8.19+commit.7dd6d404.Emscripten.clang"
  },
  "schemaVersion": "3.4.5",
  "updatedAt": "2023-04-02T15:24:09.546Z",
  "networkType": "ethereum",
  "devdoc": {
    "kind": "dev",
    "methods": {},
    "version": 1
  },
  "userdoc": {
    "kind": "user",
    "methods": {},
    "version": 1
  }
}